:020000040800F2
:1000000000000120E1050008A5040008B104000873
:10001000B7040008BD040008C30400080000000085
:10002000000000000000000000000000C9040008FB
:10003000D504000800000000E1040008ED040008F9
:1000400029060008290600082906000829060008D4
:1000500029060008290600082906000829060008C4
:1000600029060008290600082906000829060008B4
:1000700029060008290600082906000829060008A4
:100080002906000829060008290600082906000894
:10009000F9040008290600082906000829060008B6
:1000A0002906000829060008290600082906000874
:1000B0002906000829060008290600082906000864
:1000C0002906000829060008290600082906000854
:1000D000290600080D050008290600082906000861
:1000E0002906000829060008290600082906000834
:1000F0002906000829060008290600082906000824
:100100002906000829060008290600082906000813
:100110002906000829060008290600082906000803
:1001200029060008290600082906000829060008F3
:1001300000000000000000000000000000000000BF
:1001400000000000000000000000000000000000AF
:10015000000000000000000000000000000000009F
:10016000000000000000000000000000000000008F
:10017000000000000000000000000000000000007F
:10018000000000000000000000000000000000006F
:10019000000000000000000000000000000000005F
:1001A000000000000000000000000000000000004F
:1001B000000000000000000000000000000000003F
:1001C000000000000000000000000000000000002F
:1001D000000000000000000000000000000000001F
:0401E0005FF8E0F1F3
:1001E40010B5054C237833B9044B13B10448AFF36D
:1001F40000800123237010BD0402002000000000D1
:10020400DC73000808B5034B1BB103490348AFF383
:10021400008008BD0000000008020020DC73000814
:1002240080B500AF4FF46141002000F0EDFB4FF4C6
:100234006141012000F0E8FB00BF80BD80B582B0C1
:1002440000AF00F04CF8786000F049F802467B6893
:10025400D31AB3F5FA7F05D300F041F87860022091
:1002640000F0FCFA002000F02DFC0346002B0AD01D
:10027400002000F045FC0346FB70FA78FB780B493C
:10028400002000F08BFC012000F01CFC0346002B36
:10029400DAD0012000F034FC0346BB70BA78BB7896
:1002A4000349012000F07AFCCEE700BFF473000894
:1002B4000474000880B500AF00F056FD00F016F895
:1002C40000F076F800BF80BD80B582B000AF7860E2
:1002D400786800F0ABFD00BF0837BD4680BD80B52F
:1002E40000AF00F099FD0346184680BD80B596B076
:1002F40000AF07F1300328220021184606F038FC2D
:1003040007F11C0300221A605A609A60DA601A61CD
:100314003B1D00221A605A609A60DA601A615A61C1
:1003240005233B634FF480337B630023BB630123CA
:10033400FB6301233B640223FB644FF480333B657E
:100344004FF4E0137B6507F13003184602F098F888
:100354000346002B01D000F06BF80F23FB6102234E
:100364003B6200237B624FF48063BB620023FB6229
:1003740007F11C030221184602F0E6FA0346002B9B
:1003840001D000F055F811237B604FF48073BB60FB
:100394000023BB613B1D184602F094FC0346002B6E
:1003A40001D000F045F800BF5837BD4680BD0000BD
:1003B40080B586B000AF07F1080300221A605A60C6
:1003C4009A60DA60184B9B69174A43F008039361FB
:1003D400154B9B6903F008037B607B68124B9B6998
:1003E400114A43F0040393610F4B9B6903F0040328
:1003F4003B603B6800224FF470410C4801F0B8F8B0
:100404004FF47043BB600123FB6000233B61022374
:100414007B6107F108031946044800F03BFF00BF65
:100424001837BD4680BD00BF00100240000C0140DB
:1004340080B400AF00BFBD4680BC704780B485B0B7
:1004440000AF154B9B69144A43F001039361124BAF
:100454009B6903F00103BB60BB680F4BDB690E4A69
:1004640043F08053D3610C4BDB6903F080537B6012
:100474007B680A4B5B68FB60FB6823F0E063FB600E
:10048400FB6843F00073FB60044AFB68536000BFE1
:100494001437BD4680BC7047001002400000014084
:1004A40080B400AF00BFBD4680BC704780B400AFCD
:1004B400FEE780B400AFFEE780B400AFFEE780B48F
:1004C40000AFFEE780B400AF00BFBD4680BC7047FC
:1004D40080B400AF00BFBD4680BC704780B400AF9D
:1004E40000BFBD4680BC704780B500AF00F082FC01
:1004F40000BF80BD80B500AF024801F062F900BFC3
:1005040080BD00BFCC13002080B500AF024802F0CC
:10051400FDFF00BF80BD00BF9405002080B584B0FE
:1005240000AF7860114B1B68002B02D10F4B104AAF
:100534001A600E4B1B68FB600C4B1A687B681344F3
:100544006A46934207D906F0E9FA02460C2313607F
:100554004FF0FF3306E0054B1A687B681344034AE7
:100564001360FB6818461037BD4680BD200200208A
:100574003018002080B400AF154B1B68144A43F0B8
:1005840001031360124B5A681149124B13404B601C
:100594000F4B1B680E4A23F0847323F480331360DB
:1005A4000B4B1B680A4A23F480231360084B5B68D7
:1005B400074A23F4FE035360054B4FF41F029A606D
:1005C400054B4FF000629A6000BFBD4680BC704787
:1005D400001002400000FFF800ED00E0002103E0FD
:1005E4000B4B5B58435004310A480B4B42189A4258
:1005F400F6D30A4A02E0002342F8043B084B9A422D
:10060400F9D3FFF7B7FF06F08FFA06F07BFA7047CD
:10061400DC74000800000020040200200402002012
:1006240030180020FEE780B487B000AFF860B960EE
:100634007A600123FB75FB6800221A60FB680022C4
:100644005A60FB687A689A60FB68BA68DA60FB7D76
:1006540018461C37BD4680BC704780B489B000AFD3
:10066400F860B9607A600123FB770023BB6127E05F
:10067400FB681B680133FA689268B3FBF2F102FB72
:1006840001F29B1A7B61FB685B687A699A4211D01C
:10069400FB68DB68002B09D0BB69BA681A44FB68A5
:1006A400D968FB681B680B4412781A70FB687A6976
:1006B4001A6002E00023FB7706E0BB690133BB61EB
:1006C400BB697A689A42D3D8FB7F18462437BD4663
:1006D40080BC704780B487B000AFF860B9607A60BE
:1006E4000123FB7500233B6126E0FB68DB68002BDC
:1006F40009D0FB68DA68FB685B681A443B69B9682F
:100704000B4412781A70FB685A68FB681B689A429B
:100714000CD0FB685B680133FA689268B3FBF2F1B2
:1007240002FB01F29A1AFB685A6002E00023FB758F
:1007340006E03B6901333B613B697A689A42D4D84D
:10074400FB7D18461C37BD4680BC704780B485B01D
:1007540000AF78607B689A687B681B681A447B6882
:100764005B68D31A7A689268B3FBF2F102FB01F278
:100774009B1AFB60FB6818461437BD4680BC704763
:1007840080B588B000AF07F10C0300221A605A60EC
:100794009A60DA601F4B9B691E4A43F00803936119
:1007A4001C4B9B6903F00803BB60BB68194B9B6936
:1007B400184A43F004039361164B9B6903F0040346
:1007C4007B607B6801233B6100237B610223BB6167
:1007D4000023FB6117E0104AFB69DB0013449B888C
:1007E400FB600D4AFB6952F8333007F10C021146E5
:1007F400184600F04FFDFB69DBB2184600F00EF816
:10080400FB690133FB61FB69032BE4DD00BF203787
:10081400BD4680BD001002400400002080B582B0B7
:1008240000AF0346FB71FB79032B11D8FB790A4A0D
:1008340052F83300FB79084ADB0013449988FB79AA
:10084400054ADB001344DB791A4600F091FE00E010
:1008540000BF0837BD4680BD0400002080B582B0CB
:1008640000AF0346FB71FB79032B0CD8FB79084AD4
:1008740052F83300FB79064ADB0013449B8819467F
:1008840000F08EFE00E000BF0837BD4680BD00BF0B
:100894000400002080B582B000AF0123FB71114B2E
:1008A4005B6A03F08063002B12D0012000F04EF845
:1008B400034601331946012000F058F84FF4FA704A
:1008C400FFF702FD012000F041F80246064B1A60D2
:1008D4000021012000F04AF8FB7918460837BD468C
:1008E40080BD00BF001002402402002080B582B009
:1008F40000AF0123FB71124B9B69114A43F01003B3
:1009040093610F4B9B6903F010033B603B680D4BF5
:100914000D4A1A600B4B4FF0FF325A60094B4FF4EB
:1009240080729A60074802F06DFB0346002B01D0E9
:10093400FFF77EFDFB7918460837BD4680BD00BF32
:1009440000100240800500200028004080B582B0DD
:1009540000AF78607968044802F082FC03461846C8
:100964000837BD4680BD00BF8005002080B582B039
:1009740000AF786039603A687968034802F056FC41
:1009840000BF0837BD4680BD8005002080B584B017
:1009940000AF78607B681B680B4A934210D101F06A
:1009A40063FD0A4BDB69094A43F00063D361074BDB
:1009B400DB6903F00063FB60FB68054B01221A60EE
:1009C40000BF1037BD4680BD002800400010024023
:1009D4003C04424280B483B000AF00237B6007E054
:1009E400084A7B68134400221A707B6801337B60D9
:1009F4007B68012BF4DD012318460C37BD4680BC0F
:100A0400704700BF2802002080B584B000AF0346C1
:100A14003960FB710023FB73FB79002B02D0012B9F
:100A240007D03EE0FB79214A0121D1540123FB7315
:100A340037E01F4B1F4A1A601D4A3B6853601C4B2A
:100A440000229A601A4B0022DA60194B00221A61C4
:100A5400174B0C225A61164B00229A61144B002248
:100A6400DA614FF4807214491448FFF7DCFD104832
:100A740002F012FC0346002B02D00023FB730FE0AC
:100A84000123FB73FB79094A0121D15401220C494A
:100A9400074802F0E7FC0346002B01D00023FB7358
:100AA40000BFFB7B18461037BD4680BD28020020DE
:100AB40094050020003801404C0200203C02002034
:100AC4004D03002080B584B000AF0346FB710023C2
:100AD400FB60FB79002B02D0012B04D008E005F069
:100AE40009FBF86004E00548FFF730FEF86000BF3A
:100AF400FB6818461037BD4680BD00BF3C0200208D
:100B040080B584B000AF0346FB710023FB73FB790F
:100B1400002B02D0012B05D00CE005F007FB0346A7
:100B2400FB7307E007F10F03012219460448FFF79E
:100B3400D1FD00BFFB7B18461037BD4680BD00BF0A
:100B44003C02002080B586B000AF0346B9607A60ED
:100B5400FB7300237B61FB7B002B02D0012B06D0AF
:100B640014E07968B86805F033FB78610EE07B68BF
:100B74009AB26423B968084802F0DBFB0346FB74AD
:100B8400FB7C002B01D17B687B6100BF7B6918462D
:100B94001837BD4680BD00BF940500200EB480B553
:100BA400C7B000AF0246FB1D1A7007F5947207F137
:100BB4000C031A6007F10C0307F110001B68D7F847
:100BC40024214FF4807106F007F8C7F81401D7F810
:100BD400142107F11001FB1D1B781846FFF7B2FF23
:100BE400C7F81001D7F81031184607F58E77BD46BF
:100BF400BDE8804003B0704780B483B000AF786034
:100C040000BF0C37BD4680BC7047000080B582B081
:100C140000AF78607B681B68084A934209D10122BF
:100C240007490848FFF719FD01220549064802F063
:100C340019FC00BF0837BD4680BD00BF0038014025
:100C44004D0300203C0200209405002080B588B0AC
:100C540000AF786007F1100300221A605A609A60AE
:100C6400DA607B681B68204A934239D11F4B9B6929
:100C74001E4A43F4804393611C4B9B6903F48043F5
:100C8400FB60FB68194B9B69184A43F004039361AA
:100C9400164B9B6903F00403BB60BB684FF40073FD
:100CA4003B6102237B610323FB6107F110031946B7
:100CB4000F4800F0EFFA4FF480633B6100237B613F
:100CC4000023BB6107F110031946094800F0E2FA5A
:100CD40000220021252000F09EF9252000F0B7F91C
:100CE40000BF2037BD4680BD0038014000100240DF
:100CF4000008014080B586B000AF0123FB753B1DA1
:100D040000221A605A609A60DA604FF480537B6064
:100D14001123BB600023FB6002233B613B1D19468A
:100D2400084800F0B7FA0023BB603B1D194605488C
:100D340000F0B0FA05F0AEF9FB7D18461837BD4651
:100D440080BD00BF0008014080B500AFFFF7B2FAD4
:100D5400FFF7CCFDFFF79EFDFFF712FDFFF7CAFF7B
:100D6400FFF738FE00BF80BD80B500AF084B1B689D
:100D7400074A43F010031360032000F041F90020F8
:100D840000F008F8FFF75AFB0023184680BD00BFA7
:100D94000020024080B582B000AF7860124B1A6820
:100DA400124B1B7819464FF47A73B3FBF1F3B2FB81
:100DB400F3F3184600F059F90346002B01D0012340
:100DC4000EE07B680F2B0AD8002279684FF0FF30C1
:100DD40000F021F9064A7B681360002300E0012338
:100DE40018460837BD4680BD0000002028000020BA
:100DF4002400002080B400AF054B1B781A46054B35
:100E04001B681344034A136000BFBD4680BC70478F
:100E140028000020D405002080B400AF024B1B68DA
:100E24001846BD4680BC7047D405002080B584B008
:100E340000AF7860FFF7F0FFB8607B68FB60FB6889
:100E4400B3F1FF3F05D0094B1B781A46FB681344E6
:100E5400FB6000BFFFF7E0FF0246BB68D31AFA68E5
:100E64009A42F7D800BF1037BD4680BD2800002045
:100E740080B485B000AF78607B6803F00703FB6043
:100E84000C4BDB68BB60BA684FF6FF031340BB60D2
:100E9400FB681A02BB68134343F0BF6343F4003397
:100EA400BB60044ABB68D36000BF1437BD4680BC36
:100EB400704700BF00ED00E080B400AF044BDB6876
:100EC4001B0A03F007031846BD4680BC704700BFE9
:100ED40000ED00E080B483B000AF0346FB71FB7902
:100EE40003F01F02064997F907305B09012000FA55
:100EF40002F241F8232000BF0C37BD4680BC704786
:100F040000E100E080B483B000AF03463960FB71B8
:100F140097F90730002B0BDA3B68DAB20C49FB79FE
:100F240003F00F03043B1201D2B20B441A7609E01A
:100F34003B68DAB2074997F907301201D2B20B4481
:100F440083F8002300BF0C37BD4680BC704700BF48
:100F540000ED00E000E100E080B489B000AFF8608B
:100F6400B9607A60FB6803F00703FB61FB69C3F1B6
:100F74000703042B28BF0423BB61FB690433062B3E
:100F840002D9FB69033B00E000237B614FF0FF3291
:100F9400BB6902FA03F3DA43BB681A407B699A40DF
:100FA4004FF0FF317B6901FA03F3D9437B680B40AF
:100FB400134318462437BD4680BC704780B582B0C1
:100FC40000AF78607B68013BB3F1807F01D30123DC
:100FD4000FE00A4A7B68013B53600F214FF0FF305A
:100FE400FFF790FF054B00229A60044B07221A601A
:100FF400002318460837BD4680BD00BF10E000E05E
:1010040080B582B000AF78607868FFF731FF00BF29
:101014000837BD4680BD80B586B000AF0346B960D1
:101024007A60FB7300237B61FFF746FF78617A687F
:10103400B9687869FFF790FF024697F90F301146B7
:101044001846FFF75FFF00BF1837BD4680BD80B567
:1010540082B000AF0346FB7197F907301846FFF7DB
:1010640039FF00BF0837BD4680BD80B582B000AFF0
:1010740078607868FFF7A2FF034618460837BD4634
:1010840080BD000080B584B000AF78600023FB739E
:101094007B6893F82130022B05D07B6804229A6385
:1010A4000123FB73D6E07B681B681A687B681B68A6
:1010B40022F00E021A607B681B681A687B681B6842
:1010C40022F001021A607B681B681A46644B9A423C
:1010D40058D97B681B68634A93424FD07B681B686E
:1010E400614A934248D07B681B68604A934240D06F
:1010F4007B681B685E4A934238D07B681B685D4AF4
:10110400934230D07B681B685B4A934228D07B684B
:101114001B68534A934220D07B681B68574A93420A
:1011240019D07B681B68564A934212D07B681B68AF
:10113400544A93420AD07B681B68534A934202D1B3
:101144004FF480531BE04FF4803318E04FF4807366
:1011540015E0102313E0012311E04FF080730EE03B
:101164004FF480130BE04FF4803308E04FF48053C6
:1011740005E04FF4807302E0102300E00123434AAA
:10118400536057E07B681B68364A93424FD07B68B4
:101194001B68354A934248D07B681B68334A9342A4
:1011A40040D07B681B68324A934238D07B681B6806
:1011B400304A934230D07B681B682F4A934228D030
:1011C4007B681B68264A934220D07B681B682B4AA5
:1011D400934219D07B681B68294A934212D07B68DA
:1011E4001B68284A93420AD07B681B68264A9342AC
:1011F40002D14FF480531BE04FF4803318E04FF4D6
:10120400807315E0102313E0012311E04FF0807385
:101214000EE04FF480130BE04FF4803308E04FF4FA
:10122400805305E04FF4807302E0102300E00123B3
:10123400174A53607B68012283F821207B680022CF
:1012440083F820207B685B6B002B03D07B685B6B8F
:1012540078689847FB7B18461037BD4680BD00BFB1
:1012640080000240080002401C000240300002409E
:1012740044000240580002406C000240080402404E
:101284001C040240300402404404024000040240B2
:101294000000024080B48BB000AF78603960002356
:1012A400FB610023BB6100237B6100233B620023BD
:1012B4003B6100237B6233E101227B6A02FA03F380
:1012C400FB613B681B68FA691340BB61BA69FB693F
:1012D4009A4240F022813B685B68122B34D0122B77
:1012E4000DD8022B2BD0022B04D8002B31D0012B8C
:1012F4001CD048E0032B43D0112B1BD043E08D4A74
:10130400934226D08B4A934206D88B4A934220D0EC
:101314008A4A93421DD036E0894A934219D0894AB9
:10132400934216D0884A934213D02CE03B68DB6882
:101334003B6228E03B68DB6804333B6223E03B68A4
:10134400DB6808333B621EE03B68DB680C333B62BE
:1013540019E03B689B68002B02D104233B6212E036
:101364003B689B68012B05D108233B627B68FA69C3
:101374001A6108E008233B627B68FA695A6102E05B
:1013840000233B6200BFBB69FF2B01D87B6801E0EF
:101394007B680433FB60BB69FF2B02D87B6A9B002C
:1013A40002E07B6A083B9B003B61FB681A680F21E3
:1013B4003B6901FA03F3DB431A40396A3B6901FADA
:1013C40003F31A43FB681A603B685B6803F08053BD
:1013D400002B00F0A2805D4B9B695C4A43F0010343
:1013E40093615A4B9B6903F00103BB60BB68584A85
:1013F4007B6A9B08023352F823307B617B6A03F0DB
:1014040003039B000F2202FA03F3DB437A691340C0
:101414007B617B684F4A93421FD07B684E4A93425C
:1014240019D07B684D4A934213D07B684C4A93424F
:101434000DD07B684B4A934207D07B684A4A93425B
:1014440001D105230AE0062308E0042306E0032370
:1014540004E0022302E0012300E000237A6A02F0A0
:101464000302920093407A6913437B6138497B6A93
:101474009B0802337A6941F823203B685B6803F4D4
:101484008033002B06D0394B1A683849BB691343A3
:101494000B6006E0354B1A68BB69DB4333491340E4
:1014A4000B603B685B6803F40033002B06D02F4BC2
:1014B4005A682E49BB6913434B6006E02B4B5A68AC
:1014C400BB69DB43294913404B603B685B6803F409
:1014D4008013002B06D0254B9A682449BB6913431B
:1014E4008B6006E0214B9A68BB69DB431F491340BC
:1014F4008B603B685B6803F40013002B06D01B4B26
:10150400DA681A49BB691343CB6006E0174BDA6803
:10151400BB69DB4315491340CB607B6A01337B62B3
:101524007B6A0F2B7FF6C8AE00BF2C37BD4680BC4C
:10153400704700BF000021100000111000001210BD
:101544000000311000003210000022100010024090
:101554000000014000080140000C0140001001405F
:101564000014014000180140001C01400004014027
:1015740080B483B000AF78600B467B8013467B70E9
:101584007B78002B03D07A887B681A6103E07B8820
:101594001A047B681A6100BF0C37BD4680BC7047D3
:1015A40080B483B000AF78600B467B807B68DA68D8
:1015B4007B885A407B68DA6000BF0C37BD4680BC2C
:1015C4007047F0B58BB006AF78600023FB607B6892
:1015D400002B01D10123CAE07B6893F82934DBB2E4
:1015E400002B06D17B68002283F82824786804F055
:1015F400EBFF7B68032283F829247B681B68184669
:1016040002F034FB7B681B683B607E686D4606F124
:1016140010040FCC0FC523682B60331D0ECB386824
:1016240002F0FAFA7B681B680021184602F03AFBC4
:101634000023FB6037E07A68FB685B0113442933BD
:1016440001221A70FB68D9B27A68FB685B01134403
:1016540028330A461A70FB6899B27A68FB685B0102
:10166400134434330A461A807A68FB685B011344D6
:101674002B3300221A707A68FB685B0113443833F9
:1016840000221A607A68FB685B0113443C33002231
:101694001A607A68FB6802335B01134400221A6003
:1016A400FB680133FB60FB680E2BC4D90023FB608D
:1016B4003CE07A68FB685B01134403F229230022AF
:1016C4001A70FB68D9B27A68FB685B01134403F5AE
:1016D4000A730A461A70FB6899B27A68FB685B0160
:1016E400134434330A461A807A68FB685B01134456
:1016F40003F22B2300221A707A68FB685B011344FF
:1017040003F50E7300221A607A68FB685B011344C8
:1017140003F50F7300221A607A68FB6812335B01C9
:10172400134400221A60FB680133FB60FB680E2B34
:10173400BFD97B681B683B607E686D4606F1100468
:101744000FCC0FC523682B60331D0ECB386802F015
:10175400B5FA7B68002283F824207B68012283F891
:1017640029247B681B68184603F09FFA0023184657
:101774001437BD46F0BD80B582B000AF78607B6899
:1017840093F82834012B01D1022316E07B6801224F
:1017940083F828240121786805F07DF97B681B68AB
:1017A400184603F078FA7B681B68184602F044FA7E
:1017B4007B68002283F82824002318460837BD4696
:1017C40080BD80B582B000AF78607B681B68184626
:1017D40003F075FA034603F40043B3F5004F02D156
:1017E400786800F0D9FA7B681B68184603F067FA3A
:1017F400034603F48063B3F5806F12D17B681B68E2
:10180400B3F844309AB27B681B6822F4806292B2C7
:10181400A3F84420786804F04CFF0021786800F0B5
:10182400D2F87B681B68184603F049FA034603F4B0
:101834008043B3F5804F0BD17B681B68B3F8443009
:101844009AB27B681B6822F4804292B2A3F84420C7
:101854007B681B68184603F032FA034603F400530E
:10186400B3F5005F0BD17B681B68B3F844309AB2C0
:101874007B681B6822F4005292B2A3F844207B6870
:101884001B68184603F01BFA034603F48053B3F5B0
:10189400805F26D17B681B68B3F840309AB27B68BE
:1018A4001B6822F0040292B2A3F840207B681B68F4
:1018B400B3F840309AB27B681B6822F0080292B2F7
:1018C400A3F84020786804F02DFF7B681B68B3F808
:1018D40044309AB27B681B6822F4805292B2A3F817
:1018E40044207B681B68184603F0E9F9034603F4B7
:1018F4000063B3F5006F31D17B681B68B3F84030E7
:101904009AB27B681B6842F0080292B2A3F84020A6
:101914007B681B68B3F844309AB27B681B6822F476
:10192400006292B2A3F844207B681B68B3F840308D
:101934009AB27B681B6842F0040292B2A3F840207A
:101944007B681B68184603F0BAF9034603F4805316
:10195400B3F5805F02D0786804F0CAFE7B681B6828
:10196400184603F0ACF9034603F40073B3F5007FA3
:101974000ED17B681B68B3F844309AB27B681B684D
:1019840022F4007292B2A3F84420786804F083FE33
:101994007B681B68184603F092F9034603F48073CE
:1019A400B3F5807F0BD17B681B68B3F844309AB2DF
:1019B4007B681B6822F4807292B2A3F8442000BFB3
:1019C4000837BD4680BD80B582B000AF78600B4655
:1019D400FB707B6893F82834012B01D1022313E0B8
:1019E4007B68012283F828247B68FA7883F8242012
:1019F4007B681B68FA781146184603F039F97B684E
:101A0400002283F82824002318460837BD4680BDE9
:101A140080B584B000AF7860084611461A46034684
:101A2400FB700B463B801346BB700023FB72002304
:101A3400FB6097F90330002B08DAFB7803F07F038F
:101A44005B0128337A681344FB6008E0FB7803F0F9
:101A54007F035B0103F50A737A681344FB60FB7828
:101A640003F07F03DAB2FB681A7097F90330DBB234
:101A7400DB09DBB21A46FB685A703A88FB681A61C4
:101A8400FB68BA78DA707B6893F82834012B01D1AB
:101A940002230EE07B68012283F828247B681B68FC
:101AA400F968184602F02EF97B68002283F828248E
:101AB400FB7A18461037BD4680BD80B584B000AFB0
:101AC40078600B46FB700023FB6097F90330002B12
:101AD40008DAFB7803F07F035B0128337A68134448
:101AE400FB6008E0FB7803F07F035B0103F50A73F6
:101AF4007A681344FB60FB7803F07F03DAB2FB6877
:101B04001A7097F90330DBB2DB09DBB21A46FB68C3
:101B14005A707B6893F82834012B01D102230EE01C
:101B24007B68012283F828247B681B68F9681846BF
:101B340002F0AAFB7B68002283F8282400231846BD
:101B44001037BD4680BD80B586B000AFF8607A60BE
:101B54003B600B46FB7200237B61FB7A03F07F033F
:101B64005B0103F50A73FA6813447B617B697A6845
:101B74005A617B693A689A617B690022DA617B6900
:101B840000225A70FB7A03F07F03DAB27B691A7081
:101B9400FB7A03F07F03002B06D1FB681B6879698D
:101BA400184602F0F9FC05E0FB681B6879691846E1
:101BB40002F0F2FC002318461837BD4680BD80B4FD
:101BC40083B000AF78600B46FB70FB7803F00F0323
:101BD4007A6812335B01134404331B689BB21846C2
:101BE4000C37BD4680BC704780B586B000AFF86046
:101BF4007A603B600B46FB7200237B61FB7A03F047
:101C04007F035B012833FA6813447B617B697A683C
:101C14005A617B693A689A617B690022DA617B695F
:101C240001225A70FB7A03F07F03DAB27B691A70DF
:101C3400FB7A03F07F03002B06D1FB681B687969EC
:101C4400184602F0A9FC05E0FB681B687969184690
:101C540002F0A2FC002318461837BD4680BD80B5AB
:101C640084B000AF78600B46FB700023FB6097F9EB
:101C74000330002B08DAFB7803F07F035B01283381
:101C84007A681344FB6006E0FB785B0103F50A7392
:101C94007A681344FB60FB6801229A70FB7803F0B6
:101CA4007F03DAB2FB681A7097F90330DBB2DB0901
:101CB400DBB21A46FB685A707B6893F82834012B10
:101CC40001D102231CE07B68012283F828247B686D
:101CD4001B68F968184602F0E1FEFB7803F07F0305
:101CE400002B08D17B681A687B6803F22C431946E1
:101CF400104602F0F5FF7B68002283F828240023B5
:101D040018461037BD4680BD80B584B000AF7860FA
:101D14000B46FB700023FB6097F90330002B08DAB5
:101D2400FB7803F07F035B0128337A681344FB607C
:101D340006E0FB785B0103F50A737A681344FB60E1
:101D4400FB6800229A70FB7803F07F03DAB2FB6829
:101D54001A7097F90330DBB2DB09DBB21A46FB6871
:101D64005A707B6893F82834012B01D102230EE0CA
:101D74007B68012283F828247B681B68F96818466D
:101D840002F0ECFE7B68002283F828240023184626
:101D94001037BD4680BD000090B589B000AF7860B3
:101DA4000023FB6100237B8300237B760023FB81DC
:101DB4000023BB8108E3FB899BB2DBB203F00F0372
:101DC4007B767B7E002B40F02A81FB899BB203F05B
:101DD4001003002B4DD17B681B681B889BB27A686B
:101DE400126823F4E14323F070039BB213807B68F1
:101DF4002833FB617B681B68B3F850309BB21A46EA
:101E0400FB691B78DB00134402335B007A681268B9
:101E1400134403F580631B689BB2C3F30902FB6997
:101E2400DA61FB695A69FB69DB691A44FB695A6127
:101E34000021786804F018FC7B6893F82430DBB246
:101E4400002B00F0C182FB699B69002B40F0BC822F
:101E54007B6893F82430DBB263F07F03DAB27B68EB
:101E64001B6892B2A3F84C207B68002283F82420DC
:101E7400AAE27B6803F50A73FB617B681B681B8815
:101E84009BB2BB81BB899BB203F40063002B31D0AE
:101E94007B681B68B3F850309BB21A46FB691B7809
:101EA400DB00134406335B007A681268134403F5BD
:101EB40080631B689BB2C3F30902FB69DA617B6828
:101EC40018687B6803F22C41FB699A88FB69DB691B
:101ED4009BB202F056FF7B681B681B8899B27B6833
:101EE4001A6840F68F730B409BB21380786804F035
:101EF40091FB69E2BB899BB21BB2002B80F2648226
:101F04007B681B681B8899B27B681A6840F68F73DC
:101F14000B409BB213807B681B68B3F850309BB2B4
:101F24001A46FB691B78DB00134406335B007A68AE
:101F34001268134403F580631B689BB2C3F3090260
:101F4400FB69DA61FB69DB69002B11D07B681868D7
:101F5400FB695969FB699A88FB69DB699BB202F0EA
:101F640010FFFB695A69FB69DB691A44FB695A6112
:101F74000021786804F060FB7B681B68B3F850307C
:101F84009BB206335B007A681268134403F58063DE
:101F94003B61FB691B693E2B18D9FB691B695B0913
:101FA400FB82FB691B6903F01F03002B02D1FB8A30
:101FB400013BFB82FB8A9B029BB26FEA43436FEABD
:101FC40053439BB21A463B691A6012E0FB691B69D2
:101FD4005B08FB82FB691B6903F00103002B02D041
:101FE400FB8A0133FB82FB8A9B029BB21A463B6944
:101FF4001A607B681B681B889BB223F4804323F020
:1020040070039CB284F480539CB284F400539CB259
:102014007B681A68984B23439BB21380D4E17B6896
:102024001B681A467B7E9B0013441B889BB2BB81B2
:10203400BB899BB21BB2002B80F2D0807B681B68EB
:102044001A467B7E9B0013441B8899B27B681B68ED
:102054001A467B7E9B001A4440F68F730B409BB25A
:1020640013807B7E5B0103F50A737A681344FB617A
:10207400FB699B7A002B22D17B681B68B3F8503034
:102084009BB21A46FB691B78DB00134406335B00E2
:102094007A681268134403F580631B689BB2C3F328
:1020A40009037B837B8B002B73D07B681868FB69E7
:1020B4005969FB699A887B8B02F063FE69E07B684F
:1020C4001B681A46FB691B789B0013441B889BB250
:1020D40003F48043002B22D07B681B68B3F8503094
:1020E4009BB21A46FB691B78DB00134402335B0086
:1020F4007A681268134403F580631B689BB2C3F3C8
:1021040009037B837B8B002B2BD07B681868FB69CE
:102114005969FB69DA887B8B02F033FE21E07B6826
:102124001B68B3F850309BB21A46FB691B78DB007E
:10213400134406335B007A681268134403F5806322
:102144001B689BB2C3F309037B837B8B002B08D0F2
:102154007B681868FB695969FB691A897B8B02F0F3
:1021640010FE7B681B681A46FB691B789B001344AE
:102174001B889AB240F60F73134099B27B681B68B0
:102184001A46FB691B789B001A443C4B0B439BB2D9
:102194001380FB69DA697B8B1A44FB69DA61FB699A
:1021A4005A697B8B1A44FB695A61FB699B69002B52
:1021B40004D07A8BFB691B699A4206D2FB691B78AF
:1021C4001946786804F038FA08E0FB691978FB6965
:1021D4005A69FB699B697868FFF7B5FCBB899BB2B8
:1021E40003F08003002B00F0EF807B7E5B0128333B
:1021F4007A681344FB617B681B681A467B7E9B00EC
:1022040013441B889BB27A68126811467A7E920046
:102214000A4423F4E14323F070039BB21380FB6967
:102224009B7A002B2CD17B681B68B3F850309BB28F
:102234001A46FB691B78DB00134402335B007A689F
:102244001268134403F580631B689BB2C3F309024D
:10225400FB69DA61FB69DB69002B00F083807B6832
:102264001868FB695969FB699A88FB69DB699BB249
:1022740002F041FD76E000BF8080FFFFC080FFFFD9
:102284007B681B681A46FB691B789B0013441B88F8
:102294009BB203F04003002B26D07B681B68B3F885
:1022A40050309BB21A46FB691B78DB00134402339F
:1022B4005B007A681268134403F580631B689BB261
:1022C400C3F30902FB69DA61FB69DB69002B31D0D6
:1022D4007B681868FB695969FB69DA88FB69DB6903
:1022E4009BB202F008FD25E07B681B68B3F8503010
:1022F4009BB21A46FB691B78DB00134406335B0070
:102304007A681268134403F580631B689BB2C3F3B5
:102314000902FB69DA61FB69DB69002B0AD07B687F
:102324001868FB695969FB691A89FB69DB699BB207
:1023340002F0E1FC7B681B681A46FB691B789B0072
:1023440013441B889AB240F60F73134099B27B680A
:102354001B681A46FB691B789B001A44224B0B43EB
:102364009BB213807B681B68B3F850309BB21A464B
:10237400FB691B78DB00134402335B007A68126844
:10238400134403F580631B689BB2C3F30902FB6922
:10239400DA61FB695A69FB69DB691A44FB695A61B2
:1023A400FB699B69002B06D1FB691B781946786889
:1023B40004F05AF908E0FB691978FB695A69FB696A
:1023C4009B697868FFF710FC7B681B68B3F844309E
:1023D4009BB21A46FA811BB2002BFFF6ECAC002329
:1023E40018462437BD4690BD80C0FFFF80B487B037
:1023F40000AFF8607B600B467B8113463B81002372
:102404007B617B8903F08003002B08D07B8903F078
:102414007F035B012833FA6813447B6106E07B8900
:102424005B0103F50A73FA6813447B613B89002B53
:1024340007D17B6900229A727B689AB27B699A8081
:102444000BE07B6901229A727B689AB27B69DA801D
:102454007B681B0C9AB27B691A81002318461C37CF
:10246400BD4680BC7047000080B400AF034B01221E
:102474001A6000BFBD4680BC704700BF20000E42FA
:1024840080B586B000AF786000233B617B681B6831
:1024940003F00103002B00F08780924B5B6803F08C
:1024A4000C03042B0CD08F4B5B6803F00C03082B3C
:1024B40012D18C4B5B6803F48033B3F5803F0BD1AE
:1024C400884B1B6803F40033002B6CD07B685B687B
:1024D400002B68D101232DE27B685B68B3F5803F54
:1024E40006D1804B1B687F4A43F4803313602EE08F
:1024F4007B685B68002B0CD17A4B1B68794A23F408
:1025040080331360774B1B68764A23F4802313606F
:102514001DE07B685B68B3F5A02F0CD1714B1B6881
:10252400704A43F4802313606E4B1B686D4A43F476
:10253400803313600BE06B4B1B686A4A23F48033CF
:102544001360684B1B68674A23F4802313607B681D
:102554005B68002B13D0FEF75FFC386108E0FEF7E0
:102564005BFC02463B69D31A642B01D90323E1E1E6
:102574005C4B1B6803F40033002BF0D014E0FEF72F
:102584004BFC386108E0FEF747FC02463B69D31A6E
:10259400642B01D90323CDE1524B1B6803F40033B0
:1025A400002BF0D100E000BF7B681B6803F002033E
:1025B400002B63D04B4B5B6803F00C03002B0BD058
:1025C400484B5B6803F00C03082B1CD1454B5B683C
:1025D40003F48033002B16D1424B1B6803F0020333
:1025E400002B05D07B681B69012B01D00123A1E1DD
:1025F4003C4B1B6823F0F8027B685B69DB003949BC
:1026040013430B603AE07B681B69002B20D0364BE8
:1026140001221A60FEF700FC386108E0FEF7FCFBBB
:1026240002463B69D31A022B01D9032382E12D4BC5
:102634001B6803F00203002BF0D02A4B1B6823F025
:10264400F8027B685B69DB00264913430B6015E0E5
:10265400254B00221A60FEF7DFFB386108E0FEF725
:10266400DBFB02463B69D31A022B01D9032361E148
:102674001C4B1B6803F00203002BF0D17B681B6822
:1026840003F00803002B39D07B689B69002B19D019
:10269400164B01221A60FEF7BFFB386108E0FEF713
:1026A400BBFB02463B69D31A022B01D9032341E148
:1026B4000C4B5B6A03F00203002BF0D0012000F006
:1026C400E3FA1BE0094B00221A60FEF7A5FB386110
:1026D4000EE0FEF7A1FB02463B69D31A022B07D991
:1026E400032327E1001002400000424280044242DA
:1026F400924B5B6A03F00203002BEAD17B681B68F0
:1027040003F00403002B00F0A6800023FB758B4B21
:10271400DB6903F08053002B0DD1884BDB69874ABA
:1027240043F08053D361854BDB6903F08053FB6036
:10273400FB680123FB75824B1B6803F48073002B39
:1027440018D17F4B1B687E4A43F480731360FEF7F5
:1027540063FB386108E0FEF75FFB02463B69D31A6E
:10276400642B01D90323E5E0754B1B6803F48073E4
:10277400002BF0D07B68DB68012B06D16F4B1B6A02
:102784006E4A43F0010313622DE07B68DB68002B83
:102794000CD16A4B1B6A694A23F001031362674B2D
:1027A4001B6A664A23F0040313621CE07B68DB683F
:1027B400052B0CD1614B1B6A604A43F0040313627E
:1027C4005E4B1B6A5D4A43F0010313620BE05B4BF3
:1027D4001B6A5A4A23F001031362584B1B6A574A77
:1027E40023F0040313627B68DB68002B15D0FEF72B
:1027F40013FB38610AE0FEF70FFB02463B69D31A6C
:1028040041F28832934201D9032393E04B4B1B6A74
:1028140003F00203002BEED014E0FEF7FDFA38615A
:102824000AE0FEF7F9FA02463B69D31A41F288320C
:10283400934201D903237DE0404B1B6A03F002035A
:10284400002BEED1FB7D012B05D13C4BDB693B4AD0
:1028540023F08053D3617B68DB69002B69D0374B4D
:102864005B6803F00C03082B61D07B68DB69022BE7
:1028740046D1344B00221A60FEF7CEFA386108E0E4
:10288400FEF7CAFA02463B69D31A022B01D9032385
:1028940050E02A4B1B6803F00073002BF0D17B68D7
:1028A4001B6AB3F5803F08D1244B5B6823F40032E4
:1028B4007B689B68214913434B60204B5B6823F47E
:1028C40074127B68196A7B685B6A0B431B49134368
:1028D4004B601C4B01221A60FEF79EFA386108E037
:1028E400FEF79AFA02463B69D31A022B01D9032355
:1028F40020E0124B1B6803F00073002BF0D018E0AB
:10290400104B00221A60FEF787FA386108E0FEF7E0
:1029140083FA02463B69D31A022B01D9032309E047
:10292400064B1B6803F00073002BF0D101E0012378
:1029340000E0002318461837BD4680BD0010024051
:10294400007000406000424280B584B000AF7860FF
:1029540039600023FB607E4B1B6803F007033A6871
:102964009A4210D97A4B1B6823F0070278493B68D6
:1029740013430B60764B1B6803F007033A689A42D3
:1029840001D00123E0E07B681B6803F00203002B05
:1029940020D07B681B6803F00403002B05D06D4B2B
:1029A4005B686C4A43F4E06353607B681B6803F024
:1029B4000803002B05D0674B5B68664A43F46053F9
:1029C4005360644B5B6823F0F0027B689B68614949
:1029D40013434B607B681B6803F00103002B6AD030
:1029E4007B685B68012B07D15A4B1B6803F40033E7
:1029F400002B15D10123A7E07B685B68022B07D16C
:102A0400544B1B6803F00073002B09D101239BE096
:102A1400504B1B6803F00203002B01D1012393E008
:102A24004C4B5B6823F003027B685B6849491343A2
:102A34004B60FEF7F1F9F8607B685B68012B12D1FB
:102A44000AE0FEF7E9F90246FB68D31A41F288323C
:102A5400934201D9032377E03E4B5B6803F00C03F8
:102A6400042BEED127E07B685B68022B1DD10AE0C2
:102A7400FEF7D2F90246FB68D31A41F28832934238
:102A840001D9032360E0334B5B6803F00C03082B8C
:102A9400EED110E0FEF7C0F90246FB68D31A41F20A
:102AA4008832934201D903234EE02A4B5B6803F03A
:102AB4000C03002BEED1264B1B6803F007033A6886
:102AC4009A4210D2224B1B6823F0070220493B682C
:102AD40013430B601E4B1B6803F007033A689A42CA
:102AE40001D0012330E07B681B6803F00403002B52
:102AF40008D0184B5B6823F4E0627B68DB681549F7
:102B040013434B607B681B6803F00803002B09D058
:102B1400104B5B6823F460527B681B69DB000D4932
:102B240013434B6000F01CF801460A4B5B681B0919
:102B340003F00F03084AD35C21FA03F3074A136036
:102B44000020FEF727F9002318461037BD4680BD44
:102B54000020024000100240887400080000002099
:102B640090B48AB000AF2A4B3C1D0FCB84E80F0011
:102B7400284B1B883B800023FB610023BB6100239F
:102B84007B6200237B6100233B62234B5B68FB6118
:102B9400FB6903F00C03042B02D0082B03D02DE0B7
:102BA4001E4B3B622DE0FB699B0C03F00F0307F106
:102BB4002802134413F8243C7B61FB6903F480333B
:102BC400002B13D0144B5B685B0C03F0010307F17B
:102BD4002802134413F8283CBB617B690F4A02FBAB
:102BE40003F2BB69B2FBF3F37B6204E07B690C4A3A
:102BF40002FB03F37B627B6A3B6202E0074B3B62AE
:102C040000BF3B6A18462837BD4690BC704700BFDA
:102C140018740008287400080010024000127A009A
:102C240000093D0080B400AF024B1B681846BD4646
:102C340080BC70470000002080B500AFFFF7F2FFB2
:102C44000146054B5B681B0A03F00703034AD35C88
:102C540021FA03F3184680BD00100240987400085E
:102C640080B500AFFFF7DEFF0146054B5B68DB0A6A
:102C740003F00703034AD35C21FA03F3184680BD2B
:102C8400001002409874000880B485B000AF7860EA
:102C94000A4B1B680A4AA2FB03235B0A7A6802FBFD
:102CA40003F3FB6000BFFB685A1EFA60002BF9D1E6
:102CB40000BF1437BD4680BC704700BF0000002031
:102CC400D34D621080B586B000AF786000233B61BD
:102CD4000023FB607B681B6803F00103002B7DD09D
:102CE4000023FB754F4BDB6903F08053002B0DD1A0
:102CF4004C4BDB694B4A43F08053D361494BDB694E
:102D040003F08053BB60BB680123FB75464B1B6813
:102D140003F48073002B18D1434B1B68424A43F4DD
:102D240080731360FEF778F8386108E0FEF774F8F2
:102D340002463B69D31A642B01D903236DE03A4B55
:102D44001B6803F48073002BF0D0364B1B6A03F42A
:102D54004073FB60FB68002B2ED07B685B6803F438
:102D64004073FA689A4227D02E4B1B6A23F44073AF
:102D7400FB602E4B01221A602C4B00221A60294A58
:102D8400FB681362FB6803F00103002B14D0FEF709
:102D940043F838610AE0FEF73FF802463B69D31A6C
:102DA40041F28832934201D9032336E01D4B1B6A5A
:102DB40003F00203002BEED01A4B1B6A23F440727B
:102DC4007B685B68174913430B62FB7D012B05D1BC
:102DD400144BDB69134A23F08053D3617B681B686F
:102DE40003F00203002B08D00E4B5B6823F440422F
:102DF4007B689B680B4913434B607B681B6803F03B
:102E04001003002B08D0074B5B6823F480027B6817
:102E14005B69044913434B60002318461837BD46C9
:102E240080BD00BF001002400070004040044242D8
:102E340090B58DB000AF78606C4B07F10C040FCBEC
:102E440084E80F006A4B1B883B8100237B620023CC
:102E5400FB6200233B620023FB610023BB627B68AF
:102E6400013B0F2B00F2B98001A252F823F000BFFE
:102E7400572F0008C32F0008DF2F0008472F000832
:102E8400DF2F0008DF2F0008DF2F00084F2F000876
:102E9400DF2F0008DF2F0008DF2F0008DF2F0008D6
:102EA400DF2F0008DF2F0008DF2F0008B52E0008F1
:102EB400504B5B68FB614F4B1B6803F08073002B26
:102EC40000F08D80FB699B0C03F00F0307F13002C7
:102ED400134413F8243C3B62FB6903F48033002B56
:102EE40018D0444B5B685B0C03F0010307F130021C
:102EF400134413F8283C7B62FB6903F48033002BF2
:102F04000DD03D4A7B6AB2FBF3F23B6A02FB03F34A
:102F1400FB6204E03B6A394A02FB03F3FB62354B74
:102F24005B6803F48003B3F5800F02D1FB6ABB62D4
:102F340055E0FB6A5B00324AA2FB03235B08BB62D9
:102F44004DE0FFF70DFEB8624AE0FFF709FEB862F4
:102F540046E0284B1B6AFB61FB6903F44073B3F53D
:102F6400807F08D1FB6903F00203002B03D04FF4E8
:102F74000043BB6222E0FB6903F44073B3F5007FB6
:102F840009D11C4B5B6A03F00203002B03D049F602
:102F94004043BB6212E0FB6903F44073B3F5407F26
:102FA40009D1144B1B6803F40033002B03D04FF2F8
:102FB4002443BB6202E00023BB6211E010E0FFF790
:102FC4004FFE02460B4B5B689B0B03F0030301337C
:102FD4005B00B2FBF3F3BB6202E000BF00E000BFA2
:102FE400BB6A18463437BD4690BD00BF2C74000838
:102FF4003C7400080010024000127A0000093D00F1
:10300400ABAAAAAA80B584B000AF78600023FB60A5
:103014007B68002B01D1012384E07B685B7CDBB2FD
:10302400002B05D17B6800221A747868FDF7AEFC8A
:103034007B6802225A74786800F07AF80346002B01
:1030440004D07B6804225A7401236BE0786800F092
:103054009CF80346002B04D07B6804225A74012395
:1030640060E07B681B685A687B681B6822F0070273
:103074005A607B689B68002B05D02C4B1B6B2B4A3A
:1030840023F001031363294BDB6A23F460727B682A
:103094009B6826491343CB627B685B68B3F1FF3FAF
:1030A40003D07B685B68FB600EE00120FFF7C0FE85
:1030B400F860FB68002B04D17B6804225A74012356
:1030C40030E0FB68013BFB607B681B689B6823F076
:1030D4000F01FB681A0C7B681B680A439A607B68C3
:1030E4001B68DB681B0C1B04FA6891B27A681268CF
:1030F4000B43D360786800F070F80346002B04D0CB
:103104007B6804225A7401230CE07B680022DA7382
:103114007B6801225A737B6801229A737B680122BF
:103124005A74002318461037BD4680BD006C004019
:1031340080B584B000AF78600023FB607B68002B0F
:1031440001D101231DE07B681B685A687B681B68FA
:1031540022F008025A60FDF75FFEF86009E0FDF70F
:103164005BFE0246FB68D31AB3F57A7F01D90323C9
:1031740007E07B681B685B6803F00803002BEED054
:10318400002318461037BD4680BD80B584B000AF1B
:1031940078600023FB60FDF73FFEF86009E0FDF76F
:1031A4003BFE0246FB68D31AB3F57A7F01D90323A9
:1031B4000FE07B681B685B6803F02003002BEED0F4
:1031C4007B681B685A687B681B6842F010025A606F
:1031D400002318461037BD4680BD80B584B000AFCB
:1031E40078600023FB607B681B685A687B681B68F7
:1031F40022F010025A60FDF70FFEF86009E0FDF7B7
:103204000BFE0246FB68D31AB3F57A7F01D9032378
:1032140007E07B681B685B6803F02003002BEED09B
:10322400002318461037BD4680BD000080B487B027
:1032340000AFF860B9607A6000237B61074B7B6163
:10324400BB689B007A6913447B617B697A6892B29C
:103254001A6000BF1C37BD4680BC7047006C00403C
:1032640080B485B000AF786039600023FB60002330
:10327400BB60084BFB603B689B00FA681344FB602F
:10328400FB681B689BB2BB60BB6818461437BD461D
:1032940080BC7047006C004080B582B000AF78609D
:1032A4007B68002B01D101233FE07B6893F8393020
:1032B400DBB2002B06D17B68002283F838207868C3
:1032C400FDF7C4FC7B68242283F839207B681B68E3
:1032D400DA687B681B6822F40052DA60786800F0D0
:1032E40083FB7B681B681A697B681B6822F4904225
:1032F4001A617B681B685A697B681B6822F02A0282
:103304005A617B681B68DA687B681B6842F4005268
:10331400DA607B680022DA637B68202283F8392034
:103324007B68202283F83A20002318460837BD46DC
:1033340080BD80B588B002AFF860B9603B601346C9
:10334400FB8000237B61FB6893F83930DBB2202BD0
:1033540040F08380BB68002B02D0FB88002B01D196
:1033640001237BE0FB6893F83830012B01D1022361
:1033740074E0FB68012283F83820FB680022DA63DA
:10338400FB68212283F83920FDF746FD7861FB684C
:10339400FA889A84FB68FA88DA8442E0FB68DB8C5A
:1033A4009BB2013B9AB2FB68DA84FB689B68B3F575
:1033B400805F22D13B6800937B6900228021F868FA
:1033C40000F0A9F90346002B01D0032346E0BB68B3
:1033D4003B613B691B881A46FB681B68C2F3080201
:1033E4005A60FB681B69002B03D1BB680233BB60C6
:1033F40017E0BB680133BB6013E03B6800937B6953
:1034040000228021F86800F086F90346002B01D0E1
:10341400032323E0BB685A1CBA601A78FB681B6854
:103424005A60FB68DB8C9BB2002BB7D13B680093DE
:103434007B6900224021F86800F06DF90346002BF7
:1034440001D003230AE0FB68202283F83920FB68BB
:10345400002283F83820002300E00223184618379E
:10346400BD4680BD80B485B000AFF860B960134636
:10347400FB80FB6893F83A30DBB2202B40D1BB6869
:10348400002B02D0FB88002B01D1012339E0FB681B
:1034940093F83830012B01D1022332E0FB6801227A
:1034A40083F83820FB68BA689A62FB68FA889A85C0
:1034B400FB68FA88DA85FB680022DA63FB6822225B
:1034C40083F83A20FB68002283F83820FB681B68E5
:1034D400DA68FB681B6842F48072DA60FB681B6878
:1034E4005A69FB681B6842F001025A61FB681B6859
:1034F400DA68FB681B6842F02002DA60002300E00F
:10350400022318461437BD4680BC704780B588B086
:1035140000AF78607B681B681B68FB617B681B6875
:10352400DB68BB617B681B685B697B6100233B6173
:103534000023FB60FB6903F00F033B613B69002B35
:103544000DD1FB6903F02003002B08D0BB6903F005
:103554002003002B03D0786800F0C5F9CCE03B6968
:10356400002B00F0AB807B6903F00103002B05D135
:10357400BB6903F49073002B00F0A080FB6903F097
:103584000103002B0AD0BB6903F48073002B05D020
:103594007B68DB6B43F001027B68DA63FB6903F051
:1035A4000403002B0AD07B6903F00103002B05D030
:1035B4007B68DB6B43F002027B68DA63FB6903F030
:1035C4000203002B0AD07B6903F00103002B05D012
:1035D4007B68DB6B43F004027B68DA63FB6903F00E
:1035E4000803002B0AD07B6903F00103002B05D0EC
:1035F4007B68DB6B43F008027B68DA637B68DB6B18
:10360400002B78D0FB6903F02003002B07D0BB69A3
:1036140003F02003002B02D0786800F064F97B6883
:103624001B685B6903F04003002B14BF01230023D4
:10363400DBB2FB607B68DB6B03F00803002B02D179
:10364400FB68002B31D0786800F0AFF87B681B680A
:103654005B6903F04003002B23D07B681B685A6925
:103664007B681B6822F040025A617B685B6B002B0D
:1036740013D07B685B6B224A5A637B685B6B18468A
:10368400FDF700FD0346002B16D07B685B6B5B6B7C
:103694007A68526B104698470EE07868FDF7ACFAEA
:1036A4000AE07868FDF7A8FA06E07868FDF7A4FA5E
:1036B4007B680022DA631EE000BF1CE0FB6903F0B4
:1036C4008003002B08D0BB6903F08003002B03D0D8
:1036D400786800F09BF80FE0FB6903F04003002BCF
:1036E4000AD0BB6903F04003002B05D0786800F0D2
:1036F400E2F800BF00E000BF2037BD4680BD00BF38
:10370400E937000880B483B000AF786000BF0C379D
:10371400BD4680BC704780B584B000AFF860B96026
:103724003B601346FB712CE0BB69B3F1FF3F28D02B
:10373400BB69002B07D0FDF76FFB02463B68D31A29
:10374400BA699A421DD2FB681B68DA68FB681B6879
:1037540022F4D072DA60FB681B685A69FB681B6844
:1037640022F001025A61FB68202283F83920FB68A9
:10377400202283F83A20FB68002283F838200323B0
:103784000FE0FB681B681A68BB681340BA689A426A
:103794000CBF01230023DBB21A46FB799A42C3D043
:1037A400002318461037BD4680BD80B483B000AFF7
:1037B40078607B681B68DA687B681B6822F4907207
:1037C400DA607B681B685A697B681B6822F0010217
:1037D4005A617B68202283F83A2000BF0C37BD462B
:1037E40080BC704780B584B000AF78607B685B6A4A
:1037F400FB60FB680022DA85FB680022DA84F86843
:10380400FDF7FAF900BF1037BD4680BD80B485B01E
:1038140000AF78607B6893F83930DBB2212B44D158
:103824007B689B68B3F5805F1AD17B681B6AFB6079
:10383400FB681B881A467B681B68C2F308025A603F
:103844007B681B69002B05D17B681B6A9A1C7B680B
:103854001A620EE07B681B6A5A1C7B681A6208E0D5
:103864007B681B6A591C7A6811621A787B681B682A
:103874005A607B68DB8C9BB2013B9BB27A68194629
:10388400D184002B0FD17B681B68DA687B681B68C6
:1038940022F08002DA607B681B68DA687B681B6848
:1038A40042F04002DA60002300E002231846143795
:1038B400BD4680BC704780B582B000AF78607B683D
:1038C4001B68DA687B681B6822F04002DA607B6858
:1038D400202283F839207868FFF714FF0023184664
:1038E4000837BD4680BD80B584B000AF78607B6882
:1038F40093F83A30DBB2222B71D17B689B68B3F525
:10390400805F23D17B689B6AFB607B681B69002B0B
:103914000ED17B681B685B689BB2C3F308039AB241
:10392400FB681A807B689B6A9A1C7B689A6229E010
:103934007B681B685B689BB2DBB29AB2FB681A8037
:103944007B689B6A5A1C7B689A621BE07B681B69D4
:10395400002B0AD17B681B6858687B689B6A591CDA
:103964007A689162C2B21A700CE07B681B685B686B
:10397400DAB27B689B6A581C7968886202F07F021D
:10398400D2B21A707B68DB8D9BB2013B9BB27A6822
:103994001946D185002B20D17B681B68DA687B68C7
:1039A4001B6822F02002DA607B681B68DA687B6897
:1039B4001B6822F48072DA607B681B685A697B6832
:1039C4001B6822F001025A617B68202283F83A20A6
:1039D4007868FDF71BF9002302E0002300E00223CE
:1039E40018461037BD4680BDB0B584B000AF7860CE
:1039F4000023FB607B681B681B6923F440517B68D0
:103A0400DA687B681B680A431A617B689A687B687A
:103A14001B691A437B685B691343FA681343FB60B1
:103A24007B681B68DB6823F4B05323F00C037A68CB
:103A34001268F9680B43D3607B681B685B6923F4E5
:103A440040717B689A697B681B680A435A617B688A
:103A54001B686F4A93426BD1FFF702F90246134683
:103A64009B0013449A001A447B685B689B00B2FB7A
:103A7400F3F3684AA2FB03235B091C01FFF7F0F888
:103A8400024613469B0013449A001A447B685B6801
:103A94009B00B2FBF3F5FFF7E3F8024613469B00E5
:103AA40013449A001A447B685B689B00B2FBF3F3EF
:103AB400584AA2FB03235B09642202FB03F3EB1ABB
:103AC4001B013233534AA2FB03235B0903F0F003C7
:103AD4001C44FFF7C5F8024613469B0013449A00A2
:103AE4001A447B685B689B00B2FBF3F5FFF7B8F8F8
:103AF400024613469B0013449A001A447B685B6891
:103B04009B00B2FBF3F3434AA2FB03235B09642249
:103B140002FB03F3EB1A1B0132333E4AA2FB0323DD
:103B24005B0903F00F027B681B6822449A606AE019
:103B3400FFF782F8024613469B0013449A001A4486
:103B44007B685B689B00B2FBF3F3324AA2FB03235E
:103B54005B091C01FFF770F8024613469B001344EF
:103B64009A001A447B685B689B00B2FBF3F5FFF78D
:103B740063F8024613469B0013449A001A447B6878
:103B84005B689B00B2FBF3F3224AA2FB03235B09AD
:103B9400642202FB03F3EB1A1B0132331D4AA2FB1E
:103BA40003235B0903F0F0031C44FFF745F80246C6
:103BB40013469B0013449A001A447B685B689B007D
:103BC400B2FBF3F5FFF738F8024613469B001344A3
:103BD4009A001A447B685B689B00B2FBF3F30D4ABE
:103BE400A2FB03235B09642202FB03F3EB1A1B0110
:103BF4003233084AA2FB03235B0903F00F027B68FC
:103C04001B6822449A6000BF1037BD46B0BD00BF98
:103C1400003801401F85EB5184B080B483B000AFFD
:103C2400786007F1140080E80E00002318460C3772
:103C3400BD4680BC04B0704780B485B000AF7860E6
:103C44000023FB604FF43F43FB607B68B3F84030D4
:103C54009AB2FB689BB213439AB27B68A3F84020E4
:103C6400002318461437BD4680BC704780B485B025
:103C740000AF78600023FB604FF43D43FB607B683A
:103C8400B3F840309AB2FB689BB2DB439BB213405B
:103C94009AB27B68A3F84020002318461437BD4627
:103CA40080BC704780B483B000AF78600B46FB7073
:103CB400002318460C37BD4680BC704784B080B5DD
:103CC40082B000AF786007F1140080E80E007B68D2
:103CD4000122A3F840207B680022A3F840207B68DF
:103CE4000022A3F844207B680022A3F850207868BF
:103CF400FFF7A2FF002318460837BD46BDE8804001
:103D040004B0704790B484B000AF786039603B6809
:103D1400DB78032B5FD801A252F823F0313D000871
:103D2400AF3D00085D3D0008833D00087A683B68AC
:103D34001B789B0013441B889BB223F4EC4323F0B1
:103D440070039AB279683B681B789B000B4442F479
:103D5400007292B21A803FE07A683B681B789B003D
:103D640013441B889BB279683A68127892000A441B
:103D740023F4EC4323F070039BB213802CE07A68A5
:103D84003B681B789B0013441B889BB223F4EC43D1
:103D940023F070039AB279683B681B789B000B444C
:103DA40042F4C06292B21A8016E07A683B681B78CB
:103DB4009B0013441B889BB223F4EC4323F0700351
:103DC4009AB279683B681B789B000B4442F480628A
:103DD40092B21A8000E000BF7A683B681B789B00AF
:103DE40013441B889AB240F60F7313409AB23B688F
:103DF4001B789BB2134399B27A683B681B789B008B
:103E04001A44754B0B439BB213803B689B7A002B7F
:103E140040F0E8803B685B78002B4CD03B689B8883
:103E24005B089BB259007B68B3F850309BB21A46CA
:103E34003B681B78DB0013445A007B68134403F58A
:103E440080630A461A607A683B681B789B001344B7
:103E54001B889BB203F04003002B13D07A683B68A5
:103E64001B789B0013441B889AB240F60F731340CF
:103E740099B27A683B681B789B001A44574B0B43F2
:103E84009BB213807A683B681B789B0013441B88A1
:103E94009BB223F4E04323F040039CB284F020035C
:103EA4009CB27A683B681B789B001A444A4B2343B4
:103EB4009BB21380D9E13B689B885B089BB2590095
:103EC4007B68B3F850309BB21A463B681B78DB0022
:103ED400134404335A007B68134403F580630A4691
:103EE4001A607B68B3F850309BB21A463B681B7863
:103EF400DB00134406335A007B68134403F58063E4
:103F0400BB603B681B693E2B18D93B681B695B0986
:103F1400FB813B681B6903F01F03002B02D1FB8963
:103F2400013BFB81FB899B029BB26FEA43436FEA2F
:103F340053439BB21A46BB681A6012E03B681B6984
:103F44005B08FB813B681B6903F00103002B02D073
:103F5400FB890133FB81FB899B029BB21A46BB6838
:103F64001A607A683B681B789B0013441B889BB2D9
:103F740003F48043002B13D07A683B681B789B00C2
:103F840013441B889AB240F60F73134099B27A68AF
:103F94003B681B789B001A44114B0B439BB2138064
:103FA4007A683B681B789B0013441B889BB223F4FC
:103FB400804323F070039CB284F480539CB284F455
:103FC40000539CB27A683B681B789B001A44024BEE
:103FD40023439BB2138048E18080FFFFC080FFFF32
:103FE40080C0FFFF7A683B681B789B0013441B88E2
:103FF4009AB240F60F63134099B27A683B681B7813
:104004009B001A449C4B0B439BB213803B68DB8898
:104014005B089BB259007B68B3F850309BB21A46D8
:104024003B681B78DB0013445A007B68134403F598
:1040340080630A461A603B681B895B089BB259007F
:104044007B68B3F850309BB21A463B681B78DB00A0
:10405400134404335A007B68134403F580630A460F
:104064001A603B685B78002B40F083807A683B6879
:104074001B789B0013441B889BB203F48043002BE2
:1040840013D07A683B681B789B0013441B889AB250
:1040940040F60F73134099B27A683B681B789B0013
:1040A4001A44764B0B439BB213807A683B681B78A7
:1040B4009B0013441B889BB203F04003002B13D0D6
:1040C4007A683B681B789B0013441B889AB240F6BD
:1040D4000F73134099B27A683B681B789B001A44AB
:1040E400674B0B439BB213807A683B681B789B0039
:1040F40013441B889AB240F60F73134099B27A683E
:104104003B681B789B001A445D4B0B439BB21380A6
:104114007A683B681B789B0013441B889BB223F48A
:10412400804323F070039CB284F480539CB284F4E3
:1041340000539CB27A683B681B789B001A44514B2D
:1041440023439BB213807A683B681B789B0013441B
:104154001B889BB223F4E04323F040039CB27A68AB
:104164003B681B789B001A44464B23439BB2138045
:104174007BE07A683B681B789B0013441B889BB2E6
:1041840003F48043002B13D07A683B681B789B00B0
:1041940013441B889AB240F60F73134099B27A689D
:1041A4003B681B789B001A44344B0B439BB213802F
:1041B4007A683B681B789B0013441B889BB203F00E
:1041C4004003002B13D07A683B681B789B00134490
:1041D4001B889AB240F60F73134099B27A683B6811
:1041E4001B789B001A44264B0B439BB213807A68BE
:1041F4003B681B789B0013441B889AB240F60F73EC
:10420400134099B27A683B681B789B001A441B4B95
:104214000B439BB213807A683B681B789B00134462
:104224001B889BB223F4E04323F040039CB27A68DA
:104234003B681B789B001A44124B23439BB21380A8
:104244007A683B681B789B0013441B889BB223F459
:10425400804323F070039CB27A683B681B789B0010
:104264001A44084B23439BB213800023184610378B
:10427400BD4690BC704700BF8081FFFF80C0FFFF38
:10428400C080FFFF8080FFFF90B482B000AF7860F1
:1042940039603B689B7A002B6DD13B685B78002BBF
:1042A40034D07A683B681B789B0013441B889BB20C
:1042B40003F04003002B13D07A683B681B789B0003
:1042C40013441B889AB240F60F73134099B27A686C
:1042D4003B681B789B001A44684B0B439BB21380CA
:1042E4007A683B681B789B0013441B889BB223F4B9
:1042F400E04323F040039CB27A683B681B789B0040
:104304001A445F4B23439BB2138039E17A683B68BC
:104314001B789B0013441B889BB203F48043002B3F
:1043240013D07A683B681B789B0013441B889AB2AD
:1043340040F60F73134099B27A683B681B789B0070
:104344001A44504B0B439BB213807A683B681B782A
:104354009B0013441B889BB223F4804323F0700317
:104364009CB27A683B681B789B001A44444B2343F5
:104374009BB2138004E13B685B78002B40F084809F
:104384007A683B681B789B0013441B889BB203F438
:104394008043002B13D07A683B681B789B0013443E
:1043A4001B889AB240F60F73134099B27A683B683F
:1043B4001B789B001A44334B0B439BB213807A68DF
:1043C4003B681B789B0013441B889BB203F040039B
:1043D400002B13D07A683B681B789B0013441B881E
:1043E4009AB240F60F73134099B27A683B681B780F
:1043F4009B001A44214B0B439BB213807A683B68A1
:104404001B789B0013441B889AB240F60F73134029
:1044140099B27A683B681B789B001A44174B0B438C
:104424009BB213807A683B681B789B0013441B88FB
:104434009BB223F4804323F070039CB27A683B68F8
:104444001B789B001A440E4B23439BB213807A685B
:104454003B681B789B0013441B889BB223F4E04306
:1044640023F040039CB27A683B681B789B001A4493
:10447400034B23439BB2138082E000BFC080FFFF45
:104484008080FFFF80C0FFFF7A683B681B789B0039
:1044940013441B889BB203F48043002B13D07A6827
:1044A4003B681B789B0013441B889AB240F60F7339
:1044B400134099B27A683B681B789B001A44334BCB
:1044C4000B439BB213807A683B681B789B001344B0
:1044D4001B889BB203F04003002B13D07A683B681F
:1044E4001B789B0013441B889AB240F60F73134049
:1044F40099B27A683B681B789B001A44244B0B439F
:104504009BB213807A683B681B789B0013441B881A
:104514009AB240F60F73134099B27A683B681B78DD
:104524009B001A44194B0B439BB213807A683B6877
:104534001B789B0013441B889BB223F4E04323F0B5
:1045440040039CB27A683B681B789B001A44114B69
:1045540023439BB213807A683B681B789B00134407
:104564001B889BB223F4804323F070039CB27A68C7
:104574003B681B789B001A44064B23439BB2138071
:10458400002318460837BD4690BC704780C0FFFF23
:10459400C080FFFF8080FFFF90B58DB000AF7860D2
:1045A40039600023FB853B689B69BB623B685B7891
:1045B400012B40F049813B689A693B681B699A4228
:1045C40009D93B681B69BB623B689A69BB6AD21A0A
:1045D4003B689A6105E03B689B69BB623B680022CB
:1045E4009A613B689B7A002B1BD13B6859693B68F5
:1045F4009A88BB6A9BB2786800F07DFB7B68B3F84D
:1046040050309BB21A463B681B78DB0013440233DC
:104614005A007B68134403F580631A46BB6A13602F
:10462400F6E07A683B681B789B0013441B889BB2B6
:1046340003F04003002B59D03B685B78002B3BD13F
:104644007B68B3F850309BB21A463B681B78DB009A
:10465400134406335A007B68134403F58063BB603C
:10466400BB6A3E2B16D9BB6A5B09FB84BB6A03F0A9
:104674001F03002B02D1FB8C013BFB84FB8C9B02B0
:104684009BB26FEA43436FEA53439BB21A46BB683B
:104694001A6027E0BB6A5B08FB84BB6A03F0010372
:1046A400002B02D0FB8C0133FB84FB8C9B029BB25E
:1046B4001A46BB681A6015E03B685B78012B11D180
:1046C4007B68B3F850309BB21A463B681B78DB001A
:1046D400134402335A007B68134403F580631A467B
:1046E400BB6A13603B681B89FB8558E03B685B78B9
:1046F400002B3BD17B68B3F850309BB21A463B6821
:104704001B78DB00134402335A007B68134403F51F
:104714008063FB60BB6A3E2B16D9BB6A5B09BB8412
:10472400BB6A03F01F03002B02D1BB8C013BBB848B
:10473400BB8C9B029BB26FEA43436FEA53439BB229
:104744001A46FB681A6027E0BB6A5B08BB84BB6A35
:1047540003F00103002B02D0BB8C0133BB84BB8C60
:104764009B029BB21A46FB681A6015E03B685B78B3
:10477400012B11D17B68B3F850309BB21A463B68C9
:104784001B78DB00134402335A007B68134403F59F
:1047940080631A46BB6A13603B68DB88FB853B6811
:1047A4005969BB6A9BB2FA8D786800F0A4FA3B6839
:1047B4005B78002B14D17A683B681B789B00134408
:1047C4001B889AB240F60F73134099B27A683B681B
:1047D4001B789B001A44924B0B439BB2138017E047
:1047E4003B685B78012B13D17A683B681B789B008C
:1047F40013441B889AB240F60F73134099B27A6837
:104804003B681B789B001A44864B0B439BB2138076
:104814007A683B681B789B0013441B889BB223F483
:10482400E04323F040039CB284F010039CB284F074
:1048340020039CB27A683B681B789B001A447A4B2D
:1048440023439BB2138022E13B689A693B681B694E
:104854009A4209D93B681B69BB623B689A69BB6A87
:10486400D21A3B689A6105E03B689B69BB623B686E
:1048740000229A613B689B7A002B3BD17B68B3F89A
:1048840050309BB21A463B681B78DB001344063356
:104894005A007B68134403F580633B61BB6A3E2B7B
:1048A40016D9BB6A5B097B84BB6A03F01F03002B28
:1048B40002D17B8C013B7B847B8C9B029BB26FEA95
:1048C40043436FEA53439BB21A463B691A60C3E001
:1048D400BB6A5B087B84BB6A03F00103002B02D034
:1048E4007B8C01337B847B8C9B029BB21A463B6995
:1048F4001A60B1E03B685B78002B3BD17B68B3F86E
:1049040050309BB21A463B681B78DB0013440233D9
:104914005A007B68134403F58063BB61BB6A3E2B7A
:1049240016D9BB6A5B093B84BB6A03F01F03002BE7
:1049340002D13B8C013B3B843B8C9B029BB26FEAD4
:1049440043436FEA53439BB21A46BB691A6027E09C
:10495400BB6A5B083B84BB6A03F00103002B02D0F3
:104964003B8C01333B843B8C9B029BB21A46BB6954
:104974001A6015E03B685B78012B11D17B68B3F8B2
:1049840050309BB21A463B681B78DB001344023359
:104994005A007B68134403F580631A46BB6A1360AC
:1049A4003B685B78002B41D17B68B3F850309BB2F5
:1049B4001A463B681B78DB00134406335A007B68B5
:1049C400134403F580637B61BB6A3E2B16D9BB6A33
:1049D4005B09FB83BB6A03F01F03002B02D1FB8B33
:1049E400013BFB83FB8B9B029BB26FEA43436FEA61
:1049F40053439BB21A467B691A602DE0BB6A5B087D
:104A0400FB83BB6A03F00103002B02D0FB8B013351
:104A1400FB83FB8B9B029BB21A467B691A601BE0EB
:104A2400C080FFFF80C0FFFF8080FFFF3B685B7892
:104A3400012B11D17B68B3F850309BB21A463B6806
:104A44001B78DB00134402335A007B68134403F5DC
:104A540080631A46BB6A13607A683B681B789B00C4
:104A640013441B889BB223F4804323F070039CB24D
:104A740084F480539CB284F400539CB27A683B68FB
:104A84001B789B001A44044B23439BB213800023DE
:104A940018463437BD4690BD8080FFFF90B482B085
:104AA40000AF786039603B681B78002B18D17A68B6
:104AB4003B681B789B0013441B889BB24BF6BF7466
:104AC4001C4084F4805484F01004A1B27A683B68DA
:104AD4001B789B001A44204B0B439BB2138034E099
:104AE4003B685B78002B18D07A683B681B789B0086
:104AF40013441B889BB223F4E04323F040039CB28D
:104B040084F010039CB27A683B681B789B001A44BB
:104B1400114B23439BB2138017E07A683B681B78E0
:104B24009B0013441B889BB223F4804323F070033F
:104B34009CB284F480539CB27A683B681B789B00D7
:104B44001A44054B23439BB21380002318460837AD
:104B5400BD4690BC704700BF8080FFFF90B482B018
:104B640000AF786039603B685B78002B3AD07A6894
:104B74003B681B789B0013441B889BB203F04003E3
:104B8400002B13D07A683B681B789B0013441B8866
:104B94009AB240F60F73134099B27A683B681B7857
:104BA4009B001A442F4B0B439BB213807A683B68DB
:104BB4001B789B0013441B889BB223F4E04323F02F
:104BC40040039CB284F010039CB284F020039CB296
:104BD4007A683B681B789B001A44234B23439BB29F
:104BE400138039E07A683B681B789B0013441B8868
:104BF4009BB203F48043002B13D07A683B681B7884
:104C04009B0013441B889AB240F60F73134099B269
:104C14007A683B681B789B001A44144B0B439BB285
:104C240013807A683B681B789B0013441B889BB2F3
:104C340023F4804323F070039CB284F480539CB229
:104C440084F400539CB27A683B681B789B001A4436
:104C5400054B23439BB21380002318460837BD46F7
:104C640090BC7047C080FFFF8080FFFF80C0FFFFC3
:104C740080B483B000AF78600B46FB70FB78002BE8
:104C840003D17B688022A3F84C20002318460C37FC
:104C9400BD4680BC704780B483B000AF7860002309
:104CA40018460C37BD4680BC704780B483B000AF53
:104CB4007860002318460C37BD4680BC704780B42A
:104CC40085B000AF78600023FB607B68B3F84430A4
:104CD4009BB2FB60FB6818461437BD4680BC704726
:104CE40080B483B000AF78603960002318460C3775
:104CF400BD4680BC704780B48BB000AFF860B9602B
:104D040011461A460B46FB801346BB80BB88013311
:104D14005B10FB6100237B620023BB6100237B618A
:104D240000233B62FB885B001A46FB68134403F5CF
:104D340080633B62FB697B621BE0BB681B78BB61E1
:104D4400BB680133BB60BB681B781B021A46BB6996
:104D540013437B613B6A9A1C3A627A6992B21A8065
:104D64003B6A02333B62BB680133BB607B6A013B35
:104D74007B627B6A002BE0D100BF2C37BD4680BC30
:104D8400704780B489B000AFF860B96011461A4624
:104D94000B46FB801346BB80BB8801335B107B61F1
:104DA4000023FB610023BB61FB885B001A46FB68A0
:104DB400134403F58063BB617B69FB610EE0BB694F
:104DC4001A1DBA611968BB685A1CBA608AB21A8083
:104DD400BB680133BB60FB69013BFB61FB69002BD2
:104DE400EDD100BF2437BD4680BC704780B584B088
:104DF40000AF78600B46FB700023FB737B681B7C61
:104E0400002B0ED14FF4007302228121786801F047
:104E14000CFD4FF4007302220121786801F005FDB6
:104E24000BE0402302228121786801F0FEFC40233C
:104E340002220121786801F0F8FC08230322822170
:104E4400786801F0F2FC4FF4077001F00FFE02469F
:104E54007B68C3F818227B68D3F81832002B02D180
:104E64000123FB7326E07B68D3F81832BB607B68B0
:104E7400D3F81C321B689847BB680022C3F814227D
:104E8400BB680022C3F818227B681B7C002B09D165
:104E9400BB68D3F804224FF400730121786801F051
:104EA400AEFD07E0BB68D3F80422402301217868F3
:104EB40001F0A5FDFB7B18461037BD4680BD80B5CB
:104EC40084B000AF78600B46FB700023FB73812134
:104ED400786801F0D0FC0121786801F0CCFC8221D3
:104EE400786801F0C8FC7B68D3F81832002B0ED028
:104EF4007B68D3F81C325B6898477B68D3F8183218
:104F0400184601F0BFFD7B680022C3F81822FB7B22
:104F140018461037BD4680BD80B584B000AF7860B8
:104F240039607B68D3F81832FB603B681B7803F068
:104F34006003002B3AD0202B00D043E03B68DB8891
:104F4400002B29D03B681B785BB2002B11DA7B68FD
:104F5400D3F81C329B683A685078F9683A68D2886A
:104F64009847F9683B68DB881A46786801F00EF8C0
:104F740029E03B685A78FB6883F800223B68DB88A9
:104F8400DAB2FB6883F80122F9683B68DB881A46C9
:104F9400786801F029F816E07B68D3F81C329B6826
:104FA4003A6850780022396898470CE03B685B788F
:104FB4000A2B01D00B2B05E001220549786800F08B
:104FC400E5FF00BF00BF002318461037BD4680BD73
:104FD4004E03002080B485B000AF78600B46FB70B0
:104FE4007B68D3F81832FB607B68D3F81832002B47
:104FF40005D0FB680022C3F81422002300E002233A
:1050040018461437BD4680BC704780B584B000AFE5
:1050140078600B46FB707B68D3F81832FB60FB7832
:105024001946786801F00EFD0246FB68C3F80C22AD
:105034007B68D3F81832002B0DD07B68D3F81C3270
:10504400DB68FA68D2F80402FA6802F503721146C2
:105054009847002300E0022318461037BD4680BD60
:1050640080B584B000AF78607B68D3F81832FB60F9
:105074007B68D3F81C32002B15D0FB6893F8003200
:10508400FF2B10D07B68D3F81C329B68FA6892F827
:105094000002F968FA6892F8012292B29847FB6814
:1050A400FF2283F80022002318461037BD4680BD36
:1050B40080B483B000AF78607B6843221A80034BCE
:1050C40018460C37BD4680BC704700BFB4000020B2
:1050D40080B483B000AF78607B6843221A80034BAE
:1050E40018460C37BD4680BC704700BF70000020D6
:1050F40080B483B000AF78607B6843221A80034B8E
:1051040018460C37BD4680BC704700BFF80000202D
:1051140080B483B000AF78607B680A221A80034BA6
:1051240018460C37BD4680BC704700BF2C000020D9
:1051340080B485B000AF786039600223FB733B68AC
:10514400002B05D07B683A68C3F81C220023FB734C
:10515400FB7B18461437BD4680BC704780B487B0CB
:1051640000AFF860B9601346FB80FB68D3F81832CF
:105174007B617B69BA68C3F80822FA887B69C3F843
:105184001022002318461C37BD4680BC704780B4EB
:1051940085B000AF786039607B68D3F81832FB6063
:1051A400FB683A68C3F80422002318461437BD4646
:1051B40080BC704780B584B000AF78607B68D3F85A
:1051C4001832FB607B68D3F81832002B17D0FB68C9
:1051D400D3F81432002B10D1FB680122C3F8142237
:1051E400FB68D3F80822FB68D3F810329BB2812104
:1051F400786801F0E1FB002302E0012300E00223D0
:1052040018461037BD4680BD80B584B000AF7860C5
:105214007B68D3F81832FB607B68D3F81832002B14
:1052240017D07B681B7C002B09D1FB68D3F80422C0
:105234004FF400730121786801F0E1FB07E0FB689B
:10524400D3F8042240230121786801F0D8FB00231D
:1052540000E0022318461037BD4680BD80B584B0F7
:1052640000AFF860B9601346FB71FB68002B01D1F5
:1052740002231AE0FB68D3F81432002B03D0FB6836
:105284000022C3F81422BB68002B03D0FB68BA6861
:10529400C3F81022FB68012283F8FC21FB68FA7929
:1052A4001A70F86801F04CFA002318461037BD460E
:1052B40080BD80B485B000AF786039600023FB7393
:1052C4003B68002B06D07B683A68C3F8142200239D
:1052D400FB7301E00223FB73FB7B18461437BD46C6
:1052E40080BC704780B582B000AF7860786801F008
:1052F40081FA002318460837BD4680BD80B483B0C8
:1053040000AF7860002318460C37BD4680BC704758
:1053140080B584B000AF78600B46FB700223FB734A
:105324007B68D3F81432002B0CD07B68D3F814328A
:105334001B68FA781146786898470346002B01D118
:105344000023FB73FB7B18461037BD4680BD80B538
:1053540082B000AF78600B46FB707B68D3F81432E0
:105364005B68FA781146786898470023184608372E
:10537400BD4680BD80B582B000AF786039607B687F
:1053840003F502733968184600F059FD7B68012261
:10539400C3F8F4217B68B3F80E321A467B68C3F86D
:1053A400F8217B6893F8083203F01F03012B0BD01C
:1053B400022B11D0002B17D17B6803F50273194619
:1053C400786800F087F91AE07B6803F502731946E0
:1053D400786800F0CFF912E07B6803F50273194690
:1053E400786800F0FAF90AE07B6893F8083223F051
:1053F4007F03DBB21946786801F05CFA00BF002332
:1054040018460837BD4680BD80B586B000AFF86049
:105414000B467A60FB72FB7A002B38D1FB6803F5EC
:1054240082737B61FB68D3F8F431032B42D17B692F
:105434009A687B69DB689A4214D97B699A687B69AC
:10544400DB68D21A7B699A607B69DA687B699B683E
:10545400934228BF13469BB21A467968F86800F055
:10546400E1FD27E0FB68D3F814321B69002B0AD056
:10547400FB6893F8FC31032B05D1FB68D3F8143295
:105484001B69F8689847F86800F0DEFD12E0FB68D5
:10549400D3F814329B69002B0CD0FB6893F8FC31D1
:1054A400032B07D1FB68D3F814329B69FA7A1146AF
:1054B400F8689847002318461837BD4680BD80B564
:1054C40086B000AFF8600B467A60FB72FB7A002B63
:1054D4006CD1FB6814337B61FB68D3F8F431022B85
:1054E40057D17B699A687B69DB689A4215D97B69D5
:1054F4009A687B69DB68D21A7B699A607B699B68CE
:105504009BB21A467968F86800F05CFD002300221B
:105514000021F86801F073FA3BE07B695B687A6903
:10552400D268B3FBF2F102FB01F29B1A002B1CD1EF
:105534007B695A687B69DB689A4216D37B695A682F
:10554400FB68D3F8F8319A420FD200220021F868A0
:1055540000F038FDFB680022C3F8F8210023002284
:105564000021F86801F04BFA13E0FB68D3F8143219
:10557400DB68002B0AD0FB6893F8FC31032B05D1C0
:10558400FB68D3F81432DB68F8689847F86800F0D1
:105594006EFDFB6893F80032012B1AD1F868FFF70F
:1055A400ADFEFB68002283F8002212E0FB68D3F80A
:1055B40014325B69002B0CD0FB6893F8FC31032B8D
:1055C40007D1FB68D3F814325B69FA7A1146F8689C
:1055D4009847002318461837BD4680BD80B582B071
:1055E40000AF7860402300220021786801F01DF9A3
:1055F4007B684022C3F81021402300228021786870
:1056040001F013F97B6840221A627B68012283F857
:10561400FC217B68D3F81832002B09D07B68D3F8BF
:1056240014325B687A685268D2B211467868984737
:10563400002318460837BD4680BD80B483B000AF50
:1056440078600B46FB707B68FA781A74002318465E
:105654000C37BD4680BC704780B483B000AF78601F
:105664007B6893F8FC217B6883F8FD217B68042226
:1056740083F8FC21002318460C37BD4680BC7047D4
:1056840080B483B000AF78607B6893F8FD217B68B9
:1056940083F8FC21002318460C37BD4680BC7047B4
:1056A40080B582B000AF78607B6893F8FC31032B3F
:1056B4000BD17B68D3F81432DB69002B05D07B68EF
:1056C400D3F81432DB697868984700231846083702
:1056D400BD4680BD80B584B000AF786039600023DA
:1056E400FB733B685B78092B39D801A252F823F08D
:1056F4004557000859570008635700084F570008DA
:1057040063570008275700081D570008635700080F
:105714003B570008315700083968786800F036F9BB
:1057240022E03968786800F025FA1DE03968786865
:1057340000F05EFA18E03968786800F0E1FA13E0E6
:105744003968786800F00EFB0EE03968786800F07C
:1057540033FB09E03968786800F049FB04E03968F4
:10576400786800F0A8FB00BFFB7B18461037BD46E5
:1057740080BD00BF80B584B000AF7860396000237D
:10578400FB737B6893F8FC31032B1BD13B689B882C
:10579400DBB2012B11D87B68D3F814329B683968CB
:1057A400786898473B68DB88002B10D1FB7B002B83
:1057B4000DD1786800F048FC09E03968786800F099
:1057C4007AFB04E03968786800F075FB00E000BFFC
:1057D400002318461037BD4680BD80B584B000AFA5
:1057E400786039600023FB733B689B88BB733B681C
:1057F4001B7803F06003202B08D17B68D3F81432A4
:105804009B683968786898470023BAE03B685B78FE
:10581400012B39D0032B02D0002B6BD0B0E07B6876
:1058240093F8FC31022B02D0032B0CD025E0BB7B78
:10583400002B27D0BB7B802B24D0BB7B19467868F8
:1058440001F038F81EE03B685B88002B0AD1BB7B73
:10585400002B07D0BB7B802B04D0BB7B1946786818
:1058640001F028F87B68D3F814329B6839687868AB
:105874009847786800F0E8FB05E03968786800F03C
:105884001AFB00E000BF7BE07B6893F8FC31022B3D
:1058940002D0032B0CD024E0BB7B002B26D0BB7B97
:1058A400802B23D0BB7B1946786801F003F81DE0F8
:1058B4003B685B88002B1BD1BB7B03F07F03002B71
:1058C4000BD0BB7B1946786801F013F87B68D3F8DA
:1058D40014329B68396878689847786800F0B4FB9C
:1058E40006E03968786800F0E6FA02E000BF47E0B5
:1058F40000BF45E07B6893F8FC31022B02D0032BF8
:105904000BD036E0BB7B03F07F03002B36D0BB7B90
:105914001946786800F0CEFF30E097F90E30002B7E
:1059240008DABB7B03F07F0301331B017A6813445D
:10593400043307E0BB7B03F07F0310331B017A6859
:1059440013440433BB60BB7B1946786800F0F0FF56
:105954000346002B03D0BB6801221A6002E0BB6837
:1059640000221A60BB6802221946786800F00EFB18
:1059740005E03968786800F09EFA00E000BF00BFD7
:10598400FB7B18461037BD4680BD000080B584B04F
:1059940000AF786039603B685B881B0A9BB2013BAF
:1059A400062B00F2C98001A252F823F0CD59000859
:1059B400E5590008255A00083D5B00083D5B0008D6
:1059C400E95A00080F5B00087B68D3F810321B68A3
:1059D4007A68127C07F10A0110469847F860B0E033
:1059E4007B681B7C002B0DD17B68D3F814329B6A37
:1059F40007F10A0210469847F860FB680133022257
:105A04001A709EE07B68D3F81432DB6A07F10A024D
:105A140010469847F860FB68013302221A7090E040
:105A24003B685B88DBB2052B56D801A252F823F001
:105A34004D5A0008655A00087D5A0008955A000816
:105A4400AD5A0008C55A00087B68D3F810325B6869
:105A54007A68127C07F10A0110469847F86040E022
:105A64007B68D3F810329B687A68127C07F10A01CC
:105A740010469847F86034E07B68D3F81032DB684E
:105A84007A68127C07F10A0110469847F86028E00A
:105A94007B68D3F810321B697A68127C07F10A011B
:105AA40010469847F8601CE07B68D3F810325B69B5
:105AB4007A68127C07F10A0110469847F86010E0F2
:105AC4007B68D3F810329B697A68127C07F10A016B
