:020000040800F2
:1000000000000120F5050008A5040008B10400085F
:10001000B7040008BD040008C30400080000000085
:10002000000000000000000000000000C9040008FB
:10003000D504000800000000E1040008ED040008F9
:100040003D0600083D0600083D0600083D06000884
:100050003D0600083D0600083D0600083D06000874
:100060003D0600083D0600083D0600083D06000864
:100070003D0600083D0600083D060008F90400089A
:100080003D0600083D0600083D0600083D06000844
:100090000D0500083D0600083D0600083D06000865
:1000A0003D0600083D0600083D0600083D06000824
:1000B0003D0600083D0600083D0600083D06000814
:1000C0003D0600083D0600083D0600083D06000804
:1000D0003D060008210500083D0600083D06000811
:1000E0003D0600083D0600083D0600083D060008E4
:1000F0003D0600083D0600083D0600083D060008D4
:100100003D0600083D0600083D0600083D060008C3
:100110003D0600083D0600083D0600083D060008B3
:100120003D0600083D0600083D0600083D060008A3
:1001300000000000000000000000000000000000BF
:1001400000000000000000000000000000000000AF
:10015000000000000000000000000000000000009F
:10016000000000000000000000000000000000008F
:10017000000000000000000000000000000000007F
:10018000000000000000000000000000000000006F
:10019000000000000000000000000000000000005F
:1001A000000000000000000000000000000000004F
:1001B000000000000000000000000000000000003F
:1001C000000000000000000000000000000000002F
:1001D000000000000000000000000000000000001F
:0401E0005FF8E0F1F3
:1001E40010B5054C237833B9044B13B10448AFF36D
:1001F40000800123237010BD0402002000000000D1
:100204005C7C000808B5034B1BB103490348AFF3FA
:10021400008008BD00000000080200205C7C00088B
:1002240080B500AF4FF46141002000F0BBFB4FF4F8
:100234006141012000F0B6FB00BF80BD80B582B0F3
:1002440000AF00F04CF8786000F049F802467B6893
:10025400D31AB3F5FA7F05D300F041F87860022091
:1002640000F0CAFA002000F031FC0346002B0AD04B
:10027400002000F05DFC0346FB70FA78FB780B4924
:10028400002000F0A3FC012000F020FC0346002B1A
:10029400DAD0012000F04CFC0346BB70BA78BB787E
:1002A4000349012000F092FCCEE700BF747C0008F3
:1002B400847C000880B500AF00F080FD00F016F8E3
:1002C40000F076F800BF80BD80B582B000AF7860E2
:1002D400786800F0D5FD00BF0837BD4680BD80B505
:1002E40000AF00F0C3FD0346184680BD80B596B04C
:1002F40000AF07F1300328220021184607F078F8F0
:1003040007F11C0300221A605A609A60DA601A61CD
:100314003B1D00221A605A609A60DA601A615A61C1
:1003240005233B634FF480337B630023BB630123CA
:10033400FB6301233B640223FB644FF480333B657E
:100344004FF4E0137B6507F13003184602F002FC1A
:100354000346002B01D000F06BF80F23FB6102234E
:100364003B6200237B624FF48063BB620023FB6229
:1003740007F11C030221184602F050FE0346002B2D
:1003840001D000F055F811237B604FF48073BB60FB
:100394000023BB613B1D184602F0FEFF0346002B01
:1003A40001D000F045F800BF5837BD4680BD0000BD
:1003B40080B586B000AF07F1080300221A605A60C6
:1003C4009A60DA60184B9B69174A43F008039361FB
:1003D400154B9B6903F008037B607B68124B9B6998
:1003E400114A43F0040393610F4B9B6903F0040328
:1003F4003B603B6800224FF470410C4801F022FC42
:100404004FF47043BB600123FB6000233B61022374
:100414007B6107F108031946044801F0A5FA00BFFF
:100424001837BD4680BD00BF00100240000C0140DB
:1004340080B400AF00BFBD4680BC704780B485B0B7
:1004440000AF154B9B69144A43F001039361124BAF
:100454009B6903F00103BB60BB680F4BDB690E4A69
:1004640043F08053D3610C4BDB6903F080537B6012
:100474007B680A4B5B68FB60FB6823F0E063FB600E
:10048400FB6843F00073FB60044AFB68536000BFE1
:100494001437BD4680BC7047001002400000014084
:1004A40080B400AF00BFBD4680BC704780B400AFCD
:1004B400FEE780B400AFFEE780B400AFFEE780B48F
:1004C40000AFFEE780B400AF00BFBD4680BC7047FC
:1004D40080B400AF00BFBD4680BC704780B400AF9D
:1004E40000BFBD4680BC704780B500AF00F0ACFCD7
:1004F40000BF80BD80B500AF024800F0CBFF00BF55
:1005040080BD00BF9405002080B500AF024801F013
:10051400C2FC00BF80BD00BF1014002080B500AF36
:10052400024803F089FB00BF80BD00BFD80500204E
:1005340080B584B000AF7860114B1B68002B02D1EA
:100544000F4B104A1A600E4B1B68FB600C4B1A6869
:100554007B6813446A46934207D906F01FFF02469C
:100564000C2313604FF0FF3306E0054B1A687B68D9
:100574001344034A1360FB6818461037BD4680BD18
:10058400200200207818002080B400AF154B1B68AF
:10059400144A43F001031360124B5A681149124B79
:1005A40013404B600F4B1B680E4A23F0847323F4F3
:1005B400803313600B4B1B680A4A23F480231360B7
:1005C400084B5B68074A23F4FE035360054B4FF462
:1005D4001F029A60054B4FF000629A6000BFBD464F
:1005E40080BC7047001002400000FFF800ED00E0FE
:1005F400002103E00B4B5B58435004310A480B4B7A
:1006040042189A42F6D30A4A02E0002342F8043B15
:10061400084B9A42F9D3FFF7B7FF06F0C5FE06F080
:10062400B1FE70475C7D0008000000200402002039
:100634000402002074180020FEE780B487B000AFE5
:10064400F860B9607A600123FB75FB6800221A60C8
:10065400FB6800225A60FB687A689A60FB68BA6893
:10066400DA60FB7D18461C37BD4680BC704780B4F9
:1006740087B000AFF860B9607A600123FB7500238E
:100684003B6126E0FB68DB68002B09D0FB68DA6875
:10069400FB685B681A443B69B9680B4412781A70AA
:1006A400FB685A68FB681B689A420CD0FB685B685D
:1006B4000133FA689268B3FBF2F102FB01F29A1A71
:1006C400FB685A6002E00023FB7506E03B690133D6
:1006D4003B613B697A689A42D4D8FB7D18461C3743
:1006E400BD4680BC704780B485B000AF78607B683D
:1006F4009A687B681B681A447B685B68D31A7A68BB
:100704009268B3FBF2F102FB01F29B1AFB60FB68F7
:1007140018461437BD4680BC7047000080B588B0C9
:1007240000AF07F10C0300221A605A609A60DA6085
:100734001F4B9B691E4A43F0080393611C4B9B6942
:1007440003F00803BB60BB68194B9B69184A43F06C
:1007540004039361164B9B6903F004037B607B687D
:1007640001233B6100237B610223BB610023FB6106
:1007740017E0104AFB69DB0013449B88FB600D4AB9
:10078400FB6952F8333007F10C021146184601F0A8
:10079400EBF8FB69DBB2184600F00EF8FB69013395
:1007A400FB61FB69032BE4DD00BF2037BD4680BD40
:1007B400001002400400002080B582B000AF034660
:1007C400FB71FB79032B11D8FB790A4A52F83300E9
:1007D400FB79084ADB0013449988FB79054ADB005E
:1007E4001344DB791A4601F02DFA00E000BF083704
:1007F400BD4680BD0400002080B582B000AF034632
:10080400FB71FB79032B0CD8FB79084A52F83300AF
:10081400FB79064ADB0013449B88194601F02AFA47
:1008240000E000BF0837BD4680BD00BF04000020C3
:1008340080B582B000AF0123FB71114B5B6A03F0FA
:100844008063002B12D0012000F04EF803460133E0
:100854001946012000F058F84FF4FA70FFF734FD00
:10086400012000F041F80246064B1A6000210120E5
:1008740000F04AF8FB7918460837BD4680BD00BF32
:10088400001002402402002080B582B000AF012392
:10089400FB71124B9B69114A43F0100393610F4B98
:1008A4009B6903F010033B603B680D4B0D4A1A60D3
:1008B4000B4B4FF0FF325A60094B4FF480729A6031
:1008C400074802F009FF0346002B01D0FFF7B0FDF3
:1008D400FB7918460837BD4680BD00BF00100240B2
:1008E400800500200028004080B582B000AF786009
:1008F4007968044803F01EF8034618460837BD46D5
:1009040080BD00BF8005002080B582B000AF786054
:1009140039603A687968034802F0F2FF00BF08378B
:10092400BD4680BD8005002080B584B000AF7860EE
:100934007B681B680B4A934210D102F0FFF80A4B04
:10094400DB69094A43F00063D361074BDB6903F0B9
:100954000063FB60FB68054B01221A6000BF10377F
:10096400BD4680BD00280040001002403C044242C5
:1009740080B483B000AF00237B6007E0084A7B6843
:10098400134400221A707B6801337B607B68012B5F
:10099400F4DD012318460C37BD4680BC704700BF08
:1009A4002802002080B584B000AF03463960FB7193
:1009B4000023FB73FB79002B02D0012B07D071E0DD
:1009C400FB793B4A0121D1540123FB736AE0394B83
:1009D400394A1A60374A3B685360364B00229A60A2
:1009E400344B0022DA60334B00221A61314B0C2263
:1009F4005A61304B00229A612E4B0022DA61FB7956
:100A04001B012E4A13444FF480722D491846FFF7F8
:100A140014FE2C4B5B692B4A43F001035361294BB1
:100A24005B6903F00103BB60BB68002200210F2057
:100A340000F01BFB0F2000F034FB1E4802F096FF71
:100A44000346002B02D00023FB732AE00123FB732F
:100A5400FB79174A0121D1544FF480721849154883
:100A640003F06AF80346002B01D00023FB73FB79E3
:100A7400124A1B01134408331968134B1B685A6844
:100A8400FB798A1A0D491B010B441A60FA79FB7928
:100A94000A4912010A44126808491B010B44043331
:100AA4001A6000BFFB7B18461037BD4680BD00BFEF
:100AB40028020020D8050020003801402C02002024
:100AC4004C020020001002409405002080B584B040
:100AD40000AF0346FB710023FB60FB79002B02D0BF
:100AE400012B04D01BE005F045FFF86017E0FB790B
:100AF4000D4A1B011344083319680C4B1B685A68D0
:100B0400FB798A1A08491B010B441A60FB791B0103
:100B1400054A13441846FFF7E6FDF86000BFFB687A
:100B240018461037BD4680BD2C02002094050020D5
:100B340080B584B000AF0346FB710023FB73FB79DF
:100B4400002B02D0012B05D00CE005F02FFF03464B
:100B5400FB7307E007F10F03012219460448FFF76E
:100B640086FD00BFFB7B18461037BD4680BD00BF25
:100B74003C02002080B586B000AF0346B9607A60BD
:100B8400FB7300237B61FB7B002B02D0012B06D07F
:100B940014E07968B86805F05BFF78610EE07B6863
:100BA4009AB26423B968084802F02DFF0346FB7427
:100BB400FB7C002B01D17B687B6100BF7B691846FD
:100BC4001837BD4680BD00BFD80500200EB480B5DF
:100BD400C7B000AF0246FB1D1A7007F5947207F107
:100BE4000C031A6007F10C0307F110001B68D7F817
:100BF40024214FF4807106F02FFCC7F81401D7F8B4
:100C0400142107F11001FB1D1B781846FFF7B2FFF2
:100C1400C7F81001D7F81031184607F58E77BD468E
:100C2400BDE8804003B0704780B483B000AF786003
:100C340000BF0C37BD4680BC704780B483B000AFA2
:100C4400786000BF0C37BD4680BC704780B588B063
:100C540000AF786007F1100300221A605A609A60AE
:100C6400DA607B681B68334A93425FD1324B9B69DD
:100C7400314A43F4804393612F4B9B6903F48043CF
:100C8400FB60FB682C4B9B692B4A43F00403936184
:100C9400294B9B6903F00403BB60BB684FF40073EA
:100CA4003B6102237B610323FB6107F110031946B7
:100CB400224800F059FE4FF480633B6100237B61BE
:100CC4000023BB6107F1100319461C4800F04CFED9
:100CD4001B4B1C4A1A601A4B00225A60184B002204
:100CE4009A60174B8022DA60154B00221A61144B6C
:100CF40000225A61124B20229A61114B0022DA61C0
:100D04000F4800F0E9F90346002B01D0FFF790FBF0
:100D14007B680B4A5A630A4A7B68536200220021AB
:100D2400252000F0A2F9252000F0BBF900BF2037F0
:100D3400BD4680BD0038014000100240000801405B
:100D4400940500205800024080B586B000AF01230E
:100D5400FB753B1D00221A605A609A60DA604FF4FA
:100D640080537B601123BB600023FB6002233B6143
:100D74003B1D1946084800F0F7FD0023BB603B1DEE
:100D84001946054800F0F0FD05F0C4FDFB7D18464A
:100D94001837BD4680BD00BF0008014080B500AFD4
:100DA400FFF788FAFFF770FDFFF742FDFFF7B6FC87
:100DB400FFF7CAFFFFF7DCFD00BF80BD80B500AFC1
:100DC400084B1B68074A43F010031360032000F02C
:100DD40041F9002000F008F8FFF730FB0023184623
:100DE40080BD00BF0020024080B582B000AF7860B3
:100DF400124B1A68124B1B7819464FF47A73B3FBE3
:100E0400F1F3B2FBF3F3184600F059F90346002B53
:100E140001D001230EE07B680F2B0AD800227968E9
:100E24004FF0FF3000F021F9064A7B68136000237D
:100E340000E0012318460837BD4680BD00000020AD
:100E4400280000202400002080B400AF054B1B784C
:100E54001A46054B1B681344034A136000BFBD4682
:100E640080BC7047280000201806002080B400AF22
:100E7400024B1B681846BD4680BC7047180600200C
:100E840080B584B000AF7860FFF7F0FFB8607B688E
:100E9400FB60FB68B3F1FF3F05D0094B1B781A4692
:100EA400FB681344FB6000BFFFF7E0FF0246BB682A
:100EB400D31AFA689A42F7D800BF1037BD4680BDEE
:100EC4002800002080B485B000AF78607B6803F010
:100ED4000703FB600C4BDB68BB60BA684FF6FF038B
:100EE4001340BB60FB681A02BB68134343F0BF6343
:100EF40043F40033BB60044ABB68D36000BF1437BB
:100F0400BD4680BC704700BF00ED00E080B400AF78
:100F1400044BDB681B0A03F007031846BD4680BC7C
:100F2400704700BF00ED00E080B483B000AF03461B
:100F3400FB71FB7903F01F02064997F907305B093F
:100F4400012000FA02F241F8232000BF0C37BD460D
:100F540080BC704700E100E080B483B000AF03467A
:100F64003960FB7197F90730002B0BDA3B68DAB272
:100F74000C49FB7903F00F03043B1201D2B20B447A
:100F84001A7609E03B68DAB2074997F9073012018B
:100F9400D2B20B4483F8002300BF0C37BD4680BC9B
:100FA400704700BF00ED00E000E100E080B489B0CC
:100FB40000AFF860B9607A60FB6803F00703FB6177
:100FC400FB69C3F10703042B28BF0423BB61FB693E
:100FD4000433062B02D9FB69033B00E000237B6149
:100FE4004FF0FF32BB6902FA03F3DA43BB681A40DD
:100FF4007B699A404FF0FF317B6901FA03F3D943CF
:101004007B680B40134318462437BD4680BC7047A9
:1010140080B582B000AF78607B68013BB3F1807F1C
:1010240001D301230FE00A4A7B68013B53600F217F
:101034004FF0FF30FFF790FF054B00229A60044BFE
:1010440007221A60002318460837BD4680BD00BF3A
:1010540010E000E080B582B000AF78607868FFF7F8
:1010640031FF00BF0837BD4680BD80B586B000AFF4
:101074000346B9607A60FB7300237B61FFF746FF88
:1010840078617A68B9687869FFF790FF024697F942
:101094000F3011461846FFF75FFF00BF1837BD46F3
:1010A40080BD80B582B000AF0346FB7197F907306D
:1010B4001846FFF739FF00BF0837BD4680BD80B52D
:1010C40082B000AF78607868FFF7A2FF0346184645
:1010D4000837BD4680BD000080B485B000AF78609D
:1010E4000023FB607B68002B01D1012359E07B685E
:1010F4001B681A462D4B9A420FD87B681B681A4608
:101104002B4B13442B4AA2FB03231B099A007B6835
:101114001A647B68284ADA630EE07B681B681A4607
:10112400264B1344234AA2FB03231B099A007B6822
:101134001A647B68224ADA637B68022283F82120DE
:101144007B681B681B68FB60FB6823F47F5323F0F8
:101154003003FB607B685A687B689B681A437B6832
:10116400DB681A437B681B691A437B685B691A4313
:101174007B689B691A437B68DB691343FA681343F2
:10118400FB607B681B68FA681A607B6800229A63BC
:101194007B68012283F821207B68002283F82020C9
:1011A400002318461437BD4680BC7047070402402C
:1011B400F8FFFDBFCDCCCCCC00000240F8FBFDBF56
:1011C4000004024080B586B000AFF860B9607A6070
:1011D4003B600023FB75FB6893F82030012B01D1A1
:1011E40002234AE0FB68012283F82020FB6893F87D
:1011F4002130012B3AD1FB68022283F82120FB68BD
:1012040000229A63FB681B681A68FB681B6822F05B
:1012140001021A603B687A68B968F86800F076FBE6
:10122400FB68DB6A002B08D0FB681B681A68FB6844
:101234001B6842F00E021A600FE0FB681B681A6814
:10124400FB681B6822F004021A60FB681B681A68BA
:10125400FB681B6842F00A021A60FB681B681A6884
:10126400FB681B6842F001021A6005E0FB6800227B
:1012740083F820200223FB75FB7D18461837BD46F2
:1012840080BD000080B584B000AF78600023FB739C
:101294007B6893F82130022B05D07B6804229A6383
:1012A4000123FB73D6E07B681B681A687B681B68A4
:1012B40022F00E021A607B681B681A687B681B6840
:1012C40022F001021A607B681B681A46644B9A423A
:1012D40058D97B681B68634A93424FD07B681B686C
:1012E400614A934248D07B681B68604A934240D06D
:1012F4007B681B685E4A934238D07B681B685D4AF2
:10130400934230D07B681B685B4A934228D07B6849
:101314001B68534A934220D07B681B68574A934208
:1013240019D07B681B68564A934212D07B681B68AD
:10133400544A93420AD07B681B68534A934202D1B1
:101344004FF480531BE04FF4803318E04FF4807364
:1013540015E0102313E0012311E04FF080730EE039
:101364004FF480130BE04FF4803308E04FF48053C4
:1013740005E04FF4807302E0102300E00123434AA8
:10138400536057E07B681B68364A93424FD07B68B2
:101394001B68354A934248D07B681B68334A9342A2
:1013A40040D07B681B68324A934238D07B681B6804
:1013B400304A934230D07B681B682F4A934228D02E
:1013C4007B681B68264A934220D07B681B682B4AA3
:1013D400934219D07B681B68294A934212D07B68D8
:1013E4001B68284A93420AD07B681B68264A9342AA
:1013F40002D14FF480531BE04FF4803318E04FF4D4
:10140400807315E0102313E0012311E04FF0807383
:101414000EE04FF480130BE04FF4803308E04FF4F8
:10142400805305E04FF4807302E0102300E00123B1
:10143400174A53607B68012283F821207B680022CD
:1014440083F820207B685B6B002B03D07B685B6B8D
:1014540078689847FB7B18461037BD4680BD00BFAF
:1014640080000240080002401C000240300002409C
:1014740044000240580002406C000240080402404C
:101484001C040240300402404404024000040240B0
:101494000000024080B584B000AF78607B68DB6BED
:1014A4001B68FB607B681B681B68BB607B681B6CEC
:1014B40004229A40FB681340002B00F0D680BB68DE
:1014C40003F00403002B00F0D0807B681B681B68CA
:1014D40003F02003002B07D17B681B681A687B6824
:1014E4001B6822F004021A607B681B681A469B4B37
:1014F4009A4258D97B681B68994A93424FD07B68BB
:101504001B68984A934248D07B681B68964A93426A
:1015140040D07B681B68954A934238D07B681B682F
:10152400934A934230D07B681B68924A934228D0F6
:101534007B681B68894A934220D07B681B688E4A6B
:10154400934219D07B681B688C4A934212D07B6803
:101554001B688B4A93420AD07B681B68894A934272
:1015640002D14FF480431BE04FF4802318E04FF482
:10157400806315E0402313E0042311E04FF08063FF
:101584000EE04FF480030BE04FF4802308E04FF4A7
:10159400804305E04FF4806302E0402300E004232D
:1015A400794A536057E07B681B686D4A93424FD079
:1015B4007B681B686B4A934248D07B681B686A4A05
:1015C400934240D07B681B68684A934238D07B685A
:1015D4001B68674A934230D07B681B68654A934214
:1015E40028D07B681B685D4A934220D07B681B68C7
:1015F400614A934219D07B681B68604A934212D0B7
:101604007B681B685E4A93420AD07B681B685D4A0C
:10161400934202D14FF480431BE04FF4802318E03F
:101624004FF4806315E0402313E0042311E04FF0EE
:1016340080630EE04FF480030BE04FF4802308E056
:101644004FF4804305E04FF4806302E0402300E060
:1016540004234E4A53607B68DB6A002B00F036811A
:101664007B68DB6A7868984730E17B681B6C0222F0
:101674009A40FB681340002B00F0F880BB6803F02D
:101684000203002B00F0F2807B681B681B6803F0E8
:101694002003002B0BD17B681B681A687B681B68CE
:1016A40022F00A021A607B68012283F821207B68F9
:1016B4001B681A46294B9A4273D97B681B68284ACF
:1016C40093426AD07B681B68264A934263D07B6846
:1016D4001B68254A93425BD07B681B68234A93426C
:1016E40038D07B681B68224A934230D07B681B68E1
:1016F400204A934228D07B681B68184A934220D022
:101704007B681B681C4A934219D07B681B681B4A80
:10171400934212D07B681B68194A93420AD07B68B3
:101724001B68184A934202D14FF4005336E04FF439
:10173400003333E04FF4007330E020232EE0022323
:101744002CE04FF0007329E04FF4001326E04FF42F
:10175400003323E04FF4005320E000BF8000024038
:10176400080002401C0002403000024044000240D5
:10177400580002406C000240080402401C0402406D
:1017840030040240440402400004024000000240CD
:101794004FF4007302E0202300E002234E4A53601A
:1017A40057E07B681B684D4A93424FD07B681B68A7
:1017B4004B4A934248D07B681B684A4A934240D0C4
:1017C4007B681B68484A934238D07B681B68474A49
:1017D400934230D07B681B68454A934228D07B688B
:1017E4001B68444A934220D07B681B68424A934258
:1017F40019D07B681B68414A934212D07B681B68EE
:101804003F4A93420AD07B681B683E4A934202D106
:101814004FF400531BE04FF4003318E04FF400730F
:1018240015E0202313E0022311E04FF000730EE0D3
:101834004FF400130BE04FF4003308E04FF400536F
:1018440005E04FF4007302E0202300E002232E4A57
:1018540053607B68002283F820207B689B6A002BFE
:1018640034D07B689B6A786898472FE07B681B6C50
:1018740008229A40FB681340002B28D0BB6803F071
:101884000803002B23D07B681B681A687B681B68DD
:1018940022F00E021A607B681A6C7B68DB6B0121F4
:1018A40001FA02F25A607B6801229A637B68012282
:1018B40083F821207B68002283F820207B681B6B3F
:1018C400002B04D07B681B6B7868984700BF00BF6F
:1018D4001037BD4680BD00BF00040240080002402E
:1018E4001C00024030000240440002405800024004
:1018F4006C00024080000240080402401C040240C4
:1019040030040240440402400000024080B485B028
:1019140000AFF860B9607A603B60FB681A6CFB68E2
:10192400DB6B012101FA02F25A60FB681B683A681A
:101934005A60FB685B68102B08D1FB681B687A68E7
:101944009A60FB681B68BA68DA6007E0FB681B688A
:10195400BA689A60FB681B687A68DA6000BF14375B
:10196400BD4680BC7047000080B48BB000AF786087
:1019740039600023FB610023BB6100237B610023EA
:101984003B6200233B6100237B6233E101227B6ADB
:1019940002FA03F3FB613B681B68FA691340BB61FD
:1019A400BA69FB699A4240F022813B685B68122B5A
:1019B40034D0122B0DD8022B2BD0022B04D8002BA1
:1019C40031D0012B1CD048E0032B43D0112B1BD06A
:1019D40043E08D4A934226D08B4A934206D88B4AE1
:1019E400934220D08A4A93421DD036E0894A9342DA
:1019F40019D0894A934216D0884A934213D02CE0D6
:101A04003B68DB683B6228E03B68DB6804333B628D
:101A140023E03B68DB6808333B621EE03B68DB681D
:101A24000C333B6219E03B689B68002B02D1042312
:101A34003B6212E03B689B68012B05D108233B62A3
:101A44007B68FA691A6108E008233B627B68FA69DB
:101A54005A6102E000233B6200BFBB69FF2B01D83F
:101A64007B6801E07B680433FB60BB69FF2B02D811
:101A74007B6A9B0002E07B6A083B9B003B61FB683E
:101A84001A680F213B6901FA03F3DB431A40396AF0
:101A94003B6901FA03F31A43FB681A603B685B680D
:101AA40003F08053002B00F0A2805D4B9B695C4ADD
:101AB40043F0010393615A4B9B6903F00103BB603C
:101AC400BB68584A7B6A9B08023352F823307B6117
:101AD4007B6A03F003039B000F2202FA03F3DB4348
:101AE4007A6913407B617B684F4A93421FD07B68BD
:101AF4004E4A934219D07B684D4A934213D07B6877
:101B04004C4A93420DD07B684B4A934207D07B6882
:101B14004A4A934201D105230AE0062308E004233C
:101B240006E0032304E0022302E0012300E0002393
:101B34007A6A02F00302920093407A6913437B614C
:101B440038497B6A9B0802337A6941F823203B6851
:101B54005B6803F48033002B06D0394B1A6838498C
:101B6400BB6913430B6006E0354B1A68BB69DB4362
:101B7400334913400B603B685B6803F40033002B6C
:101B840006D02F4B5A682E49BB6913434B6006E0BD
:101B94002B4B5A68BB69DB43294913404B603B68B4
:101BA4005B6803F48013002B06D0254B9A68244904
:101BB400BB6913438B6006E0214B9A68BB69DB4326
:101BC4001F4913408B603B685B6803F40013002BD0
:101BD40006D01B4BDA681A49BB691343CB6006E095
:101BE400174BDA68BB69DB4315491340CB607B6A4A
:101BF40001337B627B6A0F2B7FF6C8AE00BF2C37A4
:101C0400BD4680BC704700BF0000211000001110C9
:101C140000001210000031100000321000002210E9
:101C2400001002400000014000080140000C014087
:101C3400001001400014014000180140001C014044
:101C44000004014080B483B000AF78600B467B8011
:101C540013467B707B78002B03D07A887B681A61EB
:101C640003E07B881A047B681A6100BF0C37BD4609
:101C740080BC704780B483B000AF78600B467B8033
:101C84007B68DA687B885A407B68DA6000BF0C376F
:101C9400BD4680BC7047F0B58BB006AF78600023BA
:101CA400FB607B68002B01D10123CAE07B6893F8B9
:101CB4002934DBB2002B06D17B68002283F8282468
:101CC400786805F0C1F87B68032283F829247B68CF
:101CD4001B68184602F00AFC7B681B683B607E6840
:101CE4006D4606F110040FCC0FC523682B60331D1D
:101CF4000ECB386802F0D0FB7B681B6800211846C5
:101D040002F010FC0023FB6037E07A68FB685B019B
:101D14001344293301221A70FB68D9B27A68FB682C
:101D24005B01134428330A461A70FB6899B27A6837
:101D3400FB685B01134434330A461A807A68FB68F3
:101D44005B0113442B3300221A707A68FB685B0131
:101D54001344383300221A607A68FB685B01134429
:101D64003C3300221A607A68FB6802335B01134437
:101D740000221A60FB680133FB60FB680E2BC4D998
:101D84000023FB603CE07A68FB685B01134403F2C8
:101D9400292300221A70FB68D9B27A68FB685B01B8
:101DA400134403F50A730A461A70FB6899B27A68F9
:101DB400FB685B01134434330A461A807A68FB6873
:101DC4005B01134403F22B2300221A707A68FB6828
:101DD4005B01134403F50E7300221A607A68FB68F2
:101DE4005B01134403F50F7300221A607A68FB68E1
:101DF40012335B01134400221A60FB680133FB6059
:101E0400FB680E2BBFD97B681B683B607E686D4600
:101E140006F110040FCC0FC523682B60331D0ECBC5
:101E2400386802F08BFB7B68002283F824207B68EF
:101E3400012283F829247B681B68184603F075FB8C
:101E4400002318461437BD46F0BD80B582B000AFFC
:101E540078607B6893F82834012B01D1022316E0C3
:101E64007B68012283F828240121786805F053FA5D
:101E74007B681B68184603F04EFB7B681B6818469A
:101E840002F01AFB7B68002283F8282400231846FA
:101E94000837BD4680BD80B582B000AF78607B68EE
:101EA4001B68184603F04BFB034603F40043B3F5E9
:101EB400004F02D1786800F0D9FA7B681B68184695
:101EC40003F03DFB034603F48063B3F5806F12D146
:101ED4007B681B68B3F844309AB27B681B6822F4B1
:101EE400806292B2A3F84420786805F022F80021B9
:101EF400786800F0D2F87B681B68184603F01FFB73
:101F0400034603F48043B3F5804F0BD17B681B6811
:101F1400B3F844309AB27B681B6822F4804292B2D0
:101F2400A3F844207B681B68184603F008FB0346AB
:101F340003F40053B3F5005F0BD17B681B68B3F85F
:101F440044309AB27B681B6822F4005292B2A3F820
:101F540044207B681B68184603F0F1FA034603F437
:101F64008053B3F5805F26D17B681B68B3F840309B
:101F74009AB27B681B6822F0040292B2A3F8402054
:101F84007B681B68B3F840309AB27B681B6822F008
:101F9400080292B2A3F84020786805F003F87B6841
:101FA4001B68B3F844309AB27B681B6822F48052F1
:101FB40092B2A3F844207B681B68184603F0BFFA6A
:101FC400034603F40063B3F5006F31D17B681B68EB
:101FD400B3F840309AB27B681B6842F0080292B2B0
:101FE400A3F840207B681B68B3F844309AB27B683E
:101FF4001B6822F4006292B2A3F844207B681B6839
:10200400B3F840309AB27B681B6842F0040292B283
:10201400A3F840207B681B68184603F090FA034637
:1020240003F48053B3F5805F02D0786804F0A0FF16
:102034007B681B68184603F082FA034603F40073B6
:10204400B3F5007F0ED17B681B68B3F844309AB2B5
:102054007B681B6822F4007292B2A3F8442078686B
:1020640004F059FF7B681B68184603F068FA0346BE
:1020740003F48073B3F5807F0BD17B681B68B3F8DE
:1020840044309AB27B681B6822F4807292B2A3F83F
:10209400442000BF0837BD4680BD80B582B000AF84
:1020A40078600B46FB707B6893F82834012B01D1D0
:1020B400022313E07B68012283F828247B68FA78E2
:1020C40083F824207B681B68FA781146184603F0CD
:1020D4000FFA7B68002283F8282400231846083767
:1020E400BD4680BD80B584B000AF78600846114617
:1020F4001A460346FB700B463B801346BB70002315
:10210400FB720023FB6097F90330002B08DAFB789D
:1021140003F07F035B0128337A681344FB6008E013
:10212400FB7803F07F035B0103F50A737A681344B9
:10213400FB60FB7803F07F03DAB2FB681A7097F94F
:102144000330DBB2DB09DBB21A46FB685A703A880B
:10215400FB681A61FB68BA78DA707B6893F82834F4
:10216400012B01D102230EE07B68012283F828248D
:102174007B681B68F968184602F004FA7B68002241
:1021840083F82824FB7A18461037BD4680BD80B5F5
:1021940084B000AF78600B46FB700023FB6097F9B6
:1021A4000330002B08DAFB7803F07F035B0128334C
:1021B4007A681344FB6008E0FB7803F07F035B015B
:1021C40003F50A737A681344FB60FB7803F07F031A
:1021D400DAB2FB681A7097F90330DBB2DB09DBB2C1
:1021E4001A46FB685A707B6893F82834012B01D196
:1021F40002230EE07B68012283F828247B681B6895
:10220400F968184602F080FC7B68002283F82824D1
:10221400002318461037BD4680BD80B586B000AF98
:10222400F8607A603B600B46FB7200237B61FB7AAB
:1022340003F07F035B0103F50A73FA6813447B61BF
:102244007B697A685A617B693A689A617B69002282
:10225400DA617B6900225A70FB7A03F07F03DAB2F9
:102264007B691A70FB7A03F07F03002B06D1FB68AD
:102274001B687969184602F0CFFD05E0FB681B680E
:102284007969184602F0C8FD002318461837BD4680
:1022940080BD80B483B000AF78600B46FB70FB78E0
:1022A40003F00F037A6812335B01134404331B6891
:1022B4009BB218460C37BD4680BC704780B586B0CB
:1022C40000AFF8607A603B600B46FB7200237B61D1
:1022D400FB7A03F07F035B012833FA6813447B61C4
:1022E4007B697A685A617B693A689A617B690022E2
:1022F400DA617B6901225A70FB7A03F07F03DAB258
:102304007B691A70FB7A03F07F03002B06D1FB680C
:102314001B687969184602F07FFD05E0FB681B68BD
:102324007969184602F078FD002318461837BD462F
:1023340080BD80B584B000AF78600B46FB7000238D
:10234400FB6097F90330002B08DAFB7803F07F0376
:102354005B0128337A681344FB6006E0FB785B0179
:1023640003F50A737A681344FB60FB6801229A70D0
:10237400FB7803F07F03DAB2FB681A7097F9033035
:10238400DBB2DB09DBB21A46FB685A707B6893F850
:102394002834012B01D102231CE07B68012283F83D
:1023A40028247B681B68F968184602F0B7FFFB789D
:1023B40003F07F03002B08D17B681A687B6803F263
:1023C4002C431946104603F0CBF87B68002283F8AF
:1023D4002824002318461037BD4680BD80B584B03C
:1023E40000AF78600B46FB700023FB6097F9033065
:1023F400002B08DAFB7803F07F035B0128337A684B
:102404001344FB6006E0FB785B0103F50A737A680A
:102414001344FB60FB6800229A70FB7803F07F038F
:10242400DAB2FB681A7097F90330DBB2DB09DBB26E
:102434001A46FB685A707B6893F82834012B01D143
:1024440002230EE07B68012283F828247B681B6842
:10245400F968184602F0C2FF7B68002283F828243A
:10246400002318461037BD4680BD000090B589B0E2
:1024740000AF78600023FB6100237B8300237B761D
:102484000023FB810023BB8108E3FB899BB2DBB201
:1024940003F00F037B767B7E002B40F02A81FB89BF
:1024A4009BB203F01003002B4DD17B681B681B8883
:1024B4009BB27A68126823F4E14323F070039BB261
:1024C40013807B682833FB617B681B68B3F850304A
:1024D4009BB21A46FB691B78DB00134402335B0092
:1024E4007A681268134403F580631B689BB2C3F3D4
:1024F4000902FB69DA61FB695A69FB69DB691A4401
:10250400FB695A610021786804F0EEFC7B6893F85B
:102514002430DBB2002B00F0C182FB699B69002BE5
:1025240040F0BC827B6893F82430DBB263F07F0315
:10253400DAB27B681B6892B2A3F84C207B68002255
:1025440083F82420AAE27B6803F50A73FB617B68A5
:102554001B681B889BB2BB81BB899BB203F40063DD
:10256400002B31D07B681B68B3F850309BB21A46FD
:10257400FB691B78DB00134406335B007A6812683E
:10258400134403F580631B689BB2C3F30902FB6920
:10259400DA617B6818687B6803F22C41FB699A88CE
:1025A400FB69DB699BB203F02CF87B681B681B8812
:1025B40099B27B681A6840F68F730B409BB2138004
:1025C400786804F067FC69E2BB899BB21BB2002BFC
:1025D40080F264827B681B681B8899B27B681A68E6
:1025E40040F68F730B409BB213807B681B68B3F873
:1025F40050309BB21A46FB691B78DB001344063348
:102604005B007A681268134403F580631B689BB20D
:10261400C3F30902FB69DA61FB69DB69002B11D0A2
:102624007B681868FB695969FB699A88FB69DB69EF
:102634009BB202F0E6FFFB695A69FB69DB691A4445
:10264400FB695A610021786804F036FC7B681B68DA
:10265400B3F850309BB206335B007A6812681344B7
:1026640003F580633B61FB691B693E2B18D9FB6949
:102674001B695B09FB82FB691B6903F01F03002BC9
:1026840002D1FB8A013BFB82FB8A9B029BB26FEA6D
:1026940043436FEA53439BB21A463B691A6012E004
:1026A400FB691B695B08FB82FB691B6903F001037F
:1026B400002B02D0FB8A0133FB82FB8A9B029BB274
:1026C4001A463B691A607B681B681B889BB223F41B
:1026D400804323F070039CB284F480539CB284F44E
:1026E40000539CB27B681A68984B23439BB21380B7
:1026F400D4E17B681B681A467B7E9B0013441B88CD
:102704009BB2BB81BB899BB21BB2002B80F2D080F1
:102714007B681B681A467B7E9B0013441B8899B216
:102724007B681B681A467B7E9B001A4440F68F73B5
:102734000B409BB213807B7E5B0103F50A737A68BE
:102744001344FB61FB699B7A002B22D17B681B68D5
:10275400B3F850309BB21A46FB691B78DB00134474
:1027640006335B007A681268134403F580631B68C0
:102774009BB2C3F309037B837B8B002B73D07B68F1
:102784001868FB695969FB699A887B8B02F039FFE9
:1027940069E07B681B681A46FB691B789B0013443D
:1027A4001B889BB203F48043002B22D07B681B68F8
:1027B400B3F850309BB21A46FB691B78DB00134414
:1027C40002335B007A681268134403F580631B6864
:1027D4009BB2C3F309037B837B8B002B2BD07B68D9
:1027E4001868FB695969FB69DA887B8B02F009FF79
:1027F40021E07B681B68B3F850309BB21A46FB6932
:102804001B78DB00134406335B007A6812681344B8
:1028140003F580631B689BB2C3F309037B837B8B43
:10282400002B08D07B681868FB695969FB691A8911
:102834007B8B02F0E6FE7B681B681A46FB691B78FB
:102844009B0013441B889AB240F60F73134099B24D
:102854007B681B681A46FB691B789B001A443C4B37
:102864000B439BB21380FB69DA697B8B1A44FB69C7
:10287400DA61FB695A697B8B1A44FB695A61FB690B
:102884009B69002B04D07A8BFB691B699A4206D2A0
:10289400FB691B781946786804F00EFB08E0FB69B5
:1028A4001978FB695A69FB699B697868FFF7B5FC7D
:1028B400BB899BB203F08003002B00F0EF807B7E8A
:1028C4005B0128337A681344FB617B681B681A46F2
:1028D4007B7E9B0013441B889BB27A681268114666
:1028E4007A7E92000A4423F4E14323F070039BB2FE
:1028F4001380FB699B7A002B2CD17B681B68B3F88F
:1029040050309BB21A46FB691B78DB001344023338
:102914005B007A681268134403F580631B689BB2FA
:10292400C3F30902FB69DA61FB69DB69002B00F080
:1029340083807B681868FB695969FB699A88FB691D
:10294400DB699BB202F017FE76E000BF8080FFFFD8
:10295400C080FFFF7B681B681A46FB691B789B00DD
:1029640013441B889BB203F04003002B26D07B68E2
:102974001B68B3F850309BB21A46FB691B78DB0026
:10298400134402335B007A681268134403F58063CE
:102994001B689BB2C3F30902FB69DA61FB69DB695B
:1029A400002B31D07B681868FB695969FB69DA88A8
:1029B400FB69DB699BB202F0DEFD25E07B681B68E6
:1029C400B3F850309BB21A46FB691B78DB00134402
:1029D40006335B007A681268134403F580631B684E
:1029E4009BB2C3F30902FB69DA61FB69DB69002B63
:1029F4000AD07B681868FB695969FB691A89FB6905
:102A0400DB699BB202F0B7FD7B681B681A46FB6961
:102A14001B789B0013441B889AB240F60F73134033
:102A240099B27B681B681A46FB691B789B001A44A1
:102A3400224B0B439BB213807B681B68B3F8503066
:102A44009BB21A46FB691B78DB00134402335B001C
:102A54007A681268134403F580631B689BB2C3F35E
:102A64000902FB69DA61FB695A69FB69DB691A448B
:102A7400FB695A61FB699B69002B06D1FB691B78D2
:102A84001946786804F030FA08E0FB691978FB69A4
:102A94005A69FB699B697868FFF710FC7B681B68BF
:102AA400B3F844309BB21A46FA811BB2002BFFF6EE
:102AB400ECAC002318462437BD4690BD80C0FFFF10
:102AC40080B487B000AFF8607B600B467B8113460F
:102AD4003B8100237B617B8903F08003002B08D0BA
:102AE4007B8903F07F035B012833FA6813447B611D
:102AF40006E07B895B0103F50A73FA6813447B6182
:102B04003B89002B07D17B6900229A727B689AB2B9
:102B14007B699A800BE07B6901229A727B689AB286
:102B24007B69DA807B681B0C9AB27B691A8100236B
:102B340018461C37BD4680BC7047000080B400AF07
:102B4400034B01221A6000BFBD4680BC704700BF22
:102B540020000E4280B586B000AF786000233B6150
:102B64007B681B6803F00103002B00F08780924B05
:102B74005B6803F00C03042B0CD08F4B5B6803F0F1
:102B84000C03082B12D18C4B5B6803F48033B3F530
:102B9400803F0BD1884B1B6803F40033002B6CD0AF
:102BA4007B685B68002B68D101232DE27B685B683E
:102BB400B3F5803F06D1804B1B687F4A43F48033D2
:102BC40013602EE07B685B68002B0CD17A4B1B688A
:102BD400794A23F480331360774B1B68764A23F4D5
:102BE400802313601DE07B685B68B3F5A02F0CD1D4
:102BF400714B1B68704A43F4802313606E4B1B684F
:102C04006D4A43F4803313600BE06B4B1B686A4AD4
:102C140023F480331360684B1B68674A23F48023D2
:102C240013607B685B68002B13D0FEF71FF93861D3
:102C340008E0FEF71BF902463B69D31A642B01D95D
:102C44000323E1E15C4B1B6803F40033002BF0D059
:102C540014E0FEF70BF9386108E0FEF707F90246C5
:102C64003B69D31A642B01D90323CDE1524B1B6872
:102C740003F40033002BF0D100E000BF7B681B6835
:102C840003F00203002B63D04B4B5B6803F00C038F
:102C9400002B0BD0484B5B6803F00C03082B1CD1B2
:102CA400454B5B6803F48033002B16D1424B1B6801
:102CB40003F00203002B05D07B681B69012B01D0B4
:102CC4000123A1E13C4B1B6823F0F8027B685B699C
:102CD400DB00394913430B603AE07B681B69002B26
:102CE40020D0364B01221A60FEF7C0F8386108E0A4
:102CF400FEF7BCF802463B69D31A022B01D9032321
:102D040082E12D4B1B6803F00203002BF0D02A4B09
:102D14001B6823F0F8027B685B69DB0026491343D8
:102D24000B6015E0254B00221A60FEF79FF838610E
:102D340008E0FEF79BF802463B69D31A022B01D93F
:102D4400032361E11C4B1B6803F00203002BF0D149
:102D54007B681B6803F00803002B39D07B689B69F0
:102D6400002B19D0164B01221A60FEF77FF8386148
:102D740008E0FEF77BF802463B69D31A022B01D91F
:102D8400032341E10C4B5B6A03F00203002BF0D0F8
:102D9400012000F0E3FA1BE0094B00221A60FEF761
:102DA40065F838610EE0FEF761F802463B69D31A14
:102DB400022B07D9032327E10010024000004242FE
:102DC40080044242924B5B6A03F00203002BEAD177
:102DD4007B681B6803F00403002B00F0A68000232B
:102DE400FB758B4BDB6903F08053002B0DD1884BB3
:102DF400DB69874A43F08053D361854BDB6903F079
:102E04008053FB60FB680123FB75824B1B6803F452
:102E14008073002B18D17F4B1B687E4A43F4807368
:102E24001360FEF723F8386108E0FEF71FF8024646
:102E34003B69D31A642B01D90323E5E0754B1B6866
:102E440003F48073002BF0D07B68DB68012B06D180
:102E54006F4B1B6A6E4A43F0010313622DE07B68DB
:102E6400DB68002B0CD16A4B1B6A694A23F001030F
:102E74001362674B1B6A664A23F0040313621CE067
:102E84007B68DB68052B0CD1614B1B6A604A43F0FD
:102E9400040313625E4B1B6A5D4A43F00103136231
:102EA4000BE05B4B1B6A5A4A23F001031362584B35
:102EB4001B6A574A23F0040313627B68DB68002B08
:102EC40015D0FDF7D3FF38610AE0FDF7CFFF0246C6
:102ED4003B69D31A41F28832934201D9032393E028
:102EE4004B4B1B6A03F00203002BEED014E0FDF7FA
:102EF400BDFF38610AE0FDF7B9FF02463B69D31A0A
:102F040041F28832934201D903237DE0404B1B6A8E
:102F140003F00203002BEED1FB7D012B05D13C4BCA
:102F2400DB693B4A23F08053D3617B68DB69002B68
:102F340069D0374B5B6803F00C03082B61D07B68C6
:102F4400DB69022B46D1344B00221A60FDF78EFF59
:102F5400386108E0FDF78AFF02463B69D31A022B69
:102F640001D9032350E02A4B1B6803F00073002BA4
:102F7400F0D17B681B6AB3F5803F08D1244B5B68B2
:102F840023F400327B689B68214913434B60204B38
:102F94005B6823F474127B68196A7B685B6A0B4371
:102FA4001B4913434B601C4B01221A60FDF75EFF63
:102FB400386108E0FDF75AFF02463B69D31A022B39
:102FC40001D9032320E0124B1B6803F00073002B8C
:102FD400F0D018E0104B00221A60FDF747FF38616B
:102FE40008E0FDF743FF02463B69D31A022B01D9DF
:102FF400032309E0064B1B6803F00073002BF0D198
:1030040001E0012300E0002318461837BD4680BDC7
:1030140000100240007000406000424280B584B05D
:1030240000AF786039600023FB607E4B1B6803F0BF
:1030340007033A689A4210D97A4B1B6823F00702B7
:1030440078493B6813430B60764B1B6803F0070316
:103054003A689A4201D00123E0E07B681B6803F0E0
:103064000203002B20D07B681B6803F00403002BB1
:1030740005D06D4B5B686C4A43F4E06353607B6836
:103084001B6803F00803002B05D0674B5B68664A96
:1030940043F460535360644B5B6823F0F0027B6835
:1030A4009B68614913434B607B681B6803F0010311
:1030B400002B6AD07B685B68012B07D15A4B1B68D5
:1030C40003F40033002B15D10123A7E07B685B6870
:1030D400022B07D1544B1B6803F00073002B09D15A
:1030E40001239BE0504B1B6803F00203002B01D12A
:1030F400012393E04C4B5B6823F003027B685B681D
:10310400494913434B60FDF7B1FEF8607B685B6887
:10311400012B12D10AE0FDF7A9FE0246FB68D31A7F
:1031240041F28832934201D9032377E03E4B5B6836
:1031340003F00C03042BEED127E07B685B68022BC1
:103144001DD10AE0FDF792FE0246FB68D31A41F254
:103154008832934201D9032360E0334B5B6803F068
:103164000C03082BEED110E0FDF780FE0246FB684D
:10317400D31A41F28832934201D903234EE02A4BF9
:103184005B6803F00C03002BEED1264B1B6803F0A5
:1031940007033A689A4210D2224B1B6823F00702B5
:1031A40020493B6813430B601E4B1B6803F0070365
:1031B4003A689A4201D0012330E07B681B6803F02F
:1031C4000403002B08D0184B5B6823F4E0627B688F
:1031D400DB68154913434B607B681B6803F00803E5
:1031E400002B09D0104B5B6823F460527B681B6989
:1031F400DB000D4913434B6000F01CF801460A4BF9
:103204005B681B0903F00F03084AD35C21FA03F33C
:10321400074A13600020FDF7E7FD00231846103726
:10322400BD4680BD0020024000100240087D000819
:103234000000002090B48AB000AF2A4B3C1D0FCB95
:1032440084E80F00284B1B883B800023FB6100238C
:10325400BB6100237B6200237B6100233B62234B21
:103264005B68FB61FB6903F00C03042B02D0082BA1
:1032740003D02DE01E4B3B622DE0FB699B0C03F059
:103284000F0307F12802134413F8243C7B61FB6904
:1032940003F48033002B13D0144B5B685B0C03F0F6
:1032A400010307F12802134413F8283CBB617B692E
:1032B4000F4A02FB03F2BB69B2FBF3F37B6204E047
:1032C4007B690C4A02FB03F37B627B6A3B6202E08C
:1032D400074B3B6200BF3B6A18462837BD4690BC8B
:1032E400704700BF987C0008A87C000800100240CA
:1032F40000127A0000093D0080B400AF024B1B6845
:103304001846BD4680BC70470000002080B500AF61
:10331400FFF7F2FF0146054B5B681B0A03F0070346
:10332400034AD35C21FA03F3184680BD001002401F
:10333400187D000880B500AFFFF7DEFF0146054B9E
:103344005B68DB0A03F00703034AD35C21FA03F347
:10335400184680BD00100240187D000880B485B076
:1033640000AF78600A4B1B680A4AA2FB03235B0A7E
:103374007A6802FB03F3FB6000BFFB685A1EFA6025
:10338400002BF9D100BF1437BD4680BC704700BF85
:1033940000000020D34D621080B586B000AF786085
:1033A40000233B610023FB607B681B6803F001037F
:1033B400002B7DD00023FB754F4BDB6903F080535A
:1033C400002B0DD14C4BDB694B4A43F08053D36146
:1033D400494BDB6903F08053BB60BB680123FB7579
:1033E400464B1B6803F48073002B18D1434B1B68B6
:1033F400424A43F480731360FDF738FD386108E0F6
:10340400FDF734FD02463B69D31A642B01D903232B
:103414006DE03A4B1B6803F48073002BF0D0364BFD
:103424001B6A03F44073FB60FB68002B2ED07B689F
:103434005B6803F44073FA689A4227D02E4B1B6AE8
:1034440023F44073FB602E4B01221A602C4B0022A4
:103454001A60294AFB681362FB6803F00103002B1E
:1034640014D0FDF703FD38610AE0FDF7FFFC0246C6
:103474003B69D31A41F28832934201D9032336E0DF
:103484001D4B1B6A03F00203002BEED01A4B1B6A80
:1034940023F440727B685B68174913430B62FB7D1E
:1034A400012B05D1144BDB69134A23F08053D361FC
:1034B4007B681B6803F00203002B08D00E4B5B688B
:1034C40023F440427B689B680B4913434B607B6841
:1034D4001B6803F01003002B08D0074B5B6823F430
:1034E40080027B685B69044913434B6000231846E0
:1034F4001837BD4680BD00BF001002400070004078
:103504004004424290B58DB000AF78606C4B07F137
:103514000C040FCB84E80F006A4B1B883B8100230B
:103524007B620023FB6200233B620023FB610023D8
:10353400BB627B68013B0F2B00F2B98001A252F8F9
:1035440023F000BF2B36000897360008B336000876
:103554001B360008B3360008B3360008B33600083B
:1035640023360008B3360008B3360008B336000823
:10357400B3360008B3360008B3360008B336000883
:1035840089350008504B5B68FB614F4B1B6803F0A7
:103594008073002B00F08D80FB699B0C03F00F03FC
:1035A40007F13002134413F8243C3B62FB6903F433
:1035B4008033002B18D0444B5B685B0C03F0010391
:1035C40007F13002134413F8283C7B62FB6903F4CF
:1035D4008033002B0DD03D4A7B6AB2FBF3F23B6A89
:1035E40002FB03F3FB6204E03B6A394A02FB03F388
:1035F400FB62354B5B6803F48003B3F5800F02D1A3
:10360400FB6ABB6255E0FB6A5B00324AA2FB032300
:103614005B08BB624DE0FFF70DFEB8624AE0FFF7BE
:1036240009FEB86246E0284B1B6AFB61FB6903F4A0
:103634004073B3F5807F08D1FB6903F00203002BCC
:1036440003D04FF40043BB6222E0FB6903F44073F0
:10365400B3F5007F09D11C4B5B6A03F00203002B16
:1036640003D049F64043BB6212E0FB6903F44073A4
:10367400B3F5407F09D1144B1B6803F40033002BCE
:1036840003D04FF22443BB6202E00023BB6211E08B
:1036940010E0FFF74FFE02460B4B5B689B0B03F0F9
:1036A400030301335B00B2FBF3F3BB6202E000BF30
:1036B40000E000BFBB6A18463437BD4690BD00BF6A
:1036C400AC7C0008BC7C00080010024000127A00A8
:1036D40000093D00ABAAAAAA80B584B000AF786007
:1036E4000023FB607B68002B01D1012384E07B680D
:1036F4005B7CDBB2002B05D17B6800221A747868EE
:10370400FDF712F97B6802225A74786800F07AF89F
:103714000346002B04D07B6804225A7401236BE017
:10372400786800F09CF80346002B04D07B680422E0
:103734005A74012360E07B681B685A687B681B68C5
:1037440022F007025A607B689B68002B05D02C4B43
:103754001B6B2B4A23F001031363294BDB6A23F40D
:1037640060727B689B6826491343CB627B685B6805
:10377400B3F1FF3F03D07B685B68FB600EE0012080
:10378400FFF7C0FEF860FB68002B04D17B680422BD
:103794005A74012330E0FB68013BFB607B681B68C3
:1037A4009B6823F00F01FB681A0C7B681B680A43B3
:1037B4009A607B681B68DB681B0C1B04FA6891B277
:1037C4007A6812680B43D360786800F070F8034697
:1037D400002B04D07B6804225A7401230CE07B681C
:1037E4000022DA737B6801225A737B6801229A7380
:1037F4007B6801225A74002318461037BD4680BDE9
:10380400006C004080B584B000AF78600023FB609A
:103814007B68002B01D101231DE07B681B685A687B
:103824007B681B6822F008025A60FDF71FFBF860F2
:1038340009E0FDF71BFB0246FB68D31AB3F57A7F58
:1038440001D9032307E07B681B685B6803F0080366
:10385400002BEED0002318461037BD4680BD80B53E
:1038640084B000AF78600023FB60FDF7FFFAF860D6
:1038740009E0FDF7FBFA0246FB68D31AB3F57A7F39
:1038840001D903230FE07B681B685B6803F0200306
:10389400002BEED07B681B685A687B681B6842F07B
:1038A40010025A60002318461037BD4680BD80B50B
:1038B40084B000AF78600023FB607B681B685A68A3
:1038C4007B681B6822F010025A60FDF7CFFAF8609B
:1038D40009E0FDF7CBFA0246FB68D31AB3F57A7F09
:1038E40001D9032307E07B681B685B6803F02003AE
:1038F400002BEED0002318461037BD4680BD0000D3
:1039040080B487B000AFF860B9607A6000237B614F
:10391400074B7B61BB689B007A6913447B617B69BD
:103924007A6892B21A6000BF1C37BD4680BC7047EB
:10393400006C004080B485B000AF7860396000232B
:10394400FB600023BB60084BFB603B689B00FA688C
:103954001344FB60FB681B689BB2BB60BB681846E2
:103964001437BD4680BC7047006C004080B582B0FF
:1039740000AF78607B68002B01D101233FE07B68B6
:1039840093F83930DBB2002B06D17B68002283F830
:1039940038207868FDF75AF97B68242283F83920A7
:1039A4007B681B68DA687B681B6822F40052DA6063
:1039B400786800F059FC7B681B681A697B681B688F
:1039C40022F490421A617B681B685A697B681B6801
:1039D40022F02A025A617B681B68DA687B681B68DC
:1039E40042F40052DA607B680022DA637B682022AA
:1039F40083F839207B68202283F83A200023184674
:103A04000837BD4680BD80B588B002AFF860B960A4
:103A14003B601346FB8000237B61FB6893F83930DD
:103A2400DBB2202B40F08380BB68002B02D0FB88E4
:103A3400002B01D101237BE0FB6893F83830012B84
:103A440001D1022374E0FB68012283F83820FB686B
:103A54000022DA63FB68212283F83920FDF706FA95
:103A64007861FB68FA889A84FB68FA88DA8442E011
:103A7400FB68DB8C9BB2013B9AB2FB68DA84FB687F
:103A84009B68B3F5805F22D13B6800937B69002279
:103A94008021F86800F06AFA0346002B01D0032362
:103AA40046E0BB683B613B691B881A46FB681B68A0
:103AB400C2F308025A60FB681B69002B03D1BB6880
:103AC4000233BB6017E0BB680133BB6013E03B68A3
:103AD40000937B6900228021F86800F047FA0346CE
:103AE400002B01D0032323E0BB685A1CBA601A7868
:103AF400FB681B685A60FB68DB8C9BB2002BB7D158
:103B04003B6800937B6900224021F86800F02EFA9C
:103B14000346002B01D003230AE0FB68202283F82C
:103B24003920FB68002283F83820002300E00223B8
:103B340018461837BD4680BD80B586B000AFF86022
:103B4400B9601346FB80FB6893F83A30DBB2202B54
:103B540066D1BB68002B02D0FB88002B01D1012366
:103B64005FE0FB6893F83830012B01D1022358E061
:103B7400FB68012283F83820BA68FB689A62FB6804
:103B8400FA889A85FB680022DA63FB68222283F8AC
:103B94003A20FB685B6B254A9A62FB685B6B244A9C
:103BA400DA62FB685B6B234A1A63FB685B6B002277
:103BB4005A6307F108037B61FB68586BFB681B6859
:103BC400043319467B691A68FB88FDF7FBFA002366
:103BD4003B61FB681B681B683B61FB681B685B6897
:103BE4003B613B69FB68002283F83820FB681B6853
:103BF400DA68FB681B6842F48072DA60FB681B6851
:103C04005A69FB681B6842F001025A61FB681B6831
:103C14005A69FB681B6842F040025A61002300E0C5
:103C2400022318461837BD4680BD00BF593E000820
:103C3400C13E0008DD3E000880B588B000AF786062
:103C44007B681B681B68FB617B681B68DB68BB6166
:103C54007B681B685B697B6100233B610023FB601D
:103C6400FB6903F00F033B613B69002B0DD1FB693A
:103C740003F02003002B08D0BB6903F02003002BC2
:103C840003D0786800F06FFACCE03B69002B00F0B9
:103C9400AB807B6903F00103002B05D1BB6903F4FE
:103CA4009073002B00F0A080FB6903F00103002B4C
:103CB4000AD0BB6903F48073002B05D07B68DB6BEF
:103CC40043F001027B68DA63FB6903F00403002B11
:103CD4000AD07B6903F00103002B05D07B68DB6B02
:103CE40043F002027B68DA63FB6903F00203002BF2
:103CF4000AD07B6903F00103002B05D07B68DB6BE2
:103D040043F004027B68DA63FB6903F00803002BC9
:103D14000AD07B6903F00103002B05D07B68DB6BC1
:103D240043F008027B68DA637B68DB6B002B78D096
:103D3400FB6903F02003002B07D0BB6903F02003C9
:103D4400002B02D0786800F00EFA7B681B685B6970
:103D540003F04003002B14BF01230023DBB2FB60FC
:103D64007B68DB6B03F00803002B02D1FB68002B9C
:103D740031D0786800F059F97B681B685B6903F0FF
:103D84004003002B23D07B681B685A697B681B683F
:103D940022F040025A617B685B6B002B13D07B6876
:103DA4005B6B224A5A637B685B6B1846FDF76AFAC1
:103DB4000346002B16D07B685B6B5B6B7A68526B97
:103DC400104698470EE07868FCF72EFF0AE0786802
:103DD400FCF72AFF06E07868FCF726FF7B680022E0
:103DE400DA631EE000BF1CE0FB6903F08003002BD4
:103DF40008D0BB6903F08003002B03D0786800F07F
:103E040045F90FE0FB6903F04003002B0AD0BB69BE
:103E140003F04003002B05D0786800F08CF900BF54
:103E240000E000BF2037BD4680BD00BF69400008E8
:103E340080B483B000AF786000BF0C37BD4680BC4F
:103E4400704780B483B000AF786000BF0C37BD46C4
:103E540080BC704780B584B000AF78607B685B6AD3
:103E6400FB607B681B681B6803F02003002B1ED1DA
:103E7400FB680022DA85FB681B68DA68FB681B684C
:103E840022F48072DA60FB681B685A69FB681B685D
:103E940022F001025A61FB681B685A69FB681B68BF
:103EA40022F040025A61FB68202283F83A20F86825
:103EB400FCF7C3FE00BF1037BD4680BD80B584B09B
:103EC40000AF78607B685B6AFB60F868FFF7B9FF56
:103ED40000BF1037BD4680BD80B584B000AF7860A8
:103EE4000023FB607B685B6ABB60BB681B685B6923
:103EF40003F08003002B14BF01230023DBB2FB601B
:103F0400BB6893F83930DBB2212B08D1FB68002B56
:103F140005D0BB680022DA84B86800F071F8BB6889
:103F24001B685B6903F04003002B14BF01230023CB
:103F3400DBB2FB60BB6893F83A30DBB2222B08D1CA
:103F4400FB68002B05D0BB680022DA85B86800F056
:103F54006CF8BB68DB6B43F01002BB68DA63B868CB
:103F6400FCF762FE00BF1037BD4680BD80B584B04B
:103F740000AFF860B9603B601346FB712CE0BB698D
:103F8400B3F1FF3F28D0BB69002B07D0FCF76EFFCD
:103F940002463B68D31ABA699A421DD2FB681B6871
:103FA400DA68FB681B6822F4D072DA60FB681B686D
:103FB4005A69FB681B6822F001025A61FB682022DF
:103FC40083F83920FB68202283F83A20FB6800221A
:103FD40083F8382003230FE0FB681B681A68BB686A
:103FE4001340BA689A420CBF01230023DBB21A467D
:103FF400FB799A42C3D0002318461037BD4680BDD2
:1040040080B483B000AF78607B681B68DA687B6833
:104014001B6822F0C002DA607B68202283F8392012
:1040240000BF0C37BD4680BC704780B483B000AF7E
:1040340078607B681B68DA687B681B6822F490727E
:10404400DA607B681B685A697B681B6822F001028E
:104054005A617B68202283F83A2000BF0C37BD46A2
:1040640080BC704780B584B000AF78607B685B6AC1
:10407400FB60FB680022DA85FB680022DA84F868BA
:10408400FCF7D2FD00BF1037BD4680BD80B485B0BB
:1040940000AF78607B6893F83930DBB2212B44D1D0
:1040A4007B689B68B3F5805F1AD17B681B6AFB60F1
:1040B400FB681B881A467B681B68C2F308025A60B7
:1040C4007B681B69002B05D17B681B6A9A1C7B6883
:1040D4001A620EE07B681B6A5A1C7B681A6208E04D
:1040E4007B681B6A591C7A6811621A787B681B68A2
:1040F4005A607B68DB8C9BB2013B9BB27A681946A1
:10410400D184002B0FD17B681B68DA687B681B683D
:1041140022F08002DA607B681B68DA687B681B68BF
:1041240042F04002DA60002300E00223184614370C
:10413400BD4680BC704780B582B000AF78607B68B4
:104144001B68DA687B681B6822F04002DA607B68CF
:10415400202283F839207868FFF76AFE0023184686
:104164000837BD4680BD80B584B000AF78607B68F9
:1041740093F83A30DBB2222B71D17B689B68B3F59C
:10418400805F23D17B689B6AFB607B681B69002B83
:104194000ED17B681B685B689BB2C3F308039AB2B9
:1041A400FB681A807B689B6A9A1C7B689A6229E088
:1041B4007B681B685B689BB2DBB29AB2FB681A80AF
:1041C4007B689B6A5A1C7B689A621BE07B681B694C
:1041D400002B0AD17B681B6858687B689B6A591C52
:1041E4007A689162C2B21A700CE07B681B685B68E3
:1041F400DAB27B689B6A581C7968886202F07F0295
:10420400D2B21A707B68DB8D9BB2013B9BB27A6899
:104214001946D185002B20D17B681B68DA687B683E
:104224001B6822F02002DA607B681B68DA687B680E
:104234001B6822F48072DA607B681B685A697B68A9
:104244001B6822F001025A617B68202283F83A201D
:104254007868FCF7F2FC002302E0002300E002236C
:1042640018461037BD4680BDB0B584B000AF786045
:104274000023FB607B681B681B6923F440517B6847
:10428400DA687B681B680A431A617B689A687B68F2
:104294001B691A437B685B691343FA681343FB6029
:1042A4007B681B68DB6823F4B05323F00C037A6843
:1042B4001268F9680B43D3607B681B685B6923F45D
:1042C40040717B689A697B681B680A435A617B6802
:1042D4001B686F4A93426BD1FFF72CF802461346D2
:1042E4009B0013449A001A447B685B689B00B2FBF2
:1042F400F3F3684AA2FB03235B091C01FFF71AF8D6
:10430400024613469B0013449A001A447B685B6878
:104314009B00B2FBF3F5FFF70DF8024613469B0032
:1043240013449A001A447B685B689B00B2FBF3F366
:10433400584AA2FB03235B09642202FB03F3EB1A32
:104344001B013233534AA2FB03235B0903F0F0033E
:104354001C44FEF7EFFF024613469B0013449A00E9
:104364001A447B685B689B00B2FBF3F5FEF7E2FF3F
:10437400024613469B0013449A001A447B685B6808
:104384009B00B2FBF3F3434AA2FB03235B096422C1
:1043940002FB03F3EB1A1B0132333E4AA2FB032355
:1043A4005B0903F00F027B681B6822449A606AE091
:1043B400FEF7ACFF024613469B0013449A001A44CE
:1043C4007B685B689B00B2FBF3F3324AA2FB0323D6
:1043D4005B091C01FEF79AFF024613469B00134437
:1043E4009A001A447B685B689B00B2FBF3F5FEF706
:1043F4008DFF024613469B0013449A001A447B68BF
:104404005B689B00B2FBF3F3224AA2FB03235B0924
:10441400642202FB03F3EB1A1B0132331D4AA2FB95
:1044240003235B0903F0F0031C44FEF76FFF02460D
:1044340013469B0013449A001A447B685B689B00F4
:10444400B2FBF3F5FEF762FF024613469B001344EA
:104454009A001A447B685B689B00B2FBF3F30D4A35
:10446400A2FB03235B09642202FB03F3EB1A1B0187
:104474003233084AA2FB03235B0903F00F027B6873
:104484001B6822449A6000BF1037BD46B0BD00BF10
:10449400003801401F85EB5184B080B483B000AF75
:1044A400786007F1140080E80E00002318460C37EA
:1044B400BD4680BC04B0704780B485B000AF78605E
:1044C4000023FB604FF43F43FB607B68B3F840304C
:1044D4009AB2FB689BB213439AB27B68A3F840205C
:1044E400002318461437BD4680BC704780B485B09D
:1044F40000AF78600023FB604FF43D43FB607B68B2
:10450400B3F840309AB2FB689BB2DB439BB21340D2
:104514009AB27B68A3F84020002318461437BD469E
:1045240080BC704780B483B000AF78600B46FB70EA
:10453400002318460C37BD4680BC704784B080B554
:1045440082B000AF786007F1140080E80E007B6849
:104554000122A3F840207B680022A3F840207B6856
:104564000022A3F844207B680022A3F85020786836
:10457400FFF7A2FF002318460837BD46BDE8804078
:1045840004B0704790B484B000AF786039603B6881
:10459400DB78032B5FD801A252F823F0B145000861
:1045A4002F460008DD450008034600087A683B688A
:1045B4001B789B0013441B889BB223F4EC4323F029
:1045C40070039AB279683B681B789B000B4442F4F1
:1045D400007292B21A803FE07A683B681B789B00B5
:1045E40013441B889BB279683A68127892000A4493
:1045F40023F4EC4323F070039BB213802CE07A681D
:104604003B681B789B0013441B889BB223F4EC4348
:1046140023F070039AB279683B681B789B000B44C3
:1046240042F4C06292B21A8016E07A683B681B7842
:104634009B0013441B889BB223F4EC4323F07003C8
:104644009AB279683B681B789B000B4442F4806201
:1046540092B21A8000E000BF7A683B681B789B0026
:1046640013441B889AB240F60F7313409AB23B6806
:104674001B789BB2134399B27A683B681B789B0002
:104684001A44754B0B439BB213803B689B7A002BF7
:1046940040F0E8803B685B78002B4CD03B689B88FB
:1046A4005B089BB259007B68B3F850309BB21A4642
:1046B4003B681B78DB0013445A007B68134403F502
:1046C40080630A461A607A683B681B789B0013442F
:1046D4001B889BB203F04003002B13D07A683B681D
:1046E4001B789B0013441B889AB240F60F73134047
:1046F40099B27A683B681B789B001A44574B0B436A
:104704009BB213807A683B681B789B0013441B8818
:104714009BB223F4E04323F040039CB284F02003D3
:104724009CB27A683B681B789B001A444A4B23432B
:104734009BB21380D9E13B689B885B089BB259000C
:104744007B68B3F850309BB21A463B681B78DB0099
:10475400134404335A007B68134403F580630A4608
:104764001A607B68B3F850309BB21A463B681B78DA
:10477400DB00134406335A007B68134403F580635B
:10478400BB603B681B693E2B18D93B681B695B09FE
:10479400FB813B681B6903F01F03002B02D1FB89DB
:1047A400013BFB81FB899B029BB26FEA43436FEAA7
:1047B40053439BB21A46BB681A6012E03B681B69FC
:1047C4005B08FB813B681B6903F00103002B02D0EB
:1047D400FB890133FB81FB899B029BB21A46BB68B0
:1047E4001A607A683B681B789B0013441B889BB251
:1047F40003F48043002B13D07A683B681B789B003A
:1048040013441B889AB240F60F73134099B27A6826
:104814003B681B789B001A44114B0B439BB21380DB
:104824007A683B681B789B0013441B889BB223F473
:10483400804323F070039CB284F480539CB284F4CC
:1048440000539CB27A683B681B789B001A44024B65
:1048540023439BB2138048E18080FFFFC080FFFFA9
:1048640080C0FFFF7A683B681B789B0013441B8859
:104874009AB240F60F63134099B27A683B681B788A
:104884009B001A449C4B0B439BB213803B68DB8810
:104894005B089BB259007B68B3F850309BB21A4650
:1048A4003B681B78DB0013445A007B68134403F510
:1048B40080630A461A603B681B895B089BB25900F7
:1048C4007B68B3F850309BB21A463B681B78DB0018
:1048D400134404335A007B68134403F580630A4687
:1048E4001A603B685B78002B40F083807A683B68F1
:1048F4001B789B0013441B889BB203F48043002B5A
:1049040013D07A683B681B789B0013441B889AB2C7
:1049140040F60F73134099B27A683B681B789B008A
:104924001A44764B0B439BB213807A683B681B781E
:104934009B0013441B889BB203F04003002B13D04D
:104944007A683B681B789B0013441B889AB240F634
:104954000F73134099B27A683B681B789B001A4422
:10496400674B0B439BB213807A683B681B789B00B0
:1049740013441B889AB240F60F73134099B27A68B5
:104984003B681B789B001A445D4B0B439BB213801E
:104994007A683B681B789B0013441B889BB223F402
:1049A400804323F070039CB284F480539CB284F45B
:1049B40000539CB27A683B681B789B001A44514BA5
:1049C40023439BB213807A683B681B789B00134493
:1049D4001B889BB223F4E04323F040039CB27A6823
:1049E4003B681B789B001A44464B23439BB21380BD
:1049F4007BE07A683B681B789B0013441B889BB25E
:104A040003F48043002B13D07A683B681B789B0027
:104A140013441B889AB240F60F73134099B27A6814
:104A24003B681B789B001A44344B0B439BB21380A6
:104A34007A683B681B789B0013441B889BB203F085
:104A44004003002B13D07A683B681B789B00134407
:104A54001B889AB240F60F73134099B27A683B6888
:104A64001B789B001A44264B0B439BB213807A6835
:104A74003B681B789B0013441B889AB240F60F7363
:104A8400134099B27A683B681B789B001A441B4B0D
:104A94000B439BB213807A683B681B789B001344DA
:104AA4001B889BB223F4E04323F040039CB27A6852
:104AB4003B681B789B001A44124B23439BB2138020
:104AC4007A683B681B789B0013441B889BB223F4D1
:104AD400804323F070039CB27A683B681B789B0088
:104AE4001A44084B23439BB2138000231846103703
:104AF400BD4690BC704700BF8081FFFF80C0FFFFB0
:104B0400C080FFFF8080FFFF90B482B000AF786068
:104B140039603B689B7A002B6DD13B685B78002B36
:104B240034D07A683B681B789B0013441B889BB283
:104B340003F04003002B13D07A683B681B789B007A
:104B440013441B889AB240F60F73134099B27A68E3
:104B54003B681B789B001A44684B0B439BB2138041
:104B64007A683B681B789B0013441B889BB223F430
:104B7400E04323F040039CB27A683B681B789B00B7
:104B84001A445F4B23439BB2138039E17A683B6834
:104B94001B789B0013441B889BB203F48043002BB7
:104BA40013D07A683B681B789B0013441B889AB225
:104BB40040F60F73134099B27A683B681B789B00E8
:104BC4001A44504B0B439BB213807A683B681B78A2
:104BD4009B0013441B889BB223F4804323F070038F
:104BE4009CB27A683B681B789B001A44444B23436D
:104BF4009BB2138004E13B685B78002B40F0848017
:104C04007A683B681B789B0013441B889BB203F4AF
:104C14008043002B13D07A683B681B789B001344B5
:104C24001B889AB240F60F73134099B27A683B68B6
:104C34001B789B001A44334B0B439BB213807A6856
:104C44003B681B789B0013441B889BB203F0400312
:104C5400002B13D07A683B681B789B0013441B8895
:104C64009AB240F60F73134099B27A683B681B7886
:104C74009B001A44214B0B439BB213807A683B6818
:104C84001B789B0013441B889AB240F60F731340A1
:104C940099B27A683B681B789B001A44174B0B4304
:104CA4009BB213807A683B681B789B0013441B8873
:104CB4009BB223F4804323F070039CB27A683B6870
:104CC4001B789B001A440E4B23439BB213807A68D3
:104CD4003B681B789B0013441B889BB223F4E0437E
:104CE40023F040039CB27A683B681B789B001A440B
:104CF400034B23439BB2138082E000BFC080FFFFBD
:104D04008080FFFF80C0FFFF7A683B681B789B00B0
:104D140013441B889BB203F48043002B13D07A689E
:104D24003B681B789B0013441B889AB240F60F73B0
:104D3400134099B27A683B681B789B001A44334B42
:104D44000B439BB213807A683B681B789B00134427
:104D54001B889BB203F04003002B13D07A683B6896
:104D64001B789B0013441B889AB240F60F731340C0
:104D740099B27A683B681B789B001A44244B0B4316
:104D84009BB213807A683B681B789B0013441B8892
:104D94009AB240F60F73134099B27A683B681B7855
:104DA4009B001A44194B0B439BB213807A683B68EF
:104DB4001B789B0013441B889BB223F4E04323F02D
:104DC40040039CB27A683B681B789B001A44114BE1
:104DD40023439BB213807A683B681B789B0013447F
:104DE4001B889BB223F4804323F070039CB27A683F
:104DF4003B681B789B001A44064B23439BB21380E9
:104E0400002318460837BD4690BC704780C0FFFF9A
:104E1400C080FFFF8080FFFF90B58DB000AF786049
:104E240039600023FB853B689B69BB623B685B7808
:104E3400012B40F049813B689A693B681B699A429F
:104E440009D93B681B69BB623B689A69BB6AD21A81
:104E54003B689A6105E03B689B69BB623B68002242
:104E64009A613B689B7A002B1BD13B6859693B686C
:104E74009A88BB6A9BB2786800F07DFB7B68B3F8C4
:104E840050309BB21A463B681B78DB001344023354
:104E94005A007B68134403F580631A46BB6A1360A7
:104EA400F6E07A683B681B789B0013441B889BB22E
:104EB40003F04003002B59D03B685B78002B3BD1B7
:104EC4007B68B3F850309BB21A463B681B78DB0012
:104ED400134406335A007B68134403F58063BB60B4
:104EE400BB6A3E2B16D9BB6A5B09FB84BB6A03F021
:104EF4001F03002B02D1FB8C013BFB84FB8C9B0228
:104F04009BB26FEA43436FEA53439BB21A46BB68B2
:104F14001A6027E0BB6A5B08FB84BB6A03F00103E9
:104F2400002B02D0FB8C0133FB84FB8C9B029BB2D5
:104F34001A46BB681A6015E03B685B78012B11D1F7
:104F44007B68B3F850309BB21A463B681B78DB0091
:104F5400134402335A007B68134403F580631A46F2
:104F6400BB6A13603B681B89FB8558E03B685B7830
:104F7400002B3BD17B68B3F850309BB21A463B6898
:104F84001B78DB00134402335A007B68134403F597
:104F94008063FB60BB6A3E2B16D9BB6A5B09BB848A
:104FA400BB6A03F01F03002B02D1BB8C013BBB8403
:104FB400BB8C9B029BB26FEA43436FEA53439BB2A1
:104FC4001A46FB681A6027E0BB6A5B08BB84BB6AAD
:104FD40003F00103002B02D0BB8C0133BB84BB8CD8
:104FE4009B029BB21A46FB681A6015E03B685B782B
:104FF400012B11D17B68B3F850309BB21A463B6841
:105004001B78DB00134402335A007B68134403F516
:1050140080631A46BB6A13603B68DB88FB853B6888
:105024005969BB6A9BB2FA8D786800F0A4FA3B68B0
:105034005B78002B14D17A683B681B789B0013447F
:105044001B889AB240F60F73134099B27A683B6892
:105054001B789B001A44924B0B439BB2138017E0BE
:105064003B685B78012B13D17A683B681B789B0003
:1050740013441B889AB240F60F73134099B27A68AE
:105084003B681B789B001A44864B0B439BB21380EE
:105094007A683B681B789B0013441B889BB223F4FB
:1050A400E04323F040039CB284F010039CB284F0EC
:1050B40020039CB27A683B681B789B001A447A4BA5
:1050C40023439BB2138022E13B689A693B681B69C6
:1050D4009A4209D93B681B69BB623B689A69BB6AFF
:1050E400D21A3B689A6105E03B689B69BB623B68E6
:1050F40000229A613B689B7A002B3BD17B68B3F812
:1051040050309BB21A463B681B78DB0013440633CD
:105114005A007B68134403F580633B61BB6A3E2BF2
:1051240016D9BB6A5B097B84BB6A03F01F03002B9F
:1051340002D17B8C013B7B847B8C9B029BB26FEA0C
:1051440043436FEA53439BB21A463B691A60C3E078
:10515400BB6A5B087B84BB6A03F00103002B02D0AB
:105164007B8C01337B847B8C9B029BB21A463B690C
:105174001A60B1E03B685B78002B3BD17B68B3F8E5
:1051840050309BB21A463B681B78DB001344023351
:105194005A007B68134403F58063BB61BB6A3E2BF2
:1051A40016D9BB6A5B093B84BB6A03F01F03002B5F
:1051B40002D13B8C013B3B843B8C9B029BB26FEA4C
:1051C40043436FEA53439BB21A46BB691A6027E014
:1051D400BB6A5B083B84BB6A03F00103002B02D06B
:1051E4003B8C01333B843B8C9B029BB21A46BB69CC
:1051F4001A6015E03B685B78012B11D17B68B3F82A
:1052040050309BB21A463B681B78DB0013440233D0
:105214005A007B68134403F580631A46BB6A136023
:105224003B685B78002B41D17B68B3F850309BB26C
:105234001A463B681B78DB00134406335A007B682C
:10524400134403F580637B61BB6A3E2B16D9BB6AAA
:105254005B09FB83BB6A03F01F03002B02D1FB8BAA
:10526400013BFB83FB8B9B029BB26FEA43436FEAD8
:1052740053439BB21A467B691A602DE0BB6A5B08F4
:10528400FB83BB6A03F00103002B02D0FB8B0133C9
:10529400FB83FB8B9B029BB21A467B691A601BE063
:1052A400C080FFFF80C0FFFF8080FFFF3B685B780A
:1052B400012B11D17B68B3F850309BB21A463B687E
:1052C4001B78DB00134402335A007B68134403F554
:1052D40080631A46BB6A13607A683B681B789B003C
:1052E40013441B889BB223F4804323F070039CB2C5
:1052F40084F480539CB284F400539CB27A683B6873
:105304001B789B001A44044B23439BB21380002355
:1053140018463437BD4690BD8080FFFF90B482B0FC
:1053240000AF786039603B681B78002B18D17A682D
:105334003B681B789B0013441B889BB24BF6BF74DD
:105344001C4084F4805484F01004A1B27A683B6851
:105354001B789B001A44204B0B439BB2138034E010
:105364003B685B78002B18D07A683B681B789B00FD
:1053740013441B889BB223F4E04323F040039CB204
:1053840084F010039CB27A683B681B789B001A4433
:10539400114B23439BB2138017E07A683B681B7858
:1053A4009B0013441B889BB223F4804323F07003B7
:1053B4009CB284F480539CB27A683B681B789B004F
:1053C4001A44054B23439BB2138000231846083725
:1053D400BD4690BC704700BF8080FFFF90B482B090
:1053E40000AF786039603B685B78002B3AD07A680C
:1053F4003B681B789B0013441B889BB203F040035B
:10540400002B13D07A683B681B789B0013441B88DD
:105414009AB240F60F73134099B27A683B681B78CE
:105424009B001A442F4B0B439BB213807A683B6852
:105434001B789B0013441B889BB223F4E04323F0A6
:1054440040039CB284F010039CB284F020039CB20D
:105454007A683B681B789B001A44234B23439BB216
:10546400138039E07A683B681B789B0013441B88DF
:105474009BB203F48043002B13D07A683B681B78FB
:105484009B0013441B889AB240F60F73134099B2E1
:105494007A683B681B789B001A44144B0B439BB2FD
:1054A40013807A683B681B789B0013441B889BB26B
:1054B40023F4804323F070039CB284F480539CB2A1
:1054C40084F400539CB27A683B681B789B001A44AE
:1054D400054B23439BB21380002318460837BD466F
:1054E40090BC7047C080FFFF8080FFFF80C0FFFF3B
:1054F40080B483B000AF78600B46FB70FB78002B60
:1055040003D17B688022A3F84C20002318460C3773
:10551400BD4680BC704780B483B000AF7860002380
:1055240018460C37BD4680BC704780B483B000AFCA
:105534007860002318460C37BD4680BC704780B4A1
:1055440085B000AF78600023FB607B68B3F844301B
:105554009BB2FB60FB6818461437BD4680BC70479D
:1055640080B483B000AF78603960002318460C37EC
:10557400BD4680BC704780B48BB000AFF860B960A2
:1055840011461A460B46FB801346BB80BB88013389
:105594005B10FB6100237B620023BB6100237B6102
:1055A40000233B62FB885B001A46FB68134403F547
:1055B40080633B62FB697B621BE0BB681B78BB6159
:1055C400BB680133BB60BB681B781B021A46BB690E
:1055D40013437B613B6A9A1C3A627A6992B21A80DD
:1055E4003B6A02333B62BB680133BB607B6A013BAD
:1055F4007B627B6A002BE0D100BF2C37BD4680BCA8
:10560400704780B489B000AFF860B96011461A469B
:105614000B46FB801346BB80BB8801335B107B6168
:105624000023FB610023BB61FB885B001A46FB6817
:10563400134403F58063BB617B69FB610EE0BB69C6
:105644001A1DBA611968BB685A1CBA608AB21A80FA
:10565400BB680133BB60FB69013BFB61FB69002B49
:10566400EDD100BF2437BD4680BC704780B584B0FF
:1056740000AF78600B46FB700023FB737B681B7CD8
:10568400002B0ED14FF4007302228121786801F0BF
:105694000CFD4FF4007302220121786801F005FD2E
:1056A4000BE0402302228121786801F0FEFC4023B4
:1056B40002220121786801F0F8FC082303228221E8
:1056C400786801F0F2FC4FF4077001F00FFE024617
:1056D4007B68C3F818227B68D3F81832002B02D1F8
:1056E4000123FB7326E07B68D3F81832BB607B6828
:1056F400D3F81C321B689847BB680022C3F81422F5
:10570400BB680022C3F818227B681B7C002B09D1DC
:10571400BB68D3F804224FF400730121786801F0C8
:10572400AEFD07E0BB68D3F804224023012178686A
:1057340001F0A5FDFB7B18461037BD4680BD80B542
:1057440084B000AF78600B46FB700023FB738121AB
:10575400786801F0D0FC0121786801F0CCFC82214A
:10576400786801F0C8FC7B68D3F81832002B0ED09F
:105774007B68D3F81C325B6898477B68D3F818328F
:10578400184601F0BFFD7B680022C3F81822FB7B9A
:1057940018461037BD4680BD80B584B000AF786030
:1057A40039607B68D3F81832FB603B681B7803F0E0
:1057B4006003002B3AD0202B00D043E03B68DB8809
:1057C400002B29D03B681B785BB2002B11DA7B6875
:1057D400D3F81C329B683A685078F9683A68D288E2
:1057E4009847F9683B68DB881A46786801F00EF838
:1057F40029E03B685A78FB6883F800223B68DB8821
:10580400DAB2FB6883F80122F9683B68DB881A4640
:10581400786801F029F816E07B68D3F81C329B689D
:105824003A6850780022396898470CE03B685B7806
:105834000A2B01D00B2B05E001220549786800F002
:10584400E5FF00BF00BF002318461037BD4680BDEA
:105854004C03002080B485B000AF78600B46FB7029
:105864007B68D3F81832FB607B68D3F81832002BBE
:1058740005D0FB680022C3F81422002300E00223B1
:1058840018461437BD4680BC704780B584B000AF5D
:1058940078600B46FB707B68D3F81832FB60FB78AA
:1058A4001946786801F00EFD0246FB68C3F80C2225
:1058B4007B68D3F81832002B0DD07B68D3F81C32E8
:1058C400DB68FA68D2F80402FA6802F5037211463A
:1058D4009847002300E0022318461037BD4680BDD8
:1058E40080B584B000AF78607B68D3F81832FB6071
:1058F4007B68D3F81C32002B15D0FB6893F8003278
:10590400FF2B10D07B68D3F81C329B68FA6892F89E
:105914000002F968FA6892F8012292B29847FB688B
:10592400FF2283F80022002318461037BD4680BDAD
:1059340080B483B000AF78607B6843221A80034B45
:1059440018460C37BD4680BC704700BFB400002029
:1059540080B483B000AF78607B6843221A80034B25
:1059640018460C37BD4680BC704700BF700000204D
:1059740080B483B000AF78607B6843221A80034B05
:1059840018460C37BD4680BC704700BFF8000020A5
:1059940080B483B000AF78607B680A221A80034B1E
:1059A40018460C37BD4680BC704700BF2C00002051
:1059B40080B485B000AF786039600223FB733B6824
:1059C400002B05D07B683A68C3F81C220023FB73C4
:1059D400FB7B18461437BD4680BC704780B487B043
:1059E40000AFF860B9601346FB80FB68D3F8183247
:1059F4007B617B69BA68C3F80822FA887B69C3F8BB
:105A04001022002318461C37BD4680BC704780B462
:105A140085B000AF786039607B68D3F81832FB60DA
:105A2400FB683A68C3F80422002318461437BD46BD
:105A340080BC704780B584B000AF78607B68D3F8D1
:105A44001832FB607B68D3F81832002B17D0FB6840
:105A5400D3F81432002B10D1FB680122C3F81422AE
:105A6400FB68D3F80822FB68D3F810329BB281217B
:105A7400786801F0E1FB002302E0012300E0022347
:105A840018461037BD4680BD80B584B000AF78603D
:105A94007B68D3F81832FB607B68D3F81832002B8C
:105AA40017D07B681B7C002B09D1FB68D3F8042238
:105AB4004FF400730121786801F0E1FB07E0FB6813
:105AC400D3F8042240230121786801F0D8FB002395
