:020000040800F2
:1050000000000120A16100084D60000859600008FF
:105010005F600008656000086B6000080000000029
:1050200000000000000000000000000071600008A7
:105030007D6000080000000089600008956000089D
:10504000E9610008E9610008E9610008E961000818
:10505000E9610008E9610008E9610008E961000808
:10506000E9610008E9610008E9610008E9610008F8
:10507000E9610008E9610008E9610008A160000831
:10508000E9610008E9610008E9610008E9610008D8
:10509000B5600008E9610008E9610008E9610008FD
:1050A000E9610008E9610008E9610008E9610008B8
:1050B000E9610008E9610008E9610008E9610008A8
:1050C000E9610008E9610008E9610008E961000898
:1050D000E9610008C9600008E9610008E9610008A9
:1050E000E9610008E9610008E9610008E961000878
:1050F000E9610008E9610008E9610008E961000868
:10510000E9610008E9610008E9610008E961000857
:10511000E9610008E9610008E9610008E961000847
:10512000E9610008E9610008E9610008E961000837
:10513000000000000000000000000000000000006F
:10514000000000000000000000000000000000005F
:10515000000000000000000000000000000000004F
:10516000000000000000000000000000000000003F
:10517000000000000000000000000000000000002F
:10518000000000000000000000000000000000001F
:10519000000000000000000000000000000000000F
:1051A00000000000000000000000000000000000FF
:1051B00000000000000000000000000000000000EF
:1051C00000000000000000000000000000000000DF
:1051D00000000000000000000000000000000000CF
:0451E0005FF8E0F1A3
:1051E80010B5054C237833B9044B13B10448AFF319
:1051F80000800123237010BD74030020000000000C
:10520800FC08010808B5034B1BB103490348AFF379
:10521800008008BD0000000078030020FC08010899
:1052280010F8012B11F8013B012A28BF9A42F7D048
:10523800D01A7047034613F8012B002AFBD1181A1D
:105248000138704781F0004102E000BF83F000435D
:1052580030B54FEA41044FEA430594EA050F08BF09
:1052680090EA020F1FBF54EA000C55EA020C7FEACD
:10527800645C7FEA655C00F0E2804FEA5454D4EB4A
:105288005555B8BF6D420CDD2C4480EA020281EA14
:10529800030382EA000083EA010180EA020281EA4C
:1052A8000303362D88BF30BD11F0004F4FEA01319E
:1052B8004FF4801C4CEA113102D0404261EB4101AD
:1052C80013F0004F4FEA03334CEA133302D0524233
:1052D80063EB430394EA050F00F0A780A4F10104EF
:1052E800D5F1200E0DDB02FA0EFC22FA05F2801829
:1052F80041F1000103FA0EF2801843FA05F359410F
:105308000EE0A5F120050EF1200E012A03FA0EFC8D
:1053180028BF4CF0020C43FA05F3C01851EBE371B7
:1053280001F0004507D54FF0000EDCF1000C7EEBD4
:1053380000006EEB0101B1F5801F1BD3B1F5001F12
:105348000CD349085FEA30004FEA3C0C04F1010431
:105358004FEA445212F5800F80F09A80BCF1004F5A
:1053680008BF5FEA500C50F1000041EB045141EADC
:10537800050130BD5FEA4C0C404141EB010111F4DD
:10538800801FA4F10104E9D191F0000F04BF014688
:105398000020B1FA81F308BF2033A3F10B03B3F166
:1053A80020020CDA0C3208DD02F1140CC2F10C02F6
:1053B80001FA0CF021FA02F10CE002F11402D8BF54
:1053C800C2F1200C01FA02F120FA0CFCDCBF41EA20
:1053D8000C019040E41AA2BF01EB0451294330BDEF
:1053E8006FEA04041F3C1CDA0C340EDC04F11404CC
:1053F800C4F1200220FA04F001FA02F340EA0300A3
:1054080021FA04F345EA030130BDC4F10C04C4F1E8
:10541800200220FA02F001FA04F340EA03002946C8
:1054280030BD21FA04F0294630BD94F0000F83F412
:10543800801306BF81F480110134013D4EE77FEAF5
:10544800645C18BF7FEA655C29D094EA050F08BF41
:1054580090EA020F05D054EA000C04BF1946104622
:1054680030BD91EA030F1EBF0021002030BD5FEA66
:10547800545C05D14000494128BF41F0004130BD8E
:1054880014F580043CBF01F5801130BD01F00045E2
:1054980045F0FE4141F470014FF0000030BD7FEA55
:1054A800645C1ABF194610467FEA655C1CBF0B4650
:1054B800024650EA013406BF52EA033591EA030F67
:1054C80041F4002130BD00BF90F0000F04BF00215F
:1054D800704730B54FF4806404F132044FF0000592
:1054E8004FF0000150E700BF90F0000F04BF00210B
:1054F800704730B54FF4806404F1320410F0004571
:1055080048BF40424FF000013EE700BF42004FEA6B
:10551800E2014FEA31014FEA02701FBF12F07F43E8
:1055280093F07F4F81F06051704732F07F4208BF9F
:10553800704793F07F4F04BF41F40021704730B5A6
:105548004FF4607401F0004521F000411CE700BFF2
:1055580050EA010208BF704730B54FF000050AE075
:1055680050EA010208BF704730B511F0004502D576
:10557800404261EB41014FF4806404F132045FEA78
:10558800915C3FF4D8AE4FF003025FEADC0C18BF21
:1055980003325FEADC0C18BF033202EBDC02C2F113
:1055A800200300FA03FC20FA02F001FA03FE40EAA5
:1055B8000E0021FA02F11444BDE600BF70B54FF0A9
:1055C800FF0C4CF4E06C1CEA11541DBF1CEA135587
:1055D80094EA0C0F95EA0C0F00F0DEF82C4481EAEF
:1055E800030621EA4C5123EA4C5350EA013518BF0F
:1055F80052EA033541F4801143F4801338D0A0FBFC
:1056080002CE4FF00005E1FB02E506F00042E0FBA8
:1056180003E54FF00006E1FB03569CF0000F18BFAE
:105628004EF0010EA4F1FF04B6F5007F64F5407456
:1056380004D25FEA4E0E6D4146EB060642EAC621E9
:1056480041EA55514FEAC52040EA5E504FEACE2E56
:10565800B4F1FD0C88BFBCF5E06F1ED8BEF1004F59
:1056680008BF5FEA500E50F1000041EB045170BDD5
:1056780006F0004646EA010140EA020081EA030119
:10568800B4EB5C04C2BFD4EB0C0541EA045170BD15
:1056980041F480114FF0000E013C00F3AB8014F18F
:1056A800360FDEBF002001F0004170BDC4F10004D8
:1056B800203C35DA0C341BDC04F11404C4F1200559
:1056C80000FA05F320FA04F001FA05F240EA0200B4
:1056D80001F0004221F0004110EBD37021FA04F6EA
:1056E80042EB06015EEA430E08BF20EAD37070BDA4
:1056F800C4F10C04C4F1200500FA04F320FA05F003
:1057080001FA04F240EA020001F0004110EBD37004
:1057180041F100015EEA430E08BF20EAD37070BD74
:10572800C4F1200500FA05F24EEA020E20FA04F34D
:1057380001FA05F243EA020321FA04F001F00041FC
:1057480021FA04F220EA020000EBD3705EEA430E6D
:1057580008BF20EAD37070BD94F0000F0FD101F09C
:105768000046400041EB010111F4801F08BF013CD5
:10577800F7D041EA060195F0000F18BF704703F013
:105788000046520043EB030313F4801F08BF013D9A
:10579800F7D043EA0603704794EA0C0F0CEA135556
:1057A80018BF95EA0C0F0CD050EA410618BF52EA10
:1057B8004306D1D181EA030101F000414FF0000016
:1057C80070BD50EA410606BF1046194652EA430624
:1057D80019D094EA0C0F02D150EA013613D195EA98
:1057E8000C0F05D152EA03361CBF104619460AD1E0
:1057F80081EA030101F0004141F0FE4141F47001EA
:105808004FF0000070BD41F0FE4141F4780170BDD9
:1058180070B54FF0FF0C4CF4E06C1CEA11541DBF3E
:105828001CEA135594EA0C0F95EA0C0F00F0A7F840
:10583800A4EB050481EA030E52EA03354FEA01316D
:1058480000F088804FEA03334FF0805545EA131380
:1058580043EA12634FEA022245EA111545EA106548
:105868004FEA00260EF000419D4208BF964244F1DF
:10587800FD0404F5407402D25B084FEA3202B61AFE
:1058880065EB03055B084FEA32024FF480104FF4D2
:10589800002CB6EB020E75EB030E22BFB61A754646
:1058A80040EA0C005B084FEA3202B6EB020E75EBD9
:1058B800030E22BFB61A754640EA5C005B084FEA41
:1058C8003202B6EB020E75EB030E22BFB61A75460E
:1058D80040EA9C005B084FEA3202B6EB020E75EB19
:1058E800030E22BFB61A754640EADC0055EA060EDA
:1058F80018D04FEA051545EA16754FEA06164FEA1D
:10590800C30343EA52734FEAC2025FEA1C1CC0D1C8
:1059180011F4801F0BD141EA00014FF000004FF055
:10592800004CB6E711F4801F04BF01430020B4F116
:10593800FD0C88BFBCF5E06F3FF6AFAEB5EB030CCE
:1059480004BFB6EB020C5FEA500C50F1000041EBCB
:10595800045170BD0EF0004E4EEA113114EB5C0498
:10596800C2BFD4EB0C0541EA045170BD41F480116B
:105978004FF0000E013C90E645EA060E8DE60CEA73
:10598800135594EA0C0F08BF95EA0C0F3FF43BAF90
:1059980094EA0C0F0AD150EA01347FF434AF95EA47
:1059A8000C0F7FF425AF104619462CE795EA0C0F2B
:1059B80006D152EA03353FF4FDAE1046194622E7F8
:1059C80050EA410618BF52EA43067FF4C5AE50EAD2
:1059D80041047FF40DAF52EA43057FF4EBAE12E7C2
:1059E8004FF0FF3C06E000BF4FF0010C02E000BFA3
:1059F8004FF0010C4DF804CD4FEA410C7FEA6C5C86
:105A08004FEA430C18BF7FEA6C5C1BD001B050EA28
:105A1800410C0CBF52EA430C91EA030F02BF90EA13
:105A2800020F0020704710F1000F91EA030F58BFD2
:105A3800994208BF90422CBFD8176FEAE37040F034
:105A4800010070474FEA410C7FEA6C5C02D150EAD2
:105A5800013C07D14FEA430C7FEA6C5CD6D152EA8D
:105A6800033CD3D05DF8040B704700BF8446104652
:105A780062468C461946634600E000BF01B5FFF751
:105A8800B7FF002848BF10F1000F01BD4DF808ED21
:105A9800FFF7F4FF0CBF012000205DF808FB00BFF2
:105AA8004DF808EDFFF7EAFF34BF012000205DF84C
:105AB80008FB00BF4DF808EDFFF7E0FF94BF012099
:105AC80000205DF808FB00BF4DF808EDFFF7CEFF9A
:105AD80094BF012000205DF808FB00BF4DF808EDD9
:105AE800FFF7C4FF34BF012000205DF808FB00BFAA
:105AF8004FEA410C7FEA6C5C02D150EA013C0AD1C2
:105B08004FEA430C7FEA6C5C02D152EA033C02D1B3
:105B18004FF0000070474FF0010070474FEA410214
:105B280012F5001215D211D56FF47873B3EB6252E7
:105B380012D94FEAC12343F0004343EA505311F00E
:105B4800004F23FA02F018BF404270474FF00000A0
:105B5800704750EA013005D111F0004008BF6FF0DE
:105B6800004070474FF00000704700BF4A0011D254
:105B780012F5001211D20DD56FF47873B3EB62529F
:105B88000ED44FEAC12343F0004343EA505323FAAB
:105B980002F070474FF00000704750EA013002D120
:105BA8004FF0FF3070474FF0000070474FEA410256
:105BB800B2F1E04324BFB3F5001CDCF1FE5C0DD963
:105BC80001F0004C4FEAC0024CEA5070B2F1004FAD
:105BD80040EB830008BF20F00100704711F0804FB0
:105BE80021D113F13872BCBF01F00040704741F475
:105BF80080114FEA5252C2F11802C2F1200C10FA79
:105C08000CF320FA02F018BF40F001004FEAC1235C
:105C18004FEAD32303FA0CFC40EA0C0023FA02F300
:105C28004FEA4303CCE77FEA625307D150EA0133D6
:105C38001EBF4FF0FE4040F44000704701F00040A6
:105C480040F0FE4040F40000704700BF4FF0FF3CBA
:105C580006E000BF4FF0010C02E000BF4FF0010C5E
:105C68004DF804CD4FEA40024FEA41037FEA226C27
:105C780018BF7FEA236C11D001B052EA530C18BF49
:105C880090EA010F58BFB2EB030088BFC81738BFAE
:105C98006FEAE17018BF40F0010070477FEA226C9C
:105CA80002D15FEA402C05D17FEA236CE4D15FEA98
:105CB800412CE1D05DF8040B704700BF84460846CC
:105CC8006146FFE70FB5FFF7C9FF002848BF10F18D
:105CD800000F0FBD4DF808EDFFF7F4FF0CBF0120D2
:105CE80000205DF808FB00BF4DF808EDFFF7EAFF5C
:105CF80034BF012000205DF808FB00BF4DF808ED17
:105D0800FFF7E0FF94BF012000205DF808FB00BF0B
:105D18004DF808EDFFF7D2FF94BF012000205DF891
:105D280008FB00BF4DF808EDFFF7C8FF34BF01209E
:105D380000205DF808FB00BF4FEA40024FEA41032C
:105D48007FEA226C02D15FEA402C08D17FEA236CFB
:105D580002D15FEA412C02D14FF0000070474FF0AA
:105D68000100704780B500AF4FF46141002001F099
:105D7800CFFB4FF46141012001F0CAFB4FF46141B0
:105D8800002000F0EBFA00BF80BD000080B582B0B3
:105D980000AF00F076F8786000F073F802467B6890
:105DA800D31AB3F5FA7F05D300F06BF878600020BA
:105DB80001F088FA012001F041FC0346002B0AD0CB
:105DC800012001F06DFC0346FB70FB781A4603497D
:105DD800012001F0B3FC00F079FBDDE718090108A8
:105DE80080B586B000AF01F0C5FD00F051F800F0B5
:105DF800B1F81C4B9B691B4A43F020039361194B74
:105E08009B6903F020037B607B68164B9B69154AEE
:105E180043F004039361134B9B6903F004033B6055
:105E28003B6807F1080300221A605A609A60DA603A
:105E38004FF48053BB601123FB6000233B610223B6
:105E48007B6107F108031946074802F009FC0022A4
:105E58004FF48051044802F043FE00BF1837BD4696
:105E680080BD00BF001002400008014080B582B02C
:105E780000AF7860786801F0DFFD00BF0837BD46E5
:105E880080BD80B500AF01F0CDFD0346184680BD4A
:105E980080B596B000AF07F13003282200211846DC
:105EA80008F04CFA07F11C0300221A605A609A6045
:105EB800DA601A613B1D00221A605A609A60DA6043
:105EC8001A615A6105233B634FF480337B630023D7
:105ED800BB630123FB6301233B640223FB644FF490
:105EE80080333B654FF4E0137B6507F130031846B8
:105EF80003F07EFD0346002B01D000F06BF80F2362
:105F0800FB6102233B6200237B624FF48063BB6228
:105F18000023FB6207F11C030221184603F0CCFFA3
:105F28000346002B01D000F055F811237B604FF495
:105F38008073BB600023BB613B1D184604F07AF9EF
:105F48000346002B01D000F045F800BF5837BD4686
:105F580080BD000080B586B000AF07F108030022BD
:105F68001A605A609A60DA60184B9B69174A43F0C6
:105F780008039361154B9B6903F008037B607B68FA
:105F8800124B9B69114A43F0040393610F4B9B69C1
:105F980003F004033B603B6800224FF470410C4857
:105FA80002F09EFD4FF47043BB600123FB600023A9
:105FB8003B6102237B6107F108031946044802F09C
:105FC8004FFB00BF1837BD4680BD00BF0010024020
:105FD800000C014080B400AF00BFBD4680BC7047D4
:105FE80080B485B000AF154B9B69144A43F0010398
:105FF8009361124B9B6903F00103BB60BB680F4BB5
:10600800DB690E4A43F08053D3610C4BDB6903F024
:1060180080537B607B680A4B5B68FB60FB6823F0FE
:10602800E063FB60FB6843F00073FB60044AFB68B5
:10603800536000BF1437BD4680BC70470010024053
:106048000000014080B400AF00BFBD4680BC70476F
:1060580080B400AFFEE780B400AFFEE780B400AFC5
:10606800FEE780B400AFFEE780B400AF00BFBD46D6
:1060780080BC704780B400AF00BFBD4680BC70478D
:1060880080B400AF00BFBD4680BC704780B500AF8C
:1060980001F0B6FC00BF80BD80B500AF024802F039
:1060A80075F800BF80BD00BFAC12002080B500AFFE
:1060B800024802F03EFE00BF80BD00BF282100203C
:1060C80080B500AF024804F029FD00BF80BD00BFC5
:1060D800F012002080B584B000AF7860114B1B68C7
:1060E800002B02D10F4B104A1A600E4B1B68FB6045
:1060F8000C4B1A687B6813446A46934207D908F028
:10610800F3F802460C2313604FF0FF3306E0054B0B
:106118001A687B681344034A1360FB6818461037F3
:10612800BD4680BD900300209025002080B400AFBC
:10613800154B1B68144A43F001031360124B5A684D
:106148001149124B13404B600F4B1B680E4A23F04A
:10615800847323F4803313600B4B1B680A4A23F4BF
:1061680080231360084B5B68074A23F4FE035360DF
:10617800054B4FF41F029A60054B064A9A6000BF10
:10618800BD4680BC704700BF001002400000FFF809
:1061980000ED00E000500008002103E00B4B5B58C5
:1061A800435004310A480B4B42189A42F6D30A4A24
:1061B80002E0002342F8043B084B9A42F9D3FFF768
:1061C800B5FF08F097F808F083F87047E00D01086C
:1061D8000000002074030020740300208C25002098
:1061E800FEE780B487B000AFF860B9607A60012339
:1061F800FB75FB6800221A60FB6800225A60FB6886
:106208007A689A60FB68BA68DA60FB7D18461C37C2
:10621800BD4680BC704780B487B000AFF860B960F5
:106228007A600123FB7500233B6126E0FB68DB688D
:10623800002B09D0FB68DA68FB685B681A443B6985
:10624800B9680B4412781A70FB685A68FB681B68B7
:106258009A420CD0FB685B680133FA689268B3FB1A
:10626800F2F102FB01F29A1AFB685A6002E000237D
:10627800FB7506E03B6901333B613B697A689A42EA
:10628800D4D8FB7D18461C37BD4680BC704780B407
:1062980085B000AF78607B689A687B681B681A4491
:1062A8007B685B68D31A7A689268B3FBF2F102FBE9
:1062B80001F29B1AFB60FB6818461437BD4680BC88
:1062C8007047000080B500AF1B4B00221A721A4BB2
:1062D80000225A72184B00221A74174B002283F8B6
:1062E8009521154B002283F89621134B002283F841
:1062F8009721114B002283F894210F4B0F4AC3F8C2
:1063080094230D4B0E4AC3F898230B4B0D4AC3F840
:106318009C23094B0C4AC3F8A023074800F05CFBF8
:106328000A490B4800F00CFE0A490B4800F008FE29
:106338000123184680BD00BFF40E0020E56D00085B
:10634800356E0008856E0008C96E0008DD6F00080C
:10635800240901084D7000082C09010880B582B095
:1063680000AF03463960FB710A4AFB791370094A8A
:106378003B685360FB793968184601F0C9F8034651
:106388001A46044B1A72034B1B7A18460837BD4647
:1063980080BD00BFF40E002080B584B000AF7860E7
:1063A800344B5B7A002B61D07B68987A7B6893F8D2
:1063B80045321A46304901F0C1F97B68987A7B6802
:1063C80093F846321A462D4901F0B8F97B68987A55
:1063D8007B6893F844321A46294901F0AFF97B6883
:1063E800987A7B6803F509731A46264901F0A6F9DD
:1063F8007B68987A7B6893F995311A46224901F0AF
:106408009DF97B68987A7B6893F896311A461F49FC
:1064180001F094F97B68987A7B6893F897311A466B
:106428001B4901F08BF90023FB6012E07B68987A26
:10643800FA6813469B001344DA00D21A02F5CC73AB
:106448007A681344FA68134901F078F9FB68013354
:10645800FB607B6893F897311A46FB689342E5DB4B
:106468007B689B7A0C49184601F068F900BF103721
:10647800BD4680BDF40E002030090108400901081E
:10648800500901086009010870090108800901081C
:1064980090090108A0090108B009010880B582B077
:1064A80000AF78607B681B780649184601F046F90A
:1064B8007B681B780449184601F040F900BF08378B
:1064C800BD4680BDB4090108B809010880B500AF10
:1064D8000E4B1B7A83F00103DBB2002B01D00023A3
:1064E80012E00A4B1B78184601F0A8F80346002B67
:1064F80009D0064B1B78184601F0D2F80346194616
:10650800024800F005F80123184680BDF40E00206B
:1065180080B58CB000AF78600B46FB70002387F81D
:1065280023307B6803F50973FB617B681B7C002BB8
:1065380040F06581FB780D2B09D00D2B02DC082B70
:1065480065D0D4E01B2B1CD07F2B1ED0CFE0FB697D
:1065580093F82230002B05D0786800F056FA786856
:1065680000F042FBFB69002283F82220FB6900222D
:1065780083F82120FB6900221A707868FFF78EFFE4
:1065880044E17B6801221A7440E1FB6993F82120F9
:10659800FB6993F822309A4280F03381FB6993F8C3
:1065A8002220FB6993F82130D31AFB760123FB6282
:1065B80013E0FB6993F821301A46FB6A1A44FB6919
:1065C80093F821301946FB6A0B44013BF969895C51
:1065D800FA69D154FB6A0133FB62FB7EFA6A9A427C
:1065E800E7DBFB6993F82230013BDAB2FB6983F8F9
:1065F8002220FB6993F822301A46FB69002199543E
:106608007B681B788E49184601F098F8F9E0FB6919
:1066180093F82230002B55D0FB6993F82130002BDA
:1066280050D0FB6993F82120FB6993F822309A42F5
:106638000ED1FB6993F82230013BDAB2FB6983F88B
:106648002220FB6993F822301A46FB6900219954ED
:10665800FB6993F82120FB6993F822309A4231D2E2
:10666800FB6993F82220FB6993F82130D31ABB7693
:106678000023BB6213E0FB6993F821301A46BB6A1A
:106688001A44FB6993F821301946BB6A0B44013B55
:10669800F969895CFA69D154BB6A0133BB62BB7E74
:1066A800BA6A9A42E7DBFB6993F82230013BDAB217
:1066B800FB6983F82220FB6993F822301A46FB69AC
:1066C80000219954FB6993F82130002B00F09B803E
:1066D800FB6993F82130013BDAB2FB6983F821208A
:1066E8007B681B785749184601F028F88BE0FB694E
:1066F80093F822300133FA6992F82020934280F20D
:106708008480FB6993F82120FB6993F822309A4230
:1067180024D17B681B78F91C0122184600F0E2FF9F
:10672800FB6993F821301A46F978FB699954FB699B
:1067380093F822300133DAB2FB6983F82220FB692F
:1067480093F821300133DAB2FB6983F82120FB6921
:1067580093F822301A46FB6900219954FB6993F893
:106768002120FB6993F822309A424ED2FB6993F8B4
:106778002220FB6993F82130D31A7B7600237B62B1
:1067880013E0FB6993F822301A467B6AD31A5A1E23
:10679800FB6993F8223019467B6ACB1AF969895C40
:1067A800FA69D1547B6A01337B627B7E7A6A9A42AA
:1067B800E7DBFB6993F821301A46F978FB699954AD
:1067C800FB6993F822300133DAB2FB6983F822209F
:1067D800FB6993F821300133DAB2FB6983F8212091
:1067E800FB6993F822301A46FB69002199547B68AB
:1067F8001B78FA781449184600F0A0FF05E000BF9E
:1068080004E000BF02E000BF00E000BF7B681B7C23
:10681800013B032B00F2D38001A252F823F000BF02
:10682800396800084168000855680008BD69000813
:106838007B6802221A74C2E07B6803221A74BEE0E5
:10684800C0090108C8090108D00901087B680022AD
:106858001A74FB78442B1AD1FB6993F82130002B6A
:1068680015D0FB6993F82130013BDAB2FB6983F854
:1068780021201B233B735B237B73FB78BB737B68F3
:106888001B7807F10C010322184600F02BFFFB7858
:10689800432B1DD1FB6993F82120FB6993F8203025
:1068A8009A4207D2FB6993F821300133DAB2FB69C7
:1068B80083F821201B233B735B237B73FB78BB731B
:1068C8007B681B7807F10C010322184600F00AFFC9
:1068D800FB78412B0CD10121786800F0EBF87B683C
:1068E8001A787B6803F509731946104600F026FFED
:1068F800FB78422B0CD10021786800F0DBF87B682C
:106908001A787B6803F509731946104600F016FFDC
:10691800FB78312B0FD17B681878FB6993F821300D
:106928001A462B4900F00AFFFB69002283F8212050
:106938007B6804221A74FB78342B3FD1FB6993F8E7
:106948002120FB6993F822309A4210D2FB6993F810
:1069580022309AB2FB6993F821309BB2D31AFB829A
:106968007B681B78FA8A1B49184600F0E7FEFB692A
:1069780093F82120FB6993F822309A4210D9FB69D9
:1069880093F821309AB2FB6993F822309BB2D31A5C
:10699800FB827B681B78FA8A0D49184600F0CEFE08
:1069A800FB6993F82220FB6983F821207B68042285
:1069B8001A7403E07B6800221A7400E000BF78684C
:1069C800FFF7EAFC97F8233018463037BD4680BDFC
:1069D800DC090108E409010880B483B000AF7860DD
:1069E8007B68002283F846227B68002283F84522D0
:1069F8007B681F2283F844227B68002283F82422C4
:106A080000BF0C37BD4680BC7047F0B583B000AFFF
:106A180078607B6893F896311A46796813469B002C
:106A28001344DA00D21A8B1803F5CC727B6803F58D
:106A38000974944604F1200E654626460FCE286058
:106A48006960AA60EB6010340CF1100C7445F3D146
:106A5800634622461188927819809A707B6893F869
:106A68009731032B07D87B6893F897310133DAB253
:106A78007B6883F897217B6893F896315AB27B68D4
:106A880083F895217B6893F8963101335A4203F0D5
:106A9800030302F0030258BF5342DAB27B6883F85B
:106AA80096217B68012283F8942100BF0C37BD46EC
:106AB800F0BD0000F0B585B000AF78600B46FB7004
:106AC8007B6893F89731002B00F086807B6893F8F9
:106AD8004532002B08D07B6818787B6893F84532DC
:106AE8001A463F4900F02AFE7B6893F84632002B8D
:106AF80008D07B6818787B6893F846321A4639497B
:106B080000F01CFE97F90330012B25D17B6893F820
:106B18009431002B06D07B6893F896315AB27B6883
:106B280083F895217B6893F995311A467B6893F829
:106B380097311344013B7A6892F8972193FBF2F15D
:106B480002FB01F29B1A5AB27B6883F895217B6895
:106B580093F99531FB7313E07B6893F99531013311
:106B68007A6892F8972193FBF2F102FB01F29B1AE3
:106B78005AB27B6883F895217B6893F99531FB734A
:106B8800FA7B7968786813469B001344DA00D21AB6
:106B9800831803F5CC731C4601F5097604F1200C23
:106BA80035462346186859689A68DB680FC510345B
:106BB80010366445F4D133462246118892781980FC
:106BC8009A707B6893F846227B6883F845227B6835
:106BD800002283F8942100E000BF1437BD46F0BDC1
:106BE800DC090108EC09010880B584B000AF7860C1
:106BF8000023FB72786800F051F80346002B46D05A
:106C0800254800F093F87B68D3F81431184600F053
:106C1800B1F80023FB6033E07B68D3F81401FA680D
:106C280013469B0013449B0003F512737A681344C0
:106C380004331946FEF7F4FA0346002B1DD17B688E
:106C4800B3F81231013B9AB27B68A3F88C237B68B6
:106C580003F58C727B68C3F890237968FA68134649
:106C68009B0013449B000B4403F517731B687A6859
:106C780002F563721046984709E0FB680133FB6030
:106C88007B68B3F848321A46FB689342C4DBFB7A48
:106C980018461037BD4680BDF409010880B588B094
:106CA80000AF78600023FB770023FB827B6800221B
:106CB800A3F812217B6803F509733B617B6803F530
:106CC8008A73FB60FB8A9B00FA68134400221A60EF
:106CD800154B1B6807F108021946386908F0D8F9FE
:106CE800B86110E0FB8A5A1CFA829B00FA681344C8
:106CF800BA691A600C4B1B6807F108021946002094
:106D080008F0C6F9B861BB69002BEBD17B68FA8A39
:106D1800A3F81221FB8A002B01D00123FB77FB7F0C
:106D280018462037BD4680BD040000200FB480B54A
:106D380084B000AF07F11C037B600D4BFB60FB6860
:106D480003F111007B68BA694FF4807108F060FAAA
:106D5800B860FB681878FB681133BA68194600F008
:106D6800C1FC00BF1037BD46BDE8804004B0704785
:106D7800F40E002080B485B000AF78600023FB815A
:106D880018E0FB897A6813441B787B737B7B002BA4
:106D980014D07B7B602B05D97B7B7A2B02D87B7B3D
:106DA800203B7B73FB897A6813447A7B1A70FB89D2
:106DB8000133FB81FB890F2BE3D900E000BFFB897E
:106DC800102B05D1FB89013B7A68134400221A7005
:106DD80000BF1437BD4680BC7047000080B584B042
:106DE80000AF0346FB710023FB600F4BBB60FB79D0
:106DF8009AB2BB68B3F88C339A4201D300230EE0F1
:106E0800BB68D3F89023FB799B0013441B680022CE
:106E18000021184608F0BAF90346FB60FB681846DB
:106E28001037BD4680BD00BFF40E002080B584B089
:106E380000AF0346FB714FF00003FB600E4BBB60D5
:106E4800FB799AB2BB68B3F88C339A4202D34FF0FD
:106E580000030CE0BB68D3F89023FB799B00134434
:106E68001B680021184608F09BF8F860FB68184674
:106E78001037BD4680BD00BFF40E002080B485B039
:106E880000AF0346FB710023FB600C4BBB60FB7932
:106E98009AB2BB68B3F88C339A4201D3002308E056
:106EA800BB68D3F89023FB799B0013441B68FB60F5
:106EB800FB6818461437BD4680BC7047F40E0020A6
:106EC80080B584B000AF03463960FB710023FB73C3
:106ED8000F4BBB60FB799AB2BB68B3F88C339A420C
:106EE80001D3002310E0BB68D3F89023FB799B0003
:106EF80013441B6819463868FEF792F90346002BBD
:106F080001D10123FB73FB7B18461037BD4680BDBA
:106F1800F40E002080B582B000AF084B7B607B6820
:106F28001B78184600F08AFB0346002B01D1012389
:106F380000E0002318460837BD4680BDF40E002047
:106F480080B586B000AF786039600123FB75204BAF
:106F58003B613B69B3F848320F2B01D9002332E07B
:106F68003B69B3F84832FB81FA8913469B00134406
:106F78009B0003F512733A69134404337968184681
:106F880007F0E4F9FA89396913469B0013449B001A
:106F98000B4403F517733A681A60FA8913469B0085
:106FA80013449B0003F512733A69134404331846DB
:106FB800FFF7E0FE3B69B3F8483201339AB23B6908
:106FC800A3F84822FB7D18461837BD4680BD00BF90
:106FD800F40E002080B584B000AF7860154BBB601C
:106FE8001548FFF7A3FE1548FFF7A0FE0023FB6036
:106FF80012E0FA6813469B0013449B0003F51273D2
:10700800BA68134404331846FFF790FE0A48FFF79E
:107018008DFEFB680133FB60BB68B3F848321A4643
:10702800FB689342E5DB0648FFF780FE00BF103798
:10703800BD4680BDF40E0020F4090108F8090108D6
:10704800180A010880B58CB000AF78601023BB62C5
:107058007B681B887B617B685B683B617B681B88FE
:10706800002B03D14048FFF761FE7AE07B69012BD2
:1070780009DD3B6904331B6800220021184608F02B
:1070880085F80346BB623B691B680022002118464D
:1070980008F07CF803467B627B6ABB613348FFF7E4
:1070A80045FE0023FB6258E0FB6A03F00303002B54
:1070B80004D17B6A19462E48FFF738FE7B6A1B68A5
:1070C80019462C48FFF732FEFB6A5A4203F00303C5
:1070D80002F0030258BF5342032B38D12648FFF76A
:1070E80025FE00233B622CE0BB691B68FB60002384
:1070F800FB611DE007F10C02FB6913441B781F2B91
:1071080010D907F10C02FB6913441B787E2B09D8B0
:1071180007F10C02FB6913441B7819461748FFF75F
:1071280005FE02E01648FFF701FEFB690133FB612B
:10713800FB69032BDEDDBB690433BB613B6A0133AA
:107148003B623B6A032BCFDD0E48FFF7EFFD7B6AFE
:1071580004337B62FB6A0133FB62FA6ABB6A9A42B8
:10716800A2DB3037BD4680BD380A01084C0A010849
:10717800540A0108600A0108680A01086C0A010833
:10718800700A0108740A010880B483B000AF0023B4
:107198007B6012E07B6803F58033DB0219460B4AFB
:1071A8007B6842F83310094A7B68DB0013444FF4CC
:1071B80000629A807B6801337B607B68FF2BE9DD86
:1071C800012318460C37BD4680BC70479403002045
:1071D80080B588B000AF0123FB7607F108030022D1
:1071E8001A605A609A60DA60224B9B69214A43F020
:1071F800080393611F4B9B6903F008037B607B685E
:107208001C4B9B691B4A43F004039361194B9B6910
:1072180003F004033B603B680123FB6000233B61F0
:1072280002237B610023FB6117E0134AFB69DB0043
:1072380013449B88BB60104AFB6952F8333007F14E
:1072480008021146184601F00BFAFB69DBB2184632
:1072580000F018F8FB690133FB61FB69032BE4DDDF
:1072680006490748FFF76CFEFB7E18462037BD46E7
:1072780080BD00BF00100240080000200573000810
:10728800840A010880B582B000AF0346FB71FB7920
:10729800032B11D8FB790A4A52F83300FB79084AC4
:1072A800DB0013449988FB79054ADB001344DB793A
:1072B8001A4601F015FC00E000BF0837BD4680BD46
:1072C8000800002080B582B000AF0346FB71FB794F
:1072D800032B0CD8FB79084A52F83300FB79064A8D
:1072E800DB0013449B88194601F012FC00E000BF44
:1072F8000837BD4680BD00BF0800002080B586B0B5
:1073080000AF78600023FB757B681B88032B33D1A3
:107318007B685B691F49002098470346002B2BD0E8
:107328007B689B68012098470346BB757B689B6810
:10733800022098470346FB60BB7D002B02D0BB7D33
:10734800013BBB75FEF79DFD38610EE0FEF799FD28
:1073580002463B69D31AFA689A4206D8FEF791FDAD
:107368003861BB7D1846FFF7ADFFFFF7D3FD034635
:10737800002BEBD10123FB75FB7D83F00103DBB20E
:10738800002B03D004210448FFF7D0FC00BF1837B6
:10739800BD4680BD880A0108900A010880B582B000
:1073A80000AF0123FB71114B5B6A03F08063002B74
:1073B80012D0012000F04EF803460133194601208F
:1073C80000F058F84FF4FA70FEF750FD012000F075
:1073D80041F80246064B1A600021012000F04AF8E5
:1073E800FB7918460837BD4680BD00BF0010024033
:1073F800940B002080B582B000AF0123FB71124BC3
:107408009B69114A43F0100393610F4B9B6903F08A
:1074180010033B603B680D4B0D4A1A600B4B4FF055
:10742800FF325A60094B4FF480729A60074803F0A4
:10743800A1F80346002B01D0FEF7CCFDFB791846D6
:107448000837BD4680BD00BF0010024098120020DA
:107458000028004080B582B000AF786079680448A1
:1074680003F0B6F9034618460837BD4680BD00BF8D
:107478009812002080B582B000AF786039603A6811
:107488007968034803F08AF900BF0837BD4680BD14
:107498009812002080B584B000AF78607B681B68C4
:1074A8000B4A934210D102F097FA0A4BDB69094A5A
:1074B80043F00063D361074BDB6903F00063FB60B3
:1074C800FB68054B01221A6000BF1037BD4680BD1E
:1074D80000280040001002403C04424280B483B0BF
:1074E80000AF00237B6007E0084A7B681344002252
:1074F8001A707B6801337B607B68012BF4DD012304
:1075080018460C37BD4680BC704700BF980B00205A
:1075180080B584B000AF03463960FB710023FB736C
:10752800FB79002B02D0012B07D074E0FB793C4A91
:107538000121D1540123FB736DE03A4B3A4A1A609A
:10754800384A3B685360374B00229A60354B00221B
:10755800DA60344B00221A61324B0C225A61314BEB
:1075680000229A612F4B0022DA612E4803F099F924
:10757800FB791B012D4A13444FF480722C4918469D
:10758800FEF72FFE2B4B5B692A4A43F00103536138
:10759800284B5B6903F00103BB60BB680022002134
:1075A8000F2000F058FB0F2000F071FB1D4803F07E
:1075B8002BF90346002B02D00023FB732AE001239A
:1075C800FB73FB79164A0121D1544FF48072184994
:1075D800144803F023FA0346002B01D00023FB7361
:1075E800FB79124A1B01134408331968124B1B68B4
:1075F8005A68FB798A1A0D491B010B441A60FA79FB
:10760800FB790A4912010A44126808491B010B4414
:1076180004331A6000BFFB7B18461037BD4680BD97
:10762800980B0020F0120020003801409C0B00202D
:10763800BC0B002000100240AC12002080B584B0C2
:1076480000AF0346FB710023FB60FB79002B02D0DF
:10765800012B04D01BE006F0FFF8F86017E0FB7977
:107668000D4A1B011344083319680C4B1B685A68F0
:10767800FB798A1A08491B010B441A60FB791B0124
:10768800054A13441846FEF702FEF86000BFFB687F
:1076980018461037BD4680BD9C0B0020AC12002058
:1076A80080B584B000AF0346FB710023FB73FB7900
:1076B800002B02D0012B05D00CE006F0E9F80346B8
:1076C800FB7307E007F10F03012219460448FEF790
:1076D800A2FD00BFFB7B18461037BD4680BD00BF2A
:1076E800AC0B002080B586B000AF0346B9607A6065
:1076F800FB7300237B61FB7B002B02D0012B06D0A0
:1077080014E07968B86806F015F978610EE07B68CE
:107718009AB26423B968084803F0E7F80346FB7493
:10772800FB7C002B01D17B687B6100BF7B6918461D
:107738001837BD4680BD00BFF01200200EB480B5DA
:10774800C7B000AF0246FB1D1A7007F5947207F127
:107758000C031A6007F10C0307F110001B68D7F837
:1077680024214FF4807107F053FDC7F81401D7F8AE
:10777800142107F11001FB1D1B781846FFF7B2FF13
:10778800C7F81001D7F81031184607F58E77BD46AF
:10779800BDE8804003B0704780B483B000AF786024
:1077A80000BF0C37BD4680BC704780B483B000AFC3
:1077B800786000BF0C37BD4680BC704780B588B084
:1077C80000AF786007F1100300221A605A609A60CF
:1077D800DA607B681B68334A93425FD1324B9B69FE
:1077E800314A43F4804393612F4B9B6903F48043F0
:1077F800FB60FB682C4B9B692B4A43F004039361A5
:10780800294B9B6903F00403BB60BB684FF400730A
:107818003B6102237B610323FB6107F110031946D7
:10782800224800F01DFF4FF480633B6100237B6119
:107838000023BB6107F1100319461C4800F010FF34
:107848001B4B1C4A1A601A4B00225A60184B002224
:107858009A60174B8022DA60154B00221A61144B8C
:1078680000225A61124B20229A61114B0022DA61E0
:107878000F4800F035FA0346002B01D0FEF7AAFBAB
:107888007B680B4A5A630A4A7B68536200220021CC
:10789800252000F0E0F9252000F0F9F900BF203795
:1078A800BD4680BD0038014000100240000801407C
:1078B800AC1200205800024080B582B000AF78605A
:1078C8007B681B680C4A934212D10C4B9B690B4A8C
:1078D80023F4804393614FF4C061094801F02EF806
:1078E8007B685B6B184600F071FA252000F0DDF923
:1078F80000BF0837BD4680BD003801400010024077
:107908000008014080B586B000AF0123FB753B1D20
:1079180000221A605A609A60DA60C820FEF7A6FA58
:1079280001224FF48051084801F0DAF80023BB60C7
:107938003B1D1946044800F093FE05F05DFFFB7DF2
:1079480018461837BD4680BD0008014080B500AF15
:10795800FEF746FAFEF7B6FCFFF74CFDFFF71EFDF3
:10796800FFF736FCFFF7CEFFFFF7B8FDFFF70CFC7B
:1079780000BF80BD80B500AF084B1B68074A43F0C5
:1079880010031360032000F05BF9002000F008F8F2
:10799800FEF726FB0023184680BD00BF00200240EA
:1079A80080B582B000AF7860124B1A68124B1B7812
:1079B80019464FF47A73B3FBF1F3B2FBF3F31846AD
:1079C80000F081F90346002B01D001230EE07B680B
:1079D8000F2B0AD8002279684FF0FF3000F03BF9EE
:1079E800064A7B681360002300E001231846083725
:1079F800BD4680BD000000202C000020280000208B
:107A080080B400AF054B1B781A46054B1B6813441E
:107A1800034A136000BFBD4680BC70472C0000209D
:107A28003013002080B400AF024B1B681846BD46D7
:107A380080BC70473013002080B584B000AF7860F8
:107A4800FFF7F0FFB8607B68FB60FB68B3F1FF3FAE
:107A580005D0094B1B781A46FB681344FB6000BF2E
:107A6800FFF7E0FF0246BB68D31AFA689A42F7D8D4
:107A780000BF1037BD4680BD2C00002080B485B003
:107A880000AF78607B6803F00703FB600C4BDB6892
:107A9800BB60BA684FF6FF031340BB60FB681A026D
:107AA800BB68134343F0BF6343F40033BB60044A2D
:107AB800BB68D36000BF1437BD4680BC704700BFA9
:107AC80000ED00E080B400AF044BDB681B0A03F054
:107AD80007031846BD4680BC704700BF00ED00E0B4
:107AE80080B483B000AF0346FB71FB7903F01F023B
:107AF800064997F907305B09012000FA02F241F8BC
:107B0800232000BF0C37BD4680BC704700E100E071
:107B180080B483B000AF0346FB71FB7903F01F020A
:107B2800074997F907305B09012000FA02F2203370
:107B380041F8232000BF0C37BD4680BC704700BF0A
:107B480000E100E080B483B000AF03463960FB7108
:107B580097F90730002B0BDA3B68DAB20C49FB794E
:107B680003F00F03043B1201D2B20B441A7609E06A
:107B78003B68DAB2074997F907301201D2B20B44D1
:107B880083F8002300BF0C37BD4680BC704700BF98
:107B980000ED00E000E100E080B489B000AFF860DB
:107BA800B9607A60FB6803F00703FB61FB69C3F106
:107BB8000703042B28BF0423BB61FB690433062B8E
:107BC80002D9FB69033B00E000237B614FF0FF32E1
:107BD800BB6902FA03F3DA43BB681A407B699A402F
:107BE8004FF0FF317B6901FA03F3D9437B680B40FF
:107BF800134318462437BD4680BC704780B582B011
:107C080000AF78607B68013BB3F1807F01D301232B
:107C18000FE00A4A7B68013B53600F214FF0FF30A9
:107C2800FFF790FF054B00229A60044B07221A6069
:107C3800002318460837BD4680BD00BF10E000E0AD
:107C480080B582B000AF78607868FFF717FF00BF93
:107C58000837BD4680BD80B586B000AF0346B96021
:107C68007A60FB7300237B61FFF72CFF78617A68E9
:107C7800B9687869FFF790FF024697F90F30114607
:107C88001846FFF75FFF00BF1837BD4680BD80B5B7
:107C980082B000AF0346FB7197F907301846FFF72B
:107CA8001FFF00BF0837BD4680BD80B582B000AF5A
:107CB8000346FB7197F907301846FFF729FF00BF05
:107CC8000837BD4680BD80B582B000AF786078685F
:107CD800FFF794FF034618460837BD4680BD0000ED
:107CE80080B485B000AF78600023FB607B68002B10
:107CF80001D1012359E07B681B681A462D4B9A4233
:107D08000FD87B681B681A462B4B13442B4AA2FBDF
:107D180003231B099A007B681A647B68284ADA6384
:107D28000EE07B681B681A46264B1344234AA2FBC5
:107D380003231B099A007B681A647B68224ADA636A
:107D48007B68022283F821207B681B681B68FB6024
:107D5800FB6823F47F5323F03003FB607B685A6889
:107D68007B689B681A437B68DB681A437B681B69DE
:107D78001A437B685B691A437B689B691A437B6873
:107D8800DB691343FA681343FB607B681B68FA6876
:107D98001A607B6800229A637B68012283F821209D
:107DA8007B68002283F82020002318461437BD463C
:107DB80080BC704707040240F8FFFDBFCDCCCCCC97
:107DC80000000240F8FBFDBF0004024080B483B00D
:107DD80000AF78607B68002B01D101235CE07B68F1
:107DE8001B681A687B681B6822F001021A607B68AE
:107DF8001B6800221A607B681B6800225A607B6837
:107E08001B6800229A607B681B680022DA607B6826
:107E18001B681A46234B9A420FD87B681B681A4680
:107E2800214B1344214AA2FB03231B099A007B68B8
:107E38001A647B681E4ADA630EE07B681B681A4680
:107E48001C4B1344194AA2FB03231B099A007B68A5
:107E58001A647B68184ADA637B681A6C7B68DB6B88
:107E6800012101FA02F25A607B6800229A627B685B
:107E78000022DA627B6800221A637B6800225A6358
:107E88007B6800229A637B68002283F821207B6844
:107E9800002283F82020002318460C37BD4680BCFA
:107EA800704700BF07040240F8FFFDBFCDCCCCCC23
:107EB80000000240F8FBFDBF0004024080B586B018
:107EC80000AFF860B9607A603B600023FB75FB681F
:107ED80093F82030012B01D102234AE0FB680122EC
:107EE80083F82020FB6893F82130012B3AD1FB68F6
:107EF800022283F82120FB6800229A63FB681B6832
:107F08001A68FB681B6822F001021A603B687A68ED
:107F1800B968F86800F076FBFB68DB6A002B08D0CC
:107F2800FB681B681A68FB681B6842F00E021A603F
:107F38000FE0FB681B681A68FB681B6822F00402E4
:107F48001A60FB681B681A68FB681B6842F00A0223
:107F58001A60FB681B681A68FB681B6842F001021C
:107F68001A6005E0FB68002283F820200223FB75D5
:107F7800FB7D18461837BD4680BD000080B584B02B
:107F880000AF78600023FB737B6893F82130022BE5
:107F980005D07B6804229A630123FB73D6E07B68D3
:107FA8001B681A687B681B6822F00E021A607B68DF
:107FB8001B681A687B681B6822F001021A607B68DC
:107FC8001B681A46644B9A4258D97B681B68634AF7
:107FD80093424FD07B681B68614A934248D07B68C4
:107FE8001B68604A934240D07B681B685E4A934294
:107FF80038D07B681B685D4A934230D07B681B6829
:108008005B4A934228D07B681B68534A934220D02E
:108018007B681B68574A934219D07B681B68564A8D
:10802800934212D07B681B68544A93420AD07B68FB
:108038001B68534A934202D14FF480531BE04FF41C
:10804800803318E04FF4807315E0102313E0012308
:1080580011E04FF080730EE04FF480130BE04FF403
:10806800803308E04FF4805305E04FF4807302E05A
:10807800102300E00123434A536057E07B681B68E4
:10808800364A93424FD07B681B68354A934248D0A2
:108098007B681B68334A934240D07B681B68324A2E
:1080A800934238D07B681B68304A934230D07B6853
:1080B8001B682F4A934228D07B681B68264A934244
:1080C80020D07B681B682B4A934219D07B681B68B9
:1080D800294A934212D07B681B68284A93420AD0E7
:1080E8007B681B68264A934202D14FF480531BE0F9
:1080F8004FF4803318E04FF4807315E0102313E039
:10810800012311E04FF080730EE04FF480130BE071
:108118004FF4803308E04FF4805305E04FF4807348
:1081280002E0102300E00123174A53607B68012214
:1081380083F821207B68002283F820207B685B6B12
:10814800002B03D07B685B6B78689847FB7B1846ED
:108158001037BD4680BD00BF8000024008000240C5
:108168001C00024030000240440002405800024017
:108178006C000240080402401C0402403004024023
:1081880044040240000402400000024080B584B06C
:1081980000AF78607B68DB6B1B68FB607B681B68E3
:1081A8001B68BB607B681B6C04229A40FB68134009
:1081B800002B00F0D680BB6803F00403002B00F00E
:1081C800D0807B681B681B6803F02003002B07D155
:1081D8007B681B681A687B681B6822F004021A60B7
:1081E8007B681B681A469B4B9A4258D97B681B6868
:1081F800994A93424FD07B681B68984A934248D06B
:108208007B681B68964A934240D07B681B68954AF6
:10821800934238D07B681B68934A934230D07B687E
:108228001B68924A934228D07B681B68894A93420C
:1082380020D07B681B688E4A934219D07B681B68E4
:108248008C4A934212D07B681B688B4A93420AD0AF
:108258007B681B68894A934202D14FF480431BE034
:108268004FF4802318E04FF4806315E0402313E0B7
:10827800042311E04FF080630EE04FF480030BE01D
:108288004FF4802308E04FF4804305E04FF4806307
:1082980002E0402300E00423794A536057E07B68FA
:1082A8001B686D4A93424FD07B681B686B4A9342A8
:1082B80048D07B681B686A4A934240D07B681B6839
:1082C800684A934238D07B681B68674A934230D02B
:1082D8007B681B68654A934228D07B681B685D4AA7
:1082E800934220D07B681B68614A934219D07B680F
:1082F8001B68604A934212D07B681B685E4A9342AF
:108308000AD07B681B685D4A934202D14FF48043D0
:108318001BE04FF4802318E04FF4806315E04023FE
:1083280013E0042311E04FF080630EE04FF4800364
:108338000BE04FF4802308E04FF4804305E04FF44E
:10834800806302E0402300E004234E4A53607B68C8
:10835800DB6A002B00F036817B68DB6A7868984717
:1083680030E17B681B6C02229A40FB681340002BAB
:1083780000F0F880BB6803F00203002B00F0F280E5
:108388007B681B681B6803F02003002B0BD17B68FC
:108398001B681A687B681B6822F00A021A607B68EF
:1083A800012283F821207B681B681A46294B9A42D0
:1083B80073D97B681B68284A93426AD07B681B681C
:1083C800264A934263D07B681B68254A93425BD058
:1083D8007B681B68234A934238D07B681B68224A13
:1083E800934230D07B681B68204A934228D07B6830
:1083F8001B68184A934220D07B681B681C4A93422A
:1084080019D07B681B681B4A934212D07B681B6893
:10841800194A93420AD07B681B68184A934202D1D2
:108428004FF4005336E04FF4003333E04FF4007359
:1084380030E020232EE002232CE04FF0007329E0E7
:108448004FF4001326E04FF4003323E04FF40053B9
:1084580020E000BF80000240080002401C000240EB
:108468003000024044000240580002406C000240C4
:10847800080402401C040240300402404404024044
:1084880000040240000002404FF4007302E0202381
:1084980000E002234E4A536057E07B681B684D4A50
:1084A80093424FD07B681B684B4A934248D07B6805
:1084B8001B684A4A934240D07B681B68484A9342EB
:1084C80038D07B681B68474A934230D07B681B686A
:1084D800454A934228D07B681B68444A934220D07F
:1084E8007B681B68424A934219D07B681B68414AE3
:1084F800934212D07B681B683F4A93420AD07B683C
:108508001B683E4A934202D14FF400531BE04FF4DC
:10851800003318E04FF4007315E0202313E0022322
:1085280011E04FF000730EE04FF400130BE04FF42E
:10853800003308E04FF4005305E04FF4007302E005
:10854800202300E002232E4A53607B68002283F830
:1085580020207B689B6A002B34D07B689B6A7868F4
:1085680098472FE07B681B6C08229A40FB681340F1
:10857800002B28D0BB6803F00803002B23D07B68AE
:108588001B681A687B681B6822F00E021A607B68F9
:108598001A6C7B68DB6B012101FA02F25A607B6876
:1085A80001229A637B68012283F821207B680022DC
:1085B80083F820207B681B6B002B04D07B681B6B27
:1085C8007868984700BF00BF1037BD4680BD00BF20
:1085D80000040240080002401C0002403000024033
:1085E80044000240580002406C00024080000240F3
:1085F800080402401C0402403004024044040240C3
:108608000000024080B485B000AFF860B9607A60BD
:108618003B60FB681A6CFB68DB6B012101FA02F214
:108628005A60FB681B683A685A60FB685B68102BE5
:1086380008D1FB681B687A689A60FB681B68BA688F
:10864800DA6007E0FB681B68BA689A60FB681B6819
:108658007A68DA6000BF1437BD4680BC70470000F6
:1086680080B48BB000AF786039600023FB610023D1
:10867800BB6100237B6100233B6200233B61002335
:108688007B6233E101227B6A02FA03F3FB613B68F8
:108698001B68FA691340BB61BA69FB699A4240F0EA
:1086A80022813B685B68122B34D0122B0DD8022B29
:1086B8002BD0022B04D8002B31D0012B1CD048E042
:1086C800032B43D0112B1BD043E08D4A934226D075
:1086D8008B4A934206D88B4A934220D08A4A9342C7
:1086E8001DD036E0894A934219D0894A934216D060
:1086F800884A934213D02CE03B68DB683B6228E051
:108708003B68DB6804333B6223E03B68DB68083383
:108718003B621EE03B68DB680C333B6219E03B6858
:108728009B68002B02D104233B6212E03B689B68E4
:10873800012B05D108233B627B68FA691A6108E0BE
:1087480008233B627B68FA695A6102E000233B62B6
:1087580000BFBB69FF2B01D87B6801E07B6804334D
:10876800FB60BB69FF2B02D87B6A9B0002E07B6A37
:10877800083B9B003B61FB681A680F213B6901FAC3
:1087880003F3DB431A40396A3B6901FA03F31A43DE
:10879800FB681A603B685B6803F08053002B00F0AD
:1087A800A2805D4B9B695C4A43F0010393615A4B7D
:1087B8009B6903F00103BB60BB68584A7B6A9B084E
:1087C800023352F823307B617B6A03F003039B007A
:1087D8000F2202FA03F3DB437A6913407B617B685B
:1087E8004F4A93421FD07B684E4A934219D07B6808
:1087F8004D4A934213D07B684C4A93420DD07B6814
:108808004B4A934207D07B684A4A934201D10523D9
:108818000AE0062308E0042306E0032304E0022319
:1088280002E0012300E000237A6A02F003029200CA
:1088380093407A6913437B6138497B6A9B0802330A
:108848007A6941F823203B685B6803F48033002B86
:1088580006D0394B1A683849BB6913430B6006E0E8
:10886800354B1A68BB69DB43334913400B603B68DF
:108878005B6803F40033002B06D02F4B5A682E494F
:10888800BB6913434B6006E02B4B5A68BB69DB435B
:10889800294913404B603B685B6803F48013002B45
:1088A80006D0254B9A682449BB6913438B6006E0C0
:1088B800214B9A68BB69DB431F4913408B603B68B7
:1088C8005B6803F40013002B06D01B4BDA681A49C7
:1088D800BB691343CB6006E0174BDA68BB69DB431F
:1088E80015491340CB607B6A01337B627B6A0F2B8F
:1088F8007FF6C8AE00BF2C37BD4680BC704700BFAE
:1089080000002110000011100000121000003110AA
:108918000000321000002210001002400000014048
:1089280000080140000C0140001001400014014003
:1089380000180140001C01400004014080B489B0C7
:1089480000AF786039600023FB610023BB6100231E
:108958007B6100233B61A6E00122FB6902FA03F375
:108968003A681340BB61BB69002B00F09980BB6972
:10897800FF2B01D87B6801E07B680433FB60BB698F
:10898800FF2B02D8FB699B0002E0FB69083B9B00B8
:108998003B61FB681A680F213B6901FA03F3DB436B
:1089A8001A4004213B6901FA03F31A43FB681A6071
:1089B8007B68DA68BB69DB431A407B68DA60404A47
:1089C800FB699B08023352F823307B61FB6903F093
:1089D80003039B000F2202FA03F37A6913407B61B9
:1089E8007B68384A93421FD07B68374A934219D034
:1089F8007B68364A934213D07B68354A93420DD040
:108A08007B68344A934207D07B68334A934201D14A
:108A180005230AE0062308E0042306E0032304E014
:108A2800022302E0012300E00023FA6902F00302B6
:108A3800920093407A699A4232D1FB6903F00303AA
:108A48009B000F2202FA03F37B611D4AFB699B0816
:108A5800023352F823107B69DA431948FB699B08F3
:108A68000A40023340F823201C4B1A68BB69DB43D9
:108A78001A4913400B60194B5A68BB69DB43174905
:108A880013404B60154B9A68BB69DB43134913408D
:108A98008B60124BDA68BB69DB4310491340CB602B
:108AA800FB690133FB613A68FB6922FA03F3002B87
:108AB8007FF452AF00BF2437BD4680BC704700BF6B
:108AC8000000014000080140000C01400010014076
:108AD8000014014000180140001C0140000401403E
:108AE80080B483B000AF78600B467B8013467B7000
:108AF8007B78002B03D07A887B681A6103E07B8837
:108B08001A047B681A6100BF0C37BD4680BC7047E9
:108B180080B483B000AF78600B467B807B68DA68EE
:108B28007B885A407B68DA6000BF0C37BD4680BC42
:108B38007047F0B58BB006AF78600023FB607B68A8
:108B4800002B01D10123CAE07B6893F82934DBB2FA
:108B5800002B06D17B68002283F82824786805F06A
:108B680019F97B68032283F829247B681B68184657
:108B780002F02EFC7B681B683B607E686D4606F140
:108B880010040FCC0FC523682B60331D0ECB38683B
:108B980002F0F4FB7B681B680021184602F034FCE5
:108BA8000023FB6037E07A68FB685B0113442933D4
:108BB80001221A70FB68D9B27A68FB685B0113441A
:108BC80028330A461A70FB6899B27A68FB685B0119
:108BD800134434330A461A807A68FB685B011344ED
:108BE8002B3300221A707A68FB685B011344383310
:108BF80000221A607A68FB685B0113443C33002248
:108C08001A607A68FB6802335B01134400221A6019
:108C1800FB680133FB60FB680E2BC4D90023FB60A3
:108C28003CE07A68FB685B01134403F229230022C5
:108C38001A70FB68D9B27A68FB685B01134403F5C4
:108C48000A730A461A70FB6899B27A68FB685B0176
:108C5800134434330A461A807A68FB685B0113446C
:108C680003F22B2300221A707A68FB685B01134415
:108C780003F50E7300221A607A68FB685B011344DF
:108C880003F50F7300221A607A68FB6812335B01E0
:108C9800134400221A60FB680133FB60FB680E2B4B
:108CA800BFD97B681B683B607E686D4606F110047F
:108CB8000FCC0FC523682B60331D0ECB386802F02C
:108CC800AFFB7B68002283F824207B68012283F8AD
:108CD80029247B681B68184603F099FB0023184673
:108CE8001437BD46F0BD80B582B000AF78607B68B0
:108CF80093F82834012B01D1022316E07B68012266
:108D080083F828240121786805F0ABFA7B681B6892
:108D1800184603F072FB7B681B68184602F03EFB9E
:108D28007B68002283F82824002318460837BD46AC
:108D380080BD80B582B000AF78607B681B6818463C
:108D480003F06FFB034603F40043B3F5004F02D171
:108D5800786800F0D9FA7B681B68184603F061FB55
:108D6800034603F48063B3F5806F12D17B681B68F8
:108D7800B3F844309AB27B681B6822F4806292B2DE
:108D8800A3F84420786805F07AF80021786800F0A4
:108D9800D2F87B681B68184603F043FB034603F4CC
:108DA8008043B3F5804F0BD17B681B68B3F8443020
:108DB8009AB27B681B6822F4804292B2A3F84420DE
:108DC8007B681B68184603F02CFB034603F400532A
:108DD800B3F5005F0BD17B681B68B3F844309AB2D7
:108DE8007B681B6822F4005292B2A3F844207B6887
:108DF8001B68184603F015FB034603F48053B3F5CC
:108E0800805F26D17B681B68B3F840309AB27B68D4
:108E18001B6822F0040292B2A3F840207B681B680A
:108E2800B3F840309AB27B681B6822F0080292B20D
:108E3800A3F84020786805F05BF87B681B68B3F8F6
:108E480044309AB27B681B6822F4805292B2A3F82D
:108E580044207B681B68184603F0E3FA034603F4D2
:108E68000063B3F5006F31D17B681B68B3F84030FD
:108E78009AB27B681B6842F0080292B2A3F84020BD
:108E88007B681B68B3F844309AB27B681B6822F48D
:108E9800006292B2A3F844207B681B68B3F84030A4
:108EA8009AB27B681B6842F0040292B2A3F8402091
:108EB8007B681B68184603F0B4FA034603F4805332
:108EC800B3F5805F02D0786804F0F8FF7B681B6810
:108ED800184603F0A6FA034603F40073B3F5007FBF
:108EE8000ED17B681B68B3F844309AB27B681B6864
:108EF80022F4007292B2A3F84420786804F0B1FF1B
:108F08007B681B68184603F08CFA034603F48073E9
:108F1800B3F5807F0BD17B681B68B3F844309AB2F5
:108F28007B681B6822F4807292B2A3F8442000BFC9
:108F38000837BD4680BD80B582B000AF78600B466B
:108F4800FB707B6893F82834012B01D1022313E0CE
:108F58007B68012283F828247B68FA7883F8242028
:108F68007B681B68FA781146184603F033FA7B6869
:108F7800002283F82824002318460837BD4680BD00
:108F880080B584B000AF7860084611461A4603469B
:108F9800FB700B463B801346BB700023FB7200231B
:108FA800FB6097F90330002B08DAFB7803F07F03A6
:108FB8005B0128337A681344FB6008E0FB7803F010
:108FC8007F035B0103F50A737A681344FB60FB783F
:108FD80003F07F03DAB2FB681A7097F90330DBB24B
:108FE800DB09DBB21A46FB685A703A88FB681A61DB
:108FF800FB68BA78DA707B6893F82834012B01D1C2
:1090080002230EE07B68012283F828247B681B6812
:10901800F968184602F028FA7B68002283F82824A9
:10902800FB7A18461037BD4680BD80B584B000AFC6
:1090380078600B46FB700023FB6097F90330002B28
:1090480008DAFB7803F07F035B0128337A6813445E
:10905800FB6008E0FB7803F07F035B0103F50A730C
:109068007A681344FB60FB7803F07F03DAB2FB688D
:109078001A7097F90330DBB2DB09DBB21A46FB68DA
:109088005A707B6893F82834012B01D102230EE033
:109098007B68012283F828247B681B68F9681846D6
:1090A80002F0A4FC7B68002283F8282400231846D9
:1090B8001037BD4680BD80B586B000AFF8607A60D5
:1090C8003B600B46FB7200237B61FB7A03F07F0356
:1090D8005B0103F50A73FA6813447B617B697A685C
:1090E8005A617B693A689A617B690022DA617B6917
:1090F80000225A70FB7A03F07F03DAB27B691A7098
:10910800FB7A03F07F03002B06D1FB681B687969A3
:10911800184602F0F3FD05E0FB681B6879691846FC
:1091280002F0ECFD002318461837BD4680BD80B418
:1091380083B000AF78600B46FB70FB7803F00F0339
:109148007A6812335B01134404331B689BB21846D8
:109158000C37BD4680BC704780B586B000AFF8605C
:109168007A603B600B46FB7200237B61FB7A03F05D
:109178007F035B012833FA6813447B617B697A6853
:109188005A617B693A689A617B690022DA617B6976
:1091980001225A70FB7A03F07F03DAB27B691A70F6
:1091A800FB7A03F07F03002B06D1FB681B68796903
:1091B800184602F0A3FD05E0FB681B6879691846AC
:1091C80002F09CFD002318461837BD4680BD80B5C7
:1091D80084B000AF78600B46FB700023FB6097F902
:1091E8000330002B08DAFB7803F07F035B01283398
:1091F8007A681344FB6006E0FB785B0103F50A73A9
:109208007A681344FB60FB6801229A70FB7803F0CC
:109218007F03DAB2FB681A7097F90330DBB2DB0917
:10922800DBB21A46FB685A707B6893F82834012B26
:1092380001D102231CE07B68012283F828247B6883
:109248001B68F968184602F0DBFFFB7803F07F0320
:10925800002B08D17B681A687B6803F22C431946F7
:10926800104603F0EFF87B68002283F828240023D7
:1092780018461037BD4680BD80B584B000AF786011
:109288000B46FB700023FB6097F90330002B08DACC
:10929800FB7803F07F035B0128337A681344FB6093
:1092A80006E0FB785B0103F50A737A681344FB60F8
:1092B800FB6800229A70FB7803F07F03DAB2FB6840
:1092C8001A7097F90330DBB2DB09DBB21A46FB6888
:1092D8005A707B6893F82834012B01D102230EE0E1
:1092E8007B68012283F828247B681B68F968184684
:1092F80002F0E6FF7B68002283F828240023184642
:109308001037BD4680BD000090B589B000AF7860C9
:109318000023FB6100237B8300237B760023FB81F2
:109328000023BB8108E3FB899BB2DBB203F00F0388
:109338007B767B7E002B40F02A81FB899BB203F071
:109348001003002B4DD17B681B681B889BB27A6881
:10935800126823F4E14323F070039BB213807B6807
:109368002833FB617B681B68B3F850309BB21A4600
:10937800FB691B78DB00134402335B007A681268D0
:10938800134403F580631B689BB2C3F30902FB69AE
:10939800DA61FB695A69FB69DB691A44FB695A613E
:1093A8000021786804F046FD7B6893F82430DBB22E
:1093B800002B00F0C182FB699B69002B40F0BC8246
:1093C8007B6893F82430DBB263F07F03DAB27B6802
:1093D8001B6892B2A3F84C207B68002283F82420F3
:1093E800AAE27B6803F50A73FB617B681B681B882C
:1093F8009BB2BB81BB899BB203F40063002B31D0C5
:109408007B681B68B3F850309BB21A46FB691B781F
:10941800DB00134406335B007A681268134403F5D3
:1094280080631B689BB2C3F30902FB69DA617B683E
:1094380018687B6803F22C41FB699A88FB69DB6931
:109448009BB203F050F87B681B681B8899B27B6855
:109458001A6840F68F730B409BB21380786804F04B
:10946800BFFC69E2BB899BB21BB2002B80F264820D
:109478007B681B681B8899B27B681A6840F68F73F3
:109488000B409BB213807B681B68B3F850309BB2CB
:109498001A46FB691B78DB00134406335B007A68C5
:1094A8001268134403F580631B689BB2C3F3090277
:1094B800FB69DA61FB69DB69002B11D07B681868EE
:1094C800FB695969FB699A88FB69DB699BB203F000
:1094D8000AF8FB695A69FB69DB691A44FB695A6136
:1094E8000021786804F08EFC7B681B68B3F8503064
:1094F8009BB206335B007A681268134403F58063F5
:109508003B61FB691B693E2B18D9FB691B695B0929
:10951800FB82FB691B6903F01F03002B02D1FB8A46
:10952800013BFB82FB8A9B029BB26FEA43436FEAD3
:1095380053439BB21A463B691A6012E0FB691B69E8
:109548005B08FB82FB691B6903F00103002B02D057
:10955800FB8A0133FB82FB8A9B029BB21A463B695A
:109568001A607B681B681B889BB223F4804323F036
:1095780070039CB284F480539CB284F400539CB270
:109588007B681A68984B23439BB21380D4E17B68AD
:109598001B681A467B7E9B0013441B889BB2BB81C9
:1095A800BB899BB21BB2002B80F2D0807B681B6802
:1095B8001A467B7E9B0013441B8899B27B681B6804
:1095C8001A467B7E9B001A4440F68F730B409BB271
:1095D80013807B7E5B0103F50A737A681344FB6191
:1095E800FB699B7A002B22D17B681B68B3F850304B
:1095F8009BB21A46FB691B78DB00134406335B00F9
:109608007A681268134403F580631B689BB2C3F33E
:1096180009037B837B8B002B73D07B681868FB69FD
:109628005969FB699A887B8B02F05DFF69E07B686A
:109638001B681A46FB691B789B0013441B889BB266
:1096480003F48043002B22D07B681B68B3F85030AA
:109658009BB21A46FB691B78DB00134402335B009C
:109668007A681268134403F580631B689BB2C3F3DE
:1096780009037B837B8B002B2BD07B681868FB69E5
:109688005969FB69DA887B8B02F02DFF21E07B6842
:109698001B68B3F850309BB21A46FB691B78DB0095
:1096A800134406335B007A681268134403F5806339
:1096B8001B689BB2C3F309037B837B8B002B08D009
:1096C8007B681868FB695969FB691A897B8B02F00A
:1096D8000AFF7B681B681A46FB691B789B001344CA
:1096E8001B889AB240F60F73134099B27B681B68C7
:1096F8001A46FB691B789B001A443C4B0B439BB2F0
:109708001380FB69DA697B8B1A44FB69DA61FB69B0
:109718005A697B8B1A44FB695A61FB699B69002B68
:1097280004D07A8BFB691B699A4206D2FB691B78C5
:109738001946786804F066FB08E0FB691978FB694C
:109748005A69FB699B697868FFF7B5FCBB899BB2CE
:1097580003F08003002B00F0EF807B7E5B01283351
:109768007A681344FB617B681B681A467B7E9B0002
:1097780013441B889BB27A68126811467A7E92005D
:109788000A4423F4E14323F070039BB21380FB697E
:109798009B7A002B2CD17B681B68B3F850309BB2A6
:1097A8001A46FB691B78DB00134402335B007A68B6
:1097B8001268134403F580631B689BB2C3F3090264
:1097C800FB69DA61FB69DB69002B00F083807B6849
:1097D8001868FB695969FB699A88FB69DB699BB260
:1097E80002F03BFE76E000BF8080FFFFC080FFFFF5
:1097F8007B681B681A46FB691B789B0013441B880F
:109808009BB203F04003002B26D07B681B68B3F89B
:1098180050309BB21A46FB691B78DB0013440233B5
:109828005B007A681268134403F580631B689BB277
:10983800C3F30902FB69DA61FB69DB69002B31D0EC
:109848007B681868FB695969FB69DA88FB69DB6919
:109858009BB202F002FE25E07B681B68B3F850302B
:109868009BB21A46FB691B78DB00134406335B0086
:109878007A681268134403F580631B689BB2C3F3CC
:109888000902FB69DA61FB69DB69002B0AD07B6896
:109898001868FB695969FB691A89FB69DB699BB21E
:1098A80002F0DBFD7B681B681A46FB691B789B008E
:1098B80013441B889AB240F60F73134099B27B6821
:1098C8001B681A46FB691B789B001A44224B0B4302
:1098D8009BB213807B681B68B3F850309BB21A4662
:1098E800FB691B78DB00134402335B007A6812685B
:1098F800134403F580631B689BB2C3F30902FB6939
:10990800DA61FB695A69FB69DB691A44FB695A61C8
:10991800FB699B69002B06D1FB691B78194678689F
:1099280004F088FA08E0FB691978FB695A69FB6951
:109938009B697868FFF710FC7B681B68B3F84430B4
:109948009BB21A46FA811BB2002BFFF6ECAC00233F
:1099580018462437BD4690BD80C0FFFF80B487B04D
:1099680000AFF8607B600B467B8113463B81002388
:109978007B617B8903F08003002B08D07B8903F08F
:109988007F035B012833FA6813447B6106E07B8917
:109998005B0103F50A73FA6813447B613B89002B6A
:1099A80007D17B6900229A727B689AB27B699A8098
:1099B8000BE07B6901229A727B689AB27B69DA8034
:1099C8007B681B0C9AB27B691A81002318461C37E6
:1099D800BD4680BC7047000080B400AF034B012235
:1099E8001A6000BFBD4680BC704700BF20000E4211
:1099F80080B586B000AF786000233B617B681B6848
:109A080003F00103002B00F08780924B5B6803F0A2
:109A18000C03042B0CD08F4B5B6803F00C03082B52
:109A280012D18C4B5B6803F48033B3F5803F0BD1C4
:109A3800884B1B6803F40033002B6CD07B685B6891
:109A4800002B68D101232DE27B685B68B3F5803F6A
:109A580006D1804B1B687F4A43F4803313602EE0A5
:109A68007B685B68002B0CD17A4B1B68794A23F41E
:109A780080331360774B1B68764A23F48023136086
:109A88001DE07B685B68B3F5A02F0CD1714B1B6898
:109A9800704A43F4802313606E4B1B686D4A43F48D
:109AA800803313600BE06B4B1B686A4A23F48033E6
:109AB8001360684B1B68674A23F4802313607B6834
:109AC8005B68002B13D0FDF7ADFF386108E0FDF7A8
:109AD800A9FF02463B69D31A642B01D90323E1E1AC
:109AE8005C4B1B6803F40033002BF0D014E0FDF747
:109AF80099FF386108E0FDF795FF02463B69D31AE4
:109B0800642B01D90323CDE1524B1B6803F40033C6
:109B1800002BF0D100E000BF7B681B6803F0020354
:109B2800002B63D04B4B5B6803F00C03002B0BD06E
:109B3800484B5B6803F00C03082B1CD1454B5B6852
:109B480003F48033002B16D1424B1B6803F0020349
:109B5800002B05D07B681B69012B01D00123A1E1F3
:109B68003C4B1B6823F0F8027B685B69DB003949D2
:109B780013430B603AE07B681B69002B20D0364BFF
:109B880001221A60FDF74EFF386108E0FDF74AFF31
:109B980002463B69D31A022B01D9032382E12D4BDC
:109BA8001B6803F00203002BF0D02A4B1B6823F03C
:109BB800F8027B685B69DB00264913430B6015E0FC
:109BC800254B00221A60FDF72DFF386108E0FDF7EC
:109BD80029FF02463B69D31A022B01D9032361E10D
:109BE8001C4B1B6803F00203002BF0D17B681B6839
:109BF80003F00803002B39D07B689B69002B19D030
:109C0800164B01221A60FDF70DFF386108E0FDF7D9
:109C180009FF02463B69D31A022B01D9032341E10C
:109C28000C4B5B6A03F00203002BF0D0012000F01C
:109C3800E3FA1BE0094B00221A60FDF7F3FE3861D6
:109C48000EE0FDF7EFFE02463B69D31A022B07D957
:109C5800032327E1001002400000424280044242F0
:109C6800924B5B6A03F00203002BEAD17B681B6806
:109C780003F00403002B00F0A6800023FB758B4B38
:109C8800DB6903F08053002B0DD1884BDB69874AD1
:109C980043F08053D361854BDB6903F08053FB604D
:109CA800FB680123FB75824B1B6803F48073002B50
:109CB80018D17F4B1B687E4A43F480731360FDF70D
:109CC800B1FE386108E0FDF7ADFE02463B69D31AE4
:109CD800642B01D90323E5E0754B1B6803F48073FB
:109CE800002BF0D07B68DB68012B06D16F4B1B6A19
:109CF8006E4A43F0010313622DE07B68DB68002B9A
:109D08000CD16A4B1B6A694A23F001031362674B43
:109D18001B6A664A23F0040313621CE07B68DB6855
:109D2800052B0CD1614B1B6A604A43F00403136294
:109D38005E4B1B6A5D4A43F0010313620BE05B4B09
:109D48001B6A5A4A23F001031362584B1B6A574A8D
:109D580023F0040313627B68DB68002B15D0FDF742
:109D680061FE38610AE0FDF75DFE02463B69D31AE1
:109D780041F28832934201D9032393E04B4B1B6A8B
:109D880003F00203002BEED014E0FDF74BFE386120
:109D98000AE0FDF747FE02463B69D31A41F28832D2
:109DA800934201D903237DE0404B1B6A03F0020371
:109DB800002BEED1FB7D012B05D13C4BDB693B4AE7
:109DC80023F08053D3617B68DB69002B69D0374B64
:109DD8005B6803F00C03082B61D07B68DB69022BFE
:109DE80046D1344B00221A60FDF71CFE386108E0AA
:109DF800FDF718FE02463B69D31A022B01D903234B
:109E080050E02A4B1B6803F00073002BF0D17B68ED
:109E18001B6AB3F5803F08D1244B5B6823F40032FA
:109E28007B689B68214913434B60204B5B6823F494
:109E380074127B68196A7B685B6A0B431B4913437E
:109E48004B601C4B01221A60FDF7ECFD386108E0FD
:109E5800FDF7E8FD02463B69D31A022B01D903231B
:109E680020E0124B1B6803F00073002BF0D018E0C1
:109E7800104B00221A60FDF7D5FD386108E0FDF7A8
:109E8800D1FD02463B69D31A022B01D9032309E00D
:109E9800064B1B6803F00073002BF0D101E001238F
:109EA80000E0002318461837BD4680BD0010024068
:109EB800007000406000424280B584B000AF786016
:109EC80039600023FB607E4B1B6803F007033A6888
:109ED8009A4210D97A4B1B6823F0070278493B68ED
:109EE80013430B60764B1B6803F007033A689A42EA
:109EF80001D00123E0E07B681B6803F00203002B1C
:109F080020D07B681B6803F00403002B05D06D4B41
:109F18005B686C4A43F4E06353607B681B6803F03A
:109F28000803002B05D0674B5B68664A43F460530F
:109F38005360644B5B6823F0F0027B689B6861495F
:109F480013434B607B681B6803F00103002B6AD046
:109F58007B685B68012B07D15A4B1B6803F40033FD
:109F6800002B15D10123A7E07B685B68022B07D182
:109F7800544B1B6803F00073002B09D101239BE0AD
:109F8800504B1B6803F00203002B01D1012393E01F
:109F98004C4B5B6823F003027B685B6849491343B9
:109FA8004B60FDF73FFDF8607B685B68012B12D1C1
:109FB8000AE0FDF737FD0246FB68D31A41F2883202
:109FC800934201D9032377E03E4B5B6803F00C030F
:109FD800042BEED127E07B685B68022B1DD10AE0D9
:109FE800FDF720FD0246FB68D31A41F288329342FE
:109FF80001D9032360E0334B5B6803F00C03082BA3
:10A00800EED110E0FDF70EFD0246FB68D31A41F2CF
:10A018008832934201D903234EE02A4B5B6803F050
:10A028000C03002BEED1264B1B6803F007033A689C
:10A038009A4210D2224B1B6823F0070220493B6842
:10A0480013430B601E4B1B6803F007033A689A42E0
:10A0580001D0012330E07B681B6803F00403002B68
:10A0680008D0184B5B6823F4E0627B68DB6815490D
:10A0780013434B607B681B6803F00803002B09D06F
:10A08800104B5B6823F460527B681B69DB000D4949
:10A0980013434B6000F01CF801460A4B5B681B0930
:10A0A80003F00F03084AD35C21FA03F3074A13604D
:10A0B8000020FDF775FC002318461037BD4680BD0B
:10A0C8000020024000100240200B01080000002080
:10A0D80090B48AB000AF2A4B3C1D0FCB84E80F0028
:10A0E800284B1B883B800023FB610023BB610023B6
:10A0F8007B6200237B6100233B62234B5B68FB612F
:10A10800FB6903F00C03042B02D0082B03D02DE0CD
:10A118001E4B3B622DE0FB699B0C03F00F0307F11C
:10A128002802134413F8243C7B61FB6903F4803351
:10A13800002B13D0144B5B685B0C03F0010307F191
:10A148002802134413F8283CBB617B690F4A02FBC1
:10A1580003F2BB69B2FBF3F37B6204E07B690C4A50
:10A1680002FB03F37B627B6A3B6202E0074B3B62C4
:10A1780000BF3B6A18462837BD4690BC704700BFF1
:10A18800B00A0108C00A01080010024000127A0053
:10A1980000093D0080B400AF024B1B681846BD465D
:10A1A80080BC70470000002080B500AFFFF7F2FFC9
:10A1B8000146054B5B681B0A03F00703034AD35C9F
:10A1C80021FA03F3184680BD00100240300B010845
:10A1D80080B500AFFFF7DEFF0146054B5B68DB0A81
:10A1E80003F00703034AD35C21FA03F3184680BD42
:10A1F80000100240300B010880B485B000AF7860D1
:10A208000A4B1B680A4AA2FB03235B0A7A6802FB13
:10A2180003F3FB6000BFFB685A1EFA60002BF9D1FC
:10A2280000BF1437BD4680BC704700BF0000002047
:10A23800D34D621080B586B000AF786000233B61D3
:10A248000023FB607B681B6803F00103002B7DD0B3
:10A258000023FB754F4BDB6903F08053002B0DD1B6
:10A268004C4BDB694B4A43F08053D361494BDB6964
:10A2780003F08053BB60BB680123FB75464B1B682A
:10A2880003F48073002B18D1434B1B68424A43F4F4
:10A2980080731360FDF7C6FB386108E0FDF7C2FB69
:10A2A80002463B69D31A642B01D903236DE03A4B6C
:10A2B8001B6803F48073002BF0D0364B1B6A03F441
:10A2C8004073FB60FB68002B2ED07B685B6803F44F
:10A2D8004073FA689A4227D02E4B1B6A23F44073C6
:10A2E800FB602E4B01221A602C4B00221A60294A6F
:10A2F800FB681362FB6803F00103002B14D0FDF721
:10A3080091FB38610AE0FDF78DFB02463B69D31AE1
:10A3180041F28832934201D9032336E01D4B1B6A70
:10A3280003F00203002BEED01A4B1B6A23F4407291
:10A338007B685B68174913430B62FB7D012B05D1D2
:10A34800144BDB69134A23F08053D3617B681B6885
:10A3580003F00203002B08D00E4B5B6823F4404245
:10A368007B689B680B4913434B607B681B6803F051
:10A378001003002B08D0074B5B6823F480027B682E
:10A388005B69044913434B60002318461837BD46E0
:10A3980080BD00BF001002400070004040044242EF
:10A3A80090B58DB000AF78606C4B07F10C040FCB03
:10A3B80084E80F006A4B1B883B8100237B620023E3
:10A3C800FB6200233B620023FB610023BB627B68C6
:10A3D800013B0F2B00F2B98001A252F823F000BF15
:10A3E800CBA4000837A5000853A50008BBA40008A3
:10A3F80053A5000853A5000853A50008C3A40008E6
:10A4080053A5000853A5000853A5000853A5000844
:10A4180053A5000853A5000853A5000829A400085F
:10A42800504B5B68FB614F4B1B6803F08073002B3C
:10A4380000F08D80FB699B0C03F00F0307F13002DD
:10A44800134413F8243C3B62FB6903F48033002B6C
:10A4580018D0444B5B685B0C03F0010307F1300232
:10A46800134413F8283C7B62FB6903F48033002B08
:10A478000DD03D4A7B6AB2FBF3F23B6A02FB03F361
:10A48800FB6204E03B6A394A02FB03F3FB62354B8B
:10A498005B6803F48003B3F5800F02D1FB6ABB62EB
:10A4A80055E0FB6A5B00324AA2FB03235B08BB62F0
:10A4B8004DE0FFF70DFEB8624AE0FFF709FEB8620B
:10A4C80046E0284B1B6AFB61FB6903F44073B3F554
:10A4D800807F08D1FB6903F00203002B03D04FF4FF
:10A4E8000043BB6222E0FB6903F44073B3F5007FCD
:10A4F80009D11C4B5B6A03F00203002B03D049F619
:10A508004043BB6212E0FB6903F44073B3F5407F3C
:10A5180009D1144B1B6803F40033002B03D04FF20E
:10A528002443BB6202E00023BB6211E010E0FFF7A6
:10A538004FFE02460B4B5B689B0B03F00303013392
:10A548005B00B2FBF3F3BB6202E000BF00E000BFB8
:10A55800BB6A18463437BD4690BD00BFC40A01081F
:10A56800D40A01080010024000127A0000093D00D8
:10A57800ABAAAAAA80B584B000AF78600023FB60BC
:10A588007B68002B01D1012384E07B685B7CDBB214
:10A59800002B05D17B6800221A747868FCF77AFFD3
:10A5A8007B6802225A74786800F07AF80346002B18
:10A5B80004D07B6804225A7401236BE0786800F0A9
:10A5C8009CF80346002B04D07B6804225A740123AC
:10A5D80060E07B681B685A687B681B6822F007028A
:10A5E8005A607B689B68002B05D02C4B1B6B2B4A51
:10A5F80023F001031363294BDB6A23F460727B6841
:10A608009B6826491343CB627B685B68B3F1FF3FC5
:10A6180003D07B685B68FB600EE00120FFF7C0FE9B
:10A62800F860FB68002B04D17B6804225A7401236C
:10A6380030E0FB68013BFB607B681B689B6823F08C
:10A648000F01FB681A0C7B681B680A439A607B68D9
:10A658001B68DB681B0C1B04FA6891B27A681268E5
:10A668000B43D360786800F070F80346002B04D0E1
:10A678007B6804225A7401230CE07B680022DA7399
:10A688007B6801225A737B6801229A737B680122D6
:10A698005A74002318461037BD4680BD006C004030
:10A6A80080B584B000AF78600023FB607B68002B26
:10A6B80001D101231DE07B681B685A687B681B6811
:10A6C80022F008025A60FDF7ADF9F86009E0FDF7DD
:10A6D800A9F90246FB68D31AB3F57A7F01D9032397
:10A6E80007E07B681B685B6803F00803002BEED06B
:10A6F800002318461037BD4680BD80B584B000AF32
:10A7080078600023FB60FDF78DF9F86009E0FDF73C
:10A7180089F90246FB68D31AB3F57A7F01D9032376
:10A728000FE07B681B685B6803F02003002BEED00A
:10A738007B681B685A687B681B6842F010025A6085
:10A74800002318461037BD4680BD80B584B000AFE1
:10A7580078600023FB607B681B685A687B681B680D
:10A7680022F010025A60FDF75DF9F86009E0FDF784
:10A7780059F90246FB68D31AB3F57A7F01D9032346
:10A7880007E07B681B685B6803F02003002BEED0B2
:10A79800002318461037BD4680BD000080B487B03E
:10A7A80000AFF860B9607A6000237B61074B7B617A
:10A7B800BB689B007A6913447B617B697A6892B2B3
:10A7C8001A6000BF1C37BD4680BC7047006C004053
:10A7D80080B485B000AF786039600023FB60002347
:10A7E800BB60084BFB603B689B00FA681344FB6046
:10A7F800FB681B689BB2BB60BB6818461437BD4634
:10A8080080BC7047006C004080B582B000AF7860B3
:10A818007B68002B01D101233FE07B6893F8393036
:10A82800DBB2002B06D17B68002283F838207868D9
:10A83800FCF7C4FF7B68242283F839207B681B68F7
:10A84800DA687B681B6822F40052DA60786800F0E6
:10A858007DFC7B681B681A697B681B6822F4904240
:10A868001A617B681B685A697B681B6822F02A0298
:10A878005A617B681B68DA687B681B6842F400527F
:10A88800DA607B680022DA637B68202283F839204B
:10A898007B68202283F83A20002318460837BD46F3
:10A8A80080BD80B582B000AF78607B68002B01D195
:10A8B800012316E07B68242283F839207868FCF7A6
:10A8C800FBFF7B680022DA637B68002283F839206B
:10A8D8007B68002283F83A207B68002283F83820BE
:10A8E800002318460837BD4680BD80B588B002AF42
:10A8F800F860B9603B601346FB8000237B61FB680E
:10A9080093F83930DBB2202B40F08380BB68002BF2
:10A9180002D0FB88002B01D101237BE0FB6893F870
:10A928003830012B01D1022374E0FB68012283F83F
:10A938003820FB680022DA63FB68212283F839207B
:10A94800FDF770F87861FB68FA889A84FB68FA88E2
:10A95800DA8442E0FB68DB8C9BB2013B9AB2FB686D
:10A96800DA84FB689B68B3F5805F22D13B6800936B
:10A978007B6900228021F86800F06AFA0346002B00
:10A9880001D0032346E0BB683B613B691B881A463C
:10A99800FB681B68C2F308025A60FB681B69002B3E
:10A9A80003D1BB680233BB6017E0BB680133BB60EF
:10A9B80013E03B6800937B6900228021F86800F06F
:10A9C80047FA0346002B01D0032323E0BB685A1C37
:10A9D800BA601A78FB681B685A60FB68DB8C9BB20C
:10A9E800002BB7D13B6800937B6900224021F868AF
:10A9F80000F02EFA0346002B01D003230AE0FB687F
:10AA0800202283F83920FB68002283F838200023AD
:10AA180000E0022318461837BD4680BD80B586B0D1
:10AA280000AFF860B9601346FB80FB6893F83A30D2
:10AA3800DBB2202B66D1BB68002B02D0FB88002B31
:10AA480001D101235FE0FB6893F83830012B01D175
:10AA5800022358E0FB68012283F83820BA68FB68B3
:10AA68009A62FB68FA889A85FB680022DA63FB68B9
:10AA7800222283F83A20FB685B6B254A9A62FB68BE
:10AA88005B6B244ADA62FB685B6B234A1A63FB68D8
:10AA98005B6B00225A6307F108037B61FB68586B04
:10AAA800FB681B68043319467B691A68FB88FDF745
:10AAB80005FA00233B61FB681B681B683B61FB6868
:10AAC8001B685B683B613B69FB68002283F83820A0
