:020000040800F2
:10000000000001207D040008090400080B0400081A
:100010000D0400080F04000811040008000000008F
:1000200000000000000000000000000013040008B1
:100030001504000800000000170400081904000857
:10004000C5040008C5040008C5040008C50400086C
:10005000C5040008C5040008C5040008C50400085C
:10006000C5040008C5040008C5040008C50400084C
:10007000C5040008C5040008C5040008C50400083C
:10008000C5040008C5040008C5040008C50400082C
:1000900021040008C5040008C5040008C5040008C0
:1000A000C5040008C5040008C5040008C50400080C
:1000B000C5040008C5040008C5040008C5040008FC
:1000C000C5040008C5040008C5040008C5040008EC
:1000D000C5040008C5040008C5040008C5040008DC
:1000E000C5040008C5040008C5040008C5040008CC
:1000F000C5040008C5040008C5040008C5040008BC
:10010000C5040008C5040008C5040008C5040008AB
:10011000C5040008C5040008C5040008C50400089B
:10012000C5040008C5040008C5040008C50400088B
:1001300000000000000000000000000000000000BF
:1001400000000000000000000000000000000000AF
:10015000000000000000000000000000000000009F
:10016000000000000000000000000000000000008F
:10017000000000000000000000000000000000007F
:10018000000000000000000000000000000000006F
:10019000000000000000000000000000000000005F
:1001A000000000000000000000000000000000004F
:1001B000000000000000000000000000000000003F
:1001C000000000000000000000000000000000002F
:1001D000000000000000000000000000000000001F
:0401E0005FF8E0F1F3
:1001E40010B5054C237833B9044B13B10448AFF36D
:1001F40000800123237010BD0001002000000000D6
:10020400C43C000808B5034B1BB103490348AFF3D2
:10021400008008BD0000000004010020C43C000868
:10022400704710B500F058F8044600F055F8001B6C
:100234006328FAD900F050F80446022000F022FAAC
:10024400F3E7000070B586B000240294039404948C
:1002540005941C4B9A6942F008029A619A6902F06B
:1002640008020092009A9A6942F004029A619B691A
:1002740003F004030193019B134E22464FF4704193
:10028400304600F013FE4FF47043029301230393AE
:1002940004940225059502A9304600F00FFD4FF4A1
:1002A400805602961123039304940595074D02A9E1
:1002B400284600F003FD22463146284600F0F6FDAC
:1002C40006B070BD00100240000C0140000801405F
:1002D40008B500F011FB08BD08B500F007FB08BD28
:1002E40030B597B000240E94119412940794089496
:1002F40009940A940B94019402940394049405942D
:10030400069405230C934FF480330D9301220F922E
:1003140010920225139514934FF4E01315930CA82F
:1003240001F0B4FA0F230793089509944FF48063FE
:100334000A930B94294607A801F0CEFC11230193DC
:100344004FF480730293069401A801F0A9FD17B03D
:1003540030BD000070B586B000F0AAFAFFF7C0FF08
:10036400FFF770FF134B9A6942F020029A619A6971
:1003740002F020020092009A9A6942F004029A6103
:100384009B6903F004030193019B002604964FF438
:10039400805502951123039302230593064C02A969
:1003A400204600F08BFC32462946204600F07EFDB4
:1003B40006B070BD00100240000801407047000004
:1003C40082B00E4B9A6942F001029A619A6902F076
:1003D40001020092009ADA6942F08052DA61DB6924
:1003E40003F080530193019B054A536823F0E063B3
:1003F40043F00073536002B0704700BF0010024026
:10040400000001407047FEE7FEE7FEE7FEE77047A5
:100414007047704708B500F05DFA08BD08B502489A
:1004240001F084F808BD00BF9C1200200F4B1A682D
:1004340042F001021A6059680D4A0A405A601A686B
:1004440022F0847222F480321A601A6822F4802224
:100454001A605A6822F4FE025A604FF41F029A602E
:10046400044B4FF000629A60704700BF00100240D6
:100474000000FFF800ED00E0002103E00B4B5B58A7
:10048400435004310A480B4B42189A42F6D30A4AA5
:1004940002E0002342F8043B084B9A42F9D3FFF7E9
:1004A400C5FF03F0E9FB03F0DDFB7047A43D000842
:1004B40000000020FC00002000010020FC160020A9
:1004C400FEE7000010B4124B53F8304003EBC003B6
:1004D4009B882344013B0A44013A8C4203D394424F
:1004E40013D9002000E000208B4202D3934200D8AD
:1004F40001208C4202D88B4200D30120944202D8BE
:10050400934200D3012010BC70470120ECE700BFE8
:100514001C01002000230BE003F58031C902064AC8
:1005240042F8331002EBC3024FF4006191800133AF
:10053400FF2BF1DD012070471C0100202DE9F04163
:1005440086B007460E46002425464FF0FF3801E0EA
:1005540001350134FF2C0CDC32463946A0B2FFF7DA
:10056400B1FF0028F5D0B8F1000FF1DA0FFA84F8E2
:10057400EEE725B90024204606B0BDE8F08100F07E
:100584007FFA0023029301230393084B53F8383076
:100594000493059501A902A800F03EFB18B10024BC
:1005A40000F088FAE7E70124FAE700BF1C01002005
:1005B400F8B510F0010F02D000242046F8BD17460C
:1005C4000D46064600F05CFA0024BC420DD22A5DBA
:1005D4002B195B7842EA032292B20023A11901206D
:1005E40000F0A8FA28B90234EFE7012400F062FA17
:1005F400E3E70024FAE70000032800D9704708B5B0
:10060400044B03EBC001CA79898853F8300000F029
:100614004DFC08BD0400002010B586B000240294EF
:1006240003940494154B9A6942F008029A619A69FA
:1006340002F008020092009A9A6942F004029A6158
:100644009B6903F004030193019B01230393022399
:1006540005930EE00A4B03EBC402928806A941F805
:10066400102D53F8340000F029FBE0B2FFF7C4FF6B
:100674000134032CEEDD06B010BD00BF00100240B3
:1006840004000020032800D9704708B5044B03EB8D
:10069400C002918853F8300000F00EFC08BD00BF82
:1006A4000400002008B51F4B5B6AB3F1806F12D0C1
:1006B4000021012000F06EF81B4B1B68022B2FD089
:1006C4001A4B1B68B3F1FF3F2AD001F069F800F020
:1006D400B9F800231CE0012000F054F8411C01206B
:1006E40000F058F84FF4FA70FFF7F2FD012000F023
:1006F40049F80D4B1860DBE703F120010C4A4FF079
:10070400FF3042F82100BFF34F8FBFF36F8F0133E7
:10071400072BF1DD074B00221A60044B1B68984736
:10072400012008BD001002401C09002004500008EC
:1007340000E100E010E000E000B583B00E4B9A69E0
:1007440042F010029A619B6903F010030193019B2C
:100754000A480B4B03604FF0FF3343604FF4807340
:10076400836001F001FD18B9012003B05DF804FBBA
:10077400FFF724FEF8E700BF001002403C0E002003
:100784000028004008B50146014801F057FD08BDA6
:100794003C0E002008B50A460146024801F046FD19
:1007A40008BD00BF3C0E002002680C4B9A4200D0EA
:1007B400704700B583B000F0D7FF094BDA6942F007
:1007C4000062DA61DB6903F000630193019B054B6E
:1007D40001221A6003B05DF804FB00BF002800404A
:1007E400001002403C04424230B585B0002400941D
:1007F400019402940394C820FFF76AFD084D012276
:100804004FF48051284600F051FB01946946284674
:1008140000F054FA03F03CF8012005B030BD00BFED
:100824000008014008B5FFF795FDFFF785FFFFF7C6
:1008340039FFFFF7F1FEFFF7D7FFFFF76BFE08BDA7
:100844007047000010B5064B4FF0FF32DA60002409
:100854001C61DA60DC60FFF7F3FF204610BD00BFC7
:100864000010024010B504460E4B18784FF47A730A
:10087400B3FBF0F30C4A1068B0FBF3F000F0A2F8FD
:1008840068B90F2C01D901200AE0002221464FF05B
:10089400FF3000F057F8054B1C60002000E00120F9
:1008A40010BD00BF2400002000000020280000200C
:1008B40008B5074A136843F010031360032000F0DF
:1008C4002FF80020FFF7CEFFFFF77AFD002008BDC8
:1008D40000200240034A1168034B1B780B44136049
:1008E400704700BF500E002024000020014B186800
:1008F400704700BF500E002038B50446FFF7F6FFDE
:100904000546B4F1FF3F02D0044B1B781C44FFF7AB
:10091400EDFF401BA042FAD338BD00BF24000020E5
:10092400074AD36823F4E0631B041B0C000200F4A1
:10093400E060184340F0BF6040F40030D06070477E
:1009440000ED00E030B4174BDB68C3F30223C3F1BE
:100954000704042C28BF04241D1D062D18D9033BAD
:100964004FF0FF3505FA04F421EA0401994005FA31
:1009740003F322EA0303194300280BDB0901C9B27C
:1009840000F1604000F5614080F8001330BC70470E
:100994000023E5E700F00F000901C9B2024B195426
:1009A400F4E700BF00ED00E014ED00E000F01F02EA
:1009B400400901239340024A42F82030704700BFA7
:1009C40000E100E00138B0F1807F0AD2064B5860A4
:1009D400064AF02182F823100020986007221A604A
:1009E40070470120704700BF10E000E000ED00E018
:1009F400044B0022DA61044A136943F001031361D2
:100A040001807047580E0020002002401A4BDB681A
:100A140013F0100F27D0194AD36943F00203D361AE
:100A24001023154AD26812F0040F06D01349CA697C
:100A340042F00102CA6143F004030F4AD26912F082
:100A4400010F09D00D49CA6942F00402CA610A497A
:100A5400CA6922F00102CA6140F20112934204D031
:100A6400054AD36070470023DBE7034AD36923F0C8
:100A74000103D361704700BF00200240580E0020DC
:100A84000A4B1B6913F0800F0DD0084B084A5A60BB
:100A940002F188325A601B6913F0800F01D00120E3
:100AA4007047002070470020704700BF00200240BC
:100AB40023016745034A136943F08003136100204F
:100AC400704700BF0020024038B50446FFF70EFF10
:100AD4000546174BDB6813F0010F0AD0B4F1FF3F52
:100AE400F7D00CB3FFF702FF401BA042F1D903205B
:100AF40019E00F4BDB6813F0200F02D00C4B2022BF
:100B0400DA600B4BDB6813F0100F09D1084BDB697B
:100B140013F0010F04D1064BDB6813F0040F05D06A
:100B2400FFF774FF012038BD0320FCE70020FAE73B
:100B3400002002402DE9F843234C247E012C41D0AF
:100B44001E4690460F4604461F4B01221A764CF26D
:100B54005030FFF7B9FF034670BB012C29D0022C9B
:100B640024D04FF0040900244C4525D22101C1F1C1
:100B74002002A1F1200328FA01F106FA02F211433E
:100B840026FA03F3194389B207EB4400FFF730FF59
:100B94004CF25030FFF798FF0C4B1D6925F001050E
:100BA4001D61034640B90134E4B2DDE74FF00209A8
:100BB400D9E74FF00109D6E7034A00211176184618
:100BC400BDE8F8830223FAE7580E00200020024013
:100BD400064B0022DA61064B1A6942F004021A61DC
:100BE4001A6942F040021A61704700BF580E002093
:100BF40000200240064B0022DA61064B1A6942F0DB
:100C040002021A6158611A6942F040021A6170477F
:100C1400580E002000200240264B1B7E012B46D09C
:100C240070B50E460446234B01221A760368022B44
:100C340020D04CF25030FFF747FF90BB4FF0FF330A
:100C44003360A5680122E168A36803EBC123AB42CA
:100C540028D92846FFF7CEFF4CF25030FFF734FF77
:100C6400154A136923F0020313610246B8B905F566
:100C74000065E8E74CF25030FFF726FF08B1012287
:100C840010E00120FFF7A4FF4CF25030FFF71CFFE7
:100C9400024609490B6923F004030B6102E0356045
:100CA40000E00122034B00211976104670BD022298
:100CB40010467047580E002000200240F0B482B065
:100CC40000263546ABE0002C63D0012C00D1CE6861
:100CD400FF2B72D88446FF2B72D8AC00DCF80020BE
:100CE4000F27A74022EA070206FA04F42243CCF8AD
:100CF40000204A6812F0805F00F09080654A946991
:100D040044F001049461926902F001020192019A93
:100D1400AC08A71C604A52F827C005F003029700EC
:100D24000F22BA402CEA020C5C4A90424ED002F5E3
:100D34008062904200F08B8002F58062904200F065
:100D4400888002F58062904200F0858002F580621E
:100D5400904200F0828002F58062904234D00622F4
:100D640035E04F4FBC4214D00BD94E4FBC4210D08B
:100D740007F58037BC420CD0A7F58017BC42A7D139
:100D840007E0A7F58017BC4203D007F58037BC42C3
:100D94009ED18C687CB1012C08D04261082697E76B
:100DA400CE68083694E7CE680C3691E702610826CF
:100DB4008EE700268CE704268AE700F1040C8AE714
:100DC400A5F10804A40089E7052200E00022BA4046
:100DD40042EA0C020234304F47F824204A6812F4E5
:100DE400803F3CD0304C22681A4322604A6812F497
:100DF400003F3AD02C4C62681A4362604A6812F48D
:100E0400801F38D0284CA2681A43A2604A6812F4A2
:100E1400001F36D0244CE2681343E36001350F2DE4
:100E240035D80122AA400B6813409A42F6D14C6887
:100E3400122CB8D095D8022CB2D07FF644AF032C34
:100E4400B7D0112C7FF444AFCE68043640E70122BA
:100E5400BDE70222BBE70322B9E70422B7E7124C3D
:100E6400226822EA03022260C0E70F4C626822EA89
:100E740003026260C2E70C4CA26822EA0302A26089
:100E8400C4E7094CE26822EA0303E360C6E702B060
:100E9400F0BC70470010024000000140000801400F
:100EA40000002110000031100004014012B90904AF
:100EB4000161704701617047C3685940C160704760
:100EC400002866D0F0B587B0044690F82934C3B141
:100ED400032384F82934206801F0C7F9254655F81E
:100EE400107B6E460FCD0FC62B683360231D0ECBCF
:100EF400384601F0ABF90021206801F0C0F9002365
:100F040015E080F8283402F0BDFDE1E704EB43125C
:100F1400012182F8291082F828309386002182F872
:100F24002B109163D1639A1C5201A15001330E2BF3
:100F3400ECD9002312E004EB4312002182F82912B9
:100F440082F82832938682F82B12C2F83812C2F83B
:100F54003C1203F112025201A15001330E2BEAD9C3
:100F6400254655F8107B6E460FCD0FC62B683360AF
:100F7400231D0ECB384601F084F9002584F8245053
:100F8400012384F82934206801F0B8FB284607B00F
:100F9400F0BD0120704790F82834012B10D010B513
:100FA4000446012180F8281402F05BFE206801F059
:100FB400A3FB206801F051F9002084F8280410BD37
:100FC4000220704790F82834012B11D010B5044644
:100FD400012380F82834006801F047F9206801F003
:100FE4007AFB206801F08AFB002084F8280410BDF5
:100FF4000220704790F82834012B0DD010B5044618
:10100400012380F8283480F82410006801F06EFB76
:10101400002084F8280410BD0220704738B54DB272
:10102400002D1CDB01F07F04640104F50A74044400
:1010340001F07F012170ED0F65702261E37090F87B
:101044002834012B11D00546012380F82834214689
:10105400006801F02CF9002085F8280438BD01F05F
:101064007F04640128340444E2E70220F6E770B503
:1010740001F07F056C0104F50A7101440444C4F8CD
:101084003C2205F11202520186188350002373603A
:1010940084F8293284F8285225B1006801F04AFB0B
:1010A400002070BD006801F045FBF9E770B501F060
:1010B4007F056C0104F1280101440444E263AA1C85
:1010C40052018618835000237360012384F8293069
:1010D40084F8285025B1006801F02CFB002070BD75
:1010E400006801F027FBF9E770B582B004460023DD
:1010F400ADF80630ADF804302068B0F844309BB247
:10110400ADF8063013F4004F00F00D82BDF8065020
:1011140015F00F0540F0C280BDF8063013F0100F33
:1011240050D003889BB2ADF80430BDF8043013F4FA
:10113400006F79D1BDF8043013F4004FDCD003887C
:1011440023F070031B051B0D03802068B0F850309A
:1011540094F8282203EBC203063300EB4303D3F8CD
:101164000034C3F30903C4F84432002B7CD10021BA
:10117400204602F0AFFC2368B3F85020063203EB9C
:101184004203D4F838123E297CD9C1F34F1211F02E
:101194001F0F01D1013A92B26FEAC2626FEA524262
:1011A40092B2C3F80024226813889BB223F48043CC
:1011B40023F0700383F4405343F4004343F080036B
:1011C400138099E703889BB223F4E14323F070036F
:1011D4009BB203802268B2F8503094F8281003EBD5
:1011E400C103023302EB4303D3F80034C3F309030E
:1011F4006364E26B1344E3630021204602F074FC51
:1012040094F82430002B3FF477AF236C002B7FF449
:1012140073AF94F82430226843F08003A2F84C3072
:10122400002384F8243067E7B0F8503094F828227B
:1012340003EBC203063300EB4303D3F80034C3F3D8
:101244000903C4F84432B4F82C2204F22C4101F00E
:10125400CEFB2268138823F070031B051B0D13803B
:10126400204602F02FFC47E7B4F82C22D4F83C12B5
:1012740001F0BDFBD4F84422D4F83C321344C4F842
:101284003C3274E7C1F34F0211F0010F01D0013277
:1012940092B2920292B2C3F8002484E730F8253067
:1012A4009BB2ADF80430BDF8043013F4004F35D1CF
:1012B400BDF8043013F0800F3FF41EAF226832F8FB
:1012C40025309BB223F4E14323F070039BB222F850
:1012D400253004EB451393F83230002B40F0B280F4
:1012E4002068B0F8503004EB451292F8282003EB44
:1012F400C203023300EB4303D3F80034C3F30903FE
:10130400AA1C04EB42125360002B00F0C68004EBCD
:1013140045118A8DC96B01F0F8F9BEE030F825302B
:1013240023F070031B051B0D20F8253004EB451337
:1013340093F83232D3B92068B0F8503004EB451238
:1013440092F8282203EBC203063300EB4303B3F8FD
:101354000064C6F3090686B304EB45113346B1F8BD
:101364002C22D1F83C1201F042FB26E0206804EB69
:10137400451393F8282230F8223013F4804F42D0DA
:10138400B0F8503003EBC203023300EB4303B3F86D
:101394000064C6F3090666BB226804EB451393F8A0
:1013A400281232F8213023F0F0031B051B0D43F4FF
:1013B400004343F0C00322F8213005F112035B011E
:1013C400E1184A6832444A6004EB4511D1F83C22E2
:1013D4003244C1F83C22E3581BB1D1F838128E4292
:1013E40028D204EB451393F82812204602F072FB2E
:1013F4005EE704EB45113346B1F82E22D1F83C12D6
:1014040001F0F5FAC8E7B0F8503003EBC203063335
:1014140000EB4303B3F80064C6F30906002EBBD007
:1014240004EB45113346B1F83022D1F83C1201F0F7
:10143400DEFAB1E704EB451191F828122046FFF7D4
:1014440016FE35E7206804EB451393F8282030F89E
:10145400223013F0400F46D0B0F8503003EBC203F3
:10146400023300EB4303D3F80034C3F30903AA1C8B
:1014740004EB421253607BBB226804EB451393F8E0
:10148400281032F8213023F0F0031B051B0D43F420
:10149400404343F0800322F821302268B2F85030F0
:1014A40004EB451090F8281003EBC103023302EB60
:1014B4004303D3F80024C2F30902AB1C5B01E11817
:1014C4004A60C16B0A44C263E35823BB90F82810F6
:1014D400204602F009FB0FE604EB4511CA8DC96BE7
:1014E40001F013F9C8E7B0F8503003EBC203063338
:1014F40000EB4303D3F80034C3F30903AA1C04EB41
:1015040042125360002BB7D004EB45110A8EC96B0D
:1015140001F0FBF8B0E704EB451595F828102046D8
:10152400FFF7C4FDE8E5002002B070BD10B5044625
:10153400006801F0E5F810F4004F45D1206801F08F
:10154400DFF810F4806F43D1206801F0D9F810F46B
:10155400804F08D02268B2F844309BB223F4804311
:101564009BB2A2F84430206801F0CAF810F4005F7E
:1015740008D02268B2F844309BB223F400539BB2E3
:10158400A2F84430206801F0BBF810F4805F30D139
:10159400206801F0B5F810F4006F49D1206801F01B
:1015A400AFF810F4007F64D1206801F0A9F810F4BA
:1015B400807F08D02268B2F844309BB223F4807351
:1015C4009BB2A2F8443010BD2046FFF78DFDB5E76D
:1015D4002268B2F844309BB223F480639BB2A2F831
:1015E4004430204602F08FFA00212046FFF702FD26
:1015F400AAE72268B2F840309BB223F004039BB2FE
:10160400A2F840302268B2F840309BB223F00803BD
:101614009BB2A2F84030204602F096FA2268B2F853
:1016240044309BB223F480539BB2A2F84430AFE71A
:101634002268B2F8403043F00803A2F84030226830
:10164400B2F844309BB223F400639BB2A2F8443056
:101654002268B2F8403043F00403A2F84030206816
:1016640001F04EF810F4805F98D1204602F05CFA45
:1016740094E72268B2F844309BB223F400739BB21F
:10168400A2F84430204602F038FA8DE738B54AB261
:10169400002A1BDB4B0103F50A73034401249C70ED
:1016A40001F07F051D70D20F5A7090F82824A242D1
:1016B40018D00446012280F828241946006800F056
:1016C4008AFF4DB1002084F8280438BD01F07F035F
:1016D4005B0128330344E1E704F22C41206801F064
:1016E40012F8EFE70220F0E710B54AB2002A1ADB3D
:1016F4004B0103F50A73034400249C7001F07F013D
:101704001970D20F5A7090F82824012A11D0044677
:10171400012280F828241946006800F093FF002075
:1017240084F8280410BD01F07F035B0128330344CF
:10173400E2E70220F6E711F0800F0CD001F07F0100
:101744004901283101445AB101228A72CB801B0C11
:101754000B8100207047490101F50A710144F2E749
:101764008A728B80F5E70000014B01221A607047F2
:1017740020000E4282B0084B1B68084AA2FB0323D8
:101784005B0A00FB03F0019000BF019B5A1E01920B
:10179400002BF9D102B0704700000020D34D621035
:1017A40070B5FFF7A3F80446354A136843F0010304
:1017B4001360334B1B6813F0020F07D1FFF796F841
:1017C400001B0228F5D90324204670BD2C4D2B683C
:1017D40023F0F80343F080032B60FFF787F80446F7
:1017E40000236B60264B5B6813F00C0F08D0FFF7E7
:1017F4007DF8001B41F288339842F3D90324E3E7D0
:10180400204B214A1A600020FFF72CF8044608B147
:101814000124D9E7FFF76AF80546194A136823F04B
:1018240080731360164B1B6813F0007F06D0FFF71C
:101834005DF8401B0228F5D90324C5E7104E0023A8
:101844007360FFF753F80546336823F410233360BD
:101854000B4B1B6813F4003F06D0FFF747F8401BFF
:101864006428F5D90324AFE7054B1A6822F48022D3
:101874001A605A6A42F080725A6200229A60A3E7A0
:10188400001002400000002000127A0070B582B0FF
:101894000446036813F0010F2CD0AB4B5B6803F0D4
:1018A4000C03042B1DD0A84B5B6803F00C03082B1E
:1018B40012D06368B3F5803F41D0002B55D103F1BA
:1018C400804303F504331A6822F480321A601A68DC
:1018D40022F480221A6037E09B4B5B6813F4803F4C
:1018E400E7D0994B1B6813F4003F03D06368002BC7
:1018F40000F0AE81236813F0020F76D0924B5B6840
:1019040013F00C0F5FD0904B5B6803F00C03082BB3
:1019140054D02369002B00F08A808C4B01221A607A
:10192400FEF7E4FF0546884B1B6813F0020F75D1E0
:10193400FEF7DCFF401B0228F5D903208BE1824A25
:10194400136843F480331360636843B3FEF7CEFF38
:1019540005467D4B1B6813F4003FCBD1FEF7C6FF51
:10196400401B6428F5D9032075E1B3F5A02F09D0F5
:10197400754B1A6822F480321A601A6822F48022A5
:101984001A60E1E703F18043A3F53C331A6842F49B
:1019940080221A601A6842F480321A60D4E7FEF793
:1019A400A5FF0546684B1B6813F4003FA2D0FEF761
:1019B4009DFF401B6428F5D903204CE1624B5B6812
:1019C40013F4803FA5D1604B1B6813F0020F04D0C1
:1019D4002369012B01D001203DE15B4A136823F008
:1019E400F803616943EAC1031360236813F0080F25
:1019F40032D0A369002B5BD0554B01221A60FEF74D
:101A040075FF0546504B5B6A13F0020F21D1FEF7B8
:101A14006DFF401B0228F5D903201CE14A4A1368D4
:101A240023F0F803616943EAC1031360DDE7474B20
:101A340000221A60FEF75AFF0546434B1B6813F059
:101A4400020FD2D0FEF752FF401B0228F5D9032023
:101A540001E10120FFF78EFE236813F0040F00F06C
:101A64009780394BDB6913F0805F33D1364BDA69E9
:101A740042F08052DA61DB6903F080530193019BE9
:101A84000125344B1B6813F4807F25D0E368012BB8
:101A940036D0002B4CD103F1804303F504331A6A8A
:101AA40022F001021A621A6A22F004021A622CE07D
:101AB400274B00221A60FEF719FF0546224B5B6A8A
:101AC40013F0020FC8D0FEF711FF401B0228F5D90E
:101AD4000320C0E00025D4E71E4A136843F4807352
:101AE4001360FEF703FF06461A4B1B6813F4807F4E
:101AF400CCD1FEF7FBFE801B6428F5D90320AAE0B5
:101B0400114A136A43F001031362E36873B3FEF7E7
:101B1400EDFE06460C4B1B6A13F0020F37D1FEF79D
:101B2400E5FE801B41F288339842F3D9032092E00A
:101B3400052B11D0044B1A6A22F001021A621A6AA8
:101B440022F004021A62E0E7001002400000424260
:101B54008004424200700040414B1A6A42F0040281
:101B64001A621A6A42F001021A62CEE7FEF7BEFE5A
:101B740006463B4B1B6A13F0020F08D0FEF7B6FE75
:101B8400801B41F288339842F3D9032063E0E5B91E
:101B9400E369002B5ED0324A526802F00C02082A34
:101BA4005BD0022B17D02F4B00221A60FEF79EFE4B
:101BB40004462B4B1B6813F0007F47D0FEF796FEBC
:101BC400001B0228F5D9032045E0254AD36923F0F8
:101BD4008053D361DCE7234B00221A60FEF786FEB4
:101BE40005461F4B1B6813F0007F06D0FEF77EFEF0
:101BF400401B0228F5D903202DE0236AB3F5803F6A
:101C04001AD017494B6823F47413226A606A02439A
:101C140013434B60134B01221A60FEF767FE044620
:101C24000F4B1B6813F0007F0ED1FEF75FFE001B05
:101C34000228F5D903200EE0094A536823F400333F
:101C4400A1680B435360DCE7002004E0002002E0BD
:101C5400012000E0002002B070BD0120FBE700BFBE
:101C6400001002406000424210B487B0164C94E861
:101C74000F000DF1180C0CE90F00238AADF80430A5
:101C8400124B5B6803F00C02082A1AD1C3F3834297
:101C9400624412F8102C13F4803F05D10C4800FB69
:101CA40002F007B010BC7047084B5B68C3F34043B5
:101CB400634413F8143C074800FB02F0B0FBF3F054
:101CC400EFE70448EDE700BFDC3C000800100240E9
:101CD40000093D0000127A00624B1B6803F0070301
:101CE4008B420CD25F4A136823F007030B43136043
:101CF400136803F007038B4201D00120704770B5CD
:101D0400036813F0020F17D013F0040F04D0564ADF
:101D1400536843F4E0635360036813F0080F04D07E
:101D2400514A536843F4605353604F4A536823F055
:101D3400F0038468234353600D460446036813F09C
:101D4400010F52D04368012B23D0022B28D0464ADE
:101D5400126812F0020F00F0828043494A6822F0B0
:101D6400030213434B60FEF7C1FD06466368012B73
:101D74001DD0022B2AD03C4B5B6813F00C0F34D0DF
:101D8400FEF7B4FD801B41F288339842F3D9032057
:101D940064E0354A126812F4003FDED101205DE0B0
:101DA400314A126812F0007FD7D1012056E02E4B41
:101DB4005B6803F00C03042B17D0FEF797FD801B20
:101DC40041F288339842F2D9032047E0264B5B68FE
:101DD40003F00C03082B08D0FEF788FD801B41F2AA
:101DE40088339842F2D9032038E01E4B1B6803F075
:101DF4000703AB420CD91B4A136823F007032B4398
:101E04001360136803F00703AB4201D0012025E0FF
:101E1400236813F0040F06D0134A536823F4E063D5
:101E2400E1680B435360236813F0080F07D00E4A90
:101E3400536823F46053216943EAC1035360FFF7F5
:101E440013FF094B5B68C3F30313084AD35CD84000
:101E5400074B18600020FEF705FD002070BD01202F
:101E6400FCE700BF0020024000100240043D0008CF
:101E740000000020014B1868704700BF00000020DC
:101E840008B5FFF7F7FF044B5B68C3F3C223034AAB
:101E9400D35CD84008BD00BF00100240143D0008C8
:101EA40070B582B00446036813F0010F34D03E4B82
:101EB400DB6913F0805F48D13B4BDA6942F0805212
:101EC400DA61DB6903F080530193019B0125374BF1
:101ED4001B6813F4807F3AD0334B1B6A13F44073AE
:101EE40011D0626802F440729A420CD02E4A136AEE
:101EF40023F440702E4901260E6000260E60106205
:101F040013F0010F37D1284A136A23F44073616830
:101F14000B431362002D3FD1236813F0020F06D048
:101F2400214A536823F44043A1680B435360236858
:101F340013F0100F35D01C4A536823F480036169F1
:101F44000B435360002002B070BD0025BFE7174A61
:101F5400136843F480731360FEF7C8FC0646134B02
:101F64001B6813F4807FB7D1FEF7C0FC801B642884
:101F7400F5D90320E7E7FEF7B9FC06460A4B1B6ACE
:101F840013F0020FBFD1FEF7B1FC801B41F288337E
:101F94009842F3D90320D6E7D36923F08053D36161
:101FA400BAE70020CFE700BF0010024000700040F5
:101FB4004004424230B587B005463F4C94E80F00D8
:101FC4000DF1180C0CE90F00238AADF80430681EDB
:101FD4000F2866D8DFE800F0395A65326565653642
:101FE4006565656565656508344B5A681B6813F05B
:101FF400807F58D0C2F3834306A90B4413F8100C16
:1020040012F4803F16D02D4B5B68C3F340430B445E
:1020140013F8142C2A4BB3FBF2F300FB03F0274B09
:102024005B6813F4800F0BD14000264BA3FB0030F8
:10203400400805E0244B03FB00F0F0E7FFF714FE33
:1020440007B030BDFFF710FEFAE71C4B1B6A40F2E5
:1020540002321A40B2F5817F27D003F44073B3F5FE
:10206400007F04D0B3F5407F09D00020E8E7134A8D
:10207400526A12F0020FF5D049F64040E0E70F4BE8
:102084001B6813F4003F13D10020D9E7FFF7F8FED3
:102094000A4B5B68C3F3813301335B00B0FBF3F09D
:1020A400CEE70020CCE70020CAE74FF40040C7E7A2
:1020B4004FF22440C4E700BFF03C00080010024087
:1020C40000127A00ABAAAAAA00093D0038B504465A
:1020D400FEF70CFC054623685A6812F0200F07D15E
:1020E400FEF704FC401BB0F57A7FF4D9032004E02A
:1020F4005A6842F010025A60002038BD38B50446D0
:102104000268536823F010035360FEF7EFFB0546A3
:1021140023685B6813F0200F07D1FEF7E7FB401B31
:10212400B0F57A7FF4D9032000E0002038BDC0B1B7
:1021340038B504460268536823F008035360FEF779
:10214400D5FB054623685B6813F0080F07D1FEF73B
:10215400CDFB401BB0F57A7FF4D9032000E00020CA
:1021640038BD01207047000000285AD010B504463D
:10217400437C53B1022363742046FFF7D8FF40B178
:10218400042363740123184610BD0374FEF70CFB8B
:10219400F0E72046FFF79AFF002830D12268536801
:1021A40023F007035360A36823B11F4A136B23F082
:1021B400010313631C4AD36A23F46073A1680B43BD
:1021C400D3626268B2F1FF3F1DD021688B6823F0AF
:1021D4000F0343EA12438B602168CB681B0C1B047A
:1021E40092B21343CB602046FFF788FF0346A0B9A1
:1021F4000022E27301226273A2736274C3E70423B0
:1022040063740123BFE70120FFF7D4FE08B1421E27
:10221400DBE7042363740123B5E704236374012318
:10222400B1E7012318467047006C0040890001F1B2
:10223400804101F5D84192B20A607047890001F1EA
:10224400804101F5D841086880B2704784B001A884
:1022540080E80E00002004B07047B0F8403043F42A
:102264003F43A0F8403000207047B0F8403023F4DA
:1022740074535B045B0CA0F84030002070470020CE
:10228400704784B038B505AC84E80E000123A0F88B
:1022940040300024A0F84040A0F84440A0F850404A
:1022A400FFF7DBFF2046BDE8384004B0704710B4A8
:1022B400CB78032B0FD8DFE803F0026D54600A7863
:1022C40030F822309BB223F4EC4323F0700343F440
:1022D400007320F822300A7830F8223023F0F0031B
:1022E4001B051B0D134343F4004343F0800320F804
:1022F40022308B7A002B40F0AF804B78002B56D0E5
:102304008A885208B0F850300C7803EBC40300EB11
:1023140043035200C3F800240A7830F8223013F043
:10232400400F0BD030F8223023F0F0031B051B0DB7
:1023340043F4004343F0C00320F822300A7830F815
:1023440022309BB223F4E04323F0400383F02003C4
:1023540043F4004343F0800320F82230002010BCF3
:1023640070470A7830F822309BB223F4EC4323F010
:1023740070039BB220F82230ADE70A7830F822309F
:102384009BB223F4EC4323F0700343F4C06320F8BE
:102394002230A0E70A7830F822309BB223F4EC43D1
:1023A40023F0700343F4806320F8223093E78A8893
:1023B4005208B0F850300C7803EBC403043300EB3C
:1023C40043035200C3F80024B0F850300A7803EBFA
:1023D400C203063300EB43030C693E2C30D9C4F32B
:1023E4004F1214F01F0F01D1013A92B26FEAC26288
:1023F4006FEA524292B2C3F800240A7830F82230CD
:1024040013F4804F0BD030F8223023F0F0031B0577
:102414001B0D43F4404343F0800320F822300A7834
:1024240030F822309BB223F4804323F0700383F40A
:10243400405343F4004343F0800320F822308DE7F7
:10244400C4F34F0214F0010F01D0013292B2920290
:1024540092B2C3F80024D0E70A7830F8223023F48B
:10246400F8731B051B0D43F4014343F0800320F86C
:102474002230CA885208B0F850300C7803EBC403F9
:1024840000EB43035200C3F800240A895208B0F851
:1024940050300C7803EBC403043300EB43035200C5
:1024A400C3F800244B78002B4BD10A7830F8223043
:1024B40013F4804F0BD030F8223023F0F0031B05C7
:1024C4001B0D43F4404343F0800320F822300A7884
:1024D40030F8223013F0400F0BD030F8223023F0C4
:1024E400F0031B051B0D43F4004343F0C00320F825
:1024F40022300A7830F8223023F0F0031B051B0D3C
:1025040043F4004343F0C00320F822300A7830F843
:1025140022309BB223F4804323F0700383F44053AE
:1025240048F28004234320F822300A7830F822301D
:102534009BB223F4E04323F04003234320F82230EA
:102544000CE70A7830F8223013F4804F0BD030F8BF
:10255400223023F0F0031B051B0D43F4404343F0EA
:10256400800320F822300A7830F8223013F0400F2C
:102574000BD030F8223023F0F0031B051B0D43F47D
:10258400004343F0C00320F822300A7830F82230A8
:1025940023F0F0031B051B0D43F4404343F0800379
:1025A40020F822300B7830F8232092B222F4E04253
:1025B40022F0400248F28004224320F823200A78C3
:1025C40030F822309BB223F4804323F0700323437A
:1025D40020F82230C2E60A788AB14B7813BB30F86F
:1025E40022309BB223F4804323F0700383F480539E
:1025F40043F4004343F0800320F8223010E030F825
:1026040022309BB223F4804323F0400383F48053AD
:1026140083F0100343F4004343F0800320F8223096
:102624000020704730F822309BB223F4E04323F0BB
:10263400400383F0100343F4004343F0800320F885
:102644002230EDE74B781BB30A7830F8223013F0D0
:10265400400F0BD030F8223023F0F0031B051B0D84
:1026640043F4004343F0C00320F822300A7830F8E2
:1026740022309BB223F4E04323F0400383F0300381
:1026840043F4004343F0800320F8223000207047D5
:102694000A7830F8223013F4804F0BD030F822300F
:1026A40023F0F0031B051B0D43F4404343F0800368
:1026B40020F822300A7830F822309BB223F4804389
:1026C40023F0700383F4405343F4004343F0800346
:1026D40020F82230DAE703460122A0F84020002047
:1026E400A3F844000322A3F84020704711B98023C3
:1026F400A0F84C300020704700207047002070473D
:10270400B0F8440070470020704701335B1000EBC1
:10271400420202F5806263B110B40C78487844EA4E
:10272400002422F8044B0231013B002BF5D110BCEC
:1027340070477047F8B58A694D78012D34D00B691C
:10274400934280F0EA80D21A8A618A7A002A40F0A1
:10275400F480B0F850200C7802EBC402063200EB8F
:1027640042023E2B40F2DD80C3F34F1413F01F0FDF
:1027740001D1013CA4B26FEAC4646FEA5444A4B228
:10278400C2F800440A7830F822309BB223F4804324
:1027940023F0700383F4405343F4004343F0800375
:1027A40020F822300020F8BD0F69974225D2D21BB1
:1027B4008A610E4604468B7A1BB30B7830F82320CB
:1027C40012F0400F69D0002D37D1B0F8502002EB41
:1027D400C303063300EB43033E2F22D9C7F34F1242
:1027E40017F01F0F01D1013A92B26FEAC2626FEA89
:1027F400524292B2C3F8002428E000238B611746AA
:10280400D7E7BBB28A884969FFF77FFFB4F8503035
:10281400327803EBC203023304EB4303C3F80074BE
:102824002AE0C7F34F0217F0010F01D0013292B230
:10283400920292B2C3F8002408E0B0F8502002EBF0
:10284400C303023300EB4303C3F800743289BBB201
:1028540071692046FFF759FF7378002B4DD1327808
:1028640034F8223023F0F0031B051B0D43F400431E
:1028740043F0C00324F82230327834F822309BB27B
:1028840023F4E04323F0400383F0300343F4004394
:1028940043F0800324F8223084E71DBBB0F85020B5
:1028A40002EBC303023300EB43033E2F0ED9C7F3FD
:1028B4004F1217F01F0F01D1013A92B26FEAC262B0
:1028C4006FEA524292B2C3F8002414E0C7F34F02F5
:1028D40017F0010F01D0013292B2920292B2C3F802
:1028E400002408E0B0F8502002EBC303023300EBED
:1028F4004303C3F80074F288A9E7012BBCD13278F2
:1029040034F8223023F0F0031B051B0D43F440433D
:1029140043F0800324F82230AEE700238B61134692
:1029240013E7C3F34F0413F0010F01D00134A4B231
:10293400A402A4B2C2F8004424E7BDB9B0F8502000
:102944000C7802EBC402023200EB42023E2B28D97F
:10295400C3F34F1413F01F0F01D1013CA4B26FEA6B
:10296400C4646FEA5444A4B2C2F800444A7882BBF7
:10297400B0F850200C7802EBC402063200EB42029D
:102984003E2B1AD9C3F34F1413F01F0F01D1013C8E
:10299400A4B26FEAC4646FEA5444A4B2C2F8004417
:1029A400F0E6C3F34F0413F0010F01D00134A4B2D5
:1029B400A402A4B2C2F80044D8E7C3F34F0413F04E
:1029C400010F01D00134A4B2A402A4B2C2F800449D
:1029D400D8E6012A7FF4D6AEB0F850200C7802EB8A
:1029E400C402023200EB4202C2F80034CAE60133E8
:1029F4005B1000EB420202F5806204E0106821F8EB
:102A0400020B013B0432002BF8D170471B230380D7
:102A1400004870476800002000207047002070477D
:102A24000020704700207047002070470020704746
:102A34000A2303800048704784000020D0F818322D
:102A440093F800240A2A11D00A2183F800140E22D4
:102A540083F80124002283F8022483F8032483F8F2
:102A6400042483F8051483F806247047022183F8AC
:102A74000014002283F8012483F8022483F8032439
:102A840083F8042483F8051483F806247047D0F8E7
:102A9400183293F800148A1ED2B2012A05D90529E6
:102AA40003D0062901D0092913D1022183F8001487
:102AB400002283F8012483F8022483F8032483F892
:102AC400042483F8051483F80624C3F80824C3F8FF
:102AD4000C247047062909D810B5D0F81C32044CD0
:102AE4002146186800F075FE204610BD002070478E
:102AF40020090020D0F81832002283F80724194A4C
:102B0400127D12F0040F0CD0062183F80014002269
:102B140083F8022483F8032483F8042483F8051437
:102B2400704710B50446082183F80014002283F886
:102B3400022483F8032483F8042483F8051400F0A2
:102B4400CDFAD4F81C329B689847BFF34F8F0649DF
:102B5400CA6802F4E062054B1343CB60BFF34F8FA6
:102B640000BFFDE76800002000ED00E00400FA0566
:102B740030B583B0D0F8184294F80034042B04D054
:102B8400072B68D0002003B030BDD4F80834002BE4
:102B940040D123781BB9D4F80C24012A4AD0212B24
:102BA40019D0412B28D1D4F80C34052B24D16378C7
:102BB400A27803EB0223E27803EB0243227903EBCE
:102BC4000263C4F81034D0F81C22D2681846904727
:102BD40080B30220D7E7D4F80C24052AE1D1637826
:102BE400A27803EB0223E27803EB0243227903EB9E
:102BF4000263C4F810341DE00023C4F80C34C4F894
:102C040008348DF800300123ADF80630694600F031
:102C1400ACFB0FE0012B0DD912491944D4F8105420
:102C2400D0F81C321B69D4F80C2405EB8121204612
:102C34009847A0B90020C4F80C04C4F8080403237E
:102C440084F8003484F8020484F8030484F8040447
:102C540084F8053497E7FFF74DFF002093E702203F
:102C640091E700BFFEFF3F0070B5D0F81842CB8853
:102C7400002B60D0054694F80034022B01D0092BB8
:102C840051D14B88C4F80834CA88C4F80C24D3B989
:102C9400032A16D8092284F80024002384F8023475
:102CA40084F8033484F8043484F80524237021233D
:102CB40063704123A37003222146284600F0A6FD39
:102CC40045E00222E7E7012B1DD9092084F800041E
:102CD400002184F8021484F8031484F8041484F89A
:102CE40005041B481844D4F81064D5F81C325B69F9
:102CF400214606EB80209847B4F80C240146284668
:102D040000F084FD23E00F2284F80024002384F8DB
:102D1400023484F8033484F8043484F805242846FF
:102D240000F023FB13E00023C4F80C34C4F8083487
:102D340000F01BFB0BE0022284F80024002384F83B
:102D4400023484F8033484F8043484F8052470BD10
:102D5400FEFF3F0038B50546D0F8184294F8003419
:102D6400032B08D0062B3CD0062204F2014128464E
:102D740000F04CFD38BDD4F80C342BB3042284F895
:102D84000024002384F8023484F8033484F80434DF
:102D940084F80524D4F808344BB1D5F81C329B6967
:102DA40004F201420121D4F810049847DCE72378A7
:102DB400412BF2D1D0F81C329B6904F2014200216C
:102DC400D4F810049847CFE7052284F800240023A0
:102DD40084F8023484F8033484F8043484F8052431
:102DE400C2E794F80734012B13D0002BBCD1104B4D
:102DF4001B7D13F0040FB7D0022284F800240023B3
:102E040084F8023484F8033484F8043484F8052400
:102E1400AAE7072384F80034012284F8022400225C
:102E240084F8032484F8042484F805349CE700BF60
:102E34006800002008B5D0F81812012201F580615D
:102E440000F0E4FC08BD08B5D0F81832CA88BAB15D
:102E540093F80024022A01D0052A0ED14A88C3F827
:102E64000824CA88C3F80C24032183F8001483F8C7
:102E74000514194600F0DFFC1AE000F076FA17E0BA
:102E840093F80024052A04D0022A02D000F06DFA37
:102E94000EE0012283F80724062183F8001400229F
:102EA40083F8022483F8032483F8042483F80514A4
:102EB40008BD000010B50446D0F8183293F8000499
:102EC400821ED2B2012A05D9052803D0062801D0D2
:102ED400092813D1022083F80004002283F8012476
:102EE40083F8022483F8032483F8042483F8050474
:102EF40083F80624C3F80824C3F80C24074B5B7D2D
:102F040013F0100F03D14888FDF7F6FC10BD2046DE
:102F140000F0E4F8204600F0DCF8F7E76800002051
:102F240010B5D0F818420B7813F060032AD0202B88
:102F340054D14B78062B21D8DFE803F01C04080C8D
:102F440010141800FFF77FFF002048E0FFF78CFE05
:102F5400002044E0FFF7FEFE002040E0FFF76EFD96
:102F640000203CE0FFF766FF002038E0FFF78FFD0C
:102F7400002034E0FFF79EFF002030E000F0F5F978
:102F840002202CE04B780A2B17D00B2B1CD0062BDD
:102F940003D000F0EAF9022021E04B881B0A212B20
:102FA40005D00022114600F031FC002017E0CA8849
:102FB400092A28BF09220A49F5E7012204F214412B
:102FC40000F024FC00200AE08B781BB9C4F8143408
:102FD400002004E000F0C9F9022000E0002010BD48
:102FE4007A000020D0F818320022C3F80824C3F86D
:102FF4000C24022183F8001483F8012483F80514B7
:10300400D0F8183273B110B50446D0F81C329B685E
:103014009847D4F8180200F023FE0023C4F81832AD
:10302400002010BD0020704710B504464FF48360A3
:1030340000F012FEC4F8180218B30023C0F81434C8
:10304400114AC0F81024C0F80834C0F80C3480F8D1
:103054000734022280F8002480F8013480F8023416
:1030640080F8033480F8043480F8052480F80634AA
:10307400D4F81C325B68984708B9002010BD0220C0
:10308400FCE70220FAE700BF0050000809B1C0F8CD
:103094001C120020704798B108B50346D0F81402FA
:1030A40010B10020C3F8140209B1C3F81012184675
:1030B400012380F8FC31027000F04CFD002008BDB3
:1030C4000220704719B1C0F8141200207047022082
:1030D400704708B500F06AFD002008BD10B504462D
:1030E400D0F814325B6801799847204600F066FDF9
:1030F400002010BD08B5D0F8143233B11B689847CE
:1031040008B9002008BD0220FCE70220FAE708B550
:10311400D0F814325B689847002008BD38B50446DF
:1031240000F50275284600F00CF90123C4F8F431C7
:10313400B4F80E32C4F8F83194F8081201F01F0301
:10314400012B0ED03BB1022B10D001F080012046A0
:1031540000F047FD03E02946204600F06EFA002007
:1031640038BD2946204600F08CFAF8E72946204667
:1031740000F0A3FAF3E710B5044621BB1346D0F8D8
:10318400F421032A01D0002010BDD0F80C11D0F88E
:10319400102191420CD8D0F814321B6923B190F855
:1031A400FC21032A00D19847204600F05BFBEAE7A4
:1031B400891AC0F80C118A4228BF0A4692B21946ED
:1031C40000F048FBDFE70A46D0F814329B69002B75
:1031D400D9D090F8FC110329D5D111469847D2E7EC
:1031E40010B50446002946D11346D0F8F421022A2A
:1031F40005D094F80032012B39D0002010BDC169EC
:10320400026A914219D88169B1FBF2F302FB1313EC
:103214002BB98A4203D8D0F8F83199421AD3D4F89A
:103224001432DB682BB194F8FC21032A01D1204627
:103234009847204600F021FBDBE78A1AC26192B26C
:10324400194600F0F0FA00231A461946204600F009
:10325400FBFCCEE70022114600F0E5FA0021C4F899
:10326400F8110B460A46204600F0EEFCC1E70023A5
:1032740084F80032C1E70A46D0F814325B69002BA7
:10328400BBD090F8FC110329B7D111469847B4E795
:1032940038B5044640230022114600F097FC40252F
:1032A400C4F810512B4600228021204600F08EFCE9
:1032B4002562012384F8FC31D4F818322BB1D4F8F8
:1032C40014325B68217920469847002038BD017488
:1032D4000020704790F8FC3180F8FD31042380F819
:1032E400FC310020704790F8FD3180F8FC3100205B
:1032F400704708B590F8FC31032B01D0002008BDBD
:10330400D0F81432DB69002BF8D09847F6E7002395
:1033140002E00133DBB201300278002AF9D1184609
:1033240070474B88012B0BD110B50446C0F804320A
:10333400D0F814329B689847204600F093FA10BDE9
:1033440070470B7803704B7843708B78CA7803EB23
:10335400022343800B794A7903EB022383808B7920
:10336400CA7903EB0223C380704710B50446802159
:1033740000F037FC0021204600F033FC10BD30B5CE
:1033840083B004460D4649880B0A013B062B00F224
:103394008480DFE803F00413278282667300D0F888
:1033A40010321B680DF10601007C9847BDF8062019
:1033B40012B1EB88002B74D103B030BD037C43B948
:1033C400D0F814329B6A0DF106009847022343702B
:1033D400ECE7D0F81432DB6A0DF1060098470223BB
:1033E4004370E3E7C9B2052934D8DFE801F0030BE1
:1033F400131B232BD0F810325B680DF10601007CFF
:103404009847D3E7D0F810329B680DF10601007C91
:103414009847CBE7D0F81032DB680DF10601007C49
:103424009847C3E7D0F810321B690DF10601007C00
:103434009847BBE7D0F810325B690DF10601007CB8
:103444009847B3E7D0F810329B690DF10601007C70
:103454009847ABE7D0F814329B6B0DF106029847FE
:10346400A4E7037C33B9D0F814325B6B0DF106008A
:1034740098479BE72946FFF778FF9DE7037C43B90C
:10348400D0F814321B6B0DF10600984707234370E4
:103494008CE72946FFF769FF8EE72946FFF765FFAA
:1034A4008AE79A4228BF1A46ADF80620014620460C
:1034B40000F0ACF980E738B504468B88E3B9CB88D3
:1034C400D3B98D7805F07F0590F8FC31032B0CD02F
:1034D40080F8FE51294600F0A7FB204600F0C2F90F
:1034E40035B1022384F8FC3109E0FFF73EFF06E022
:1034F400012384F8FC3102E02046FFF736FF38BD93
:1035040038B504460D468978254B1970012909D828
:1035140090F8FC31022B09D0032B1CD02946FFF76D
:1035240024FF02E02946FFF720FF38BD81B1416046
:10353400032380F8FC31FFF7DDFD022803D0204689
:1035440000F090F9F1E729462046FFF70EFFECE77B
:1035540000F088F9E9E789B1436899421DD0D9B2EE
:10356400FFF7D5FD0E4B197861602046FFF7C2FDC9
:1035740002280DD0204600F075F9D6E7022380F822
:10358400FC314160FFF7C3FD204600F06BF9CCE746
:1035940029462046FFF7E9FEC7E700F063F9C4E7D0
:1035A4001F0A002008B5CB88012B08D190F8FC3104
:1035B400022B07D0032B0DD0FFF7D7FE01E0FFF756
:1035C400D4FE08BD0146002341F8083F012200F063
:1035D4001DF9F6E70122011D00F018F9F1E708B51D
:1035E40090F8FC31023B012B0CD80123C360D0F8C6
:1035F40004320BB10323C360022200F10C0100F07A
:1036040005F908BDFFF7B1FEFBE710B5044690F8D5
:10361400FC31023B012B0DD84B88012B09D100232F
:10362400C0F80432D0F814329B689847204600F062
:1036340019F910BDFFF799FEFBE708B54B78092B84
:103644001CD8DFE803F012181B151B09051B0F0C0F
:10365400FFF795FE002008BDFFF72DFFFAE7FFF7FF
:103664004FFFF7E7FFF79EFFF4E7FFF7B8FFF1E737
:10367400FFF757FEEEE7FFF7C8FFEBE7FFF775FE2E
:10368400E8E738B504460D4690F8FC31032B11D118
:103694000B79012B0BD8D0F814329B689847EB8830
:1036A4000BB1002038BD204600F0DCF8F9E7FFF745
:1036B4005CFEF6E7FFF759FEF3E738B505460C461E
:1036C4008A880B7803F06003202B05D1D0F81432DC
:1036D4009B689847002038BDD1B26378012B25D070
:1036E400002B47D0032BF5D190F8FC31022B05D0E9
:1036F400032B0AD02146FFF738FEEBE70029E9D077
:103704008029E7D000F06DFAE4E7638823B919B1A2
:10371400802901D000F065FAD5F814329B6821465F
:1037240028469847284600F09DF8D3E790F8FC31E6
:10373400022B05D0032B0AD02146FFF716FEC9E75A
:103744000029C7D08029C5D000F04BFAC2E76388AE
:10375400002BBFD111F07F0F03D1284600F082F86F
:10376400B8E700F046FAD5F814329B68214628469B
:103774009847F2E790F8FC31022B05D0032B09D0CF
:103784002146FFF7F2FDA5E711F07F0FA2D000F06C
:1037940028FA9FE712F0800F11D101F07F04103452
:1037A40000EB04140434284600F02BFA70B1012312
:1037B400236002222146284600F028F88AE701F017
:1037C4007F04013400EB04140434ECE70023236089
:1037D400EFE7D0B170B50D4616460446FFF797FDE6
:1037E4000130400080B23080287003236B700223C4
:1037F40007E001345A1CD2B2E9540233DBB200218F
:10380400A95421780029F4D170BD704710B513462E
:103814000222C0F8F4218361C3610A46002100F04A
:103824000BFA002010BD08B513460A46002100F02B
:1038340003FA002008BD10B513460322C0F8F42192
:10384400C0F80831C0F80C310A46002100F0FCF938
:10385400002010BD08B513460A46002100F0F4F913
:10386400002008BD08B50423C0F8F43100231A462B
:10387400194600F0E1F9002008BD08B50523C0F899
:10388400F43100231A46194600F0DEF9002008BD81
:1038940008B500220F491048FFF7FDFB70B90F4926
:1038A4000D48FFF70FFC60B90D490B48FFF7EEFB1D
:1038B40050B90948FFF70DFC48B908BDFCF77EFD77
:1038C400EDE7FCF77BFDEFE7FCF778FDF1E7FCF7AC
:1038D40075FDF2E790000020780E00202C000020F7
:1038E400E000002012230B8000487047AC00002049
:1038F40004230B8000487047C0000020002393423B
:1039040016D230B40BE0373401F8134000015C00E8
:10391400013400250D550133DBB2934206D2040F66
:10392400092CF0D8303401F81340EFE730BC70476D
:103934007047000038B50A4B186804331C68043318
:103944001B68C01800D138BD064D0822A91CFFF71A
:10395400D5FF042205F112012046FFF7CFFFF2E75D
:10396400E8F7FF1FC400002008B51A230B80FFF7F7
:10397400E1FF014808BD00BFC400002008B50A46A5
:1039840028B105490548FFF724FF034808BD02494B
:103994000248FFF71EFFF8E79C1000204C3D00088A
:1039A40010B5044C0A4621460348FFF712FF20468F
:1039B40010BD00BF9C100020383D000808B50A4621
:1039C40028B105490548FFF704FF034808BD02492B
:1039D4000248FFF7FEFEF8E79C1000201C3D00089B
:1039E40008B50A4628B105490548FFF7F2FE034821
:1039F40008BD02490248FFF7ECFEF8E79C100020DE
:103A0400283D00080020704700207047002393429F
:103A140008D210B4C45CCC5401339342FAD30846A0
:103A240010BC70470846704741B1012904D13223C4
:103A3400537000239370D370002070473223537067
:103A440000239370D370F7E708B50B460146184678
:103A5400FCF7AEFD08B1002008BD0120FCE708B565
:103A64004FF40061FCF76AFD08B1002008BD012095
:103A7400FCE718B1022803D00220704700207047E9
:103A84000120704702680E4B9A4200D0704700B57F
:103A940083B003F5DA33DA6942F40002DA61DB69F0
:103AA40003F400030193019B002211461420FCF748
:103AB40049FF1420FCF77AFF03B05DF804FB00BF54
:103AC400005C004008B500F22C41D0F85C04FFF71C
:103AD40025FB08BD08B500EB4113D3F83C22D0F810
:103AE4005C04FFF748FB08BD08B500EB4113DA6B33
:103AF400D0F85C04FFF774FB08BD08B5D0F85C048B
:103B0400FFF7F7FB08BD10B504468368022B01D00C
:103B1400FCF754FC0121D4F85C04FFF7D8FBD4F87B
:103B24005C04FFF7B5FB10BD10B50446D0F85C0487
:103B3400FFF7D0FBA36923B1024A136943F00603DC
:103B4400136110BD00ED00E008B5D0F85C04FFF788
:103B5400CAFB08BD10B504461248C0F85C44C4F85A
:103B64002002114B03600823436002238360002377
:103B74008361C3610362FDF7A3F978B918230022B6
:103B84001146D4F82002FDF7D6FD582300228021E7
:103B9400D4F82002FDF7CFFD002010BDFCF70EFC89
:103BA400ECE700BF9C120020005C004008B5D0F890
:103BB4002002FDF7F0F9FFF75CFF08BD08B5D0F867
:103BC4002002FDF7FFF9FFF754FF08BD10B51C46AE
:103BD40013462246D0F82002FDF720FAFFF749FFEA
:103BE40010BD08B5D0F82002FDF750FDFFF741FFE6
:103BF40008BD08B5D0F82002FDF776FDFFF739FFC0
:103C040008BDD0F8203211F0800F06D101F07F01F9
:103C140003EB411191F82A02704701F07F0103EB95
:103C2400411191F82A00704708B5D0F82002FDF739
:103C3400E1F9FFF71EFF08BD08B5D0F82002FDF733
:103C440035FAFFF716FF08BD08B5D0F82002FDF7D6
:103C54000EFAFFF70EFF08BD00487047200A002047
:103C64007047704708B5FCF7DDFDFCF7D9FAFCF79F
:103C7400D8FA002008BD000070B500250C4E0D4C8C
:103C8400A41BA410A54209D100F01AF800250A4E7D
:103C94000A4CA41BA410A54205D170BD56F82530CA
:103CA40098470135EEE756F8253098470135F2E795
:103CB4009C3D00089C3D00089C3D0008A03D000878
:103CC400F8B500BFF8BC08BC9E467047F8B500BF05
:083CD400F8BC08BC9E467047D5
:103CDC0002030405060708090A0B0C0D0E0F101041
:103CEC000102000002030405060708090A0B0C0D6B
:103CFC000E0F101001020000000000000000000078
:103D0C000102030406070809000000000102030475
:103D1C0044465520436F6E66696700004446552043
:103D2C00496E7465726661636500000053544D6999
:103D3C0063726F656C656374726F6E696373000098
:103D4C0053544D333220446F776E4C6F6164204670
:103D5C0069726D77617265205570646174650000DD
:103D6C0040496E7465726E616C20466C617368209C
:103D7C0020202F307830383030303030302F313008
:103D8C002A30324B612C3234362A30324B670000E9
:043D9C000902000810
:043DA000E501000831
:103DA40000A24A04000C014000100100000C014074
:103DB40000200100000C014000400100000C014003
:103DC4000080010001000000100000002D300008F8
:103DD400E92F0008252F0008752B0008212A000868
:103DE4001D2A0008312A0008252A0008292A00086B
:103DF4002D2A0008112A0008112A0008112A000897
:103E0400352A0008D92A000809021B00010102C052
:103E1400320904000000FE01020609210BFF000024
:103E2400041A01000A06000200000040010000001C
:103E3400E9380008F5380008A53900088139000878
:103E44006D390008C1390008E53900081201000283
:103E540000000040830411DF00020102030100009E
:103E6400040309041A03000000000000000000001D
:103E7400000000000000000000000000000000003E
:103E84006C3D0008093A00080D3A0008633A00083E
:0C3E94004D3A0008113A00082D3A0008D1
:040000050800047D6E
:00000001FF
