:020000040800F2
:1050000000000120A962000895600008A160000866
:10501000A7600008AD600008B36000080000000051
:10502000000000000000000000000000C186000831
:10503000B96000080000000071880008C560000821
:10504000F1620008F1620008F1620008F1620008F4
:10505000F1620008F1620008F1620008F1620008E4
:10506000F1620008F1620008F1620008F1620008D4
:10507000F1620008F1620008F1620008D5600008E2
:10508000F1620008F1620008F1620008F1620008B4
:10509000E9600008F1620008F1620008F1620008AE
:1050A000F1620008F1620008F1620008F162000894
:1050B000F1620008F1620008F1620008F162000884
:1050C000F1620008F1620008F1620008F162000874
:1050D000F1620008FD600008F1620008F16200085A
:1050E000F1620008F1620008F1620008F162000854
:1050F000F1620008F1620008F1620008F162000844
:10510000F1620008F1620008F1620008F162000833
:10511000F1620008F1620008F1620008F162000823
:10512000F1620008F1620008F1620008F162000813
:10513000000000000000000000000000000000006F
:10514000000000000000000000000000000000005F
:10515000000000000000000000000000000000004F
:10516000000000000000000000000000000000003F
:10517000000000000000000000000000000000002F
:10518000000000000000000000000000000000001F
:10519000000000000000000000000000000000000F
:1051A00000000000000000000000000000000000FF
:1051B00000000000000000000000000000000000EF
:1051C00000000000000000000000000000000000DF
:1051D00000000000000000000000000000000000CF
:0451E0005FF8E0F1A3
:1051F00010B5054C237833B9044B13B10448AFF311
:1052000000800123237010BD7803002000000000FF
:105210000824010808B5034B1BB103490348AFF349
:10522000008008BD000000007C0300200824010865
:1052300010F8012B11F8013B012A28BF9A42F7D040
:10524000D01A7047034613F8012B002AFBD1181A15
:105250000138704781F0004102E000BF83F0004355
:1052600030B54FEA41044FEA430594EA050F08BF01
:1052700090EA020F1FBF54EA000C55EA020C7FEAC5
:10528000645C7FEA655C00F0E2804FEA5454D4EB42
:105290005555B8BF6D420CDD2C4480EA020281EA0C
:1052A000030382EA000083EA010180EA020281EA44
:1052B0000303362D88BF30BD11F0004F4FEA013196
:1052C0004FF4801C4CEA113102D0404261EB4101A5
:1052D00013F0004F4FEA03334CEA133302D052422B
:1052E00063EB430394EA050F00F0A780A4F10104E7
:1052F000D5F1200E0DDB02FA0EFC22FA05F2801821
:1053000041F1000103FA0EF2801843FA05F3594106
:105310000EE0A5F120050EF1200E012A03FA0EFC85
:1053200028BF4CF0020C43FA05F3C01851EBE371AF
:1053300001F0004507D54FF0000EDCF1000C7EEBCC
:1053400000006EEB0101B1F5801F1BD3B1F5001F0A
:105350000CD349085FEA30004FEA3C0C04F1010429
:105360004FEA445212F5800F80F09A80BCF1004F52
:1053700008BF5FEA500C50F1000041EB045141EAD4
:10538000050130BD5FEA4C0C404141EB010111F4D5
:10539000801FA4F10104E9D191F0000F04BF014680
:1053A0000020B1FA81F308BF2033A3F10B03B3F15E
:1053B00020020CDA0C3208DD02F1140CC2F10C02EE
:1053C00001FA0CF021FA02F10CE002F11402D8BF4C
:1053D000C2F1200C01FA02F120FA0CFCDCBF41EA18
:1053E0000C019040E41AA2BF01EB0451294330BDE7
:1053F0006FEA04041F3C1CDA0C340EDC04F11404C4
:10540000C4F1200220FA04F001FA02F340EA03009A
:1054100021FA04F345EA030130BDC4F10C04C4F1E0
:10542000200220FA02F001FA04F340EA03002946C0
:1054300030BD21FA04F0294630BD94F0000F83F40A
:10544000801306BF81F480110134013D4EE77FEAED
:10545000645C18BF7FEA655C29D094EA050F08BF39
:1054600090EA020F05D054EA000C04BF194610461A
:1054700030BD91EA030F1EBF0021002030BD5FEA5E
:10548000545C05D14000494128BF41F0004130BD86
:1054900014F580043CBF01F5801130BD01F00045DA
:1054A00045F0FE4141F470014FF0000030BD7FEA4D
:1054B000645C1ABF194610467FEA655C1CBF0B4648
:1054C000024650EA013406BF52EA033591EA030F5F
:1054D00041F4002130BD00BF90F0000F04BF002157
:1054E000704730B54FF4806404F132044FF000058A
:1054F0004FF0000150E700BF90F0000F04BF002103
:10550000704730B54FF4806404F1320410F0004568
:1055100048BF40424FF000013EE700BF42004FEA63
:10552000E2014FEA31014FEA02701FBF12F07F43E0
:1055300093F07F4F81F06051704732F07F4208BF97
:10554000704793F07F4F04BF41F40021704730B59E
:105550004FF4607401F0004521F000411CE700BFEA
:1055600050EA010208BF704730B54FF000050AE06D
:1055700050EA010208BF704730B511F0004502D56E
:10558000404261EB41014FF4806404F132045FEA70
:10559000915C3FF4D8AE4FF003025FEADC0C18BF19
:1055A00003325FEADC0C18BF033202EBDC02C2F10B
:1055B000200300FA03FC20FA02F001FA03FE40EA9D
:1055C0000E0021FA02F11444BDE600BF70B54FF0A1
:1055D000FF0C4CF4E06C1CEA11541DBF1CEA13557F
:1055E00094EA0C0F95EA0C0F00F0DEF82C4481EAE7
:1055F000030621EA4C5123EA4C5350EA013518BF07
:1056000052EA033541F4801143F4801338D0A0FBF3
:1056100002CE4FF00005E1FB02E506F00042E0FBA0
:1056200003E54FF00006E1FB03569CF0000F18BFA6
:105630004EF0010EA4F1FF04B6F5007F64F540744E
:1056400004D25FEA4E0E6D4146EB060642EAC621E1
:1056500041EA55514FEAC52040EA5E504FEACE2E4E
:10566000B4F1FD0C88BFBCF5E06F1ED8BEF1004F51
:1056700008BF5FEA500E50F1000041EB045170BDCD
:1056800006F0004646EA010140EA020081EA030111
:10569000B4EB5C04C2BFD4EB0C0541EA045170BD0D
:1056A00041F480114FF0000E013C00F3AB8014F187
:1056B000360FDEBF002001F0004170BDC4F10004D0
:1056C000203C35DA0C341BDC04F11404C4F1200551
:1056D00000FA05F320FA04F001FA05F240EA0200AC
:1056E00001F0004221F0004110EBD37021FA04F6E2
:1056F00042EB06015EEA430E08BF20EAD37070BD9C
:10570000C4F10C04C4F1200500FA04F320FA05F0FA
:1057100001FA04F240EA020001F0004110EBD370FC
:1057200041F100015EEA430E08BF20EAD37070BD6C
:10573000C4F1200500FA05F24EEA020E20FA04F345
:1057400001FA05F243EA020321FA04F001F00041F4
:1057500021FA04F220EA020000EBD3705EEA430E65
:1057600008BF20EAD37070BD94F0000F0FD101F094
:105770000046400041EB010111F4801F08BF013CCD
:10578000F7D041EA060195F0000F18BF704703F00B
:105790000046520043EB030313F4801F08BF013D92
:1057A000F7D043EA0603704794EA0C0F0CEA13554E
:1057B00018BF95EA0C0F0CD050EA410618BF52EA08
:1057C0004306D1D181EA030101F000414FF000000E
:1057D00070BD50EA410606BF1046194652EA43061C
:1057E00019D094EA0C0F02D150EA013613D195EA90
:1057F0000C0F05D152EA03361CBF104619460AD1D8
:1058000081EA030101F0004141F0FE4141F47001E1
:105810004FF0000070BD41F0FE4141F4780170BDD1
:1058200070B54FF0FF0C4CF4E06C1CEA11541DBF36
:105830001CEA135594EA0C0F95EA0C0F00F0A7F838
:10584000A4EB050481EA030E52EA03354FEA013165
:1058500000F088804FEA03334FF0805545EA131378
:1058600043EA12634FEA022245EA111545EA106540
:105870004FEA00260EF000419D4208BF964244F1D7
:10588000FD0404F5407402D25B084FEA3202B61AF6
:1058900065EB03055B084FEA32024FF480104FF4CA
:1058A000002CB6EB020E75EB030E22BFB61A75463E
:1058B00040EA0C005B084FEA3202B6EB020E75EBD1
:1058C000030E22BFB61A754640EA5C005B084FEA39
:1058D0003202B6EB020E75EB030E22BFB61A754606
:1058E00040EA9C005B084FEA3202B6EB020E75EB11
:1058F000030E22BFB61A754640EADC0055EA060ED2
:1059000018D04FEA051545EA16754FEA06164FEA14
:10591000C30343EA52734FEAC2025FEA1C1CC0D1C0
:1059200011F4801F0BD141EA00014FF000004FF04D
:10593000004CB6E711F4801F04BF01430020B4F10E
:10594000FD0C88BFBCF5E06F3FF6AFAEB5EB030CC6
:1059500004BFB6EB020C5FEA500C50F1000041EBC3
:10596000045170BD0EF0004E4EEA113114EB5C0490
:10597000C2BFD4EB0C0541EA045170BD41F4801163
:105980004FF0000E013C90E645EA060E8DE60CEA6B
:10599000135594EA0C0F08BF95EA0C0F3FF43BAF88
:1059A00094EA0C0F0AD150EA01347FF434AF95EA3F
:1059B0000C0F7FF425AF104619462CE795EA0C0F23
:1059C00006D152EA03353FF4FDAE1046194622E7F0
:1059D00050EA410618BF52EA43067FF4C5AE50EACA
:1059E00041047FF40DAF52EA43057FF4EBAE12E7BA
:1059F0004FF0FF3C06E000BF4FF0010C02E000BF9B
:105A00004FF0010C4DF804CD4FEA410C7FEA6C5C7D
:105A10004FEA430C18BF7FEA6C5C1BD001B050EA20
:105A2000410C0CBF52EA430C91EA030F02BF90EA0B
:105A3000020F0020704710F1000F91EA030F58BFCA
:105A4000994208BF90422CBFD8176FEAE37040F02C
:105A5000010070474FEA410C7FEA6C5C02D150EACA
:105A6000013C07D14FEA430C7FEA6C5CD6D152EA85
:105A7000033CD3D05DF8040B704700BF844610464A
:105A800062468C461946634600E000BF01B5FFF749
:105A9000B7FF002848BF10F1000F01BD4DF808ED19
:105AA000FFF7F4FF0CBF012000205DF808FB00BFEA
:105AB0004DF808EDFFF7EAFF34BF012000205DF844
:105AC00008FB00BF4DF808EDFFF7E0FF94BF012091
:105AD00000205DF808FB00BF4DF808EDFFF7CEFF92
:105AE00094BF012000205DF808FB00BF4DF808EDD1
:105AF000FFF7C4FF34BF012000205DF808FB00BFA2
:105B00004FEA410C7FEA6C5C02D150EA013C0AD1B9
:105B10004FEA430C7FEA6C5C02D152EA033C02D1AB
:105B20004FF0000070474FF0010070474FEA41020C
:105B300012F5001215D211D56FF47873B3EB6252DF
:105B400012D94FEAC12343F0004343EA505311F006
:105B5000004F23FA02F018BF404270474FF0000098
:105B6000704750EA013005D111F0004008BF6FF0D6
:105B7000004070474FF00000704700BF4A0011D24C
:105B800012F5001211D20DD56FF47873B3EB625297
:105B90000ED44FEAC12343F0004343EA505323FAA3
:105BA00002F070474FF00000704750EA013002D118
:105BB0004FF0FF3070474FF0000070474FEA41024E
:105BC000B2F1E04324BFB3F5001CDCF1FE5C0DD95B
:105BD00001F0004C4FEAC0024CEA5070B2F1004FA5
:105BE00040EB830008BF20F00100704711F0804FA8
:105BF00021D113F13872BCBF01F00040704741F46D
:105C000080114FEA5252C2F11802C2F1200C10FA70
:105C10000CF320FA02F018BF40F001004FEAC12354
:105C20004FEAD32303FA0CFC40EA0C0023FA02F3F8
:105C30004FEA4303CCE77FEA625307D150EA0133CE
:105C40001EBF4FF0FE4040F44000704701F000409E
:105C500040F0FE4040F40000704700BF4FF0FF3CB2
:105C600006E000BF4FF0010C02E000BF4FF0010C56
:105C70004DF804CD4FEA40024FEA41037FEA226C1F
:105C800018BF7FEA236C11D001B052EA530C18BF41
:105C900090EA010F58BFB2EB030088BFC81738BFA6
:105CA0006FEAE17018BF40F0010070477FEA226C94
:105CB00002D15FEA402C05D17FEA236CE4D15FEA90
:105CC000412CE1D05DF8040B704700BF84460846C4
:105CD0006146FFE70FB5FFF7C9FF002848BF10F185
:105CE000000F0FBD4DF808EDFFF7F4FF0CBF0120CA
:105CF00000205DF808FB00BF4DF808EDFFF7EAFF54
:105D000034BF012000205DF808FB00BF4DF808ED0E
:105D1000FFF7E0FF94BF012000205DF808FB00BF03
:105D20004DF808EDFFF7D2FF94BF012000205DF889
:105D300008FB00BF4DF808EDFFF7C8FF34BF012096
:105D400000205DF808FB00BF4FEA40024FEA410324
:105D50007FEA226C02D15FEA402C08D17FEA236CF3
:105D600002D15FEA412C02D14FF0000070474FF0A2
:105D700001007047B0B586B000AF4FF4614100201C
:105D800001F04EFC4FF46141012001F049FC4FF459
:105D90006141002000F06AFB0C4B3C1D1D460FCDFD
:105DA0000FC42B6823603B1D0021184601F088FEBC
:105DB0000346002B03D0064809F00AFD03E005481E
:105DC00009F006FDFEE71837BD46B0BD54240108B2
:105DD000202401083424010880B500AF00F0FEFB48
:105DE000012000F053F8F9E780B582B000AF786089
:105DF000002001F0EFFA4FF4FA7000F047F8F7E7EF
:105E000080B586B000AF02F065FF00F069F800F0E1
:105E1000C9F81C4B9B691B4A43F020039361194B43
:105E20009B6903F020037B607B68164B9B69154AD6
:105E300043F004039361134B9B6903F004033B603D
:105E40003B6807F1080300221A605A609A60DA6022
:105E50004FF48053BB601123FB6000233B6102239E
:105E60007B6107F108031946074803F0A9FD0022EA
:105E70004FF48051044803F0E3FF00BF1837BD46DC
:105E800080BD00BF001002400008014080B582B014
:105E900000AF786002F040FB0346012B03D0786826
:105EA00001F035FE02E0786802F076FF00BF0837A7
:105EB000BD4680BD80B500AF02F064FF03461846C2
:105EC00080BD80B582B000AF78603B1D01221946CD
:105ED000012001F08FFC012318460837BD4680BD24
:105EE00080B596B000AF07F1300328220021184694
:105EF00009F009FC07F11C0300221A605A609A603D
:105F0000DA601A613B1D00221A605A609A60DA60FA
:105F10001A615A6105233B634FF480337B6300238E
:105F2000BB630123FB6301233B640223FB644FF447
:105F300080333B654FF4E0137B6507F1300318466F
:105F400004F006FF0346002B01D000F06BF80F238E
:105F5000FB6102233B6200237B624FF48063BB62E0
:105F60000023FB6207F11C030221184605F054F9D7
:105F70000346002B01D000F055F811237B604FF44D
:105F80008073BB600023BB613B1D184605F002FB1C
:105F90000346002B01D000F045F800BF5837BD463E
:105FA00080BD000080B586B000AF07F10803002275
:105FB0001A605A609A60DA60184B9B69174A43F07E
:105FC00008039361154B9B6903F008037B607B68B2
:105FD000124B9B69114A43F0040393610F4B9B6979
:105FE00003F004033B603B6800224FF470410C480F
:105FF00003F026FF4FF47043BB600123FB600023D6
:106000003B6102237B6107F108031946044803F052
:10601000D7FC00BF1837BD4680BD00BF001002404E
:10602000000C014080B400AF00BFBD4680BC70478B
:1060300080B485B000AF154B9B69144A43F001034F
:106040009361124B9B6903F00103BB60BB680F4B6C
:10605000DB690E4A43F08053D3610C4BDB6903F0DC
:1060600080537B607B680A4B5B68FB60FB6823F0B6
:10607000E063FB60FB6843F00073FB60044AFB686D
:10608000536000BF1437BD4680BC7047001002400B
:106090000000014080B400AF00BFBD4680BC704727
:1060A00080B400AFFEE780B400AFFEE780B400AF7D
:1060B000FEE780B400AFFEE780B400AF00BFBD468E
:1060C00080BC704780B500AF02F04AFE01F033FD9E
:1060D00000BF80BD80B500AF024803F007FA00BFE3
:1060E00080BD00BFFC2B002080B500AF024803F04C
:1060F000D0FF00BF80BD00BF783A002080B500AF60
:10610000024805F0BBFE00BF80BD00BF402C002050
:1061100080B586B000AFF860B9607A6000237B611B
:106120000AE0AFF300800146BB685A1CBA60CAB2ED
:106130001A707B6901337B617A697B689A42F0DB74
:106140007B6818461837BD4680BD80B586B000AF65
:10615000F860B9607A6000237B6109E0BB685A1C73
:10616000BA601B781846FFF7ACFE7B6901337B6190
:106170007A697B689A42F1DB7B6818461837BD461E
:1061800080BD80B483B000AF78604FF0FF33184615
:106190000C37BD4680BC704780B483B000AF7860D8
:1061A00039603B684FF400525A60002318460C37A0
:1061B000BD4680BC704780B483B000AF78600123D7
:1061C00018460C37BD4680BC704780B485B000AF20
:1061D000F860B9607A60002318461437BD4680BC69
:1061E0007047000080B584B000AF7860114B1B6829
:1061F000002B02D10F4B104A1A600E4B1B68FB603C
:106200000C4B1A687B6813446A46934207D909F01D
:1062100045FA02460C2313604FF0FF3306E0054BAE
:106220001A687B681344034A1360FB6818461037EA
:10623000BD4680BD94030020E03E002080B400AF46
:10624000154B1B68144A43F001031360124B5A6844
:106250001149124B13404B600F4B1B680E4A23F041
:10626000847323F4803313600B4B1B680A4A23F4B6
:1062700080231360084B5B68074A23F4FE035360D6
:10628000054B4FF41F029A60054B064A9A6000BF07
:10629000BD4680BC704700BF001002400000FFF800
:1062A00000ED00E000500008002103E00B4B5B58BC
:1062B000435004310A480B4B42189A42F6D30A4A1B
:1062C00002E0002342F8043B084B9A42F9D3FFF75F
:1062D000B5FF09F0E9F909F0ABF97047D8290108D1
:1062E000000000207803002078030020DC3E00201E
:1062F000FEE780B487B000AFF860B9607A60012330
:10630000FB75FB6800221A60FB6800225A60FB687C
:106310007A689A60FB68BA68DA60FB7D18461C37B9
:10632000BD4680BC704780B487B000AFF860B960EC
:106330007A600123FB7500233B6126E0FB68DB6884
:10634000002B09D0FB68DA68FB685B681A443B697C
:10635000B9680B4412781A70FB685A68FB681B68AE
:106360009A420CD0FB685B680133FA689268B3FB11
:10637000F2F102FB01F29A1AFB685A6002E0002374
:10638000FB7506E03B6901333B613B697A689A42E1
:10639000D4D8FB7D18461C37BD4680BC704780B4FE
:1063A00085B000AF78607B689A687B681B681A4488
:1063B0007B685B68D31A7A689268B3FBF2F102FBE0
:1063C00001F29B1AFB60FB6818461437BD4680BC7F
:1063D0007047000080B500AF1B4B00221A721A4BA9
:1063E00000225A72184B00221A74174B002283F8AD
:1063F0009521154B002283F89621134B002283F838
:106400009721114B002283F894210F4B0F4AC3F8B8
:1064100094230D4B0E4AC3F898230B4B0D4AC3F837
:106420009C23094B0C4AC3F8A023074800F05CFBEF
:106430000A490B4800F00CFE0A490B4800F008FE20
:106440000123184680BD00BF44280020ED6E0008DF
:106450003D6F00088D6F0008D16F0008E5700008DF
:1064600068240108557100087024010880B582B0C5
:1064700000AF03463960FB710A4AFB791370094A81
:106480003B685360FB793968184601F0C9F8034648
:106490001A46044B1A72034B1B7A18460837BD463E
:1064A00080BD00BF4428002080B584B000AF786074
:1064B000344B5B7A002B61D07B68987A7B6893F8C9
:1064C00045321A46304901F0C1F97B68987A7B68F9
:1064D00093F846321A462D4901F0B8F97B68987A4C
:1064E0007B6893F844321A46294901F0AFF97B687A
:1064F000987A7B6803F509731A46264901F0A6F9D4
:106500007B68987A7B6893F995311A46224901F0A5
:106510009DF97B68987A7B6893F896311A461F49F3
:1065200001F094F97B68987A7B6893F897311A4662
:106530001B4901F08BF90023FB6012E07B68987A1D
:10654000FA6813469B001344DA00D21A02F5CC73A2
:106550007A681344FA68134901F078F9FB6801334B
:10656000FB607B6893F897311A46FB689342E5DB42
:106570007B689B7A0C49184601F068F900BF103718
:10658000BD4680BD442800207424010884240108ED
:1065900094240108A4240108B4240108C424010897
:1065A000D4240108E4240108F424010880B582B051
:1065B00000AF78607B681B780649184601F046F901
:1065C0007B681B780449184601F040F900BF083782
:1065D000BD4680BDF8240108FC24010880B500AF49
:1065E0000E4B1B7A83F00103DBB2002B01D000239A
:1065F00012E00A4B1B78184601F0A8F80346002B5E
:1066000009D0064B1B78184601F0D2F8034619460C
:10661000024800F005F80123184680BD44280020F8
:1066200080B58CB000AF78600B46FB70002387F814
:1066300023307B6803F50973FB617B681B7C002BAF
:1066400040F06581FB780D2B09D00D2B02DC082B67
:1066500065D0D4E01B2B1CD07F2B1ED0CFE0FB6974
:1066600093F82230002B05D0786800F056FA78684D
:1066700000F042FBFB69002283F82220FB69002224
:1066800083F82120FB6900221A707868FFF78EFFDB
:1066900044E17B6801221A7440E1FB6993F82120F0
:1066A000FB6993F822309A4280F03381FB6993F8BA
:1066B0002220FB6993F82130D31AFB760123FB6279
:1066C00013E0FB6993F821301A46FB6A1A44FB6910
:1066D00093F821301946FB6A0B44013BF969895C48
:1066E000FA69D154FB6A0133FB62FB7EFA6A9A4273
:1066F000E7DBFB6993F82230013BDAB2FB6983F8F0
:106700002220FB6993F822301A46FB690021995434
:106710007B681B788E49184601F098F8F9E0FB6910
:1067200093F82230002B55D0FB6993F82130002BD1
:1067300050D0FB6993F82120FB6993F822309A42EC
:106740000ED1FB6993F82230013BDAB2FB6983F882
:106750002220FB6993F822301A46FB6900219954E4
:10676000FB6993F82120FB6993F822309A4231D2D9
:10677000FB6993F82220FB6993F82130D31ABB768A
:106780000023BB6213E0FB6993F821301A46BB6A11
:106790001A44FB6993F821301946BB6A0B44013B4C
:1067A000F969895CFA69D154BB6A0133BB62BB7E6B
:1067B000BA6A9A42E7DBFB6993F82230013BDAB20E
:1067C000FB6983F82220FB6993F822301A46FB69A3
:1067D00000219954FB6993F82130002B00F09B8035
:1067E000FB6993F82130013BDAB2FB6983F8212081
:1067F0007B681B785749184601F028F88BE0FB6945
:1068000093F822300133FA6992F82020934280F203
:106810008480FB6993F82120FB6993F822309A4227
:1068200024D17B681B78F91C0122184600F0E2FF96
:10683000FB6993F821301A46F978FB699954FB6992
:1068400093F822300133DAB2FB6983F82220FB6926
:1068500093F821300133DAB2FB6983F82120FB6918
:1068600093F822301A46FB6900219954FB6993F88A
:106870002120FB6993F822309A424ED2FB6993F8AB
:106880002220FB6993F82130D31A7B7600237B62A8
:1068900013E0FB6993F822301A467B6AD31A5A1E1A
:1068A000FB6993F8223019467B6ACB1AF969895C37
:1068B000FA69D1547B6A01337B627B7E7A6A9A42A1
:1068C000E7DBFB6993F821301A46F978FB699954A4
:1068D000FB6993F822300133DAB2FB6983F8222096
:1068E000FB6993F821300133DAB2FB6983F8212088
:1068F000FB6993F822301A46FB69002199547B68A2
:106900001B78FA781449184600F0A0FF05E000BF94
:1069100004E000BF02E000BF00E000BF7B681B7C1A
:10692000013B032B00F2D38001A252F823F000BFF9
:1069300041690008496900085D690008C56A0008E6
:106940007B6802221A74C2E07B6803221A74BEE0DC
:10695000042501080C250108142501087B68002284
:106960001A74FB78442B1AD1FB6993F82130002B61
:1069700015D0FB6993F82130013BDAB2FB6983F84B
:1069800021201B233B735B237B73FB78BB737B68EA
:106990001B7807F10C010322184600F02BFFFB784F
:1069A000432B1DD1FB6993F82120FB6993F820301C
:1069B0009A4207D2FB6993F821300133DAB2FB69BE
:1069C00083F821201B233B735B237B73FB78BB7312
:1069D0007B681B7807F10C010322184600F00AFFC0
:1069E000FB78412B0CD10121786800F0EBF87B6833
:1069F0001A787B6803F509731946104600F026FFE4
:106A0000FB78422B0CD10021786800F0DBF87B6822
:106A10001A787B6803F509731946104600F016FFD3
:106A2000FB78312B0FD17B681878FB6993F8213004
:106A30001A462B4900F00AFFFB69002283F8212047
:106A40007B6804221A74FB78342B3FD1FB6993F8DE
:106A50002120FB6993F822309A4210D2FB6993F807
:106A600022309AB2FB6993F821309BB2D31AFB8291
:106A70007B681B78FA8A1B49184600F0E7FEFB6921
:106A800093F82120FB6993F822309A4210D9FB69D0
:106A900093F821309AB2FB6993F822309BB2D31A53
:106AA000FB827B681B78FA8A0D49184600F0CEFEFF
:106AB000FB6993F82220FB6983F821207B6804227C
:106AC0001A7403E07B6800221A7400E000BF786843
:106AD000FFF7EAFC97F8233018463037BD4680BDF3
:106AE000202501082825010880B483B000AF786014
:106AF0007B68002283F846227B68002283F84522C7
:106B00007B681F2283F844227B68002283F82422BA
:106B100000BF0C37BD4680BC7047F0B583B000AFF6
:106B200078607B6893F896311A46796813469B0023
:106B30001344DA00D21A8B1803F5CC727B6803F584
:106B40000974944604F1200E654626460FCE28604F
:106B50006960AA60EB6010340CF1100C7445F3D13D
:106B6000634622461188927819809A707B6893F860
:106B70009731032B07D87B6893F897310133DAB24A
:106B80007B6883F897217B6893F896315AB27B68CB
:106B900083F895217B6893F8963101335A4203F0CC
:106BA000030302F0030258BF5342DAB27B6883F852
:106BB00096217B68012283F8942100BF0C37BD46E3
:106BC000F0BD0000F0B585B000AF78600B46FB70FB
:106BD0007B6893F89731002B00F086807B6893F8F0
:106BE0004532002B08D07B6818787B6893F84532D3
:106BF0001A463F4900F02AFE7B6893F84632002B84
:106C000008D07B6818787B6893F846321A46394971
:106C100000F01CFE97F90330012B25D17B6893F817
:106C20009431002B06D07B6893F896315AB27B687A
:106C300083F895217B6893F995311A467B6893F820
:106C400097311344013B7A6892F8972193FBF2F154
:106C500002FB01F29B1A5AB27B6883F895217B688C
:106C600093F99531FB7313E07B6893F99531013308
:106C70007A6892F8972193FBF2F102FB01F29B1ADA
:106C80005AB27B6883F895217B6893F99531FB7341
:106C9000FA7B7968786813469B001344DA00D21AAD
:106CA000831803F5CC731C4601F5097604F1200C1A
:106CB00035462346186859689A68DB680FC5103452
:106CC00010366445F4D133462246118892781980F3
:106CD0009A707B6893F846227B6883F845227B682C
:106CE000002283F8942100E000BF1437BD46F0BDB8
:106CF000202501083025010880B584B000AF7860F8
:106D00000023FB72786800F051F80346002B46D050
:106D1000254800F093F87B68D3F81431184600F04A
:106D2000B1F80023FB6033E07B68D3F81401FA6804
:106D300013469B0013449B0003F512737A681344B7
:106D400004331946FEF774FA0346002B1DD17B6805
:106D5000B3F81231013B9AB27B68A3F88C237B68AD
:106D600003F58C727B68C3F890237968FA68134640
:106D70009B0013449B000B4403F517731B687A6850
:106D800002F563721046984709E0FB680133FB6027
:106D90007B68B3F848321A46FB689342C4DBFB7A3F
:106DA00018461037BD4680BD3825010880B588B02B
:106DB00000AF78600023FB770023FB827B68002212
:106DC000A3F812217B6803F509733B617B6803F527
:106DD0008A73FB60FB8A9B00FA68134400221A60E6
:106DE000154B1B6807F108021946386909F09CFB2E
:106DF000B86110E0FB8A5A1CFA829B00FA681344BF
:106E0000BA691A600C4B1B6807F10802194600208A
:106E100009F08AFBB861BB69002BEBD17B68FA8A69
:106E2000A3F81221FB8A002B01D00123FB77FB7F03
:106E300018462037BD4680BD040000200FB480B541
:106E400084B000AF07F11C037B600D4BFB60FB6857
:106E500003F111007B68BA694FF4807109F024FCDA
:106E6000B860FB681878FB681133BA68194600F0FF
:106E7000C1FC00BF1037BD46BDE8804004B070477C
:106E80004428002080B485B000AF78600023FB81E7
:106E900018E0FB897A6813441B787B737B7B002B9B
:106EA00014D07B7B602B05D97B7B7A2B02D87B7B34
:106EB000203B7B73FB897A6813447A7B1A70FB89C9
:106EC0000133FB81FB890F2BE3D900E000BFFB8975
:106ED000102B05D1FB89013B7A68134400221A70FC
:106EE00000BF1437BD4680BC7047000080B584B039
:106EF00000AF0346FB710023FB600F4BBB60FB79C7
:106F00009AB2BB68B3F88C339A4201D300230EE0E7
:106F1000BB68D3F89023FB799B0013441B680022C5
:106F20000021184609F07EFB0346FB60FB6818460B
:106F30001037BD4680BD00BF4428002080B584B016
:106F400000AF0346FB714FF00003FB600E4BBB60CC
:106F5000FB799AB2BB68B3F88C339A4202D34FF0F4
:106F600000030CE0BB68D3F89023FB799B0013442B
:106F70001B680021184609F05FFAF860FB681846A4
:106F80001037BD4680BD00BF4428002080B485B0C6
:106F900000AF0346FB710023FB600C4BBB60FB7929
:106FA0009AB2BB68B3F88C339A4201D3002308E04D
:106FB000BB68D3F89023FB799B0013441B68FB60EC
:106FC000FB6818461437BD4680BC70474428002033
:106FD00080B584B000AF03463960FB710023FB73BA
:106FE0000F4BBB60FB799AB2BB68B3F88C339A4203
:106FF00001D3002310E0BB68D3F89023FB799B00FA
:1070000013441B6819463868FEF712F90346002B33
:1070100001D10123FB73FB7B18461037BD4680BDB1
:107020004428002080B582B000AF084B7B607B68AD
:107030001B78184600F08AFB0346002B01D1012380
:1070400000E0002318460837BD4680BD44280020D4
:1070500080B586B000AF786039600123FB75204BA6
:107060003B613B69B3F848320F2B01D9002332E072
:107070003B69B3F84832FB81FA8913469B001344FD
:107080009B0003F512733A69134404337968184678
:1070900008F0A6FBFA89396913469B0013449B004C
:1070A0000B4403F517733A681A60FA8913469B007C
:1070B00013449B0003F512733A69134404331846D2
:1070C000FFF7E0FE3B69B3F8483201339AB23B69FF
:1070D000A3F84822FB7D18461837BD4680BD00BF87
:1070E0004428002080B584B000AF7860154BBB60A9
:1070F0001548FFF7A3FE1548FFF7A0FE0023FB602D
:1071000012E0FA6813469B0013449B0003F51273C8
:10711000BA68134404331846FFF790FE0A48FFF795
:107120008DFEFB680133FB60BB68B3F848321A463A
:10713000FB689342E5DB0648FFF780FE00BF10378F
:10714000BD4680BD44280020382501083C250108A3
:107150005C25010880B58CB000AF78601023BB625D
:107160007B681B887B617B685B683B617B681B88F5
:10717000002B03D14048FFF761FE7AE07B69012BC9
:1071800009DD3B6904331B6800220021184609F021
:1071900049FA0346BB623B691B680022002118467E
:1071A00009F040FA03467B627B6ABB613348FFF714
:1071B00045FE0023FB6258E0FB6A03F00303002B4B
:1071C00004D17B6A19462E48FFF738FE7B6A1B689C
:1071D00019462C48FFF732FEFB6A5A4203F00303BC
:1071E00002F0030258BF5342032B38D12648FFF761
:1071F00025FE00233B622CE0BB691B68FB6000237B
:10720000FB611DE007F10C02FB6913441B781F2B87
:1072100010D907F10C02FB6913441B787E2B09D8A7
:1072200007F10C02FB6913441B7819461748FFF756
:1072300005FE02E01648FFF701FEFB690133FB6122
:10724000FB69032BDEDDBB690433BB613B6A0133A1
:107250003B623B6A032BCFDD0E48FFF7EFFD7B6AF5
:1072600004337B62FB6A0133FB62FA6ABB6A9A42AF
:10727000A2DB3037BD4680BD7C2501089025010882
:1072800098250108A4250108AC250108B0250108AE
:10729000B4250108B825010880B483B000AF0023ED
:1072A0007B6012E07B6803F58033DB0219460B4AF2
:1072B0007B6842F83310094A7B68DB0013444FF4C3
:1072C00000629A807B6801337B607B68FF2BE9DD7D
:1072D000012318460C37BD4680BC70479803002038
:1072E00080B588B000AF0123FB7607F108030022C8
:1072F0001A605A609A60DA60224B9B69214A43F017
:10730000080393611F4B9B6903F008037B607B6854
:107310001C4B9B691B4A43F004039361194B9B6907
:1073200003F004033B603B680123FB6000233B61E7
:1073300002237B610023FB6117E0134AFB69DB003A
:1073400013449B88BB60104AFB6952F8333007F145
:1073500008021146184602F033FBFB69DBB21846FF
:1073600000F018F8FB690133FB61FB69032BE4DDD6
:1073700006490748FFF76CFEFB7E18462037BD46DE
:1073800080BD00BF00100240080000200D740008FE
:10739000C825010880B582B000AF0346FB71FB79B8
:1073A000032B11D8FB790A4A52F83300FB79084ABB
:1073B000DB0013449988FB79054ADB001344DB7931
:1073C0001A4602F03DFD00E000BF0837BD4680BD13
:1073D0000800002080B582B000AF0346FB71FB7946
:1073E000032B0CD8FB79084A52F83300FB79064A84
:1073F000DB0013449B88194602F03AFD00E000BF11
:107400000837BD4680BD00BF0800002080B586B0AB
:1074100000AF78600023FB757B681B88032B33D19A
:107420007B685B691F49002098470346002B2BD0DF
:107430007B689B68012098470346BB757B689B6807
:10744000022098470346FB60BB7D002B02D0BB7D2A
:10745000013BBB75FEF72EFD38610EE0FEF72AFDFD
:1074600002463B69D31AFA689A4206D8FEF722FD13
:107470003861BB7D1846FFF7ADFFFFF7D3FD03462C
:10748000002BEBD10123FB75FB7D83F00103DBB205
:10749000002B03D004210448FFF7D0FC00BF1837AD
:1074A000BD4680BDCC250108D425010880B582B039
:1074B00000AF0123FB71114B5B6A03F08063002B6B
:1074C00012D0012000F04EF8034601331946012086
:1074D00000F058F84FF4FA70FEF7D8FC012000F0E5
:1074E00041F80246064B1A600021012000F04AF8DC
:1074F000FB7918460837BD4680BD00BF001002402A
:10750000980B002080B582B000AF0123FB71124BB5
:107510009B69114A43F0100393610F4B9B6903F081
:1075200010033B603B680D4B0D4A1A600B4B4FF04C
:10753000FF325A60094B4FF480729A60074804F09A
:10754000C9F90346002B01D0FEF76CFDFB79184604
:107550000837BD4680BD00BF00100240E82B002068
:107560000028004080B582B000AF78607968044898
:1075700004F0DEFA034618460837BD4680BD00BF5A
:10758000E82B002080B582B000AF786039603A689F
:107590007968034804F0B2FA00BF0837BD4680BDE1
:1075A000E82B002080B584B000AF78607B681B6852
:1075B0000B4A934210D103F0BFFB0A4BDB69094A27
:1075C00043F00063D361074BDB6903F00063FB60AA
:1075D000FB68054B01221A6000BF1037BD4680BD15
:1075E00000280040001002403C04424280B483B0B6
:1075F00000AF00237B6007E0084A7B681344002249
:107600001A707B6801337B607B68012BF4DD0123FA
:1076100018460C37BD4680BC704700BF9C0B00204D
:1076200080B584B000AF03463960FB710023FB7363
:10763000FB79002B02D0012B07D074E0FB793C4A88
:107640000121D1540123FB736DE03A4B3A4A1A6091
:10765000384A3B685360374B00229A60354B002212
:10766000DA60344B00221A61324B0C225A61314BE2
:1076700000229A612F4B0022DA612E4804F0C1FAF1
:10768000FB791B012D4A13444FF480722C49184694
:10769000FEF72FFE2B4B5B692A4A43F0010353612F
:1076A000284B5B6903F00103BB60BB68002200212B
:1076B0000F2001F080FC0F2001F099FC1D4804F020
:1076C00053FA0346002B02D00023FB732AE0012368
:1076D000FB73FB79164A0121D1544FF4807218498B
:1076E000144804F04BFB0346002B01D00023FB732E
:1076F000FB79124A1B01134408331968124B1B68AB
:107700005A68FB798A1A0D491B010B441A60FA79F1
:10771000FB790A4912010A44126808491B010B440B
:1077200004331A6000BFFB7B18461037BD4680BD8E
:107730009C0B0020402C002000380140A00B0020B2
:10774000C00B002000100240FC2B002080B584B04C
:1077500000AF0346FB710023FB60FB79002B02D0D6
:10776000012B04D01BE007F027FAF86017E0FB7943
:107770000D4A1B011344083319680C4B1B685A68E7
:10778000FB798A1A08491B010B441A60FB791B011B
:10779000054A13441846FEF702FEF86000BFFB6876
:1077A00018461037BD4680BDA00B0020FC2B0020E2
:1077B00080B584B000AF0346FB710023FB73FB79F7
:1077C000002B02D0012B05D00CE007F011FA034684
:1077D000FB7307E007F10F03012219460448FEF787
:1077E000A2FD00BFFB7B18461037BD4680BD00BF21
:1077F000B00B002080B586B000AF0346B9607A6058
:10780000FB7300237B61FB7B002B02D0012B06D096
:1078100014E07968B86807F03DFA78610EE07B689B
:107820009AB26423B968084804F00FFA0346FB745F
:10783000FB7C002B01D17B687B6100BF7B69184614
:107840001837BD4680BD00BF402C00200EB480B567
:10785000C7B000AF0246FB1D1A7007F5947207F11E
:107860000C031A6007F10C0307F110001B68D7F82E
:1078700024214FF4807108F017FFC7F81401D7F8DE
:10788000142107F11001FB1D1B781846FFF7B2FF0A
:10789000C7F81001D7F81031184607F58E77BD46A6
:1078A000BDE8804003B0704780B483B000AF78601B
:1078B00000BF0C37BD4680BC704780B483B000AFBA
:1078C000786000BF0C37BD4680BC704780B588B07B
:1078D00000AF786007F1100300221A605A609A60C6
:1078E000DA607B681B68334A93425FD1324B9B69F5
:1078F000314A43F4804393612F4B9B6903F48043E7
:10790000FB60FB682C4B9B692B4A43F0040393619B
:10791000294B9B6903F00403BB60BB684FF4007301
:107920003B6102237B610323FB6107F110031946CE
:10793000224802F045F84FF480633B6100237B61ED
:107940000023BB6107F1100319461C4802F038F808
:107950001B4B1C4A1A601A4B00225A60184B00221B
:107960009A60174B8022DA60154B00221A61144B83
:1079700000225A61124B20229A61114B0022DA61D7
:107980000F4801F05DFB0346002B01D0FEF74AFBD8
:107990007B680B4A5A630A4A7B68536200220021C3
:1079A000252001F008FB252001F021FB00BF203736
:1079B000BD4680BD00380140001002400008014073
:1079C000FC2B00205800024080B582B000AF7860E8
:1079D0007B681B680C4A934212D10C4B9B690B4A83
:1079E00023F4804393614FF4C061094802F056F9D3
:1079F0007B685B6B184601F099FB252001F005FBC5
:107A000000BF0837BD4680BD00380140001002406D
:107A10000008014080B586B000AF0123FB753B1D17
:107A200000221A605A609A60DA60C820FEF72EFAC7
:107A300001224FF48051084802F002FA0023BB6093
:107A40003B1D1946044801F0BBFF07F085F8FB7D9C
:107A500018461837BD4680BD0008014080B500AF0C
:107A6000FEF7CEF9FEF7B6FCFFF74CFDFFF71EFD63
:107A7000FFF736FCFFF7CEFFFFF7B8FDFFF70CFC72
:107A800000BF80BD80B485B000AF0346FB800023FB
:107A9000FB60B7F90630842B05D0B7F90620FB68E8
:107AA00013440333FB60FB6818461437BD4680BCA3
:107AB000704780B500AF00F061FA0023184680BD22
:107AC000F0B587B002AF786039607B685C687B682E
:107AD0001D687B681B699EB27B68B3F90830184645
:107AE000FFF7D0FF024607F10C03019300923B68B9
:107AF00032462946204600F0D8F80346012B01D033
:107B0000002300E0FB6818461437BD46F0BD80B581
:107B100084B000AF78607B68FB60FB68002B01D00D
:107B2000FB6800E00123184600F0F4F90023184632
:107B30001037BD4680BD80B500AF00F0EDFC0346B8
:107B4000012B01D000F0B8FE00BF80BD80B483B02F
:107B500000AF78607B6803F108027B685A607B683D
:107B60004FF0FF329A607B6803F108027B68DA60AD
:107B70007B6803F108027B681A617B6800221A6047
:107B800000BF0C37BD4680BC704780B483B000AFE7
:107B900078607B6800221A6100BF0C37BD4680BC4C
:107BA000704780B485B000AF786039607B685B68EF
:107BB000FB603B68FA685A60FB689A683B689A60A9
:107BC000FB689B683A685A60FB683A689A603B6851
:107BD0007A681A617B681B685A1C7B681A6000BF50
:107BE0001437BD4680BC704780B485B000AF786064
:107BF00039603B681B68BB60BB68B3F1FF3F03D1D2
:107C00007B681B69FB600CE07B680833FB6002E06B
:107C1000FB685B68FB60FB685B681B68BA689A423C
:107C2000F6D2FB685A683B685A603B685B683A6802
:107C30009A603B68FA689A60FB683A685A603B68E9
:107C40007A681A617B681B685A1C7B681A6000BFDF
:107C50001437BD4680BC704780B485B000AF7860F3
:107C60007B681B69FB607B685B687A6892689A60D6
:107C70007B689B687A6852685A60FB685B687A68C0
:107C80009A4203D17B689A68FB685A607B6800223D
:107C90001A61FB681B685A1EFB681A60FB681B6848
:107CA00018461437BD4680BC704780B58CB004AF11
:107CB000F860B9603B601346FB80FB889B00184668
:107CC00000F034FE78617B69002B0ED05C2000F060
:107CD0002DFEF861FB69002B03D0FB697A691A63FA
:107CE00005E0786900F0E4FE01E00023FB61FB6938
:107CF000002B13D0FA8800230393FB690293FB6ADD
:107D00000193BB6A00933B68B968F86800F00EF80D
:107D1000F86900F091F80123BB6102E04FF0FF33F6
:107D2000BB61BB6918462037BD4680BD80B588B0B1
:107D300000AFF860B9607A603B603B6B186B7B68A2
:107D40009B001A46A52107F0DEFC3B6B1A6B7B6893
:107D500003F18043013B9B001344BB61BB6923F0EB
:107D60000703BB61BB6903F00703002B09D04FF089
:107D7000500383F31188BFF36F8FBFF34F8F7B6185
:107D8000FEE70023FB6112E0BA68FB69134419782F
:107D90003A6BFB69134434330A461A70BA68FB69BC
:107DA00013441B78002B06D0FB690133FB61FB6990
:107DB0000F2BE9D900E000BF3B6B002283F8432082
:107DC000BB6A062B01D90623BB623B6BBA6ADA6237
:107DD0003B6BBA6ADA643B6B00221A653B6B043377
:107DE0001846FFF7D2FE3B6B18331846FFF7CDFE5F
:107DF0003B6B3A6B1A61BB6AC3F107023B6B9A613A
:107E00003B6B3A6B5A623B6B00225A653B6B00221C
:107E100083F858203A68F968B86900F001FC024616
:107E20003B6B1A60FB6A002B02D0FB6A3A6B1A604C
:107E300000BF2037BD4680BD80B582B000AF7860FE
:107E400000F0C0FC2C4B1B6801332B4A13602B4BFA
:107E50001B68002B09D1294A7B681360264B1B68DD
:107E6000012B10D100F0A8FA0DE0254B1B68002B68
:107E700009D1224B1B68DA6A7B68DB6A9A4202D816
:107E80001E4A7B6813601F4B1B6801331D4A136039
:107E90001C4B1A687B685A647B68DB6A01229A4033
:107EA000194B1B681343184A13607B68DA6A134640
:107EB0009B0013449B00154A1A447B6804331946FF
:107EC0001046FFF76EFE00F0ABFC0D4B1B68002B5D
:107ED0000ED00A4B1B68DA6A7B68DB6A9A4207D2CB
:107EE0000B4B4FF080521A60BFF34F8FBFF36F8F71
:107EF00000BF0837BD4680BDC00D0020C00C00206B
:107F0000CC0D0020DC0D0020C80D0020C40C00208A
:107F100004ED00E080B584B000AF78600023FB6022
:107F20007B68002B16D0134B1B68002B09D04FF039
:107F3000500383F31188BFF36F8FBFF34F8FBB6084
:107F4000FEE700F061F80021786800F003FB00F024
:107F500069F8F860FB68002B07D1074B4FF080529F
:107F60001A60BFF34F8FBFF36F8F00BF1037BD464E
:107F700080BD00BFE80D002004ED00E080B586B0B4
:107F800002AF1B4B01930023009300238022194969
:107F90001948FFF78AFEF860FB68012B15D14FF0F6
:107FA000500383F31188BFF36F8FBFF34F8FBB6014
:107FB000124B4FF0FF321A60114B01221A60114B25
:107FC00000221A6000F0A0FB0DE0FB68B3F1FF3F58
:107FD00009D14FF0500383F31188BFF36F8FBFF3C4
:107FE0004F8F7B60FEE700BF1037BD4680BD00BFEE
:107FF000E40D0020F425010889830008E00D00202D
:10800000CC0D0020C40D002080B400AF044B1B68D1
:108010000133034A136000BFBD4680BC704700BFF8
:10802000E80D002080B584B000AF0023FB60002382
:10803000BB60414B1B68002B09D14FF0500383F309
:108040001188BFF36F8FBFF34F8F3B60FEE700F0E7
:10805000B9FB394B1B68013B374A1360364B1B6831
:10806000002B61D1354B1B68002B5DD02EE0344BCB
:10807000DB68DB68FB60FB6818331846FFF7ECFD34
:10808000FB6804331846FFF7E7FDFB68DB6A012253
:108090009A402C4B1B6813432A4A1360FB68DA6A28
:1080A00013469B0013449B00274A1A44FB68043381
:1080B00019461046FFF775FDFB68DA6A234B1B680B
:1080C000DB6A9A4202D3224B01221A601C4B1B68C6
:1080D000002BCCD1FB68002B01D000F0F9F91D4B2F
:1080E0001B687B607B68002B10D000F037F80346DC
:1080F000002B02D0164B01221A607B68013B7B608B
:108100007B68002BF1D1134B00221A60104B1B68C7
:10811000002B09D00123BB600F4B4FF080521A6037
:10812000BFF34F8FBFF36F8F00F07AFBBB68184629
:108130001037BD4680BD00BFE80D0020C00D0020F7
:10814000800D0020C80D0020C40C0020C00C0020B1
:10815000D40D0020D00D002004ED00E080B586B0E5
:1081600000AF00237B61504B1B68002B40F08C80DC
:108170004E4B1B6801333B614C4A3B6913603B69C2
:10818000002B1FD14A4B1B681B68002B09D04FF0F6
:10819000500383F31188BFF36F8FBFF34F8F3B60A2
:1081A000FEE7434B1B68FB60424B1B68404A136071
:1081B000404AFB681360404B1B6801333E4A136022
:1081C00000F086F93D4B1B683A699A424DD3384B13
:1081D0001B681B68002B01D1012300E00023002B4A
:1081E00004D0364B4FF0FF321A603EE0304B1B6834
:1081F000DB68DB68BB60BB685B687B603A697B6897
:108200009A4203D22D4A7B6813602EE0BB68043388
:108210001846FFF721FDBB689B6A002B04D0BB68A2
:1082200018331846FFF718FDBB68DB6A01229A4035
:10823000234B1B681343224A1360BB68DA6A134658
:108240009B0013449B001F4A1A44BB680433194621
:108250001046FFF7A6FCBB68DA6A1B4B1B68DB6A9B
:108260009A42B4D301237B61B1E7174B1B68DA6AEA
:10827000144913469B0013449B000B441B68012BBD
:1082800007D901237B6104E0104B1B6801330F4ABF
:1082900013600F4B1B68002B01D001237B617B69AE
:1082A00018461837BD4680BDE80D0020C40D0020DB
:1082B000780D00207C0D0020D80D0020E00D00205E
:1082C000C80D0020C40C0020C00C0020D00D0020E0
:1082D000D40D002080B487B000AF264B1B68002B64
:1082E00003D0254B01221A603EE0234B00221A6086
:1082F000224B1B68FB60FB68B3FA83F3FB72FB7ACB
:10830000C3F11F037B611E497A6913469B00134426
:108310009B000B441B68002B09D14FF0500383F3E3
:108320001188BFF36F8FBFF34F8F7B60FEE77A69D1
:1083300013469B0013449B00114A13443B613B6965
:108340005B685A683B695A603B695A683B69083305
:108350009A4204D13B695B685A683B695A603B6941
:108360005B68DB68074A136000BF1C37BD4680BCF2
:10837000704700BFE80D0020D40D0020C80D00207C
:10838000C40C0020C00C002080B582B000AF786023
:1083900000F052F8064B1B68012BF9D9054B4FF042
:1083A00080521A60BFF34F8FBFF36F8FF0E700BFAB
:1083B000C40C002004ED00E080B582B000AF0023C3
:1083C0007B600CE07A6813469B0013449B00124AC2
:1083D00013441846FFF7BAFB7B6801337B607B6868
:1083E000062BEFD90D48FFF7B1FB0D48FFF7AEFBA9
:1083F0000C48FFF7ABFB0C48FFF7A8FB0B48FFF757
:10840000A5FB0B4B054A1A600A4B054A1A6000BFD0
:108410000837BD4680BD00BFC40C0020500D0020B1
:10842000640D0020800D0020940D0020AC0D002074
:10843000780D00207C0D002080B582B000AF28E0D0
:10844000FFF7E2FD174B1B68002B0CBF0123002335
:10845000DBB27B60FFF7E6FD7B68002B19D100F0F3
:10846000B1F9104BDB68DB683B603B6804331846AE
:10847000FFF7F2FB0C4B1B68013B0B4A13600B4BE5
:108480001B68013B094A136000F0CAF9386800F024
:108490000FF8064B1B68002BD2D100BF0837BD4632
:1084A00080BD00BF940D0020C00D0020A80D00204D
:1084B00080B582B000AF78607B681B6B184600F017
:1084C000F7FA786800F0F4FA00BF0837BD4680BDBF
:1084D00080B483B000AF0E4B1B681B68002B01D12A
:1084E000012300E00023002B04D00A4B4FF0FF32A1
:1084F0001A6008E0064B1B68DB68DB687B607B6802
:108500005B68044A136000BF0C37BD4680BC7047EF
:10851000780D0020E00D002080B483B000AF0B4B3D
:108520001B68002B02D101237B6008E0084B1B680D
:10853000002B02D102237B6001E000237B607B687B
:1085400018460C37BD4680BC704700BFCC0D0020DC
:10855000E80D002080B584B000AF78603960294B09
:108560001B68FB60284B1B6804331846FFF774FB3D
:108570000346002B0BD1244B1B68DB6A012202FA55
:1085800003F3DA43214B1B681340204A13607B68D6
:10859000B3F1FF3F0AD13B68002B07D01A4B1B6891
:1085A000043319461A48FFF7FCFA26E0FA687B689C
:1085B0001344BB60144B1B68BA685A60BA68FB6806
:1085C0009A4209D2134B1A680F4B1B6804331946A1
:1085D0001046FFF709FB10E00F4B1A680A4B1B68A7
:1085E000043319461046FFF7FFFA0C4B1B68BA68B4
:1085F0009A4202D2094ABB68136000BF1037BD46D9
:1086000080BD00BFC40D0020C00C0020C80D00209C
:10861000AC0D00207C0D0020780D0020E00D002026
:1086200080B485B000AFF860B9607A60FB68043B45
:10863000FB60FB684FF080721A60FB68043BFB60D4
:10864000BB6823F00102FB681A60FB68043BFB6017
:10865000084AFB681A60FB68143BFB607A68FB6899
:108660001A60FB68203BFB60FB6818461437BD4668
:1086700080BC70477986000880B483B000AF0C4B93
:108680001B68B3F1FF3F09D04FF0500383F311880B
:10869000BFF36F8FBFF34F8F7B60FEE74FF0500348
:1086A00083F31188BFF36F8FBFF34F8F3B60FEE7FB
:1086B0002800002000000000000000000000000072
:1086C000074B19680868B0E8F00F80F30988BFF31A
:1086D0006F8F4FF0000080F311884EF00D0E704741
:1086E000C00C002000BF00BF06480068006880F38F
:1086F000088862B661B6BFF34F8FBFF36F8F00DF9C
:1087000000BF00BF08ED00E080B584B000AF284B8B
:10871000FB60FB681B78DBB2BB60FB68FF221A7052
:10872000FB681B78DBB2FB71FB79DBB203F0500313
:10873000DAB2204B1A70204B07221A6009E01E4B58
:108740001B68013B1C4A1360FB79DBB25B00DBB2A8
:10875000FB71FB79DBB203F08003802BEFD0164B6B
:108760001B681B02144A1360134B1B6803F4E0637D
:10877000114A1360BB68DAB2FB681A700F4B1B68B2
:108780000E4A43F4700313600C4B1B680B4A43F012
:108790007043136000F0B0F8094B00221A60FFF735
:1087A000A3FFFFF769FF002318461037BD4680BDC1
:1087B00000E400E0EC0D0020F00D002020ED00E0D2
:1087C0002800002080B483B000AF4FF0500383F343
:1087D0001188BFF36F8FBFF34F8F7B600E4B1B6809
:1087E00001330D4A13600C4B1B68012B0ED10B4B50
:1087F0001B68DBB2002B09D04FF0500383F31188C4
:10880000BFF36F8FBFF34F8F3B60FEE700BF0C37A6
:10881000BD4680BC704700BF2800002004ED00E08A
:1088200080B483B000AF104B1B68002B09D14FF010
:10883000500383F31188BFF36F8FBFF34F8F7B60BB
:10884000FEE7094B1B68013B074A1360064B1B6898
:10885000002B04D100233B603B6883F3118800BFE9
:108860000C37BD4680BC7047280000200000000087
:10887000EFF30980BFF36F8F0D4B1A6820E9F00FFB
:1088800010602DE908404FF0500080F31188FFF789
:1088900021FD4FF0000080F31188BDE80840196801
:1088A0000868B0E8F00F80F30988BFF36F8F704756
:1088B000C00C002000BF00BF80B582B000AF4FF0F9
:1088C000500383F31188BFF36F8FBFF34F8F7B602B
:1088D000FFF744FC0346002B03D0064B4FF08052B9
:1088E0001A6000233B603B6883F3118800BF0837A0
:1088F000BD4680BD04ED00E080B400AF074B1B68AF
:10890000074AA2FB03239B09064A013B1360064B5F
:1089100007221A6000BFBD4680BC704700000020DF
:10892000D34D621014E000E010E000E080B58AB0A2
:1089300000AF78600023FB61FFF766FB574B1B68B5
:10894000002B01D100F00CF9554B1A687B681340DD
:10895000002B40F08C807B68002B1CD008227B68A9
:1089600013447B607B6803F00703002B13D07B6804
:1089700023F0070308337B607B6803F00703002BB9
:1089800009D04FF0500383F31188BFF36F8FBFF30B
:108990004F8F7B61FEE77B68002B68D0414B1B68E3
:1089A0007A689A4263D8404B3B623F4B1B687B62BC
:1089B00004E07B6A3B627B6A1B687B627B6A5B6864
:1089C0007A689A4203D97B6A1B68002BF1D1334B3A
:1089D0001B687A6A9A424AD03B6A1B680822134491
:1089E000FB617B6A1A683B6A1A607B6A5A687B681B
:1089F000D21A08235B009A421ED97A6A7B68134414
:108A0000BB61BB6903F00703002B09D04FF0500393
:108A100083F31188BFF36F8FBFF34F8F3B61FEE786
:108A20007B6A5A687B68D21ABB695A607B6A7A682B
:108A30005A60B86900F0F6F81A4B1A687B6A5B68EE
:108A4000D31A184A1360174B1A68184B1B689A42BE
:108A500003D2144B1B68154A13607B6A5A68104B8B
:108A60001B681A437B6A5A607B6A00221A60FFF710
:108A7000D9FAFB6903F00703002B09D04FF050032C
:108A800083F31188BFF36F8FBFF34F8FFB60FEE757
:108A9000FB6918462837BD4680BD00BFFC25002075
:108AA0000826002000260020F425002004260020AF
:108AB00080B586B000AF78607B687B617B68002BF7
:108AC00046D008235B427A6913447B617B693B6132
:108AD0003B695A68204B1B681340002B09D14FF0AB
:108AE000500383F31188BFF36F8FBFF34F8FFB6089
:108AF000FEE73B691B68002B09D04FF0500383F35E
:108B00001188BFF36F8FBFF34F8FBB60FEE73B69E8
:108B10005A68114B1B681340002B19D03B691B6826
:108B2000002B15D13B695A680B4B1B68DB431A407D
:108B30003B695A60FFF768FA3B695A68074B1B6844
:108B40001344064A1360386900F06CF8FFF76AFABC
:108B500000BF1837BD4680BD082600200026002033
:108B600080B485B000AF4FF4C053BB60274BFB60AF
:108B7000FB6803F00703002B0CD0FB680733FB6096
:108B8000FB6823F00703FB60BA68FB68D31A1F4A2F
:108B90001344BB60FB687B601D4A7B6813601C4B01
:108BA00000225A607B68BA681344FB600822FB68A5
:108BB0009B1AFB60FB6823F00703FB60FB68154A08
:108BC0001360144B1B6800225A60124B1B68002272
:108BD0001A607B683B603B68FA68D21A3B685A604F
:108BE0000C4B1A683B681A603B685B680A4A136062
:108BF0003B685B68094A1360094B4FF000421A60FA
:108C000000BF1437BD4680BC704700BFF40D002084
:108C1000F4250020FC25002004260020002600204A
:108C20000826002080B485B000AF7860274BFB6039
:108C300002E0FB681B68FB60FB681B687A689A426D
:108C4000F7D8FB68BB60FB685B68BA6813447A6856
:108C50009A4208D1FB685A687B685B681A44FB68D3
:108C60005A60FB687B607B68BB607B685B68BA6846
:108C70001A44FB681B689A4218D1FB681A68144BA7
:108C80001B689A420DD07B685A68FB681B685B685A
:108C90001A447B685A60FB681B681A687B681A6014
:108CA00008E00B4B1A687B681A6003E0FB681A68DF
:108CB0007B681A60FA687B689A4202D0FB687A681F
:108CC0001A6000BF1437BD4680BC7047F4250020F1
:108CD000FC25002080B500AF084B1B68074A43F015
:108CE00010031360032000F05BF9002000F008F887
:108CF000FDF79EF90023184680BD00BF002002400A
:108D000080B582B000AF7860124B1A68124B1B78A6
:108D100019464FF47A73B3FBF1F3B2FBF3F3184641
:108D200000F081F90346002B01D001230EE07B689F
:108D30000F2B0AD8002279684FF0FF3000F03BF982
:108D4000064A7B681360002300E0012318460837B9
:108D5000BD4680BD00000020300000202C00002017
:108D600080B400AF054B1B781A46054B1B681344B3
:108D7000034A136000BFBD4680BC7047300000202E
:108D8000802C002080B400AF024B1B681846BD4603
:108D900080BC7047802C002080B584B000AF786024
:108DA000FFF7F0FFB8607B68FB60FB68B3F1FF3F43
:108DB00005D0094B1B781A46FB681344FB6000BFC3
:108DC000FFF7E0FF0246BB68D31AFA689A42F7D869
:108DD00000BF1037BD4680BD3000002080B485B094
:108DE00000AF78607B6803F00703FB600C4BDB6827
:108DF000BB60BA684FF6FF031340BB60FB681A0202
:108E0000BB68134343F0BF6343F40033BB60044AC1
:108E1000BB68D36000BF1437BD4680BC704700BF3D
:108E200000ED00E080B400AF044BDB681B0A03F0E8
:108E300007031846BD4680BC704700BF00ED00E048
:108E400080B483B000AF0346FB71FB7903F01F02CF
:108E5000064997F907305B09012000FA02F241F850
:108E6000232000BF0C37BD4680BC704700E100E006
:108E700080B483B000AF0346FB71FB7903F01F029F
:108E8000074997F907305B09012000FA02F2203305
:108E900041F8232000BF0C37BD4680BC704700BF9F
:108EA00000E100E080B483B000AF03463960FB719D
:108EB00097F90730002B0BDA3B68DAB20C49FB79E3
:108EC00003F00F03043B1201D2B20B441A7609E0FF
:108ED0003B68DAB2074997F907301201D2B20B4466
:108EE00083F8002300BF0C37BD4680BC704700BF2D
:108EF00000ED00E000E100E080B489B000AFF86070
:108F0000B9607A60FB6803F00703FB61FB69C3F19A
:108F10000703042B28BF0423BB61FB690433062B22
:108F200002D9FB69033B00E000237B614FF0FF3275
:108F3000BB6902FA03F3DA43BB681A407B699A40C3
:108F40004FF0FF317B6901FA03F3D9437B680B4093
:108F5000134318462437BD4680BC704780B582B0A5
:108F600000AF78607B68013BB3F1807F01D30123C0
:108F70000FE00A4A7B68013B53600F214FF0FF303E
:108F8000FFF790FF054B00229A60044B07221A60FE
:108F9000002318460837BD4680BD00BF10E000E042
:108FA00080B582B000AF78607868FFF717FF00BF28
:108FB0000837BD4680BD80B586B000AF0346B960B6
:108FC0007A60FB7300237B61FFF72CFF78617A687E
:108FD000B9687869FFF790FF024697F90F3011469C
:108FE0001846FFF75FFF00BF1837BD4680BD80B54C
:108FF00082B000AF0346FB7197F907301846FFF7C0
:109000001FFF00BF0837BD4680BD80B582B000AFEE
:109010000346FB7197F907301846FFF729FF00BF99
:109020000837BD4680BD80B582B000AF78607868F3
:10903000FFF794FF034618460837BD4680BD000081
:1090400080B485B000AF78600023FB607B68002BA4
:1090500001D1012359E07B681B681A462D4B9A42C7
:109060000FD87B681B681A462B4B13442B4AA2FB74
:1090700003231B099A007B681A647B68284ADA6319
:109080000EE07B681B681A46264B1344234AA2FB5A
:1090900003231B099A007B681A647B68224ADA63FF
:1090A0007B68022283F821207B681B681B68FB60B9
:1090B000FB6823F47F5323F03003FB607B685A681E
:1090C0007B689B681A437B68DB681A437B681B6973
:1090D0001A437B685B691A437B689B691A437B6808
:1090E000DB691343FA681343FB607B681B68FA680B
:1090F0001A607B6800229A637B68012283F8212032
:109100007B68002283F82020002318461437BD46D0
:1091100080BC704707040240F8FFFDBFCDCCCCCC2B
:1091200000000240F8FBFDBF0004024080B483B0A1
:1091300000AF78607B68002B01D101235CE07B6885
:109140001B681A687B681B6822F001021A607B6842
:109150001B6800221A607B681B6800225A607B68CB
:109160001B6800229A607B681B680022DA607B68BB
:109170001B681A46234B9A420FD87B681B681A4615
:10918000214B1344214AA2FB03231B099A007B684D
:109190001A647B681E4ADA630EE07B681B681A4615
:1091A0001C4B1344194AA2FB03231B099A007B683A
:1091B0001A647B68184ADA637B681A6C7B68DB6B1D
:1091C000012101FA02F25A607B6800229A627B68F0
:1091D0000022DA627B6800221A637B6800225A63ED
:1091E0007B6800229A637B68002283F821207B68D9
:1091F000002283F82020002318460C37BD4680BC8F
:10920000704700BF07040240F8FFFDBFCDCCCCCCB7
:1092100000000240F8FBFDBF0004024080B586B0AC
:1092200000AFF860B9607A603B600023FB75FB68B3
:1092300093F82030012B01D102234AE0FB68012280
:1092400083F82020FB6893F82130012B3AD1FB688A
:10925000022283F82120FB6800229A63FB681B68C6
:109260001A68FB681B6822F001021A603B687A6882
:10927000B968F86800F076FBFB68DB6A002B08D061
:10928000FB681B681A68FB681B6842F00E021A60D4
:109290000FE0FB681B681A68FB681B6822F0040279
:1092A0001A60FB681B681A68FB681B6842F00A02B8
:1092B0001A60FB681B681A68FB681B6842F00102B1
:1092C0001A6005E0FB68002283F820200223FB756A
:1092D000FB7D18461837BD4680BD000080B584B0C0
:1092E00000AF78600023FB737B6893F82130022B7A
:1092F00005D07B6804229A630123FB73D6E07B6868
:109300001B681A687B681B6822F00E021A607B6873
:109310001B681A687B681B6822F001021A607B6870
:109320001B681A46644B9A4258D97B681B68634A8B
:1093300093424FD07B681B68614A934248D07B6858
:109340001B68604A934240D07B681B685E4A934228
:1093500038D07B681B685D4A934230D07B681B68BD
:109360005B4A934228D07B681B68534A934220D0C3
:109370007B681B68574A934219D07B681B68564A22
:10938000934212D07B681B68544A93420AD07B6890
:109390001B68534A934202D14FF480531BE04FF4B1
:1093A000803318E04FF4807315E0102313E001239D
:1093B00011E04FF080730EE04FF480130BE04FF498
:1093C000803308E04FF4805305E04FF4807302E0EF
:1093D000102300E00123434A536057E07B681B6879
:1093E000364A93424FD07B681B68354A934248D037
:1093F0007B681B68334A934240D07B681B68324AC3
:10940000934238D07B681B68304A934230D07B68E7
:109410001B682F4A934228D07B681B68264A9342D8
:1094200020D07B681B682B4A934219D07B681B684D
:10943000294A934212D07B681B68284A93420AD07B
:109440007B681B68264A934202D14FF480531BE08D
:109450004FF4803318E04FF4807315E0102313E0CD
:10946000012311E04FF080730EE04FF480130BE006
:109470004FF4803308E04FF4805305E04FF48073DD
:1094800002E0102300E00123174A53607B680122A9
:1094900083F821207B68002283F820207B685B6BA7
:1094A000002B03D07B685B6B78689847FB7B184682
:1094B0001037BD4680BD00BF80000240080002405A
:1094C0001C000240300002404400024058000240AC
:1094D0006C000240080402401C04024030040240B8
:1094E00044040240000402400000024080B584B001
:1094F00000AF78607B68DB6B1B68FB607B681B6878
:109500001B68BB607B681B6C04229A40FB6813409D
:10951000002B00F0D680BB6803F00403002B00F0A2
:10952000D0807B681B681B6803F02003002B07D1E9
:109530007B681B681A687B681B6822F004021A604B
:109540007B681B681A469B4B9A4258D97B681B68FC
:10955000994A93424FD07B681B68984A934248D0FF
:109560007B681B68964A934240D07B681B68954A8B
:10957000934238D07B681B68934A934230D07B6813
:109580001B68924A934228D07B681B68894A9342A1
:1095900020D07B681B688E4A934219D07B681B6879
:1095A0008C4A934212D07B681B688B4A93420AD044
:1095B0007B681B68894A934202D14FF480431BE0C9
:1095C0004FF4802318E04FF4806315E0402313E04C
:1095D000042311E04FF080630EE04FF480030BE0B2
:1095E0004FF4802308E04FF4804305E04FF480639C
:1095F00002E0402300E00423794A536057E07B688F
:109600001B686D4A93424FD07B681B686B4A93423C
:1096100048D07B681B686A4A934240D07B681B68CD
:10962000684A934238D07B681B68674A934230D0BF
:109630007B681B68654A934228D07B681B685D4A3B
:10964000934220D07B681B68614A934219D07B68A3
:109650001B68604A934212D07B681B685E4A934243
:109660000AD07B681B685D4A934202D14FF4804365
:109670001BE04FF4802318E04FF4806315E0402393
:1096800013E0042311E04FF080630EE04FF48003F9
:109690000BE04FF4802308E04FF4804305E04FF4E3
:1096A000806302E0402300E004234E4A53607B685D
:1096B000DB6A002B00F036817B68DB6A78689847AC
:1096C00030E17B681B6C02229A40FB681340002B40
:1096D00000F0F880BB6803F00203002B00F0F2807A
:1096E0007B681B681B6803F02003002B0BD17B6891
:1096F0001B681A687B681B6822F00A021A607B6884
:10970000012283F821207B681B681A46294B9A4264
:1097100073D97B681B68284A93426AD07B681B68B0
:10972000264A934263D07B681B68254A93425BD0EC
:109730007B681B68234A934238D07B681B68224AA7
:10974000934230D07B681B68204A934228D07B68C4
:109750001B68184A934220D07B681B681C4A9342BE
:1097600019D07B681B681B4A934212D07B681B6828
:10977000194A93420AD07B681B68184A934202D167
:109780004FF4005336E04FF4003333E04FF40073EE
:1097900030E020232EE002232CE04FF0007329E07C
:1097A0004FF4001326E04FF4003323E04FF400534E
:1097B00020E000BF80000240080002401C00024080
:1097C0003000024044000240580002406C00024059
:1097D000080402401C0402403004024044040240D9
:1097E00000040240000002404FF4007302E0202316
:1097F00000E002234E4A536057E07B681B684D4AE5
:1098000093424FD07B681B684B4A934248D07B6899
:109810001B684A4A934240D07B681B68484A93427F
:1098200038D07B681B68474A934230D07B681B68FE
:10983000454A934228D07B681B68444A934220D013
:109840007B681B68424A934219D07B681B68414A77
:10985000934212D07B681B683F4A93420AD07B68D0
:109860001B683E4A934202D14FF400531BE04FF471
:10987000003318E04FF4007315E0202313E00223B7
:1098800011E04FF000730EE04FF400130BE04FF4C3
:10989000003308E04FF4005305E04FF4007302E09A
:1098A000202300E002232E4A53607B68002283F8C5
:1098B00020207B689B6A002B34D07B689B6A786889
:1098C00098472FE07B681B6C08229A40FB68134086
:1098D000002B28D0BB6803F00803002B23D07B6843
:1098E0001B681A687B681B6822F00E021A607B688E
:1098F0001A6C7B68DB6B012101FA02F25A607B680B
:1099000001229A637B68012283F821207B68002270
:1099100083F820207B681B6B002B04D07B681B6BBB
:109920007868984700BF00BF1037BD4680BD00BFB4
:1099300000040240080002401C00024030000240C7
:1099400044000240580002406C0002408000024087
:10995000080402401C040240300402404404024057
:109960000000024080B485B000AFF860B9607A6052
:109970003B60FB681A6CFB68DB6B012101FA02F2A9
:109980005A60FB681B683A685A60FB685B68102B7A
:1099900008D1FB681B687A689A60FB681B68BA6824
:1099A000DA6007E0FB681B68BA689A60FB681B68AE
:1099B0007A68DA6000BF1437BD4680BC704700008B
:1099C00080B48BB000AF786039600023FB61002366
:1099D000BB6100237B6100233B6200233B610023CA
:1099E0007B6233E101227B6A02FA03F3FB613B688D
:1099F0001B68FA691340BB61BA69FB699A4240F07F
:109A000022813B685B68122B34D0122B0DD8022BBD
:109A10002BD0022B04D8002B31D0012B1CD048E0D6
:109A2000032B43D0112B1BD043E08D4A934226D009
:109A30008B4A934206D88B4A934220D08A4A93425B
:109A40001DD036E0894A934219D0894A934216D0F4
:109A5000884A934213D02CE03B68DB683B6228E0E5
:109A60003B68DB6804333B6223E03B68DB68083318
:109A70003B621EE03B68DB680C333B6219E03B68ED
:109A80009B68002B02D104233B6212E03B689B6879
:109A9000012B05D108233B627B68FA691A6108E053
:109AA00008233B627B68FA695A6102E000233B624B
:109AB00000BFBB69FF2B01D87B6801E07B680433E2
:109AC000FB60BB69FF2B02D87B6A9B0002E07B6ACC
:109AD000083B9B003B61FB681A680F213B6901FA58
:109AE00003F3DB431A40396A3B6901FA03F31A4373
:109AF000FB681A603B685B6803F08053002B00F042
:109B0000A2805D4B9B695C4A43F0010393615A4B11
:109B10009B6903F00103BB60BB68584A7B6A9B08E2
:109B2000023352F823307B617B6A03F003039B000E
:109B30000F2202FA03F3DB437A6913407B617B68EF
:109B40004F4A93421FD07B684E4A934219D07B689C
:109B50004D4A934213D07B684C4A93420DD07B68A8
:109B60004B4A934207D07B684A4A934201D105236E
:109B70000AE0062308E0042306E0032304E00223AE
:109B800002E0012300E000237A6A02F0030292005F
:109B900093407A6913437B6138497B6A9B0802339F
:109BA0007A6941F823203B685B6803F48033002B1B
:109BB00006D0394B1A683849BB6913430B6006E07D
:109BC000354B1A68BB69DB43334913400B603B6874
:109BD0005B6803F40033002B06D02F4B5A682E49E4
:109BE000BB6913434B6006E02B4B5A68BB69DB43F0
:109BF000294913404B603B685B6803F48013002BDA
:109C000006D0254B9A682449BB6913438B6006E054
:109C1000214B9A68BB69DB431F4913408B603B684B
:109C20005B6803F40013002B06D01B4BDA681A495B
:109C3000BB691343CB6006E0174BDA68BB69DB43B3
:109C400015491340CB607B6A01337B627B6A0F2B23
:109C50007FF6C8AE00BF2C37BD4680BC704700BF42
:109C6000000021100000111000001210000031103F
:109C700000003210000022100010024000000140DD
:109C800000080140000C0140001001400014014098
:109C900000180140001C01400004014080B489B05C
:109CA00000AF786039600023FB610023BB610023B3
:109CB0007B6100233B61A6E00122FB6902FA03F30A
:109CC0003A681340BB61BB69002B00F09980BB6907
:109CD000FF2B01D87B6801E07B680433FB60BB6924
:109CE000FF2B02D8FB699B0002E0FB69083B9B004D
:109CF0003B61FB681A680F213B6901FA03F3DB4300
:109D00001A4004213B6901FA03F31A43FB681A6005
:109D10007B68DA68BB69DB431A407B68DA60404ADB
:109D2000FB699B08023352F823307B61FB6903F027
:109D300003039B000F2202FA03F37A6913407B614D
:109D40007B68384A93421FD07B68374A934219D0C8
:109D50007B68364A934213D07B68354A93420DD0D4
:109D60007B68344A934207D07B68334A934201D1DF
:109D700005230AE0062308E0042306E0032304E0A9
:109D8000022302E0012300E00023FA6902F003024B
:109D9000920093407A699A4232D1FB6903F003033F
:109DA0009B000F2202FA03F37B611D4AFB699B08AB
:109DB000023352F823107B69DA431948FB699B0888
:109DC0000A40023340F823201C4B1A68BB69DB436E
:109DD0001A4913400B60194B5A68BB69DB4317499A
:109DE00013404B60154B9A68BB69DB431349134022
:109DF0008B60124BDA68BB69DB4310491340CB60C0
:109E0000FB690133FB613A68FB6922FA03F3002B1B
:109E10007FF452AF00BF2437BD4680BC704700BFFF
:109E20000000014000080140000C0140001001400A
:109E30000014014000180140001C014000040140D2
:109E400080B483B000AF78600B467B8013467B7094
:109E50007B78002B03D07A887B681A6103E07B88CB
:109E60001A047B681A6100BF0C37BD4680BC70477E
:109E700080B483B000AF78600B467B807B68DA6883
:109E80007B885A407B68DA6000BF0C37BD4680BCD7
:109E90007047F0B58BB006AF78600023FB607B683D
:109EA000002B01D10123CAE07B6893F82934DBB28F
:109EB000002B06D17B68002283F82824786805F0FF
:109EC00019F97B68032283F829247B681B681846EC
:109ED00002F02EFC7B681B683B607E686D4606F1D5
:109EE00010040FCC0FC523682B60331D0ECB3868D0
:109EF00002F0F4FB7B681B680021184602F034FC7A
:109F00000023FB6037E07A68FB685B011344293368
:109F100001221A70FB68D9B27A68FB685B011344AE
:109F200028330A461A70FB6899B27A68FB685B01AD
:109F3000134434330A461A807A68FB685B01134481
:109F40002B3300221A707A68FB685B0113443833A4
:109F500000221A607A68FB685B0113443C330022DC
:109F60001A607A68FB6802335B01134400221A60AE
:109F7000FB680133FB60FB680E2BC4D90023FB6038
:109F80003CE07A68FB685B01134403F2292300225A
:109F90001A70FB68D9B27A68FB685B01134403F559
:109FA0000A730A461A70FB6899B27A68FB685B010B
:109FB000134434330A461A807A68FB685B01134401
:109FC00003F22B2300221A707A68FB685B011344AA
:109FD00003F50E7300221A607A68FB685B01134474
:109FE00003F50F7300221A607A68FB6812335B0175
:109FF000134400221A60FB680133FB60FB680E2BE0
:10A00000BFD97B681B683B607E686D4606F1100413
:10A010000FCC0FC523682B60331D0ECB386802F0C0
:10A02000AFFB7B68002283F824207B68012283F841
:10A0300029247B681B68184603F099FB0023184607
:10A040001437BD46F0BD80B582B000AF78607B6844
:10A0500093F82834012B01D1022316E07B680122FA
:10A0600083F828240121786805F0ABFA7B681B6827
:10A07000184603F072FB7B681B68184602F03EFB33
:10A080007B68002283F82824002318460837BD4641
:10A0900080BD80B582B000AF78607B681B681846D1
:10A0A00003F06FFB034603F40043B3F5004F02D106
:10A0B000786800F0D9FA7B681B68184603F061FBEA
:10A0C000034603F48063B3F5806F12D17B681B688D
:10A0D000B3F844309AB27B681B6822F4806292B273
:10A0E000A3F84420786805F07AF80021786800F039
:10A0F000D2F87B681B68184603F043FB034603F461
:10A100008043B3F5804F0BD17B681B68B3F84430B4
:10A110009AB27B681B6822F4804292B2A3F8442072
:10A120007B681B68184603F02CFB034603F40053BE
:10A13000B3F5005F0BD17B681B68B3F844309AB26B
:10A140007B681B6822F4005292B2A3F844207B681B
:10A150001B68184603F015FB034603F48053B3F560
:10A16000805F26D17B681B68B3F840309AB27B6869
:10A170001B6822F0040292B2A3F840207B681B689F
:10A18000B3F840309AB27B681B6822F0080292B2A2
:10A19000A3F84020786805F05BF87B681B68B3F88B
:10A1A00044309AB27B681B6822F4805292B2A3F8C2
:10A1B00044207B681B68184603F0E3FA034603F467
:10A1C0000063B3F5006F31D17B681B68B3F8403092
:10A1D0009AB27B681B6842F0080292B2A3F8402052
:10A1E0007B681B68B3F844309AB27B681B6822F422
:10A1F000006292B2A3F844207B681B68B3F8403039
:10A200009AB27B681B6842F0040292B2A3F8402025
:10A210007B681B68184603F0B4FA034603F48053C6
:10A22000B3F5805F02D0786804F0F8FF7B681B68A4
:10A23000184603F0A6FA034603F40073B3F5007F53
:10A240000ED17B681B68B3F844309AB27B681B68F8
:10A2500022F4007292B2A3F84420786804F0B1FFAF
:10A260007B681B68184603F08CFA034603F480737E
:10A27000B3F5807F0BD17B681B68B3F844309AB28A
:10A280007B681B6822F4807292B2A3F8442000BF5E
:10A290000837BD4680BD80B582B000AF78600B4600
:10A2A000FB707B6893F82834012B01D1022313E063
:10A2B0007B68012283F828247B68FA7883F82420BD
:10A2C0007B681B68FA781146184603F033FA7B68FE
:10A2D000002283F82824002318460837BD4680BD95
:10A2E00080B584B000AF7860084611461A46034630
:10A2F000FB700B463B801346BB700023FB720023B0
:10A30000FB6097F90330002B08DAFB7803F07F033A
:10A310005B0128337A681344FB6008E0FB7803F0A4
:10A320007F035B0103F50A737A681344FB60FB78D3
:10A3300003F07F03DAB2FB681A7097F90330DBB2DF
:10A34000DB09DBB21A46FB685A703A88FB681A616F
:10A35000FB68BA78DA707B6893F82834012B01D156
:10A3600002230EE07B68012283F828247B681B68A7
:10A37000F968184602F028FA7B68002283F828243E
:10A38000FB7A18461037BD4680BD80B584B000AF5B
:10A3900078600B46FB700023FB6097F90330002BBD
:10A3A00008DAFB7803F07F035B0128337A681344F3
:10A3B000FB6008E0FB7803F07F035B0103F50A73A1
:10A3C0007A681344FB60FB7803F07F03DAB2FB6822
:10A3D0001A7097F90330DBB2DB09DBB21A46FB686F
:10A3E0005A707B6893F82834012B01D102230EE0C8
:10A3F0007B68012283F828247B681B68F96818466B
:10A4000002F0A4FC7B68002283F82824002318466D
:10A410001037BD4680BD80B586B000AFF8607A6069
:10A420003B600B46FB7200237B61FB7A03F07F03EA
:10A430005B0103F50A73FA6813447B617B697A68F0
:10A440005A617B693A689A617B690022DA617B69AB
:10A4500000225A70FB7A03F07F03DAB27B691A702C
:10A46000FB7A03F07F03002B06D1FB681B68796938
:10A47000184602F0F3FD05E0FB681B687969184691
:10A4800002F0ECFD002318461837BD4680BD80B4AD
:10A4900083B000AF78600B46FB70FB7803F00F03CE
:10A4A0007A6812335B01134404331B689BB218466D
:10A4B0000C37BD4680BC704780B586B000AFF860F1
:10A4C0007A603B600B46FB7200237B61FB7A03F0F2
:10A4D0007F035B012833FA6813447B617B697A68E8
:10A4E0005A617B693A689A617B690022DA617B690B
:10A4F00001225A70FB7A03F07F03DAB27B691A708B
:10A50000FB7A03F07F03002B06D1FB681B68796997
:10A51000184602F0A3FD05E0FB681B687969184640
:10A5200002F09CFD002318461837BD4680BD80B55B
:10A5300084B000AF78600B46FB700023FB6097F996
:10A540000330002B08DAFB7803F07F035B0128332C
:10A550007A681344FB6006E0FB785B0103F50A733D
:10A560007A681344FB60FB6801229A70FB7803F061
:10A570007F03DAB2FB681A7097F90330DBB2DB09AC
:10A58000DBB21A46FB685A707B6893F82834012BBB
:10A5900001D102231CE07B68012283F828247B6818
:10A5A0001B68F968184602F0DBFFFB7803F07F03B5
:10A5B000002B08D17B681A687B6803F22C4319468C
:10A5C000104603F0EFF87B68002283F8282400236C
:10A5D00018461037BD4680BD80B584B000AF7860A6
:10A5E0000B46FB700023FB6097F90330002B08DA61
:10A5F000FB7803F07F035B0128337A681344FB6028
:10A6000006E0FB785B0103F50A737A681344FB608C
:10A61000FB6800229A70FB7803F07F03DAB2FB68D4
:10A620001A7097F90330DBB2DB09DBB21A46FB681C
:10A630005A707B6893F82834012B01D102230EE075
:10A640007B68012283F828247B681B68F968184618
:10A6500002F0E6FF7B68002283F8282400231846D6
:10A660001037BD4680BD000090B589B000AF78605E
:10A670000023FB6100237B8300237B760023FB8187
:10A680000023BB8108E3FB899BB2DBB203F00F031D
:10A690007B767B7E002B40F02A81FB899BB203F006
:10A6A0001003002B4DD17B681B681B889BB27A6816
:10A6B000126823F4E14323F070039BB213807B689C
:10A6C0002833FB617B681B68B3F850309BB21A4695
:10A6D000FB691B78DB00134402335B007A68126865
:10A6E000134403F580631B689BB2C3F30902FB6943
:10A6F000DA61FB695A69FB69DB691A44FB695A61D3
:10A700000021786804F046FD7B6893F82430DBB2C2
:10A71000002B00F0C182FB699B69002B40F0BC82DA
:10A720007B6893F82430DBB263F07F03DAB27B6896
:10A730001B6892B2A3F84C207B68002283F8242087
:10A74000AAE27B6803F50A73FB617B681B681B88C0
:10A750009BB2BB81BB899BB203F40063002B31D059
:10A760007B681B68B3F850309BB21A46FB691B78B4
:10A77000DB00134406335B007A681268134403F568
:10A7800080631B689BB2C3F30902FB69DA617B68D3
:10A7900018687B6803F22C41FB699A88FB69DB69C6
:10A7A0009BB203F050F87B681B681B8899B27B68EA
:10A7B0001A6840F68F730B409BB21380786804F0E0
:10A7C000BFFC69E2BB899BB21BB2002B80F26482A2
:10A7D0007B681B681B8899B27B681A6840F68F7388
:10A7E0000B409BB213807B681B68B3F850309BB260
:10A7F0001A46FB691B78DB00134406335B007A685A
:10A800001268134403F580631B689BB2C3F309020B
:10A81000FB69DA61FB69DB69002B11D07B68186882
:10A82000FB695969FB699A88FB69DB699BB203F094
:10A830000AF8FB695A69FB69DB691A44FB695A61CA
:10A840000021786804F08EFC7B681B68B3F85030F8
:10A850009BB206335B007A681268134403F5806389
:10A860003B61FB691B693E2B18D9FB691B695B09BE
:10A87000FB82FB691B6903F01F03002B02D1FB8ADB
:10A88000013BFB82FB8A9B029BB26FEA43436FEA68
:10A8900053439BB21A463B691A6012E0FB691B697D
:10A8A0005B08FB82FB691B6903F00103002B02D0EC
:10A8B000FB8A0133FB82FB8A9B029BB21A463B69EF
:10A8C0001A607B681B681B889BB223F4804323F0CB
:10A8D00070039CB284F480539CB284F400539CB205
:10A8E0007B681A68984B23439BB21380D4E17B6842
:10A8F0001B681A467B7E9B0013441B889BB2BB815E
:10A90000BB899BB21BB2002B80F2D0807B681B6896
:10A910001A467B7E9B0013441B8899B27B681B6898
:10A920001A467B7E9B001A4440F68F730B409BB205
:10A9300013807B7E5B0103F50A737A681344FB6125
:10A94000FB699B7A002B22D17B681B68B3F85030DF
:10A950009BB21A46FB691B78DB00134406335B008D
:10A960007A681268134403F580631B689BB2C3F3D3
:10A9700009037B837B8B002B73D07B681868FB6992
:10A980005969FB699A887B8B02F05DFF69E07B68FF
:10A990001B681A46FB691B789B0013441B889BB2FB
:10A9A00003F48043002B22D07B681B68B3F850303F
:10A9B0009BB21A46FB691B78DB00134402335B0031
:10A9C0007A681268134403F580631B689BB2C3F373
:10A9D00009037B837B8B002B2BD07B681868FB697A
:10A9E0005969FB69DA887B8B02F02DFF21E07B68D7
:10A9F0001B68B3F850309BB21A46FB691B78DB002A
:10AA0000134406335B007A681268134403F58063CD
:10AA10001B689BB2C3F309037B837B8B002B08D09D
:10AA20007B681868FB695969FB691A897B8B02F09E
:10AA30000AFF7B681B681A46FB691B789B0013445E
:10AA40001B889AB240F60F73134099B27B681B685B
:10AA50001A46FB691B789B001A443C4B0B439BB284
:10AA60001380FB69DA697B8B1A44FB69DA61FB6945
:10AA70005A697B8B1A44FB695A61FB699B69002BFD
:10AA800004D07A8BFB691B699A4206D2FB691B785A
:10AA90001946786804F066FB08E0FB691978FB69E1
:10AAA0005A69FB699B697868FFF7B5FCBB899BB263
:10AAB00003F08003002B00F0EF807B7E5B012833E6
:10AAC0007A681344FB617B681B681A467B7E9B0097
:10AAD00013441B889BB27A68126811467A7E9200F2
