:020000040800F2
:100000000000012071030008B5020008C1020008C9
:10001000C7020008CD020008D3020008000000005B
:10002000000000000000000000000000D9020008ED
:10003000E502000800000000F1020008FD020008CF
:10004000C1030008C1030008C1030008C103000880
:10005000C1030008C1030008C1030008C103000870
:10006000C1030008C1030008C1030008C103000860
:10007000C1030008C1030008C1030008C103000850
:10008000C1030008C1030008C1030008C103000840
:10009000C1030008C1030008C1030008C103000830
:1000A000C1030008C1030008C1030008C103000820
:1000B000C1030008C1030008C1030008C103000810
:1000C000C1030008C1030008C1030008C103000800
:1000D000C1030008C1030008C1030008C1030008F0
:1000E000C1030008C103000800000000C1030008AC
:1000F000C1030008C1030008C1030008C1030008D0
:10010000C1030008C1030008C1030008C1030008BF
:10011000C1030008C1030008C1030008C1030008AF
:10012000C1030008C1030008C1030008C10300089F
:1001300010B5054C237833B9044B13B10448AFF321
:1001400000800123237010BD2C000020000000005F
:100150003813000808B5034B1BB103490348AFF33C
:10016000008008BD000000003000002038130008A7
:1001700080B400AF00BFBD4680BC704780B582B080
:1001800000AF00237B60022000F08AF94FF47A7000
:1001900000F00BF8F7E780B500AF00F0A5F900F02C
:1001A0000FF800F048F800BF80BD80B582B000AF06
:1001B0007860786800F0FAF900BF0837BD4680BD66
:1001C00080B590B000AF07F118032822002118462F
:1001D00001F0AAF83B1D00221A605A609A60DA60AA
:1001E0001A610223BB610123BB621023FB6200235F
:1001F0007B6307F11803184600F076FC0346002BDA
:1002000001D000F01EF80F237B600023BB600023A9
:10021000FB6000233B6100237B613B1D00211846EE
:1002200000F0C6FE0346002B01D000F00AF800BF24
:100230004037BD4680BD80B400AF00BFBD4680BC26
:10024000704780B400AF00BFBD4680BC704700005F
:1002500080B485B000AF154B9B69144A43F001038D
:100260009361124B9B6903F00103BB60BB680F4BAA
:10027000DB690E4A43F08053D3610C4BDB6903F01A
:1002800080537B607B680A4B5B68FB60FB6823F0F4
:10029000E063FB60FB6843F00073FB60044AFB68AB
:1002A000536000BF1437BD4680BC70470010024049
:1002B0000000014080B400AF00BFBD4680BC704765
:1002C00080B400AFFEE780B400AFFEE780B400AFBB
:1002D000FEE780B400AFFEE780B400AF00BFBD46CC
:1002E00080BC704780B400AF00BFBD4680BC704783
:1002F00080B400AF00BFBD4680BC704780B500AF82
:1003000000F038F900BF80BD80B400AF154B1B680A
:10031000144A43F001031360124B5A681149124BFF
:1003200013404B600F4B1B680E4A23F0847323F479
:10033000803313600B4B1B680A4A23F4802313603D
:10034000084B5B68074A23F4FE035360054B4FF4E8
:100350001F029A60054B4FF000629A6000BFBD46D5
:1003600080BC7047001002400000FFF800ED00E084
:100370000D488546FFF7C8FF0C480D490D4A00237C
:1003800002E0D458C4500433C4188C42F9D30A4A4A
:100390000A4C002301E013600432A242FBD300F0B8
:1003A0009FFF00F091FFFEE7000001200000002009
:1003B0002C0000207C1300082C0000204C000020A2
:1003C000FEE7000080B588B000AF07F10C03002203
:1003D0001A605A609A60DA601F4B9B691E4A43F0AC
:1003E000080393611C4B9B6903F00803BB60BB6867
:1003F000194B9B69184A43F004039361164B9B69A0
:1004000003F004037B607B6801233B6100237B6175
:100410000223BB610023FB6117E0104AFB69DB008C
:1004200013449B88FB600D4AFB6952F8333007F197
:100430000C021146184600F0BFF9FB69DBB2184602
:1004400000F00EF8FB690133FB61FB69032BE4DD6F
:1004500000BF2037BD4680BD0010024004000020D0
:1004600080B582B000AF0346FB71FB79032B11D836
:10047000FB790A4A52F83300FB79084ADB0013443F
:100480009988FB79054ADB001344DB791A4600F0B2
:1004900001FB00E000BF0837BD4680BD040000201E
:1004A00080B582B000AF0346FB71FB79032B0CD8FB
:1004B000FB79084A52F83300FB79064ADB00134403
:1004C0009B88194600F0FEFA00E000BF0837BD46E1
:1004D00080BD00BF0400002080B500AFFFF75BFEC9
:1004E000FFF770FF00BF80BD80B500AF084B1B68F1
:1004F000074A43F010031360032000F029F900209D
:1005000000F008F8FFF7A4FE0023184680BD00BFE6
:100510000020024080B582B000AF7860124B1A68AC
:10052000124B1B7819464FF47A73B3FBF1F3B2FB0D
:10053000F3F3184600F033F90346002B01D00123F2
:100540000EE07B680F2B0AD8002279684FF0FF304D
:1005500000F009F9064A7B681360002300E00123DC
:1005600018460837BD4680BD000000202800002046
:100570002400002080B400AF054B1B781A46054BC1
:100580001B681344034A136000BFBD4680BC70471C
:10059000280000204800002080B400AF024B1B68F8
:1005A0001846BD4680BC70474800002080B584B026
:1005B00000AF7860FFF7F0FFB8607B68FB60FB6816
:1005C000B3F1FF3F05D0094B1B781A46FB68134473
:1005D000FB6000BFFFF7E0FF0246BB68D31AFA6872
:1005E0009A42F7D800BF1037BD4680BD28000020D2
:1005F00080B485B000AF78607B6803F00703FB60D0
:100600000C4BDB68BB60BA684FF6FF031340BB605E
:10061000FB681A02BB68134343F0BF6343F4003323
:10062000BB60044ABB68D36000BF1437BD4680BCC2
:10063000704700BF00ED00E080B400AF044BDB6802
:100640001B0A03F007031846BD4680BC704700BF75
:1006500000ED00E080B483B000AF03463960FB7169
:1006600097F90730002B0BDA3B68DAB20C49FB79BB
:1006700003F00F03043B1201D2B20B441A7609E0D7
:100680003B68DAB2074997F907301201D2B20B443E
:1006900083F8002300BF0C37BD4680BC704700BF05
:1006A00000ED00E000E100E080B489B000AFF86048
:1006B000B9607A60FB6803F00703FB61FB69C3F173
:1006C0000703042B28BF0423BB61FB690433062BFB
:1006D00002D9FB69033B00E000237B614FF0FF324E
:1006E000BB6902FA03F3DA43BB681A407B699A409C
:1006F0004FF0FF317B6901FA03F3D9437B680B406C
:10070000134318462437BD4680BC704780B582B07D
:1007100000AF78607B68013BB3F1807F01D3012398
:100720000FE00A4A7B68013B53600F214FF0FF3016
:10073000FFF790FF054B00229A60044B07221A60D6
:10074000002318460837BD4680BD00BF10E000E01A
:1007500080B582B000AF78607868FFF749FF00BFCE
:100760000837BD4680BD80B586B000AF0346B9608E
:100770007A60FB7300237B61FFF75EFF78617A6824
:10078000B9687869FFF790FF024697F90F30114674
:100790001846FFF75FFF00BF1837BD4680BD80B524
:1007A00082B000AF78607868FFF7B0FF0346184664
:1007B0000837BD4680BD000080B48BB000AF7860C4
:1007C00039600023FB610023BB6100237B610023B0
:1007D0003B6200233B6100237B6233E101227B6AA1
:1007E00002FA03F3FB613B681B68FA691340BB61C3
:1007F000BA69FB699A4240F022813B685B68122B20
:1008000034D0122B0DD8022B2BD0022B04D8002B66
:1008100031D0012B1CD048E0032B43D0112B1BD02F
:1008200043E08D4A934226D08B4A934206D88B4AA6
:10083000934220D08A4A93421DD036E0894A93429F
:1008400019D0894A934216D0884A934213D02CE09B
:100850003B68DB683B6228E03B68DB6804333B6253
:1008600023E03B68DB6808333B621EE03B68DB68E3
:100870000C333B6219E03B689B68002B02D10423D8
:100880003B6212E03B689B68012B05D108233B6269
:100890007B68FA691A6108E008233B627B68FA69A1
:1008A0005A6102E000233B6200BFBB69FF2B01D805
:1008B0007B6801E07B680433FB60BB69FF2B02D8D7
:1008C0007B6A9B0002E07B6A083B9B003B61FB6804
:1008D0001A680F213B6901FA03F3DB431A40396AB6
:1008E0003B6901FA03F31A43FB681A603B685B68D3
:1008F00003F08053002B00F0A2805D4B9B695C4AA3
:1009000043F0010393615A4B9B6903F00103BB6001
:10091000BB68584A7B6A9B08023352F823307B61DC
:100920007B6A03F003039B000F2202FA03F3DB430D
:100930007A6913407B617B684F4A93421FD07B6882
:100940004E4A934219D07B684D4A934213D07B683C
:100950004C4A93420DD07B684B4A934207D07B6848
:100960004A4A934201D105230AE0062308E0042302
:1009700006E0032304E0022302E0012300E0002359
:100980007A6A02F00302920093407A6913437B6112
:1009900038497B6A9B0802337A6941F823203B6817
:1009A0005B6803F48033002B06D0394B1A68384952
:1009B000BB6913430B6006E0354B1A68BB69DB4328
:1009C000334913400B603B685B6803F40033002B32
:1009D00006D02F4B5A682E49BB6913434B6006E083
:1009E0002B4B5A68BB69DB43294913404B603B687A
:1009F0005B6803F48013002B06D0254B9A682449CA
:100A0000BB6913438B6006E0214B9A68BB69DB43EB
:100A10001F4913408B603B685B6803F40013002B95
:100A200006D01B4BDA681A49BB691343CB6006E05A
:100A3000174BDA68BB69DB4315491340CB607B6A0F
:100A400001337B627B6A0F2B7FF6C8AE00BF2C3769
:100A5000BD4680BC704700BF00002110000011108F
:100A600000001210000031100000321000002210AF
:100A7000001002400000014000080140000C01404D
:100A8000001001400014014000180140001C01400A
:100A90000004014080B483B000AF78600B467B80D7
:100AA00013467B707B78002B03D07A887B681A61B1
:100AB00003E07B881A047B681A6100BF0C37BD46CF
:100AC00080BC704780B483B000AF78600B467B80F9
:100AD0007B68DA687B885A407B68DA6000BF0C3735
:100AE000BD4680BC7047000080B586B000AF78601E
:100AF00000233B617B681B6803F00103002B00F0BF
:100B00008780924B5B6803F00C03042B0CD08F4B57
:100B10005B6803F00C03082B12D18C4B5B6803F469
:100B20008033B3F5803F0BD1884B1B6803F400334F
:100B3000002B6CD07B685B68002B68D101232DE211
:100B40007B685B68B3F5803F06D1804B1B687F4AAA
:100B500043F4803313602EE07B685B68002B0CD17C
:100B60007A4B1B68794A23F480331360774B1B68F8
:100B7000764A23F4802313601DE07B685B68B3F53D
:100B8000A02F0CD1714B1B68704A43F48023136073
:100B90006E4B1B686D4A43F4803313600BE06B4B64
:100BA0001B686A4A23F480331360684B1B68674AEA
:100BB00023F4802313607B685B68002B13D0FFF75E
:100BC000EBFC386108E0FFF7E7FC02463B69D31A0B
:100BD000642B01D90323E1E15C4B1B6803F4003370
:100BE000002BF0D014E0FFF7D7FC386108E0FFF7E6
:100BF000D3FC02463B69D31A642B01D90323CDE110
:100C0000524B1B6803F40033002BF0D100E000BF0F
:100C10007B681B6803F00203002B63D04B4B5B68BF
:100C200003F00C03002B0BD0484B5B6803F00C0364
:100C3000082B1CD1454B5B6803F48033002B16D185
:100C4000424B1B6803F00203002B05D07B681B6935
:100C5000012B01D00123A1E13C4B1B6823F0F802DA
:100C60007B685B69DB00394913430B603AE07B68C2
:100C70001B69002B20D0364B01221A60FFF78CFC39
:100C8000386108E0FFF788FC02463B69D31A022B63
:100C900001D9032382E12D4B1B6803F00203002BD3
:100CA000F0D02A4B1B6823F0F8027B685B69DB00FD
:100CB000264913430B6015E0254B00221A60FFF70D
:100CC0006BFC386108E0FFF767FC02463B69D31A0A
:100CD000022B01D9032361E11C4B1B6803F00203C3
:100CE000002BF0D17B681B6803F00803002B39D080
:100CF0007B689B69002B19D0164B01221A60FFF705
:100D00004BFC386108E0FFF747FC02463B69D31A09
:100D1000022B01D9032341E10C4B5B6A03F0020370
:100D2000002BF0D0012000F0B1FA1BE0094B0022AB
:100D30001A60FFF731FC38610EE0FFF72DFC024628
:100D40003B69D31A022B07D9032327E10010024085
:100D50000000424280044242924B5B6A03F002036D
:100D6000002BEAD17B681B6803F00403002B00F022
:100D7000A6800023FB758B4BDB6903F08053002BAF
:100D80000DD1884BDB69874A43F08053D361854B93
:100D9000DB6903F08053FB60FB680123FB75824B2A
:100DA0001B6803F48073002B18D17F4B1B687E4AAD
:100DB00043F480731360FFF7EFFB386108E0FFF73F
:100DC000EBFB02463B69D31A642B01D90323E5E010
:100DD000754B1B6803F48073002BF0D07B68DB68D5
:100DE000012B06D16F4B1B6A6E4A43F0010313625D
:100DF0002DE07B68DB68002B0CD16A4B1B6A694ACB
:100E000023F001031362674B1B6A664A23F0040355
:100E100013621CE07B68DB68052B0CD1614B1B6AFD
:100E2000604A43F0040313625E4B1B6A5D4A43F061
:100E3000010313620BE05B4B1B6A5A4A23F0010368
:100E40001362584B1B6A574A23F0040313627B68F2
:100E5000DB68002B15D0FFF79FFB38610AE0FFF736
:100E60009BFB02463B69D31A41F28832934201D977
:100E7000032393E04B4B1B6A03F00203002BEED0DD
:100E800014E0FFF789FB38610AE0FFF785FB0246B3
:100E90003B69D31A41F28832934201D903237DE0A2
:100EA000404B1B6A03F00203002BEED1FB7D012BAC
:100EB00005D13C4BDB693B4A23F08053D3617B680F
:100EC000DB69002B69D0374B5B6803F00C03082B00
:100ED00061D07B68DB69022B46D1344B00221A605B
:100EE000FFF75AFB386108E0FFF756FB02463B6903
:100EF000D31A022B01D9032350E02A4B1B6803F0BD
:100F00000073002BF0D17B681B6AB3F5803F08D1DA
:100F1000244B5B6823F400327B689B6821491343B0
:100F20004B60204B5B6823F474127B68196A7B6802
:100F30005B6A0B431B4913434B601C4B01221A6035
:100F4000FFF72AFB386108E0FFF726FB02463B6902
:100F5000D31A022B01D9032320E0124B1B6803F0A4
:100F60000073002BF0D018E0104B00221A60FFF73E
:100F700013FB386108E0FFF70FFB02463B69D31A09
:100F8000022B01D9032309E0064B1B6803F0007311
:100F9000002BF0D101E0012300E0002318461837B0
:100FA000BD4680BD0010024000700040600042421B
:100FB00080B584B000AF786039600023FB607E4B61
:100FC0001B6803F007033A689A4210D97A4B1B68F2
:100FD00023F0070278493B6813430B60764B1B688C
:100FE00003F007033A689A4201D00123E0E07B68EE
:100FF0001B6803F00203002B20D07B681B6803F002
:101000000403002B05D06D4B5B686C4A43F4E0632E
:1010100053607B681B6803F00803002B05D0674B07
:101020005B68664A43F460535360644B5B6823F02B
:10103000F0027B689B68614913434B607B681B68C7
:1010400003F00103002B6AD07B685B68012B07D19A
:101050005A4B1B6803F40033002B15D10123A7E082
:101060007B685B68022B07D1544B1B6803F000734D
:10107000002B09D101239BE0504B1B6803F00203B6
:10108000002B01D1012393E04C4B5B6823F003025A
:101090007B685B68494913434B60FFF77DFAF86052
:1010A0007B685B68012B12D10AE0FFF775FA0246F4
:1010B000FB68D31A41F28832934201D9032377E0C7
:1010C0003E4B5B6803F00C03042BEED127E07B68FA
:1010D0005B68022B1DD10AE0FFF75EFA0246FB684F
:1010E000D31A41F28832934201D9032360E0334B93
:1010F0005B6803F00C03082BEED110E0FFF74CFA0D
:101100000246FB68D31A41F28832934201D9032385
:101110004EE02A4B5B6803F00C03002BEED1264B0C
:101120001B6803F007033A689A4210D2224B1B68EF
:1011300023F0070220493B6813430B601E4B1B68DA
:1011400003F007033A689A4201D0012330E07B683C
:101150001B6803F00403002B08D0184B5B6823F4D2
:10116000E0627B68DB68154913434B607B681B6852
:1011700003F00803002B09D0104B5B6823F4605286
:101180007B681B69DB000D4913434B6000F01CF8C2
:1011900001460A4B5B681B0903F00F03084AD35C46
:1011A00021FA03F3074A13600020FFF7B3F9002385
:1011B00018461037BD4680BD002002400010024096
:1011C000641300080000002090B48AB000AF2A4BDE
:1011D0003C1D0FCB84E80F00284B1B883B8000236D
:1011E000FB610023BB6100237B6200237B61002342
:1011F0003B62234B5B68FB61FB6903F00C03042B30
:1012000002D0082B03D02DE01E4B3B622DE0FB6982
:101210009B0C03F00F0307F12802134413F8243C3E
:101220007B61FB6903F48033002B13D0144B5B68A4
:101230005B0C03F0010307F12802134413F8283C68
:10124000BB617B690F4A02FB03F2BB69B2FBF3F39C
:101250007B6204E07B690C4A02FB03F37B627B6ADE
:101260003B6202E0074B3B6200BF3B6A18462837EF
:10127000BD4690BC704700BF5013000860130008C3
:101280000010024000127A0000093D0080B485B0D1
:1012900000AF78600A4B1B680A4AA2FB03235B0A73
:1012A0007A6802FB03F3FB6000BFFB685A1EFA601A
:1012B000002BF9D100BF1437BD4680BC704700BF7A
:1012C00000000020D34D621080B500AFFFF704F995
:1012D000FEF74EFFFEF752FF0023184680BD0000C8
:1012E00070B500250C4E0D4CA41BA410A54209D1CD
:1012F00000F022F800250A4E0A4CA41BA410A542B7
:1013000005D170BD56F8253098470135EEE756F8FF
:10131000253098470135F2E774130008741300086C
:10132000741300087813000803460244934200D166
:10133000704703F8011BF9E7F8B500BFF8BC08BC1B
:101340009E467047F8B500BFF8BC08BC9E46704783
:1013500002030405060708090A0B0C0D0E0F1010F6
:101360000102000000000000000000000102030470
:04137000060708095B
:041374005501000817
:041378003101000837
:10137C0000A24A04000C014000100100000C0140C6
:10138C0000200100000C014000400100000C014055
:0C139C00008001001000000001000000B3
:04000005080003717B
:00000001FF
