:020000040800F2
:1000000000000120C50500089D040008A90400089F
:10001000AF040008B5040008BB040008000000009D
:10002000000000000000000000000000C104000803
:10003000CD04000800000000D9040008E504000811
:100040000D0600080D0600080D0600080D06000844
:100050000D0600080D0600080D0600080D06000834
:100060000D0600080D0600080D0600080D06000824
:100070000D0600080D0600080D0600080D06000814
:100080000D0600080D0600080D0600080D06000804
:10009000F10400080D0600080D0600080D06000812
:1000A0000D0600080D0600080D0600080D060008E4
:1000B0000D0600080D0600080D0600080D060008D4
:1000C0000D0600080D0600080D0600080D060008C4
:1000D0000D0600080D0600080D0600080D060008B4
:1000E0000D0600080D0600080D0600080D060008A4
:1000F0000D0600080D0600080D0600080D06000894
:100100000D0600080D0600080D0600080D06000883
:100110000D0600080D0600080D0600080D06000873
:100120000D0600080D0600080D0600080D06000863
:1001300000000000000000000000000000000000BF
:1001400000000000000000000000000000000000AF
:10015000000000000000000000000000000000009F
:10016000000000000000000000000000000000008F
:10017000000000000000000000000000000000007F
:10018000000000000000000000000000000000006F
:10019000000000000000000000000000000000005F
:1001A000000000000000000000000000000000004F
:1001B000000000000000000000000000000000003F
:1001C000000000000000000000000000000000002F
:1001D000000000000000000000000000000000001F
:0401E0005FF8E0F1F3
:1001E40010B5054C237833B9044B13B10448AFF36D
:1001F40000800123237010BD0402002000000000D1
:10020400E464000808B5034B1BB103490348AFF38A
:10021400008008BD0000000008020020E46400081B
:1002240080B500AF4FF46141002000F03DFB00BFFA
:1002340080BD000080B584B000AF4FF4FA73BB609A
:1002440000F049F8F86000F097FA0346012B01D951
:100254006423BB6000F03FF80246FB68D31ABA6817
:100264009A420DD800F037F8F860022000F03CFA0A
:1002740000F082FA03461A460A49002000F06CFB9B
:10028400002000F02BFB0346002BDCD0002000F004
:1002940038FB0346FB71FA79FB790349002000F02F
:1002A4005BFBD0E7FC6400081065000880B500AF74
:1002B40000F0BAFB00F016F800F076F800BF80BD3D
:1002C40080B582B000AF7860786800F00FFC00BFA2
:1002D4000837BD4680BD80B500AF00F0FDFB034686
:1002E400184680BD80B596B000AF07F130032822D0
:1002F4000021184605F0C0FC07F11C0300221A6017
:100304005A609A60DA601A613B1D00221A605A60D2
:100314009A60DA601A615A6105233B634FF48033B3
:100324007B630023BB630123FB6301233B64022340
:10033400FB644FF480333B654FF4E0137B6507F1B6
:100344003003184601F0F4FD0346002B01D000F001
:100354006BF80F23FB6102233B6200237B624FF4A3
:100364008063BB620023FB6207F11C030221184671
:1003740002F042F80346002B01D000F055F8112397
:100384007B604FF48073BB600023BB613B1D184648
:1003940002F0DCF90346002B01D000F045F800BF61
:1003A4005837BD4680BD000080B586B000AF07F168
:1003B400080300221A605A609A60DA60184B9B693D
:1003C400174A43F008039361154B9B6903F0080334
:1003D4007B607B68124B9B69114A43F00403936171
:1003E4000F4B9B6903F004033B603B6800224FF40E
:1003F40070410C4800F014FE4FF47043BB600123BD
:10040400FB6000233B6102237B6107F1080319466B
:10041400044800F097FC00BF1837BD4680BD00BFFC
:1004240000100240000C014080B400AF00BFBD4684
:1004340080BC704780B485B000AF154B9B69144AEB
:1004440043F001039361124B9B6903F00103BB600A
:10045400BB680F4BDB690E4A43F08053D3610C4BEE
:10046400DB6903F080537B607B680A4B5B68FB604D
:10047400FB6823F0E063FB60FB6843F00073FB6000
:10048400044AFB68536000BF1437BD4680BC704704
:10049400001002400000014080B400AF00BFBD4620
:1004A40080BC704780B400AFFEE780B400AFFEE7C5
:1004B40080B400AFFEE780B400AFFEE780B400AFC5
:1004C40000BFBD4680BC704780B400AF00BFBD46CE
:1004D40080BC704780B400AF00BFBD4680BC70478D
:1004E40080B500AF00F0E6FA00BF80BD80B500AF74
:1004F400024800F0BEFE00BF80BD00BF68120020AD
:1005040080B584B000AF7860114B1B68002B02D11A
:100514000F4B104A1A600E4B1B68FB600C4B1A6899
:100524007B6813446A46934207D905F07BFB024675
:100534000C2313604FF0FF3306E0054B1A687B6809
:100544001344034A1360FB6818461037BD4680BD48
:1005540020020020D016002080B400AF154B1B6889
:10056400144A43F001031360124B5A681149124BA9
:1005740013404B600F4B1B680E4A23F0847323F423
:10058400803313600B4B1B680A4A23F480231360E7
:10059400084B5B68074A23F4FE035360054B4FF492
:1005A4001F029A60054B4FF000629A6000BFBD467F
:1005B40080BC7047001002400000FFF800ED00E02E
:1005C400002103E00B4B5B58435004310A480B4BAA
:1005D40042189A42F6D30A4A02E0002342F8043B46
:1005E400084B9A42F9D3FFF7B7FF05F021FB05F05A
:1005F4000DFB7047E865000800000020040200209D
:1006040004020020CC160020FEE7000080B588B06C
:1006140000AF07F10C0300221A605A609A60DA6096
:100624001F4B9B691E4A43F0080393611C4B9B6953
:1006340003F00803BB60BB68194B9B69184A43F07D
:1006440004039361164B9B6903F004037B607B688E
:1006540001233B6100237B610223BB610023FB6117
:1006640017E0104AFB69DB0013449B88FB600D4ACA
:10067400FB6952F8333007F10C021146184600F0BA
:1006840061FBFB69DBB2184600F00EF8FB6901332D
:10069400FB61FB69032BE4DD00BF2037BD4680BD51
:1006A400001002400400002080B582B000AF034671
:1006B400FB71FB79032B11D8FB790A4A52F83300FA
:1006C400FB79084ADB0013449988FB79054ADB006F
:1006D4001344DB791A4600F0A3FC00E000BF08379E
:1006E400BD4680BD0400002080B582B000AF034643
:1006F400FB71FB79032B0CD8FB79084A52F83300C1
:10070400FB79064ADB0013449B88194600F0A0FCE1
:1007140000E000BF0837BD4680BD00BF04000020D4
:1007240080B582B000AF0123FB71114B5B6A03F00B
:100734008063002B12D0012000F058F803460133E7
:100744001946012000F062F84FF4FA70FFF7B8FD83
:10075400012000F04BF80246064B1A6000210120EC
:1007640000F054F8FB7918460837BD4680BD00BF39
:10077400001002402402002080B400AF024B1B682A
:100784001846BD4680BC70472402002080B582B064
:1007940000AF0123FB71124B9B69114A43F0100314
:1007A40093610F4B9B6903F010033B603B680D4B57
:1007B4000D4A1A600B4B4FF0FF325A60094B4FF44D
:1007C40080729A60074802F061F90346002B01D059
:1007D400FFF72AFEFB7918460837BD4680BD00BFE7
:1007E400001002405C0400200028004080B582B064
:1007F40000AF78607968044802F076FA0346184638
:100804000837BD4680BD00BF5C04002080B582B0BF
:1008140000AF786039603A687968034802F04AFAB0
:1008240000BF0837BD4680BD5C04002080B584B09D
:1008340000AF78607B681B680B4A934210D101F0CB
:100844006BFB0A4BDB69094A43F00063D361074B36
:10085400DB6903F00063FB60FB68054B01221A604F
:1008640000BF1037BD4680BD002800400010024084
:100874003C04424280B483B000AF00237B6007E0B5
:10088400084A7B68134400221A707B6801337B603A
:100894007B68002BF4DD012318460C37BD4680BC71
:1008A400704700BF2802002080B485B000AF034623
:1008B4003960FB710023FB73FB79002B06D1FB79B4
:1008C400054A0121D1540123FB7300BFFB7B184669
:1008D4001437BD4680BC70472802002080B584B020
:1008E40000AF0346FB710023FB60FB79002B03D1AF
:1008F40004F084FCF86000BFFB6818461037BD465E
:1009040080BD80B584B000AF0346FB710023FB7348
:10091400FB79002B04D104F08DFC0346FB7300BF6C
:10092400FB7B18461037BD4680BD80B586B000AF4E
:100934000346B9607A60FB7300237B61FB7B002B69
:1009440005D17968B86804F0C7FC786100BF7B6999
:1009540018461837BD4680BD0EB480B5C7B000AF89
:100964000246FB1D1A7007F5947207F10C031A6016
:1009740007F10C0307F110001B68D7F824214FF48A
:10098400807105F0ADF9C7F81401D7F8142107F107
:100994001001FB1D1B781846FFF7C7FFC7F81001AD
:1009A400D7F81031184607F58E77BD46BDE880406C
:1009B40003B0704780B586B000AF0123FB753B1DC3
:1009C40000221A605A609A60DA604FF480537B60A8
:1009D4001123BB600023FB6002233B613B1D1946CE
:1009E400084800F0AFF90023BB603B1D19460548D9
:1009F40000F0A8F904F0D2FBFB7D18461837BD4679
:100A040080BD00BF0008014080B500AFFFF74EFC79
:100A1400FFF7BCFEFFF784FEFFF7F8FDFFF7CAFF00
:100A2400FFF728FF00BF80BD80B500AF084B1B68EF
:100A3400074A43F010031360032000F041F900203B
:100A440000F008F8FFF7F6FC0023184680BD00BF4D
:100A54000020024080B582B000AF7860124B1A6863
:100A6400124B1B7819464FF47A73B3FBF1F3B2FBC4
:100A7400F3F3184600F059F90346002B01D0012383
:100A84000EE07B680F2B0AD8002279684FF0FF3004
:100A940000F021F9064A7B681360002300E001237B
:100AA40018460837BD4680BD0000002028000020FD
:100AB4002400002080B400AF054B1B781A46054B78
:100AC4001B681344034A136000BFBD4680BC7047D3
:100AD400280000207004002080B400AF024B1B6883
:100AE4001846BD4680BC70477004002080B584B0B1
:100AF40000AF7860FFF7F0FFB8607B68FB60FB68CD
:100B0400B3F1FF3F05D0094B1B781A46FB68134429
:100B1400FB6000BFFFF7E0FF0246BB68D31AFA6828
:100B24009A42F7D800BF1037BD4680BD2800002088
:100B340080B485B000AF78607B6803F00703FB6086
:100B44000C4BDB68BB60BA684FF6FF031340BB6015
:100B5400FB681A02BB68134343F0BF6343F40033DA
:100B6400BB60044ABB68D36000BF1437BD4680BC79
:100B7400704700BF00ED00E080B400AF044BDB68B9
:100B84001B0A03F007031846BD4680BC704700BF2C
:100B940000ED00E080B483B000AF0346FB71FB7945
:100BA40003F01F02064997F907305B09012000FA98
:100BB40002F241F8232000BF0C37BD4680BC7047C9
:100BC40000E100E080B483B000AF03463960FB71FC
:100BD40097F90730002B0BDA3B68DAB20C49FB7942
:100BE40003F00F03043B1201D2B20B441A7609E05E
:100BF4003B68DAB2074997F907301201D2B20B44C5
:100C040083F8002300BF0C37BD4680BC704700BF8B
:100C140000ED00E000E100E080B489B000AFF860CE
:100C2400B9607A60FB6803F00703FB61FB69C3F1F9
:100C34000703042B28BF0423BB61FB690433062B81
:100C440002D9FB69033B00E000237B614FF0FF32D4
:100C5400BB6902FA03F3DA43BB681A407B699A4022
:100C64004FF0FF317B6901FA03F3D9437B680B40F2
:100C7400134318462437BD4680BC704780B582B004
:100C840000AF78607B68013BB3F1807F01D301231F
:100C94000FE00A4A7B68013B53600F214FF0FF309D
:100CA400FFF790FF054B00229A60044B07221A605D
:100CB400002318460837BD4680BD00BF10E000E0A1
:100CC40080B582B000AF78607868FFF731FF00BF6D
:100CD4000837BD4680BD80B586B000AF0346B96015
:100CE4007A60FB7300237B61FFF746FF78617A68C3
:100CF400B9687869FFF790FF024697F90F301146FB
:100D04001846FFF75FFF00BF1837BD4680BD80B5AA
:100D140082B000AF0346FB7197F907301846FFF71E
:100D240039FF00BF0837BD4680BD80B582B000AF33
:100D340078607868FFF7A2FF034618460837BD4677
:100D440080BD000080B48BB000AF786039600023B0
:100D5400FB610023BB6100237B6100233B62002312
:100D64003B6100237B6233E101227B6A02FA03F3D5
:100D7400FB613B681B68FA691340BB61BA69FB6994
:100D84009A4240F022813B685B68122B34D0122BCC
:100D94000DD8022B2BD0022B04D8002B31D0012BE1
:100DA4001CD048E0032B43D0112B1BD043E08D4AC9
:100DB400934226D08B4A934206D88B4A934220D042
:100DC4008A4A93421DD036E0894A934219D0894A0F
:100DD400934216D0884A934213D02CE03B68DB68D8
:100DE4003B6228E03B68DB6804333B6223E03B68FA
:100DF400DB6808333B621EE03B68DB680C333B6214
:100E040019E03B689B68002B02D104233B6212E08B
:100E14003B689B68012B05D108233B627B68FA6918
:100E24001A6108E008233B627B68FA695A6102E0B0
:100E340000233B6200BFBB69FF2B01D87B6801E044
:100E44007B680433FB60BB69FF2B02D87B6A9B0081
:100E540002E07B6A083B9B003B61FB681A680F2138
:100E64003B6901FA03F3DB431A40396A3B6901FA2F
:100E740003F31A43FB681A603B685B6803F0805312
:100E8400002B00F0A2805D4B9B695C4A43F0010398
:100E940093615A4B9B6903F00103BB60BB68584ADA
:100EA4007B6A9B08023352F823307B617B6A03F030
:100EB40003039B000F2202FA03F3DB437A69134016
:100EC4007B617B684F4A93421FD07B684E4A9342B2
:100ED40019D07B684D4A934213D07B684C4A9342A5
:100EE4000DD07B684B4A934207D07B684A4A9342B1
:100EF40001D105230AE0062308E0042306E00323C6
:100F040004E0022302E0012300E000237A6A02F0F5
:100F14000302920093407A6913437B6138497B6AE8
:100F24009B0802337A6941F823203B685B6803F429
:100F34008033002B06D0394B1A683849BB691343F8
:100F44000B6006E0354B1A68BB69DB433349134039
:100F54000B603B685B6803F40033002B06D02F4B17
:100F64005A682E49BB6913434B6006E02B4B5A6801
:100F7400BB69DB43294913404B603B685B6803F45E
:100F84008013002B06D0254B9A682449BB69134370
:100F94008B6006E0214B9A68BB69DB431F49134011
:100FA4008B603B685B6803F40013002B06D01B4B7B
:100FB400DA681A49BB691343CB6006E0174BDA6859
:100FC400BB69DB4315491340CB607B6A01337B6209
:100FD4007B6A0F2B7FF6C8AE00BF2C37BD4680BCA2
:100FE400704700BF00002110000011100000121013
:100FF40000003110000032100000221000100240E6
:101004000000014000080140000C014000100140B4
:101014000014014000180140001C0140000401407C
:1010240080B483B000AF78600B467B8013467B703E
:101034007B78002B03D07A887B681A6103E07B8875
:101044001A047B681A6100BF0C37BD4680BC704728
:1010540080B483B000AF78600B467B807B68DA682D
:101064007B885A407B68DA6000BF0C37BD4680BC81
:101074007047F0B58BB006AF78600023FB607B68E7
:10108400002B01D10123CAE07B6893F82934DBB239
:10109400002B06D17B68002283F82824786804F0AA
:1010A40017FB7B68032283F829247B681B68184696
:1010B40001F060FE7B681B683B607E686D4606F14C
:1010C40010040FCC0FC523682B60331D0ECB38687A
:1010D40001F026FE7B681B680021184601F066FEBD
:1010E4000023FB6037E07A68FB685B011344293313
:1010F40001221A70FB68D9B27A68FB685B01134459
:1011040028330A461A70FB6899B27A68FB685B0157
:10111400134434330A461A807A68FB685B0113442B
:101124002B3300221A707A68FB685B01134438334E
:1011340000221A607A68FB685B0113443C33002286
:101144001A607A68FB6802335B01134400221A6058
:10115400FB680133FB60FB680E2BC4D90023FB60E2
:101164003CE07A68FB685B01134403F22923002204
:101174001A70FB68D9B27A68FB685B01134403F503
:101184000A730A461A70FB6899B27A68FB685B01B5
:10119400134434330A461A807A68FB685B011344AB
:1011A40003F22B2300221A707A68FB685B01134454
:1011B40003F50E7300221A607A68FB685B0113441E
:1011C40003F50F7300221A607A68FB6812335B011F
:1011D400134400221A60FB680133FB60FB680E2B8A
:1011E400BFD97B681B683B607E686D4606F11004BE
:1011F4000FCC0FC523682B60331D0ECB386801F06C
:10120400E1FD7B68002283F824207B68012283F8B7
:1012140029247B681B68184602F0CBFD002318467E
:101224001437BD46F0BD80B582B000AF78607B68EE
:1012340093F82834012B01D1022316E07B680122A4
:1012440083F828240121786804F0A9FC7B681B68D2
:10125400184602F0A4FD7B681B68184601F070FD77
:101264007B68002283F82824002318460837BD46EB
:1012740080BD80B582B000AF78607B681B6818467B
:1012840002F0A1FD034603F40043B3F5004F02D17D
:10129400786800F0D9FA7B681B68184602F093FD61
:1012A400034603F48063B3F5806F12D17B681B6837
:1012B400B3F844309AB27B681B6822F4806292B21D
:1012C400A3F84420786804F078FA0021786800F0E4
:1012D400D2F87B681B68184602F075FD034603F4D8
:1012E4008043B3F5804F0BD17B681B68B3F844305F
:1012F4009AB27B681B6822F4804292B2A3F844201D
:101304007B681B68184602F05EFD034603F4005335
:10131400B3F5005F0BD17B681B68B3F844309AB215
:101324007B681B6822F4005292B2A3F844207B68C5
:101334001B68184602F047FD034603F48053B3F5D7
:10134400805F26D17B681B68B3F840309AB27B6813
:101354001B6822F0040292B2A3F840207B681B6849
:10136400B3F840309AB27B681B6822F0080292B24C
:10137400A3F84020786804F059FA7B681B68B3F836
:1013840044309AB27B681B6822F4805292B2A3F86C
:1013940044207B681B68184602F015FD034603F4DD
:1013A4000063B3F5006F31D17B681B68B3F840303C
:1013B4009AB27B681B6842F0080292B2A3F84020FC
:1013C4007B681B68B3F844309AB27B681B6822F4CC
:1013D400006292B2A3F844207B681B68B3F84030E3
:1013E4009AB27B681B6842F0040292B2A3F84020D0
:1013F4007B681B68184602F0E6FC034603F480533E
:10140400B3F5805F02D0786804F0F6F97B681B6856
:10141400184602F0D8FC034603F40073B3F5007FCA
:101424000ED17B681B68B3F844309AB27B681B68A2
:1014340022F4007292B2A3F84420786804F0AFF961
:101444007B681B68184602F0BEFC034603F48073F5
:10145400B3F5807F0BD17B681B68B3F844309AB234
:101464007B681B6822F4807292B2A3F8442000BF08
:101474000837BD4680BD80B582B000AF78600B46AA
:10148400FB707B6893F82834012B01D1022313E00D
:101494007B68012283F828247B68FA7883F8242067
:1014A4007B681B68FA781146184602F065FC7B6875
:1014B400002283F82824002318460837BD4680BD3F
:1014C40080B584B000AF7860084611461A460346DA
:1014D400FB700B463B801346BB700023FB7200235A
:1014E400FB6097F90330002B08DAFB7803F07F03E5
:1014F4005B0128337A681344FB6008E0FB7803F04F
:101504007F035B0103F50A737A681344FB60FB787D
:1015140003F07F03DAB2FB681A7097F90330DBB289
:10152400DB09DBB21A46FB685A703A88FB681A6119
:10153400FB68BA78DA707B6893F82834012B01D100
:1015440002230EE07B68012283F828247B681B6851
:10155400F968184601F05AFC7B68002283F82824B5
:10156400FB7A18461037BD4680BD80B584B000AF05
:1015740078600B46FB700023FB6097F90330002B67
:1015840008DAFB7803F07F035B0128337A6813449D
:10159400FB6008E0FB7803F07F035B0103F50A734B
:1015A4007A681344FB60FB7803F07F03DAB2FB68CC
:1015B4001A7097F90330DBB2DB09DBB21A46FB6819
:1015C4005A707B6893F82834012B01D102230EE072
:1015D4007B68012283F828247B681B68F968184615
:1015E40001F0D6FE7B68002283F8282400231846E5
:1015F4001037BD4680BD80B586B000AFF8607A6014
:101604003B600B46FB7200237B61FB7A03F07F0394
:101614005B0103F50A73FA6813447B617B697A689A
:101624005A617B693A689A617B690022DA617B6955
:1016340000225A70FB7A03F07F03DAB27B691A70D6
:10164400FB7A03F07F03002B06D1FB681B687969E2
:10165400184602F025F805E0FB681B68796918460E
:1016640002F01EF8002318461837BD4680BD80B42A
:1016740083B000AF78600B46FB70FB7803F00F0378
:101684007A6812335B01134404331B689BB2184617
:101694000C37BD4680BC704780B586B000AFF8609B
:1016A4007A603B600B46FB7200237B61FB7A03F09C
:1016B4007F035B012833FA6813447B617B697A6892
:1016C4005A617B693A689A617B690022DA617B69B5
:1016D40001225A70FB7A03F07F03DAB27B691A7035
:1016E400FB7A03F07F03002B06D1FB681B68796942
:1016F400184601F0D5FF05E0FB681B6879691846B8
:1017040001F0CEFF002318461837BD4680BD80B5D2
:1017140084B000AF78600B46FB700023FB6097F940
:101724000330002B08DAFB7803F07F035B012833D6
:101734007A681344FB6006E0FB785B0103F50A73E7
:101744007A681344FB60FB6801229A70FB7803F00B
:101754007F03DAB2FB681A7097F90330DBB2DB0956
:10176400DBB21A46FB685A707B6893F82834012B65
:1017740001D102231CE07B68012283F828247B68C2
:101784001B68F968184602F00DFAFB7803F07F0332
:10179400002B08D17B681A687B6803F22C43194636
:1017A400104602F021FB7B68002283F828240023E2
:1017B40018461037BD4680BD80B584B000AF786050
:1017C4000B46FB700023FB6097F90330002B08DA0B
:1017D400FB7803F07F035B0128337A681344FB60D2
:1017E40006E0FB785B0103F50A737A681344FB6037
:1017F400FB6800229A70FB7803F07F03DAB2FB687F
:101804001A7097F90330DBB2DB09DBB21A46FB68C6
:101814005A707B6893F82834012B01D102230EE01F
:101824007B68012283F828247B681B68F9681846C2
:1018340002F018FA7B68002283F828240023184653
:101844001037BD4680BD000090B589B000AF786008
:101854000023FB6100237B8300237B760023FB8131
:101864000023BB8108E3FB899BB2DBB203F00F03C7
:101874007B767B7E002B40F02A81FB899BB203F0B0
:101884001003002B4DD17B681B681B889BB27A68C0
:10189400126823F4E14323F070039BB213807B6846
:1018A4002833FB617B681B68B3F850309BB21A463F
:1018B400FB691B78DB00134402335B007A6812680F
:1018C400134403F580631B689BB2C3F30902FB69ED
:1018D400DA61FB695A69FB69DB691A44FB695A617D
:1018E4000021786803F044FF7B6893F82430DBB26E
:1018F400002B00F0C182FB699B69002B40F0BC8285
:101904007B6893F82430DBB263F07F03DAB27B6840
:101914001B6892B2A3F84C207B68002283F8242031
:10192400AAE27B6803F50A73FB617B681B681B886A
:101934009BB2BB81BB899BB203F40063002B31D003
:101944007B681B68B3F850309BB21A46FB691B785E
:10195400DB00134406335B007A681268134403F512
:1019640080631B689BB2C3F30902FB69DA617B687D
:1019740018687B6803F22C41FB699A88FB69DB6970
:101984009BB202F082FA7B681B681B8899B27B6861
:101994001A6840F68F730B409BB21380786803F08B
:1019A400BDFE69E2BB899BB21BB2002B80F264824C
:1019B4007B681B681B8899B27B681A6840F68F7332
:1019C4000B409BB213807B681B68B3F850309BB20A
:1019D4001A46FB691B78DB00134406335B007A6804
:1019E4001268134403F580631B689BB2C3F30902B6
:1019F400FB69DA61FB69DB69002B11D07B6818682D
:101A0400FB695969FB699A88FB69DB699BB202F03F
:101A14003CFAFB695A69FB69DB691A44FB695A6140
:101A24000021786803F08CFE7B681B68B3F85030A3
:101A34009BB206335B007A681268134403F5806333
:101A44003B61FB691B693E2B18D9FB691B695B0968
:101A5400FB82FB691B6903F01F03002B02D1FB8A85
:101A6400013BFB82FB8A9B029BB26FEA43436FEA12
:101A740053439BB21A463B691A6012E0FB691B6927
:101A84005B08FB82FB691B6903F00103002B02D096
:101A9400FB8A0133FB82FB8A9B029BB21A463B6999
:101AA4001A607B681B681B889BB223F4804323F075
:101AB40070039CB284F480539CB284F400539CB2AF
:101AC4007B681A68984B23439BB21380D4E17B68EC
:101AD4001B681A467B7E9B0013441B889BB2BB8108
:101AE400BB899BB21BB2002B80F2D0807B681B6841
:101AF4001A467B7E9B0013441B8899B27B681B6843
:101B04001A467B7E9B001A4440F68F730B409BB2AF
:101B140013807B7E5B0103F50A737A681344FB61CF
:101B2400FB699B7A002B22D17B681B68B3F8503089
:101B34009BB21A46FB691B78DB00134406335B0037
:101B44007A681268134403F580631B689BB2C3F37D
:101B540009037B837B8B002B73D07B681868FB693C
:101B64005969FB699A887B8B02F08FF969E07B687D
:101B74001B681A46FB691B789B0013441B889BB2A5
:101B840003F48043002B22D07B681B68B3F85030E9
:101B94009BB21A46FB691B78DB00134402335B00DB
:101BA4007A681268134403F580631B689BB2C3F31D
:101BB40009037B837B8B002B2BD07B681868FB6924
:101BC4005969FB69DA887B8B02F05FF921E07B6855
:101BD4001B68B3F850309BB21A46FB691B78DB00D4
:101BE400134406335B007A681268134403F5806378
:101BF4001B689BB2C3F309037B837B8B002B08D048
:101C04007B681868FB695969FB691A897B8B02F048
:101C14003CF97B681B681A46FB691B789B001344DC
:101C24001B889AB240F60F73134099B27B681B6805
:101C34001A46FB691B789B001A443C4B0B439BB22E
:101C44001380FB69DA697B8B1A44FB69DA61FB69EF
:101C54005A697B8B1A44FB695A61FB699B69002BA7
:101C640004D07A8BFB691B699A4206D2FB691B7804
:101C74001946786803F064FD08E0FB691978FB698C
:101C84005A69FB699B697868FFF7B5FCBB899BB20D
:101C940003F08003002B00F0EF807B7E5B01283390
:101CA4007A681344FB617B681B681A467B7E9B0041
:101CB40013441B889BB27A68126811467A7E92009C
:101CC4000A4423F4E14323F070039BB21380FB69BD
:101CD4009B7A002B2CD17B681B68B3F850309BB2E5
:101CE4001A46FB691B78DB00134402335B007A68F5
:101CF4001268134403F580631B689BB2C3F30902A3
:101D0400FB69DA61FB69DB69002B00F083807B6887
:101D14001868FB695969FB699A88FB69DB699BB29E
:101D240002F06DF876E000BF8080FFFFC080FFFF07
:101D34007B681B681A46FB691B789B0013441B884D
:101D44009BB203F04003002B26D07B681B68B3F8DA
:101D540050309BB21A46FB691B78DB0013440233F4
:101D64005B007A681268134403F580631B689BB2B6
:101D7400C3F30902FB69DA61FB69DB69002B31D02B
:101D84007B681868FB695969FB69DA88FB69DB6958
:101D94009BB202F034F825E07B681B68B3F850303E
:101DA4009BB21A46FB691B78DB00134406335B00C5
:101DB4007A681268134403F580631B689BB2C3F30B
:101DC4000902FB69DA61FB69DB69002B0AD07B68D5
:101DD4001868FB695969FB691A89FB69DB699BB25D
:101DE40002F00DF87B681B681A46FB691B789B00A0
:101DF40013441B889AB240F60F73134099B27B6860
:101E04001B681A46FB691B789B001A44224B0B4340
:101E14009BB213807B681B68B3F850309BB21A46A0
:101E2400FB691B78DB00134402335B007A68126899
:101E3400134403F580631B689BB2C3F30902FB6977
:101E4400DA61FB695A69FB69DB691A44FB695A6107
:101E5400FB699B69002B06D1FB691B7819467868DE
:101E640003F086FC08E0FB691978FB695A69FB6991
:101E74009B697868FFF710FC7B681B68B3F84430F3
:101E84009BB21A46FA811BB2002BFFF6ECAC00237E
:101E940018462437BD4690BD80C0FFFF80B487B08C
:101EA40000AFF8607B600B467B8113463B810023C7
:101EB4007B617B8903F08003002B08D07B8903F0CE
:101EC4007F035B012833FA6813447B6106E07B8956
:101ED4005B0103F50A73FA6813447B613B89002BA9
:101EE40007D17B6900229A727B689AB27B699A80D7
:101EF4000BE07B6901229A727B689AB27B69DA8073
:101F04007B681B0C9AB27B691A81002318461C3724
:101F1400BD4680BC7047000080B400AF034B012273
:101F24001A6000BFBD4680BC704700BF20000E424F
:101F340080B586B000AF786000233B617B681B6886
:101F440003F00103002B00F08780924B5B6803F0E1
:101F54000C03042B0CD08F4B5B6803F00C03082B91
:101F640012D18C4B5B6803F48033B3F5803F0BD103
:101F7400884B1B6803F40033002B6CD07B685B68D0
:101F8400002B68D101232DE27B685B68B3F5803FA9
:101F940006D1804B1B687F4A43F4803313602EE0E4
:101FA4007B685B68002B0CD17A4B1B68794A23F45D
:101FB40080331360774B1B68764A23F480231360C5
:101FC4001DE07B685B68B3F5A02F0CD1714B1B68D7
:101FD400704A43F4802313606E4B1B686D4A43F4CC
:101FE400803313600BE06B4B1B686A4A23F4803325
:101FF4001360684B1B68674A23F4802313607B6873
:102004005B68002B13D0FEF767FD386108E0FEF72C
:1020140063FD02463B69D31A642B01D90323E1E132
:102024005C4B1B6803F40033002BF0D014E0FEF784
:1020340053FD386108E0FEF74FFD02463B69D31AB1
:10204400642B01D90323CDE1524B1B6803F4003305
:10205400002BF0D100E000BF7B681B6803F0020393
:10206400002B63D04B4B5B6803F00C03002B0BD0AD
:10207400484B5B6803F00C03082B1CD1454B5B6891
:1020840003F48033002B16D1424B1B6803F0020388
:10209400002B05D07B681B69012B01D00123A1E132
:1020A4003C4B1B6823F0F8027B685B69DB00394911
:1020B40013430B603AE07B681B69002B20D0364B3E
:1020C40001221A60FEF708FD386108E0FEF704FDFE
:1020D40002463B69D31A022B01D9032382E12D4B1B
:1020E4001B6803F00203002BF0D02A4B1B6823F07B
:1020F400F8027B685B69DB00264913430B6015E03B
:10210400254B00221A60FEF7E7FC386108E0FEF771
:10211400E3FC02463B69D31A022B01D9032361E194
:102124001C4B1B6803F00203002BF0D17B681B6877
:1021340003F00803002B39D07B689B69002B19D06E
:10214400164B01221A60FEF7C7FC386108E0FEF75F
:10215400C3FC02463B69D31A022B01D9032341E194
:102164000C4B5B6A03F00203002BF0D0012000F05B
:10217400CFFA1BE0094B00221A60FEF7ADFC386170
:102184000EE0FEF7A9FC02463B69D31A022B07D9DD
:10219400032327E10010024000004242800442422F
:1021A400924B5B6A03F00203002BEAD17B681B6845
:1021B40003F00403002B00F0A6800023FB758B4B77
:1021C400DB6903F08053002B0DD1884BDB69874A10
:1021D40043F08053D361854BDB6903F08053FB608C
:1021E400FB680123FB75824B1B6803F48073002B8F
:1021F40018D17F4B1B687E4A43F480731360FEF74B
:102204006BFC386108E0FEF767FC02463B69D31AB1
:10221400642B01D90323E5E0754B1B6803F4807339
:10222400002BF0D07B68DB68012B06D16F4B1B6A57
:102234006E4A43F0010313622DE07B68DB68002BD8
:102244000CD16A4B1B6A694A23F001031362674B82
:102254001B6A664A23F0040313621CE07B68DB6894
:10226400052B0CD1614B1B6A604A43F004031362D3
:102274005E4B1B6A5D4A43F0010313620BE05B4B48
:102284001B6A5A4A23F001031362584B1B6A574ACC
:1022940023F0040313627B68DB68002B15D0FEF780
:1022A4001BFC38610AE0FEF717FC02463B69D31AAF
:1022B40041F28832934201D9032393E04B4B1B6ACA
:1022C40003F00203002BEED014E0FEF705FC3861A6
:1022D4000AE0FEF701FC02463B69D31A41F2883258
:1022E400934201D903237DE0404B1B6A03F00203B0
:1022F400002BEED1FB7D012B05D13C4BDB693B4A26
:1023040023F08053D3617B68DB69002B69D0374BA2
:102314005B6803F00C03082B61D07B68DB69022B3C
:1023240046D1344B00221A60FEF7D6FB386108E030
:10233400FEF7D2FB02463B69D31A022B01D90323D1
:1023440050E02A4B1B6803F00073002BF0D17B682C
:102354001B6AB3F5803F08D1244B5B6823F4003239
:102364007B689B68214913434B60204B5B6823F4D3
:1023740074127B68196A7B685B6A0B431B491343BD
:102384004B601C4B01221A60FEF7A6FB386108E083
:10239400FEF7A2FB02463B69D31A022B01D90323A1
:1023A40020E0124B1B6803F00073002BF0D018E000
:1023B400104B00221A60FEF78FFB386108E0FEF72D
:1023C4008BFB02463B69D31A022B01D9032309E094
:1023D400064B1B6803F00073002BF0D101E00123CE
:1023E40000E0002318461837BD4680BD00100240A7
:1023F400007000406000424280B584B000AF786055
:1024040039600023FB607E4B1B6803F007033A68C6
:102414009A4210D97A4B1B6823F0070278493B682B
:1024240013430B60764B1B6803F007033A689A4228
:1024340001D00123E0E07B681B6803F00203002B5A
:1024440020D07B681B6803F00403002B05D06D4B80
:102454005B686C4A43F4E06353607B681B6803F079
:102464000803002B05D0674B5B68664A43F460534E
:102474005360644B5B6823F0F0027B689B6861499E
:1024840013434B607B681B6803F00103002B6AD085
:102494007B685B68012B07D15A4B1B6803F400333C
:1024A400002B15D10123A7E07B685B68022B07D1C1
:1024B400544B1B6803F00073002B09D101239BE0EC
:1024C400504B1B6803F00203002B01D1012393E05E
:1024D4004C4B5B6823F003027B685B6849491343F8
:1024E4004B60FEF7F9FAF8607B685B68012B12D148
:1024F4000AE0FEF7F1FA0246FB68D31A41F2883289
:10250400934201D9032377E03E4B5B6803F00C034D
:10251400042BEED127E07B685B68022B1DD10AE017
:10252400FEF7DAFA0246FB68D31A41F28832934284
:1025340001D9032360E0334B5B6803F00C03082BE1
:10254400EED110E0FEF7C8FA0246FB68D31A41F256
:102554008832934201D903234EE02A4B5B6803F08F
:102564000C03002BEED1264B1B6803F007033A68DB
:102574009A4210D2224B1B6823F0070220493B6881
:1025840013430B601E4B1B6803F007033A689A421F
:1025940001D0012330E07B681B6803F00403002BA7
:1025A40008D0184B5B6823F4E0627B68DB6815494C
:1025B40013434B607B681B6803F00803002B09D0AE
:1025C400104B5B6823F460527B681B69DB000D4988
:1025D40013434B6000F01CF801460A4B5B681B096F
:1025E40003F00F03084AD35C21FA03F3074A13608C
:1025F4000020FEF72FFA002318461037BD4680BD91
:1026040000200240001002409465000800000020F1
:1026140090B48AB000AF2A4B3C1D0FCB84E80F0066
:10262400284B1B883B800023FB610023BB610023F4
:102634007B6200237B6100233B62234B5B68FB616D
:10264400FB6903F00C03042B02D0082B03D02DE00C
:102654001E4B3B622DE0FB699B0C03F00F0307F15B
:102664002802134413F8243C7B61FB6903F4803390
:10267400002B13D0144B5B685B0C03F0010307F1D0
:102684002802134413F8283CBB617B690F4A02FB00
:1026940003F2BB69B2FBF3F37B6204E07B690C4A8F
:1026A40002FB03F37B627B6A3B6202E0074B3B6203
:1026B40000BF3B6A18462837BD4690BC704700BF30
:1026C40024650008346500080010024000127A00F6
:1026D40000093D0080B400AF024B1B681846BD469C
:1026E40080BC70470000002080B500AFFFF7F2FF08
:1026F4000146054B5B68DB0A03F00703034AD35C1E
:1027040021FA03F3184680BD00100240A4650008B6
:1027140080B485B000AF78600A4B1B680A4AA2FBFC
:1027240003235B0A7A6802FB03F3FB6000BFFB68C8
:102734005A1EFA60002BF9D100BF1437BD4680BC85
:10274400704700BF00000020D34D621080B586B0F2
:1027540000AF786000233B610023FB607B681B684B
:1027640003F00103002B7DD00023FB754F4BDB6985
:1027740003F08053002B0DD14C4BDB694B4A43F0E3
:102784008053D361494BDB6903F08053BB60BB6862
:102794000123FB75464B1B6803F48073002B18D18F
:1027A400434B1B68424A43F480731360FEF794F969
:1027B400386108E0FEF790F902463B69D31A642BAE
:1027C40001D903236DE03A4B1B6803F48073002B9B
:1027D400F0D0364B1B6A03F44073FB60FB68002B9C
:1027E4002ED07B685B6803F44073FA689A4227D062
:1027F4002E4B1B6A23F44073FB602E4B01221A609C
:102804002C4B00221A60294AFB681362FB6803F010
:102814000103002B14D0FEF75FF938610AE0FEF7DC
:102824005BF902463B69D31A41F28832934201D9DB
:10283400032336E01D4B1B6A03F00203002BEED08A
:102844001A4B1B6A23F440727B685B681749134375
:102854000B62FB7D012B05D1144BDB69134A23F07A
:102864008053D3617B681B6803F00203002B08D0FC
:102874000E4B5B6823F440427B689B680B4913430F
:102884004B607B681B6803F01003002B08D0074BD8
:102894005B6823F480027B685B69044913434B60E3
:1028A400002318461837BD4680BD00BF0010024003
:1028B400007000404004424290B58DB000AF786093
:1028C4006C4B07F10C040FCB84E80F006A4B1B8898
:1028D4003B8100237B620023FB6200233B620023D5
:1028E400FB610023BB627B68013B0F2B00F2B980C4
:1028F40001A252F823F000BFDF2900084B2A000888
:10290400672A0008CF290008672A0008672A0008F8
:10291400672A0008D7290008672A0008672A0008E0
:10292400672A0008672A0008672A0008672A00083F
:10293400672A00083D290008504B5B68FB614F4B38
:102944001B6803F08073002B00F08D80FB699B0CE7
:1029540003F00F0307F13002134413F8243C3B62E5
:10296400FB6903F48033002B18D0444B5B685B0C89
:1029740003F0010307F13002134413F8283C7B628F
:10298400FB6903F48033002B0DD03D4A7B6AB2FB14
:10299400F3F23B6A02FB03F3FB6204E03B6A394A4D
:1029A40002FB03F3FB62354B5B6803F48003B3F56E
:1029B400800F02D1FB6ABB6255E0FB6A5B00324ABE
:1029C400A2FB03235B08BB624DE0FFF721FEB86264
:1029D4004AE0FFF71DFEB86246E0284B1B6AFB6124
:1029E400FB6903F44073B3F5807F08D1FB6903F0FE
:1029F4000203002B03D04FF40043BB6222E0FB69C7
:102A040003F44073B3F5007F09D11C4B5B6A03F0F8
:102A14000203002B03D049F64043BB6212E0FB697A
:102A240003F44073B3F5407F09D1144B1B6803F4DE
:102A34000033002B03D04FF22443BB6202E0002397
:102A4400BB6211E010E0FFF74FFE02460B4B5B68E0
:102A54009B0B03F0030301335B00B2FBF3F3BB6294
:102A640002E000BF00E000BFBB6A18463437BD4631
:102A740090BD00BF3865000848650008001002409A
:102A840000127A0000093D00ABAAAAAA80B584B05E
:102A940000AF78600023FB607B68002B01D1012329
:102AA40084E07B685B7CDBB2002B05D17B68002271
:102AB4001A747868FDF7BAFE7B6802225A74786843
:102AC40000F07AF80346002B04D07B6804225A7481
:102AD40001236BE0786800F09CF80346002B04D0D7
:102AE4007B6804225A74012360E07B681B685A687F
:102AF4007B681B6822F007025A607B689B68002B86
:102B040005D02C4B1B6B2B4A23F001031363294B79
:102B1400DB6A23F460727B689B6826491343CB62AB
:102B24007B685B68B3F1FF3F03D07B685B68FB6045
:102B34000EE00120FFF7C0FEF860FB68002B04D113
:102B44007B6804225A74012330E0FB68013BFB607C
:102B54007B681B689B6823F00F01FB681A0C7B6879
:102B64001B680A439A607B681B68DB681B0C1B04A8
:102B7400FA6891B27A6812680B43D360786800F0FF
:102B840070F80346002B04D07B6804225A74012396
:102B94000CE07B680022DA737B6801225A737B683D
:102BA40001229A737B6801225A7400231846103755
:102BB400BD4680BD006C004080B584B000AF786035
:102BC4000023FB607B68002B01D101231DE07B689F
:102BD4001B685A687B681B6822F008025A60FDF77C
:102BE4007BFFF86009E0FDF777FF0246FB68D31A24
:102BF400B3F57A7F01D9032307E07B681B685B6820
:102C040003F00803002BEED0002318461037BD460E
:102C140080BD80B584B000AF78600023FB60FDF711
:102C24005BFFF86009E0FDF757FF0246FB68D31A23
:102C3400B3F57A7F01D903230FE07B681B685B68D7
:102C440003F02003002BEED07B681B685A687B6876
:102C54001B6842F010025A60002318461037BD4624
:102C640080BD80B584B000AF78600023FB607B68D2
:102C74001B685A687B681B6822F010025A60FDF7D3
:102C84002BFFF86009E0FDF727FF0246FB68D31A23
:102C9400B3F57A7F01D9032307E07B681B685B687F
:102CA40003F02003002BEED0002318461037BD4656
:102CB40080BD000080B487B000AFF860B9607A606E
:102CC40000237B61074B7B61BB689B007A691344DB
:102CD4007B617B697A6892B21A6000BF1C37BD467B
:102CE40080BC7047006C004080B485B000AF786051
:102CF40039600023FB600023BB60084BFB603B682A
:102D04009B00FA681344FB60FB681B689BB2BB60C2
:102D1400BB6818461437BD4680BC7047006C004041
:102D240084B080B483B000AF786007F1140080E809
:102D34000E00002318460C37BD4680BC04B0704713
:102D440080B485B000AF78600023FB604FF43F434C
:102D5400FB607B68B3F840309AB2FB689BB21343C4
:102D64009AB27B68A3F84020002318461437BD4666
:102D740080BC704780B485B000AF78600023FB60EE
:102D84004FF43D43FB607B68B3F840309AB2FB6874
:102D94009BB2DB439BB213409AB27B68A3F84020FA
:102DA400002318461437BD4680BC704780B483B0F6
:102DB40000AF78600B46FB70002318460C37BD4605
:102DC40080BC704784B080B582B000AF786007F1F2
:102DD400140080E80E007B680122A3F840207B6881
:102DE4000022A3F840207B680022A3F844207B68DB
:102DF4000022A3F850207868FFF7A2FF00231846AA
:102E04000837BD46BDE8804004B0704790B484B034
:102E140000AF786039603B68DB78032B5FD801A290
:102E240052F823F0392E0008B72E0008652E00084A
:102E34008B2E00087A683B681B789B0013441B8820
:102E44009BB223F4EC4323F070039AB279683B6895
:102E54001B789B000B4442F4007292B21A803FE04C
:102E64007A683B681B789B0013441B889BB2796883
:102E74003A68127892000A4423F4EC4323F0700376
:102E84009BB213802CE07A683B681B789B00134448
:102E94001B889BB223F4EC4323F070039AB2796845
:102EA4003B681B789B000B4442F4C06292B21A80C8
:102EB40016E07A683B681B789B0013441B889BB21E
:102EC40023F4EC4323F070039AB279683B681B78CF
:102ED4009B000B4442F4806292B21A8000E000BF6F
:102EE4007A683B681B789B0013441B889AB240F6AF
:102EF4000F7313409AB23B681B789BB2134399B289
:102F04007A683B681B789B001A44754B0B439BB251
:102F140013803B689B7A002B40F0E8803B685B7829
:102F2400002B4CD03B689B885B089BB259007B68A4
:102F3400B3F850309BB21A463B681B78DB0013444D
:102F44005A007B68134403F580630A461A607A6862
:102F54003B681B789B0013441B889BB203F040031F
:102F6400002B13D07A683B681B789B0013441B88A2
:102F74009AB240F60F73134099B27A683B681B7893
:102F84009B001A44574B0B439BB213807A683B68EF
:102F94001B789B0013441B889BB223F4E04323F06B
:102FA40040039CB284F020039CB27A683B681B788F
:102FB4009B001A444A4B23439BB21380D9E13B68DC
:102FC4009B885B089BB259007B68B3F850309BB276
:102FD4001A463B681B78DB00134404335A007B68B1
:102FE400134403F580630A461A607B68B3F85030D3
:102FF4009BB21A463B681B78DB00134406335A0025
:103004007B68134403F58063BB603B681B693E2BFC
:1030140018D93B681B695B09FB813B681B6903F09A
:103024001F03002B02D1FB89013BFB81FB899B021F
:103034009BB26FEA43436FEA53439BB21A46BB68A1
:103044001A6012E03B681B695B08FB813B681B69E3
:1030540003F00103002B02D0FB890133FB81FB89C0
:103064009B029BB21A46BB681A607A683B681B785D
:103074009B0013441B889BB203F48043002B13D0A2
:103084007A683B681B789B0013441B889AB240F60D
:103094000F73134099B27A683B681B789B001A44FB
:1030A400114B0B439BB213807A683B681B789B00DF
:1030B40013441B889BB223F4804323F070039CB217
:1030C40084F480539CB284F400539CB27A683B68C5
:1030D4001B789B001A44024B23439BB2138048E1A4
:1030E4008080FFFFC080FFFF80C0FFFF7A683B68DD
:1030F4001B789B0013441B889AB240F60F6313405D
:1031040099B27A683B681B789B001A449C4B0B432A
:103114009BB213803B68DB885B089BB259007B68D9
:10312400B3F850309BB21A463B681B78DB0013445B
:103134005A007B68134403F580630A461A603B68AF
:103144001B895B089BB259007B68B3F850309BB273
:103154001A463B681B78DB00134404335A007B682F
:10316400134403F580630A461A603B685B78002BBE
:1031740040F083807A683B681B789B0013441B886B
:103184009BB203F48043002B13D07A683B681B780E
:103194009B0013441B889AB240F60F73134099B2F4
:1031A4007A683B681B789B001A44764B0B439BB2AE
:1031B40013807A683B681B789B0013441B889BB27E
:1031C40003F04003002B13D07A683B681B789B0004
:1031D40013441B889AB240F60F73134099B27A686D
:1031E4003B681B789B001A44674B0B439BB21380CC
:1031F4007A683B681B789B0013441B889AB240F69C
:103204000F73134099B27A683B681B789B001A4489
:103214005D4B0B439BB213807A683B681B789B0021
:1032240013441B889BB223F4804323F070039CB2A5
:1032340084F480539CB284F400539CB27A683B6853
:103244001B789B001A44514B23439BB213807A682A
:103254003B681B789B0013441B889BB223F4E04318
:1032640023F040039CB27A683B681B789B001A44A5
:10327400464B23439BB213807BE07A683B681B7800
:103284009B0013441B889BB203F48043002B13D090
:103294007A683B681B789B0013441B889AB240F6FB
:1032A4000F73134099B27A683B681B789B001A44E9
:1032B400344B0B439BB213807A683B681B789B00AA
:1032C40013441B889BB203F04003002B13D07A688D
:1032D4003B681B789B0013441B889AB240F60F731B
:1032E400134099B27A683B681B789B001A44264BBA
:1032F4000B439BB213807A683B681B789B00134492
:103304001B889AB240F60F73134099B27A683B68EF
:103314001B789B001A441B4B0B439BB213807A68A7
:103324003B681B789B0013441B889BB223F4E04347
:1033340023F040039CB27A683B681B789B001A44D4
:10334400124B23439BB213807A683B681B789B0023
:1033540013441B889BB223F4804323F070039CB274
:103364007A683B681B789B001A44084B23439BB242
:103374001380002318461037BD4690BC704700BF29
:103384008081FFFF80C0FFFFC080FFFF8080FFFFC0
:1033940090B482B000AF786039603B689B7A002BB0
:1033A4006DD13B685B78002B34D07A683B681B781E
:1033B4009B0013441B889BB203F04003002B13D0E3
:1033C4007A683B681B789B0013441B889AB240F6CA
:1033D4000F73134099B27A683B681B789B001A44B8
:1033E400684B0B439BB213807A683B681B789B0045
:1033F40013441B889BB223F4E04323F040039CB2A4
:103404007A683B681B789B001A445F4B23439BB24A
:10341400138039E17A683B681B789B0013441B884E
:103424009BB203F48043002B13D07A683B681B786B
:103434009B0013441B889AB240F60F73134099B251
:103444007A683B681B789B001A44504B0B439BB231
:1034540013807A683B681B789B0013441B889BB2DB
:1034640023F4804323F070039CB27A683B681B7892
:103474009B001A44444B23439BB2138004E13B68F2
:103484005B78002B40F084807A683B681B789B0053
:1034940013441B889BB203F48043002B13D07A6837
:1034A4003B681B789B0013441B889AB240F60F7349
:1034B400134099B27A683B681B789B001A44334BDB
:1034C4000B439BB213807A683B681B789B001344C0
:1034D4001B889BB203F04003002B13D07A683B682F
:1034E4001B789B0013441B889AB240F60F73134059
:1034F40099B27A683B681B789B001A44214B0B43B2
:103504009BB213807A683B681B789B0013441B882A
:103514009AB240F60F73134099B27A683B681B78ED
:103524009B001A44174B0B439BB213807A683B6889
:103534001B789B0013441B889BB223F4804323F025
:1035440070039CB27A683B681B789B001A440E4B4C
:1035540023439BB213807A683B681B789B00134417
:103564001B889BB223F4E04323F040039CB27A68A7
:103574003B681B789B001A44034B23439BB2138084
:1035840082E000BFC080FFFF8080FFFF80C0FFFF9C
:103594007A683B681B789B0013441B889BB203F436
:1035A4008043002B13D07A683B681B789B0013443C
:1035B4001B889AB240F60F73134099B27A683B683D
:1035C4001B789B001A44334B0B439BB213807A68DD
:1035D4003B681B789B0013441B889BB203F0400399
:1035E400002B13D07A683B681B789B0013441B881C
:1035F4009AB240F60F73134099B27A683B681B780D
:103604009B001A44244B0B439BB213807A683B689B
:103614001B789B0013441B889AB240F60F73134027
:1036240099B27A683B681B789B001A44194B0B4388
:103634009BB213807A683B681B789B0013441B88F9
:103644009BB223F4E04323F040039CB27A683B68C6
:103654001B789B001A44114B23439BB213807A6856
:103664003B681B789B0013441B889BB223F4804364
:1036740023F070039CB27A683B681B789B001A4461
:10368400064B23439BB21380002318460837BD46DC
:1036940090BC704780C0FFFFC080FFFF8080FFFFA9
:1036A40090B58DB000AF786039600023FB853B682E
:1036B4009B69BB623B685B78012B40F049813B68A6
:1036C4009A693B681B699A4209D93B681B69BB62CA
:1036D4003B689A69BB6AD21A3B689A6105E03B6809
:1036E4009B69BB623B6800229A613B689B7A002B12
:1036F4001BD13B6859693B689A88BB6A9BB278685E
:1037040000F07DFB7B68B3F850309BB21A463B68EF
:103714001B78DB00134402335A007B68134403F51F
:1037240080631A46BB6A1360F6E07A683B681B78CC
:103734009B0013441B889BB203F04003002B59D019
:103744003B685B78002B3BD17B68B3F850309BB26D
:103754001A463B681B78DB00134406335A007B6827
:10376400134403F58063BB60BB6A3E2B16D9BB6A66
:103774005B09FB84BB6A03F01F03002B02D1FB8CA3
:10378400013BFB84FB8C9B029BB26FEA43436FEAD1
:1037940053439BB21A46BB681A6027E0BB6A5B08B6
:1037A400FB84BB6A03F00103002B02D0FB8C0133C2
:1037B400FB84FB8C9B029BB21A46BB681A6015E023
:1037C4003B685B78012B11D17B68B3F850309BB216
:1037D4001A463B681B78DB00134402335A007B68AB
:1037E400134403F580631A46BB6A13603B681B8964
:1037F400FB8558E03B685B78002B3BD17B68B3F8D2
:1038040050309BB21A463B681B78DB0013440233EA
:103814005A007B68134403F58063FB60BB6A3E2B4C
:1038240016D9BB6A5B09BB84BB6A03F01F03002B78
:1038340002D1BB8C013BBB84BB8C9B029BB26FEA65
:1038440043436FEA53439BB21A46FB681A6027E06E
:10385400BB6A5B08BB84BB6A03F00103002B02D084
:10386400BB8C0133BB84BB8C9B029BB21A46FB68A6
:103874001A6015E03B685B78012B11D17B68B3F8C3
:1038840050309BB21A463B681B78DB00134402336A
:103894005A007B68134403F580631A46BB6A1360BD
:1038A4003B68DB88FB853B685969BB6A9BB2FA8D30
:1038B400786800F0A4FA3B685B78002B14D17A682E
:1038C4003B681B789B0013441B889AB240F60F7325
:1038D400134099B27A683B681B789B001A44924B58
:1038E4000B439BB2138017E03B685B78012B13D129
:1038F4007A683B681B789B0013441B889AB240F695
:103904000F73134099B27A683B681B789B001A4482
:10391400864B0B439BB213807A683B681B789B00F1
:1039240013441B889BB223F4E04323F040039CB26E
:1039340084F010039CB284F020039CB27A683B6844
:103944001B789B001A447A4B23439BB2138022E1D9
:103954003B689A693B681B699A4209D93B681B69B1
:10396400BB623B689A69BB6AD21A3B689A6105E0FC
:103974003B689B69BB623B6800229A613B689B7A07
:10398400002B3BD17B68B3F850309BB21A463B689E
:103994001B78DB00134406335A007B68134403F599
:1039A40080633B61BB6A3E2B16D9BB6A5B097B848F
:1039B400BB6A03F01F03002B02D17B8C013B7B8489
:1039C4007B8C9B029BB26FEA43436FEA53439BB2E7
:1039D4001A463B691A60C3E0BB6A5B087B84BB6A16
:1039E40003F00103002B02D07B8C01337B847B8C9E
:1039F4009B029BB21A463B691A60B1E03B685B7854
:103A0400002B3BD17B68B3F850309BB21A463B681D
:103A14001B78DB00134402335A007B68134403F51C
:103A24008063BB61BB6A3E2B16D9BB6A5B093B84CE
:103A3400BB6A03F01F03002B02D13B8C013B3B8488
:103A44003B8C9B029BB26FEA43436FEA53439BB2A6
:103A54001A46BB691A6027E0BB6A5B083B84BB6AF1
:103A640003F00103002B02D03B8C01333B843B8CDD
:103A74009B029BB21A46BB691A6015E03B685B78EF
:103A8400012B11D17B68B3F850309BB21A463B68C6
:103A94001B78DB00134402335A007B68134403F59C
:103AA40080631A46BB6A13603B685B78002B41D184
:103AB4007B68B3F850309BB21A463B681B78DB0036
:103AC400134406335A007B68134403F580637B6117
:103AD400BB6A3E2B16D9BB6A5B09FB83BB6A03F046
:103AE4001F03002B02D1FB8B013BFB83FB8B9B024F
:103AF4009BB26FEA43436FEA53439BB21A467B6916
:103B04001A602DE0BB6A5B08FB83BB6A03F0010308
:103B1400002B02D0FB8B0133FB83FB8B9B029BB2FC
:103B24001A467B691A601BE0C080FFFF80C0FFFF5C
:103B34008080FFFF3B685B78012B11D17B68B3F871
:103B440050309BB21A463B681B78DB0013440233A7
:103B54005A007B68134403F580631A46BB6A1360FA
:103B64007A683B681B789B0013441B889BB223F440
:103B7400804323F070039CB284F480539CB284F499
:103B840000539CB27A683B681B789B001A44044B30
:103B940023439BB21380002318463437BD4690BD9F
:103BA4008080FFFF90B482B000AF786039603B68DA
:103BB4001B78002B18D17A683B681B789B00134450
:103BC4001B889BB24BF6BF741C4084F4805484F071
:103BD4001004A1B27A683B681B789B001A44204BFE
:103BE4000B439BB2138034E03B685B78002B18D006
:103BF4007A683B681B789B0013441B889BB223F4B0
:103C0400E04323F040039CB284F010039CB27A6832
:103C14003B681B789B001A44114B23439BB21380CF
:103C240017E07A683B681B789B0013441B889BB29F
:103C340023F4804323F070039CB284F480539CB239
:103C44007A683B681B789B001A44054B23439BB25C
:103C54001380002318460837BD4690BC704700BF48
:103C64008080FFFF90B482B000AF786039603B6819
:103C74005B78002B3AD07A683B681B789B0013442E
:103C84001B889BB203F04003002B13D07A683B6877
:103C94001B789B0013441B889AB240F60F731340A1
:103CA40099B27A683B681B789B001A442F4B0B43EC
:103CB4009BB213807A683B681B789B0013441B8873
:103CC4009BB223F4E04323F040039CB284F010033E
:103CD4009CB284F020039CB27A683B681B789B00FA
:103CE4001A44234B23439BB2138039E07A683B6820
:103CF4001B789B0013441B889BB203F48043002B66
:103D040013D07A683B681B789B0013441B889AB2D3
:103D140040F60F73134099B27A683B681B789B0096
:103D24001A44144B0B439BB213807A683B681B788C
:103D34009B0013441B889BB223F4804323F070033D
:103D44009CB284F480539CB284F400539CB27A688D
:103D54003B681B789B001A44054B23439BB213809A
:103D6400002318460837BD4690BC7047C080FFFF4B
:103D74008080FFFF80C0FFFF80B483B000AF786015
:103D84000B46FB70FB78002B03D17B688022A3F8E1
:103D94004C20002318460C37BD4680BC704780B4C5
:103DA40083B000AF7860002318460C37BD4680BC52
:103DB400704780B483B000AF7860002318460C3796
:103DC400BD4680BC704780B485B000AF78600023E6
:103DD400FB607B68B3F844309BB2FB60FB68184619
:103DE4001437BD4680BC704780B483B000AF7860A0
:103DF4003960002318460C37BD4680BC704780B438
:103E04008BB000AFF860B96011461A460B46FB80D0
:103E14001346BB80BB8801335B10FB6100237B62CC
:103E24000023BB6100237B6100233B62FB885B00B2
:103E34001A46FB68134403F580633B62FB697B62AB
:103E44001BE0BB681B78BB61BB680133BB60BB680C
:103E54001B781B021A46BB6913437B613B6A9A1C9D
:103E64003A627A6992B21A803B6A02333B62BB6857
:103E74000133BB607B6A013B7B627B6A002BE0D130
:103E840000BF2C37BD4680BC704780B489B000AFFA
:103E9400F860B96011461A460B46FB801346BB8096
:103EA400BB8801335B107B610023FB610023BB6192
:103EB400FB885B001A46FB68134403F58063BB610F
:103EC4007B69FB610EE0BB691A1DBA611968BB68A6
:103ED4005A1CBA608AB21A80BB680133BB60FB69A2
:103EE400013BFB61FB69002BEDD100BF2437BD46CC
:103EF40080BC704780B584B000AF78600B46FB701F
:103F04000023FB737B681B7C002B0ED14FF40073E2
:103F140002228121786801F00CFD4FF40073022223
:103F24000121786801F005FD0BE040230222812184
:103F3400786801F0FEFC402302220121786801F038
:103F4400F8FC082303228221786801F0F2FC4FF484
:103F5400077001F00FFE02467B68C3F818227B68E5
:103F6400D3F81832002B02D10123FB7326E07B68BF
:103F7400D3F81832BB607B68D3F81C321B689847AF
:103F8400BB680022C3F81422BB680022C3F81822BD
:103F94007B681B7C002B09D1BB68D3F804224FF447
:103FA40000730121786801F0AEFD07E0BB68D3F827
:103FB400042240230121786801F0A5FDFB7B18460B
:103FC4001037BD4680BD80B584B000AF78600B4625
:103FD400FB700023FB738121786801F0D0FC012180
:103FE400786801F0CCFC8221786801F0C8FC7B6819
:103FF400D3F81832002B0ED07B68D3F81C325B68E0
:1040040098477B68D3F81832184601F0BFFD7B68E7
:104014000022C3F81822FB7B18461037BD4680BD2A
:1040240080B584B000AF786039607B68D3F818320B
:10403400FB603B681B7803F06003002B3AD0202B15
:1040440000D043E03B68DB88002B29D03B681B7819
:104054005BB2002B11DA7B68D3F81C329B683A6898
:104064005078F9683A68D2889847F9683B68DB88E1
:104074001A46786801F00EF829E03B685A78FB6824
:1040840083F800223B68DB88DAB2FB6883F80122FC
:10409400F9683B68DB881A46786801F029F816E06D
:1040A4007B68D3F81C329B683A68507800223968E0
:1040B40098470CE03B685B780A2B01D00B2B05E09A
:1040C40001220549786800F0E5FF00BF00BF002326
:1040D40018461037BD4680BD2902002080B485B043
:1040E40000AF78600B46FB707B68D3F81832FB6036
:1040F4007B68D3F81832002B05D0FB680022C3F884
:104104001422002300E0022318461437BD4680BC65
:10411400704780B584B000AF78600B46FB707B6855
:10412400D3F81832FB60FB781946786801F00EFD6D
:104134000246FB68C3F80C227B68D3F81832002BC4
:104144000DD07B68D3F81C32DB68FA68D2F804021D
:10415400FA6802F5037211469847002300E002232F
:1041640018461037BD4680BD80B584B000AF786076
:104174007B68D3F81832FB607B68D3F81C32002BC1
:1041840015D0FB6893F80032FF2B10D07B68D3F86E
:104194001C329B68FA6892F80002F968FA6892F88F
:1041A400012292B29847FB68FF2283F80022002381
:1041B40018461037BD4680BD80B483B000AF786028
:1041C4007B6843221A80034B18460C37BD4680BCDB
:1041D400704700BFB400002080B483B000AF7860A3
:1041E4007B6843221A80034B18460C37BD4680BCBB
:1041F400704700BF7000002080B483B000AF7860C7
:104204007B6843221A80034B18460C37BD4680BC9A
:10421400704700BFF800002080B483B000AF78601E
:104224007B680A221A80034B18460C37BD4680BCB3
:10423400704700BF2C00002080B485B000AF7860C8
:1042440039600223FB733B68002B05D07B683A6816
:10425400C3F81C220023FB73FB7B18461437BD46AE
:1042640080BC704780B487B000AFF860B960134673
:10427400FB80FB68D3F818327B617B69BA68C3F8AA
:104284000822FA887B69C3F81022002318461C37D9
:10429400BD4680BC704780B485B000AF786039609B
:1042A4007B68D3F81832FB60FB683A68C3F80422D1
:1042B400002318461437BD4680BC704780B584B0CF
:1042C40000AF78607B68D3F81832FB607B68D3F862
:1042D4001832002B17D0FB68D3F81432002B10D1FE
:1042E400FB680122C3F81422FB68D3F80822FB6898
:1042F400D3F810329BB28121786801F0E1FB0023EE
:1043040002E0012300E0022318461037BD4680BDB9
:1043140080B584B000AF78607B68D3F81832FB6056
:104324007B68D3F81832002B17D07B681B7C002BDA
:1043340009D1FB68D3F804224FF400730121786893
:1043440001F0E1FB07E0FB68D3F8042240230121DC
:10435400786801F0D8FB002300E0022318461037E8
:10436400BD4680BD80B584B000AFF860B960134627
:10437400FB71FB68002B01D102231AE0FB68D3F820
:104384001432002B03D0FB680022C3F81422BB684C
:10439400002B03D0FB68BA68C3F81022FB68012223
:1043A40083F8FC21FB68FA791A70F86801F04CFA7A
:1043B400002318461037BD4680BD80B485B000AFD9
:1043C400786039600023FB733B68002B06D07B6860
:1043D4003A68C3F814220023FB7301E00223FB7341
:1043E400FB7B18461437BD4680BC704780B582B04D
:1043F40000AF7860786801F081FA00231846083726
:10440400BD4680BD80B483B000AF786000231846F9
:104414000C37BD4680BC704780B584B000AF78606F
:104424000B46FB700223FB737B68D3F81432002B1A
:104434000CD07B68D3F814321B68FA78114678687C
:1044440098470346002B01D10023FB73FB7B1846DE
:104454001037BD4680BD80B582B000AF78600B4692
:10446400FB707B68D3F814325B68FA78114678687D
:104474009847002318460837BD4680BD80B582B0F2
:1044840000AF786039607B6803F5027339681846B9
:1044940000F059FD7B680122C3F8F4217B68B3F86E
:1044A4000E321A467B68C3F8F8217B6893F8083209
:1044B40003F01F03012B0BD0022B11D0002B17D1BB
:1044C4007B6803F502731946786800F087F91AE0EF
:1044D4007B6803F502731946786800F0CFF912E09F
:1044E4007B6803F502731946786800F0FAF90AE06C
:1044F4007B6893F8083223F07F03DBB219467868AF
:1045040001F05CFA00BF002318460837BD4680BDA1
:1045140080B586B000AFF8600B467A60FB72FB7A18
:10452400002B38D1FB6803F582737B61FB68D3F8F9
:10453400F431032B42D17B699A687B69DB689A4228
:1045440014D97B699A687B69DB68D21A7B699A60A3
:104554007B69DA687B699B68934228BF13469BB2E8
:104564001A467968F86800F0E1FD27E0FB68D3F8A3
:1045740014321B69002B0AD0FB6893F8FC31032B1F
:1045840005D1FB68D3F814321B69F8689847F868BA
:1045940000F0DEFD12E0FB68D3F814329B69002BB7
:1045A4000CD0FB6893F8FC31032B07D1FB68D3F8DC
:1045B40014329B69FA7A1146F86898470023184622
:1045C4001837BD4680BD80B586B000AFF8600B4695
:1045D4007A60FB72FB7A002B6CD1FB6814337B612D
:1045E400FB68D3F8F431022B57D17B699A687B6955
:1045F400DB689A4215D97B699A687B69DB68D21AB1
:104604007B699A607B699B689BB21A467968F868F3
:1046140000F05CFD002300220021F86801F073FA29
:104624003BE07B695B687A69D268B3FBF2F102FB19
:1046340001F29B1A002B1CD17B695A687B69DB68E9
:104644009A4216D37B695A68FB68D3F8F8319A42C8
:104654000FD200220021F86800F038FDFB68002228
:10466400C3F8F821002300220021F86801F04BFA76
:1046740013E0FB68D3F81432DB68002B0AD0FB6824
:1046840093F8FC31032B05D1FB68D3F81432DB68B3
:10469400F8689847F86800F06EFDFB6893F80032FC
:1046A400012B1AD1F868FFF7ADFEFB68002283F8EE
:1046B400002212E0FB68D3F814325B69002B0CD0A3
:1046C400FB6893F8FC31032B07D1FB68D3F8143251
:1046D4005B69FA7A1146F868984700231846183738
:1046E400BD4680BD80B582B000AF78604023002213
:1046F4000021786801F01DF97B684022C3F810217D
:10470400402300228021786801F013F97B6840225D
:104714001A627B68012283F8FC217B68D3F8183283
:10472400002B09D07B68D3F814325B687A6852682E
:10473400D2B2114678689847002318460837BD4618
:1047440080BD80B483B000AF78600B46FB707B689B
:10475400FA781A74002318460C37BD4680BC70479B
:1047640080B483B000AF78607B6893F8FC217B68E9
:1047740083F8FD217B68042283F8FC21002318467A
:104784000C37BD4680BC704780B483B000AF7860FE
:104794007B6893F8FD217B6883F8FC21002318468D
:1047A4000C37BD4680BC704780B582B000AF7860DE
:1047B4007B6893F8FC31032B0BD17B68D3F814325C
:1047C400DB69002B05D07B68D3F81432DB69786889
:1047D4009847002318460837BD4680BD80B584B08D
:1047E40000AF786039600023FB733B685B78092B6A
:1047F40039D801A252F823F04D4800086148000856
:104804006B480008574800086B4800082F48000808
:10481400254800086B480008434800083948000848
:104824003968786800F036F922E03968786800F071
:1048340025FA1DE03968786800F05EFA18E03968F6
:10484400786800F0E1FA13E03968786800F00EFB4C
:104854000EE03968786800F033FB09E0396878685D
:1048640000F049FB04E03968786800F0A8FB00BF59
:10487400FB7B18461037BD4680BD00BF80B584B0B1
:1048840000AF786039600023FB737B6893F8FC31D8
:10489400032B1BD13B689B88DBB2012B11D87B68AF
:1048A400D3F814329B683968786898473B68DB888A
:1048B400002B10D1FB7B002B0DD1786800F048FC55
:1048C40009E03968786800F07AFB04E039687868B0
:1048D40000F075FB00E000BF002318461037BD460A
:1048E40080BD80B584B000AF786039600023FB736D
:1048F4003B689B88BB733B681B7803F06003202BE9
:1049040008D17B68D3F814329B6839687868984773
:104914000023BAE03B685B78012B39D0032B02D02B
:10492400002B6BD0B0E07B6893F8FC31022B02D0F3
:10493400032B0CD025E0BB7B002B27D0BB7B802B2B
:1049440024D0BB7B1946786801F038F81EE03B6838
:104954005B88002B0AD1BB7B002B07D0BB7B802B51
:1049640004D0BB7B1946786801F028F87B68D3F83B
:1049740014329B68396878689847786800F0E8FBD7
:1049840005E03968786800F01AFB00E000BF7BE0BE
:104994007B6893F8FC31022B02D0032B0CD024E06B
:1049A400BB7B002B26D0BB7B802B23D0BB7B194643
:1049B400786801F003F81DE03B685B88002B1BD18D
:1049C400BB7B03F07F03002B0BD0BB7B19467868BD
:1049D40001F013F87B68D3F814329B68396878685F
:1049E4009847786800F0B4FB06E03968786800F00E
:1049F400E6FA02E000BF47E000BF45E07B6893F8B9
:104A0400FC31022B02D0032B0BD036E0BB7B03F02E
:104A14007F03002B36D0BB7B1946786800F0CEFFAD
:104A240030E097F90E30002B08DABB7B03F07F03EC
:104A340001331B017A681344043307E0BB7B03F0A2
:104A44007F0310331B017A6813440433BB60BB7BC0
:104A54001946786800F0F0FF0346002B03D0BB68CA
:104A640001221A6002E0BB6800221A60BB680222BD
:104A74001946786800F00EFB05E03968786800F0A4
:104A84009EFA00E000BF00BFFB7B18461037BD460E
:104A940080BD000080B584B000AF786039603B68A9
:104AA4005B881B0A9BB2013B062B00F2C98001A262
:104AB40052F823F0D54A0008ED4A00082D4B0008AF
:104AC400454C0008454C0008F14B0008174C000801
:104AD4007B68D3F810321B687A68127C07F10A01EC
:104AE40010469847F860B0E07B681B7C002B0DD122
:104AF4007B68D3F814329B6A07F10A021046984780
:104B0400F860FB68013302221A709EE07B68D3F8D8
:104B14001432DB6A07F10A0210469847F860FB6812
:104B2400013302221A7090E03B685B88DBB2052BEC
:104B340056D801A252F823F0554B00086D4B0008DB
:104B4400854B00089D4B0008B54B0008CD4B000871
:104B54007B68D3F810325B687A68127C07F10A012B
:104B640010469847F86040E07B68D3F810329B68A1
:104B74007A68127C07F10A0110469847F86034E01D
:104B84007B68D3F81032DB687A68127C07F10A017B
:104B940010469847F86028E07B68D3F810321B6908
:104BA4007A68127C07F10A0110469847F8601CE005
:104BB4007B68D3F810325B697A68127C07F10A01CA
:104BC40010469847F86010E07B68D3F810329B6970
:104BD4007A68127C07F10A0110469847F86004E0ED
:104BE4003968786800F0EBF944E02EE07B681B7CC0
:104BF400002B09D17B68D3F814325B6B07F10A02EE
:104C040010469847F86020E03968786800F0D7F9D2
:104C140030E07B681B7C002B0DD17B68D3F8143209
:104C24001B6B07F10A0210469847F860FB680133D2
:104C340007221A7009E03968786800F0C0F919E0B1
:104C44003968786800F0BBF914E07B89002B11D037
:104C54003B68DB88002B0DD03B68DA887B89934264
:104C640028BF13469BB27B817B891A46F968786812
:104C740000F010FA1037BD4680BD00BF80B584B087
:104C840000AF786039603B689B88002B2CD13B686F
:104C9400DB88002B28D13B685B88DBB203F07F0301
:104CA400FB737B6893F8FC31032B04D13968786873
:104CB40000F085F91CE07B68FA7B83F8FE21FB7B1E
:104CC4001946786800F0DDFE786800F041FAFB7B55
:104CD400002B04D07B68022283F8FC2108E07B6867
:104CE400012283F8FC2103E03968786800F067F951
:104CF40000BF1037BD4680BD80B582B000AF78607C
:104D040039603B685B88DAB23E4B1A703D4B1B78C6
:104D1400012B04D93968786800F051F96FE07B6899
:104D240093F8FC31022B02D0032B23D062E0354BE5
:104D34001B78002B1AD0334B1B781A467B685A60B9
:104D44007B68032283F8FC212E4B1B781946786874
:104D5400FFF762FB0346022B04D13968786800F040
:104D64002EF94CE0786800F0F3F948E0786800F038
:104D7400EFF944E0234B1B78002B12D17B6802220D
:104D840083F8FC211F4B1B781A467B685A601D4B25
:104D94001B7819467868FFF75EFB786800F0D8F94D
:104DA4002DE0184B1B781A467B685B689A421DD02D
:104DB4007B685B68DBB219467868FFF74CFB114BE4
:104DC4001B781A467B685A600E4B1B781946786824
:104DD400FFF722FB0346022B04D13968786800F000
:104DE400EEF80CE0786800F0B3F908E0786800F0B9
:104DF400AFF904E03968786800F0E1F800BF0837DB
:104E0400BD4680BD2A02002080B582B000AF786024
:104E140039603B68DB88012B04D03968786800F07E
:104E2400CEF81FE07B6893F8FC31022B02D0032BF1
:104E34000BD012E07B6800229A607B680833012261
:104E44001946786800F026F90CE07B6804330122E7
:104E54001946786800F01EF904E03968786800F0B3
:104E6400AEF800BF00BF0837BD4680BD80B582B034
:104E740000AF786039607B6893F8FC31023B012B0A
:104E840015D87B680122DA607B68D3F80432002BE2
:104E940005D07B68DB6843F002027B68DA607B68DC
:104EA4000C3302221946786800F0F4F804E03968FB
:104EB400786800F084F800BF00BF0837BD4680BDA5
:104EC40080B582B000AF786039603B685B88012BA5
:104ED4000DD17B680122C3F804227B68D3F8143215
:104EE4009B68396878689847786800F031F900BFA2
:104EF4000837BD4680BD80B582B000AF78603960A8
:104F04007B6893F8FC31023B012B12D83B685B8829
:104F1400012B13D17B680022C3F804227B68D3F8E9
:104F240014329B68396878689847786800F010F9FB
:104F340004E03968786800F042F800E000BF00BF80
:104F44000837BD4680BD80B483B000AF7860396057
:104F54003B681A787B681A703B685A787B685A7089
:104F64003B6802331B789AB23B6803331B789BB2CD
:104F74001B029BB213449AB27B685A803B68043389
:104F84001B789AB23B6805331B789BB21B029BB219
:104F940013449AB27B689A803B6806331B789AB2B2
:104FA4003B6807331B789BB21B029BB213449AB233
:104FB4007B68DA8000BF0C37BD4680BC704780B583
:104FC40082B000AF786039608021786800F0F6FC28
:104FD4000021786800F0F2FC00BF0837BD4680BDB0
:104FE40080B586B000AFF860B9607A600023FB75C5
:104FF400FB68002B33D0F86800F035F80346013322
:105004009BB25B009AB27B681A807B681A88FB7D2E
:10501400591CF9751946BB680B44D2B21A70FB7D52
:105024005A1CFA751A46BB68134403221A7012E01C
:10503400FB685A1CFA60FA7D511CF9751146BA686E
:105044000A441B781370FB7D5A1CFA751A46BB6818
:10505400134400221A70FB681B78002BE8D100BFB0
:105064001837BD4680BD80B485B000AF786000239A
:10507400FB7305E0FB7B0133FB737B6801337B60CF
:105084007B681B78002BF5D1FB7B18461437BD4693
:1050940080BC704780B584B000AFF860B960134637
:1050A400FB80FB680222C3F8F421FA88FB689A614A
:1050B400FA88FB68DA61FB88BA680021F86800F0B6
:1050C400FFFC002318461037BD4680BD80B584B070
:1050D40000AFF860B9601346FB80FB88BA68002112
:1050E400F86800F0EDFC002318461037BD4680BD7B
:1050F40080B584B000AFF860B9601346FB80FB68EC
:105104000322C3F8F421FA88FB68C3F80821FA885B
:10511400FB68C3F80C21FB88BA680021F86800F02A
:10512400F2FC002318461037BD4680BD80B584B01C
:1051340000AFF860B9601346FB80FB88BA680021B1
:10514400F86800F0E0FC002318461037BD4680BD27
:1051540080B582B000AF78607B680422C3F8F42184
:10516400002300220021786800F0AAFC00231846DE
:105174000837BD4680BD80B582B000AF78607B68DB
:105184000522C3F8F421002300220021786800F0EE
:10519400BAFC002318460837BD4680BD80B500AF71
:1051A400002212491248FFF7DDF80346002B01D014
:1051B400FBF73AF90F490E48FFF7FFF80346002BB7
:1051C40001D0FBF731F90C490948FFF735F80346DC
:1051D400002B01D0FBF728F90548FFF707F9034630
:1051E400002B01D0FBF720F900BF80BD5001002047
:1051F40074040020380000204001002080B483B0F3
:1052040000AF094B1A68094B1B68D31A084A126885
:10521400B3FBF2F102FB01F29B1A7B607B68184638
:105224000C37BD4680BC70472C02002030020020A1
:105234003C01002080B483B000AF0E4B1B680E4AC3
:10524400D35CFB710B4B1A680C4B1B689A420BD056
:10525400084B1B6801330A4A1268B3FBF2F102FBE4
:1052640001F29B1A034A1360FB7918460C37BD46BA
:1052740080BC704730020020680E00202C02002001
:105284003C01002080B485B000AF0346FB710E4B97
:105294001B680E49FA79CA540B4B1B6801330C4A3C
:1052A4001268B3FBF2F102FB01F29B1AFB60094B9B
:1052B4001B68FA689A4202D0034AFB68136000BF75
:1052C4001437BD4680BC70472C020020680E0020B5
:1052D4003C0100203002002080B584B000AF78602B
:1052E4003960FAF7F8FFF8603B689BB219467868B2
:1052F40000F0BAF80346FB72FB7A002B01D13B683D
:105304000EE0FB7A022B01D1002309E0FAF7E3FF58
:105314000246FB68D31A632B00D8E5E700BF0023DD
:1053240018461037BD4680BD80B500AF0022054940
:105334000548FEF797FF05490348FEF7ACFF002335
:10534400184680BD800A00207404002098060020BE
:1053540080B400AF00231846BD4680BC70470000EF
:1053640080B483B000AF03463960FB711346BB8041
:10537400FB79232B4AD801A252F823F011540008D8
:105384001154000811540008115400081154000865
:105394001154000811540008115400081154000855
:1053A4001154000811540008115400081154000845
:1053B4001154000811540008115400081154000835
:1053C4001154000811540008115400081154000825
:1053D4001154000811540008115400081154000815
:1053E4001154000811540008115400081154000805
:1053F40011540008115400081154000811540008F5
:1054040011540008115400081154000800BF00236F
:1054140018460C37BD4680BC704700BF80B584B0C9
:1054240000AF7860396079680E48FEF734FF0D48A4
:10543400FEF76EFF0023FB6009E0FB687A68134403
:105444001B781846FFF71EFFFB680133FB603B68BF
:105454001A68FB689A42F0D8002318461037BD46F4
:1054640080BD00BF7404002080B584B000AF7860B4
:105474000B467B800023FB730D4BD3F81832BB60C3
:10548400BB68D3F81432002B01D001230BE07B88D6
:105494001A4679680648FEF7E5FE0548FEF70EFF52
:1054A4000346FB73FB7B18461037BD4680BD00BF27
:1054B4007404002080B483B000AF03463960FB71EC
:1054C4003B6812221A80034B18460C37BD4680BC39
:1054D400704700BF6C01002080B483B000AF034666
:1054E4003960FB713B6804221A80034B18460C3761
:1054F400BD4680BC704700BF8001002080B582B0EB
:1055040000AF03463960FB71FB79002B05D13A6883
:1055140007490848FFF764FD04E03A680449054870
:10552400FFF75EFD024B18460837BD4680BD00BF3D
:10553400681000204C65000880B582B000AF0346B7
:105544003960FB713A6804490448FFF749FD024B8E
:1055540018460837BD4680BD681000206465000801
:1055640080B582B000AF03463960FB713B681A22F4
:105574001A8000F043F8024B18460837BD4680BD38
:105584008401002080B582B000AF03463960FB710E
:10559400FB79002B05D13A6807490848FFF720FD3D
:1055A40004E03A6804490548FFF71AFD024B18461F
:1055B4000837BD4680BD00BF68100020786500082C
:1055C40080B582B000AF03463960FB71FB79002BD4
:1055D40005D13A6807490848FFF702FD04E03A6834
:1055E40004490548FFF7FCFC024B18460837BD4642
:1055F40080BD00BF681000208465000880B584B0B9
:1056040000AF0F4B1B68FB600E4B1B68BB600E4B5F
:105614001B687B60FA687B681344FB60FB68002BA3
:1056240009D008220949F86800F014F8042208494E
:10563400B86800F00FF800BF1037BD4680BD00BF4A
:10564400E8F7FF1FECF7FF1FF0F7FF1F86010020AC
:105654009601002080B487B000AFF860B9601346AB
:10566400FB710023FB750023FB7527E0FB681B0F10
:10567400092B0BD8FB681B0FDAB2FB7D5B001946C4
:10568400BB680B443032D2B21A700AE0FB681B0FBD
:10569400DAB2FB7D5B001946BB680B443732D2B2E9
:1056A4001A70FB681B01FB60FB7D5B000133BA6869
:1056B400134400221A70FB7D0133FB75FA7DFB79DC
:1056C4009A42D3D300BF1C37BD4680BC704700004C
:1056D40080B584B000AF78607B681B680D4A934244
:1056E40013D10D4BDB690C4A43F40003D3610A4B1D
:1056F400DB6903F40003FB60FB6800220021142033
:10570400FBF7E9FA1420FBF702FB00BF1037BD4694
:1057140080BD00BF005C00400010024080B582B034
:1057240000AF78607B68D3F85C247B6803F22C4379
:1057340019461046FEF7A2FE00BF0837BD4680BDDD
:1057440080B582B000AF78600B46FB707B68D3F8FD
:105754005C04FB787A685B01134403F50F731A68E1
:10576400FB781946FEF7D4FE00BF0837BD4680BD5E
:1057740080B582B000AF78600B46FB707B68D3F8CD
:105784005C04FB787A685B0113443C331A68FB7849
:105794001946FEF718FF00BF0837BD4680BD80B527
:1057A40082B000AF78607B68D3F85C341846FEF7AB
:1057B400FBFF00BF0837BD4680BD80B584B000AF95
:1057C40078600123FB737B689B68022B01D0FAF796
:1057D4002BFE7B68D3F85C34FA7B11461846FEF73F
:1057E400B0FF7B68D3F85C341846FEF77BFF00BF3C
:1057F4001037BD4680BD000080B582B000AF786030
:105804007B68D3F85C341846FEF7AAFF7B689B6973
:10581400002B05D0044B1B69034A43F006031361B4
:1058240000BF0837BD4680BD00ED00E080B582B002
:1058340000AF78607B68D3F85C341846FEF7A4FFA9
:1058440000BF0837BD4680BD80B582B000AF786028
:10585400284A7B68C2F85C347B68264AC3F8202255
:10586400244B254A1A60234B08225A60214B0222FA
:105874009A60204B00229A611E4B0022DA611D4B74
:1058840000221A621B48FBF7F4FB0346002B01D0ED
:10589400FAF7CAFD7B68D3F82002182300220021FE
:1058A400FCF7FCFA7B68D3F82002582300228021FD
:1058B400FCF7F4FA7B68D3F82002C023002281218C
:1058C400FCF7ECFA7B68D3F820024FF488730022CB
:1058D4000121FCF7E3FA7B68D3F820024FF48073CC
:1058E40000228221FCF7DAFA002318460837BD4665
:1058F40080BD00BF68120020005C004080B584B009
:1059040000AF78600023FB730023BB737B68D3F87C
:1059140020321846FBF787FC0346FB73FB7B1846D3
:1059240000F048F90346BB73BB7B18461037BD46ED
:1059340080BD80B584B000AF7860084611461A4631
:105944000346FB700B46BB7013463B800023FB737E
:105954000023BB737B68D3F82002BB783A88F978BC
:10596400FBF7AEFD0346FB73FB7B184600F022F900
:105974000346BB73BB7B18461037BD4680BD80B55C
:1059840084B000AF78600B46FB700023FB730023E8
:10599400BB737B68D3F82032FA7811461846FBF7BC
:1059A400E4FD0346FB73FB7B184600F003F9034652
:1059B400BB73BB7B18461037BD4680BD80B584B031
:1059C40000AF78600B46FB700023FB730023BB73AE
:1059D4007B68D3F82032FA7811461846FBF797FE15
:1059E4000346FB73FB7B184600F0E4F80346BB73E5
:1059F400BB7B18461037BD4680BD80B584B000AF70
:105A040078600B46FB700023FB730023BB737B6839
:105A1400D3F82032FA7811461846FBF7CDFE034638
:105A2400FB73FB7B184600F0C5F80346BB73BB7BD6
:105A340018461037BD4680BD80B485B000AF78608D
:105A44000B46FB707B68D3F82032FB6097F9033078
:105A5400002B08DAFB7803F07F03FA685B01134438
:105A64002A331B7808E0FB7803F07F03FA685B01B4
:105A7400134403F22A231B7818461437BD4680BC0E
:105A8400704780B584B000AF78600B46FB7000238C
:105A9400FB730023BB737B68D3F82032FA7811467A
:105AA4001846FBF7E8FC0346FB73FB7B184600F043
:105AB40081F80346BB73BB7B18461037BD4680BDD7
:105AC40080B586B000AFF8607A601A460B46FB7268
